:04000000C8EF22F033
:08000800046ED8CF05F0E0CF33
:1000100006F00001E9CF0CF0EACF07F0E1CF08F0DD
:10002000E2CF09F0D9CF0AF0DACF0BF0F3CF12F01C
:10003000F4CF13F0FACF14F0FBCF15F000C00EF0A0
:1000400001C00FF002C010F003C011F09DA02CEF12
:1000500000F09EB032EF09F00EC000F00FC001F0CA
:1000600010C002F011C003F00CC0E9FF07C0EAFFA6
:10007000078E08C0E1FF09C0E2FF0AC0D9FF0BC02C
:10008000DAFF12C0F3FF13C0F4FF14C0FAFF15C06B
:10009000FBFF045006C0E0FF05C0D8FF1000F2CF00
:1000A0000DF0F29EF76ABC0FF66E000EF722000EFE
:1000B000F86E0900F5500DBEF28E1200000000002F
:1000C0000000005F00000003000300143E143E1413
:1000D000242A7F2A1243330866613649552250008C
:1000E00005030000001C2241000041221C001408EE
:1000F0003E081408083E08080050300000080808B0
:100100000808006060000020100804023E514945C4
:100110003E0004027F00426151494622414949366E
:100120001814127F1027454545393E494949320187
:10013000017109073649494936264949493E003681
:100140003600000056360000081422410014141432
:100150001414004122140802015109063E41595568
:100160005E7E0909097E7F494949363E4141412267
:100170007F4141413E7F494949417F090909013E8B
:100180004141493A7F0808087F00417F41003040E3
:1001900040403F7F081422417F404040407F020C96
:1001A000027F7F0204087F3E4141413E7F090909E9
:1001B000061E2121215E7F0909097600F2CF0DF08C
:1001C000F29EF76ADA0FF66E010EF722000EF86E55
:1001D0000900F5500DBEF28E120026494949320140
:1001E000017F01013F4040403F1F2040201F7F20F2
:1001F00010207F41221C22410708700807615149E5
:100200004543007F41000002040810200000417FA8
:10021000000402010204404040404000010204008A
:1002200020545454787F4444443838444444443837
:100230004444447F385454541804047E050508543B
:1002400054543C7F0804047800447D40002040441E
:100250003D007F1028440000417F40007C0478046A
:10026000787C0804047838444444387C1414140816
:10027000081414147C007C080404485454542004CA
:10028000043F44443C4040207C1C2040201C3C4017
:1002900030403C44281028440C5050503C44645496
:1002A0004C44000836414100007F000041413608BF
:1002B000000201020402F2CF0DF0F29ED20FF66EA0
:1002C000020EF722000EF86E0900F5500DBEF28EF8
:1002D000120000000000000000000000000000000C
:1002E000000000000000000000000000000000000E
:1002F00000000000000000000000000000000000FE
:1003000000000000000000000000000000000000ED
:1003100000000000000000000000000000000000DD
:1003200000000000000000000000000000000000CD
:1003300000000000000000000000000000000000BD
:1003400000000000000000000000000000000000AD
:10035000000000000000000000000000000000009D
:10036000000000000000000000000000000000008D
:10037000000000000000000000000000000000007D
:10038000000000000000000000000000000000006D
:10039000000000000000000000000000000000005D
:1003A000000000000000000000000000000000004D
:1003B000000000000000000000000000000000003D
:1003C0000000000000000000000000000000000825
:1003D0000080000000000000000000000000000499
:1003E000010000000000000000000000000000020A
:1003F00002000000000000000000000000000000FB
:100400007800000000000000000000000000000074
:100410008400000000000000000000000000000157
:10042000020000000000000000000000000000F9D1
:1004300002F80000000000000000000000000001C1
:1004400002000000000000000000000000000001A9
:100450000200000000000000000000000000000496
:100460008480000000000000000000000000000880
:1004700078400000000000000000000000000010B4
:1004800048200000000000000000000000000020E4
:100490004810000000000000000000000000000004
:1004A00078000000000000000000000000000000D4
:1004B000000000000000000000000000000000003C
:1004C000000000000000000000000000000000002C
:1004D000000000000000000000000000000000001C
:1004E000000000000000000000000000000000000C
:1006D0000000F2CF0DF0F29EEE0FF66E060EF7223E
:1006E000000EF86E0900F5500DBEF28E12000000EB
:1006F00000000000000000000000000000000000FA
:1007000000000000000000000000000000000000E9
:1007100000000000000000000000000000000000D9
:1007200000000000000000000000000000000000C9
:1007300000000000000000000000000000000000B9
:1007400000000000000000000000000000000000A9
:100750000000000000000000000000000000000099
:100760000000000000000000000000000000000089
:100770000000000000000000000000000000000079
:100780000000000000000000000000000000000069
:100790000000000000000000000000000000000059
:1007A0000000000000000000000000000000000049
:1007B0000000000000000000000000000000000039
:1007C0000000000000000000000000000000000029
:1007D0000000000000000000000000000000000019
:1007E0000000000000000000000000000000000009
:1007F00000000000000000000000000000000000F9
:1008000000000000000000000000000000000000E8
:1008100000000000000000000000000000000000D8
:1008200000000000000000000000000000000000C8
:1008300000000000000000000000000000000000B8
:1008400000000000000000000000000000000000A8
:100850000000000000000000000000000000000098
:100860000000000000000000000000000000000088
:100870000000000000000000000000000000000078
:100880000000000000000000000000000000000068
:100890000000000000000000000000000000000058
:1008A0000000000000000000000000000000000048
:1008B0000000000000000000000000000000000038
:1008C0000000000000000000000000000000000028
:1008D00000000000000000000000007FFFF80000A2
:1008E00000000000000000000000004000080000C0
:1008F0000000000000000000000000470388000026
:100900000000000000000000000000450288000018
:100910000000000000000000000000450288000008
:1009200000000000000000000000004502880000F8
:1009300000000000000000000000004502880000E8
:1009400000000000000000000000004703880000D5
:10095000000000000000000000000040000800004F
:10096000000000000000000000000040FC08000043
:1009700000000000000000000000004084080000AB
:10098000000000000000000000000040840800009B
:10099000000000000000000000000040FC08000013
:1009A00000000000000000000000004000080000FF
:1009B00000000000000000000000007FFFF80000C1
:1009C0000000000000000000000000000000000027
:1009D0000000000000000000000000000000000017
:1009E0000000000000000000000000000000000007
:1009F00000000000000000000000000000000000F7
:100A000000000000000000000000000000000000E6
:100A100000000000000000000000000000000000D6
:100A200000000000000000000000000000000000C6
:100A300000000000000000000000000000000000B6
:100A400000000000000000000000000000000000A6
:100A50000000000000000000000000000000000096
:100A60000000000000000000000000000000000086
:100A70000000000000000000000000000000000076
:100A80000000000000000000000000000000000066
:100A90000000000000000000000000000000000056
:100AA0000000000000000000000000000000000046
:100AB0000000000000000000000000000000000036
:100AC0000000000000000000000000000000000026
:100AD0000000000000000000000000000000000016
:100AE0000000000000000000000000000000F2CF45
:100AF0000DF0F29E0A0FF66E0B0EF722000EF86E46
:100B00000900F5500DBEF28E12000000000000003A
:100B100000000000000000000000000000000000D5
:100B200000000000000000000000000000000000C5
:100B300000000000000000000000000000000000B5
:100B400000000000000000000000000000000000A5
:100DF0000000000000000000600000000000000093
:100E00000000000000000000F000000000000000F2
:100E10000000000000000001F800000000000000D9
:100E20000000000000000001F800000000000000C9
:100E30000000000000000001F800000000000000B9
:100E40000000000000000000F000000000000000B2
:100E5000000000000000003871C000000000000029
:100E6000000000000000007C93E000000000000093
:100E700000000000000000FF0FF000000000000074
:100E800000000000000000FF0FF000000000000064
:100E9000000000000000007D93E000000000000062
:100EA000000000000000003861C0000000000000E9
:100EB0000000000000000000F00000000000000042
:100EC0000000000000000001F80000000000000029
:100ED0000000000000000001F80000000000000019
:100EE0000000000000000001F80000000000000009
:100EF0000000000000000000F00000000000000002
:100F000000000000000000006000F2CF0DF0F29E33
:100F1000F76A280FF66E0F0EF722000EF86E090022
:100F2000F5500DBEF28E1200436C61766500F2CF73
:100F30000DF0F29EF76A4C0FF66E0F0EF722000EC0
:100F4000F86E0900F5500DBEF28E1200436F7272FA
:100F5000656374610000F2CF0DF0F29EF76A740FC2
:100F6000F66E0F0EF722000EF86E0900F5500DBE5A
:100F7000F28E1200496E636F7272656374610000D5
:100F8000F2CF0DF0F29EF76A9E0FF66E0F0EF7226B
:100F9000000EF86E0900F5500DBEF28E12004D6580
:100FA0006E750000F2CF0DF0F29EF76AC20FF66E7A
:100FB0000F0EF722000EF86E0900F5500DBEF28EEE
:100FC0001200416A757374657300F2CF0DF0F29EE2
:100FD000F76AE80FF66E0F0EF722000EF86E0900A2
:100FE000F5500DBEF28E120043616D62696F206490
:100FF0006520436C61766500F2CF0DF0F29EF76AD2
:10100000160FF66E100EF722000EF86E0900F5505E
:101010000DBEF28E12004D6F646F0000F2CF0DF026
:10102000F29EF76A3A0FF66E100EF722000EF86E77
:101030000900F5500DBEF28E12005469656D706F97
:101040002050757267610000F2CF0DF0F29EF76AD2
:10105000660FF66E100EF722000EF86E0900F550BE
:101060000DBEF28E120054656D706F205556000053
:10107000F2CF0DF0F29EF76A8E0FF66E100EF72289
:10108000000EF86E0900F5500DBEF28E12004D6193
:101090006E74656E696D69656E746F00F2CF0DF0E8
:1010A000F29EF76ABA0FF66E100EF722000EF86E77
:1010B0000900F5500DBEF28E120053657276696319
:1010C000696F0000F2CF0DF0F29EF76AE20FF66E44
:1010D000100EF722000EF86E0900F5500DBEF28ECC
:1010E0001200542E2050757267610000F2CF0DF08F
:1010F000F29EF76A0A0FF66E110EF722000EF86ED6
:101100000900F5500DBEF28E1200542E20555600E7
:10111000F2CF0DF0F29EF76A2E0FF66E110EF72247
:10112000000EF86E0900F5500DBEF28E1200436CF1
:10113000617665204E7565766100F2CF0DF0F29E06
:10114000F76A580FF66E110EF722000EF86E0900BE
:10115000F5500DBEF28E12004D616E74656E6965BC
:101160006E746F00F2CF0DF0F29EF76A820FF66E8A
:10117000110EF722000EF86E0900F5500DBEF28E2A
:10118000120054726162616A6F2046696C74726FFA
:101190002868293A0000F2CF0DF0F29EF76AB40FEA
:1011A000F66E110EF722000EF86E0900F5500DBE16
:1011B000F28E120054726162616A6F204C757A205F
:1011C00055562868293A0000F2CF0DF0F29EF76AD2
:1011D000E60FF66E110EF722000EF86E0900F550BC
:1011E0000DBEF28E120053656E736F72206465201F
:1011F00050726573696F6E00F2CF0DF0F29EF76A60
:10120000160FF66E120EF722000EF86E0900F5505A
:101210000DBEF28E120020204170616761723F00A6
:10122000F2CF0DF0F29EF76A3E0FF66E120EF72225
:10123000000EF86E0900F5500DBEF28E12005349F3
:101240000000F2CF0DF0F29EF76A600FF66E120EFC
:10125000F722000EF86E0900F5500DBEF28E120056
:101260004E4F00009E0ECF6E580ECE6E0401172B0F
:10127000D8B4182B1CA903D0F72BD8B4F82BF851ED
:101280000A0806E2FF0A03E1F751B70801E21C87EA
:10129000185304E11751C708D8B07BD0186B176BEF
:1012A0001A8FDE2B1C8FE22BEC51050809E11DB3D0
:1012B00004D08B8494941D8303D08B9494941D93B9
:1012C0001CA51ED00501072B07BF05D00751090833
:1012D00002E2076B082B08BF05D00851050802E29F
:1012E000086B092B09BF05D00951090802E2096BF7
:1012F0000A2B0ABF04D00A51050801E20A6B040157
:101300001CA121D0F92BD8B4FA2B0501132B13BF44
:1013100005D01351090802E2136B142B14BF05D03A
:101320001451050802E2146B152B15BF05D0155199
:10133000090802E2156B162B16BF04D016510508DA
:1013400001E2166B04011BA303D0FB2BD8B4FC2BCA
:101350001BAF1FD0FF2BFFBF06D0FF51090803E2D0
:10136000FF6B0501002B050100BF05D000510508EA
:1013700002E2006B012B01BF05D00151090802E216
:10138000016B022B02BF04D00251050801E2026B7F
:1013900004019E9000012CEF00F0060EEA6E4A0E4A
:1013A000E96EEF500DE0060E016E006A002EFED7CA
:1013B000012EFBD77B0E006E002EFED7EF2EF3D74B
:1013C000000C8E0E006E47C601F046C602F0036A9E
:1013D000015209E102C001F0026A080E005E0152EA
:1013E00002E1006A08D0D89001BE04D0023601366E
:1013F0000006F9D7019E000C06014651D8B4A5D0CD
:10140000526F4A51D8B4A1D0525F05E37F0E5227E4
:10141000D8B09BD006D0810E525FD8A096D0D8B459
:1014200094D052C600F0016A026A036A516B47C643
:1014300050F6508F48C64FF649C64EF6190E526FF9
:101440004D514E5F0DE2010E4F5F0AE2505F08E220
:10145000515F06E2512B502B4F2B4D514E2728D078
:101460004C514F5F12E2010E505F0FE2515F0DE2EF
:10147000512B502B4C514F274D514E2719E34F2BD9
:1014800017E1502B15E1512B13D04B518009505FC0
:101490000EE2010E515F0BE2512B4B518009502798
:1014A0004C514F27E9E3502BE7E1512BE5D703805F
:1014B000522F01D00BD0D8904E374F37503751377D
:1014C000D8900336023601365337BAD753A106D027
:1014D000D890013202320332533302D0000635E095
:1014E00053BF1ED0D8904E374F37503751374D51DC
:1014F0004E5F07E2010E4F5F04E2505F02E2515F70
:101500001AE34C514F5F05E2010E505F02E2515F5A
:1015100012E34B518009505F03E2010E515F0BE370
:10152000032A09E1022A07E1012A05E1002A0DE068
:1015300001320232033247C652F64B51521B52AFB0
:1015400002D0018E06D0019E04D0006A016A026AB0
:10155000036A0001000C800ED8A202D006014F1BC6
:101560000601546B556B4BC653F64F51531B4A51F2
:10157000D8B4DFD0526F006E4E51D8B4E3D0525F72
:10158000D8B483D03EE34FC658F6588F50C657F6AE
:1015900051C656F6556BD89058335733563355339A
:1015A000522FF8D753AF03D05481E0D054915291C9
:1015B0005489060EEA6E4D0EE96EEBD0549953BF76
:1015C0000AD052A113D05833573356335533002A1B
:1015D000D8B4C7D00BD058BF0CD0D8905537563799
:1015E000573758370006D8B4BCD0F5D7548D6DD0D6
:1015F000549D4BC653F64BAF02D0588FABD0589F7B
:10160000A9D04EC652F64EC600F04A51525F4BC6A4
:1016100058F6588F4CC657F64DC656F6556BD890AF
:101620005833573356335533522FF8D753AF03D06F
:1016300054839CD054935291548B060EEA6E510EF3
:10164000E96EA7D0549B53BF0AD052A113D0583390
:10165000573356335533002AD8B483D00BD058BFF4
:101660000CD0D89055375637573758370006D8B46E
:1016700078D0F5D7548F29D0549F4FC653F64FAF2B
:1016800002D0588F67D0589F65D04FC658F6588FF4
:1016900050C657F651C656F653AF04D0589F5485DE
:1016A00065D05495556B5291060EEA6E4D0EE96E5B
:1016B00070D053BF1CD04BC653F652A106D058333E
:1016C000573356335533002A4CE055AF0BD0562BC9
:1016D00009E1572B07E1582B05E1583357335633AF
:1016E000002A3FE054BD84D754BFC6D71CD0800E1B
:1016F000581B58AF04D03AD04FC653F60AD04BC649
:1017000053F6585306E1575304E1565302E1006A79
:1017100021D058BF08D0D89055375637573758374B
:10172000002EF7D71ED053AF02D0588F13D0589F3A
:1017300011D04EC600F04FC658F650C657F651C6E7
:1017400056F608D04AC600F04BC658F64CC657F6B7
:101750004DC656F658C601F057C602F056C603F0FD
:1017600034D0006A016A026A036A2FD0556B561F93
:10177000571F581F551F552B05E1562B03E1572BBB
:1017800001E1582B54B112D754B354D754B589D76B
:10179000B3D7EF50562705E3572B03E1582BD8B4A6
:1017A0005281ED52EF50572703E3582BD8B45281A2
:1017B000ED52EF50EFBE01D0800A5827D8B05281C9
:1017C00054B9FCD654BB3ED774D70001000CF2CFFD
:1017D00041F6F29EAA6AA96AA69CA69EA680A85077
:1017E000060141BFF28E0501236F0A0E06014A6F02
:1017F0000001D3DDF2CF41F6F29EAA6A010EA96E76
:10180000A69CA69EA680A850060141BFF28E0501A7
:10181000246F0A0E06014A6F0001BFDDF2CF41F6C8
:10182000F29EAA6A020EA96EA69CA69EA680A85049
:10183000060141BFF28E0501256F0A0E06014A6FAF
:101840000001ABDDF2CF41F6F29EAA6A030EA96E4B
:10185000A69CA69EA680A850060141BFF28E050157
:10186000266F0A0E06014A6F000197DDF2CF41F69E
:10187000F29EAA6A040EA96EA69CA69EA680A850F7
:10188000060141BFF28E0501036F0A0E06014A6F81
:10189000000183DDF2CF41F6F29EAA6A050EA96E21
:1018A000A69CA69EA680A850060141BFF28E050107
:1018B000046F0A0E06014A6F00016FDDF2CF41F698
:1018C000F29EAA6A060EA96EA69CA69EA680A850A5
:1018D000060141BFF28E0501056F0A0E06014A6F2F
:1018E00000015BDDF2CF41F6F29EAA6A070EA96EF7
:1018F000A69CA69EA680A850060141BFF28E0501B7
:10190000066F0A0E06014A6F000147DDF2CF41F66D
:10191000F29EAA6A080EA96EA69CA69EA680A85052
:10192000060141BFF28E05010B6F0A0E06014A6FD8
:10193000000133DDF2CF41F6F29EAA6A090EA96ECC
:10194000A69CA69EA680A850060141BFF28E050166
:101950000C6F0A0E06014A6F00011FDDF2CF41F63F
:10196000F29EAA6A0A0EA96EA69CA69EA680A85000
:10197000060141BFF28E05010D6F0A0E06014A6F86
:1019800000010BDDF2CF41F6F29EAA6A0B0EA96EA2
:10199000A69CA69EA680A850060141BFF28E050116
:1019A0000E6F0A0E06014A6F0001F7DCF2CF41F616
:1019B000F29EAA6A0C0EA96EA69CA69EA680A850AE
:1019C000060141BFF28E05010F6F0A0E06014A6F34
:1019D0000001E3DCF2CF41F6F29EAA6A0D0EA96E79
:1019E000A69CA69EA680A850060141BFF28E0501C6
:1019F000106F0A0E06014A6F0001CFDCF2CF41F6EC
:101A0000F29EAA6A0E0EA96EA69CA69EA680A8505B
:101A1000060141BFF28E0501116F0A0E06014A6FE1
:101A20000001BBDCF2CF41F6F29EAA6A0F0EA96E4E
:101A3000A69CA69EA680A850060141BFF28E050175
:101A4000126F0A0E06014A6F0001A7DCF2CF41F6C1
:101A5000F29EAA6A100EA96EA69CA69EA680A85009
:101A6000060141BFF28E05011B6F0A0E06014A6F87
:101A7000000193DCF2CF41F6F29EAA6A110EA96E24
:101A8000A69CA69EA680A850060141BFF28E050125
:101A90001C6F0A0E06014A6F00017FDCF2CF41F68F
:101AA000F29EAA6A120EA96EA69CA69EA680A850B7
:101AB000060141BFF28E05011D6F0A0E06014A6F35
:101AC00000016BDCF2CF41F6F29EAA6A130EA96EFA
:101AD000A69CA69EA680A850060141BFF28E0501D5
:101AE0001E6F0A0E06014A6F000157DCF2CF41F665
:101AF000F29EAA6A150EA96EA69CA69EA680A85064
:101B0000060141BFF28E0501176F0A0E06014A6FEA
:101B1000000143DCF2CF41F6F29EAA6A160EA96ECE
:101B2000A69CA69EA680A850060141BFF28E050184
:101B3000186F0A0E06014A6F00012FDCF2CF41F642
:101B4000F29EAA6A170EA96EA69CA69EA680A85011
:101B5000060141BFF28E0501196F0A0E06014A6F98
:101B600000011BDCF2CF41F6F29EAA6A180EA96EA4
:101B7000A69CA69EA680A850060141BFF28E050134
:101B80001A6F0A0E06014A6F000107DCF2CF41F618
:101B9000F29EAA6A190EA96EA69CA69EA680A850BF
:101BA000060141BFF28E0401E86F0A0E06014A6F7A
:101BB0000001CDEC09F0F2CF41F6F29EAA6A1A0EAE
:101BC000A96EA69CA69EA680A850060141BFF28ED3
:101BD000476B466F0001E1EC09F003C066F502C0F7
:101BE00065F501C064F500C063F50A0E06014A6F91
:101BF0000001CDEC09F066C549F665C548F664C537
:101C000047F663C546F606014D6B4C6B200E4B6FD5
:101C1000820E4A6F0001FCEC09F003C066F502C0B9
:101C200065F501C064F500C063F50601476BE8C4C3
:101C300046F60001E1EC09F0D89203C04DF602C06F
:101C40004CF601C04BF600C04AF666C551F665C5B4
:101C500050F664C54FF663C54EF67DDC03C05AF5F9
:101C600002C059F501C058F500C057F5F2CF41F652
:101C7000F29EAA6A1B0EA96EA69CA69EA680A850DC
:101C8000060141BFF28E0401E86F0A0E06014A6F99
:101C90000001CDEC09F0F2CF41F6F29EAA6A1C0ECB
:101CA000A96EA69CA69EA680A850060141BFF28EF2
:101CB000476B466F0001E1EC09F003C066F502C016
:101CC00065F501C064F500C063F50A0E06014A6FB0
:101CD0000001CDEC09F066C549F665C548F664C556
:101CE00047F663C546F606014D6B4C6B200E4B6FF5
:101CF000820E4A6F0001FCEC09F003C066F502C0D9
:101D000065F501C064F500C063F50601476BE8C4E2
:101D100046F60001E1EC09F0D89203C04DF602C08E
:101D20004CF601C04BF600C04AF666C551F665C5D3
:101D300050F664C54FF663C54EF60DDC03C05EF584
:101D400002C05DF501C05CF500C05BF5F2CF41F665
:101D5000F29EAA6A1E0EA96EA69CA69EA680A850F8
:101D6000060141BFF28E426FF2CF43F6F29EAA6A9D
:101D70001D0EA96EA69CA69EA680A85043BFF28EFB
:101D8000446F42C603F04451466F03C047F600015A
:101D9000E1EC09F003C0C6F502C0C5F501C0C4F509
:101DA00000C0C3F50A0E06014A6F0001CDEC09F030
:101DB000F2CF41F6F29EAA6A220EA96EA69CA69EBA
:101DC000A680A850060141BFF28E426FF2CF43F6C3
:101DD000F29EAA6A210EA96EA69CA69EA680A85075
:101DE00043BFF28E446F42C6FCF444C6FBF40A0EB5
:101DF0004A6F0001CDEC09F0F2CF41F6F29EAA6ADB
:101E00001F0EA96EA69CA69EA680A850060141BFE3
:101E1000F28E0401E36F0A0E06014A6F0001CDEC59
:101E200009F0F2CF41F6F29EAA6A200EA96EA69C96
:101E3000A69EA680A850060141BFF28E0401F06F55
:101E40000A0E06014A6F0001CDEC09F0F2CF41F60F
:101E5000F29EAA6A230EA96EA69CA69EA680A850F2
:101E6000060141BFF28E0401E86F0A0E06014A6FB7
:101E70000001CDEC09F0F2CF41F6F29EAA6A240EE1
:101E8000A96EA69CA69EA680A850060141BFF28E10
:101E9000476B466F0001E1EC09F003C066F502C034
:101EA00065F501C064F500C063F50A0E06014A6FCE
:101EB0000001CDEC09F066C549F665C548F664C574
:101EC00047F663C546F606014D6B4C6B480E4B6FEB
:101ED000850E4A6F0001FCEC09F003C066F502C0F4
:101EE00065F501C064F500C063F50601476BE8C401
:101EF00046F60001E1EC09F0D89203C04DF602C0AD
:101F00004CF601C04BF600C04AF666C551F665C5F1
:101F100050F664C54FF663C54EF6ABEC0AF003C04D
:101F2000DAF502C0D9F501C0D8F500C0D7F5F2CF77
:101F300041F6F29EAA6A3D0EA96EA69CA69EA680B8
:101F4000A850060141BFF28E426FF2CF43F6F29ED7
:101F5000AA6A3C0EA96EA69CA69EA680A85043BF66
:101F6000F28E446F42C603F04451466F03C047F6F9
:101F70000001E1EC09F003C036F502C035F501C0FF
:101F800034F500C033F50A0E06014A6F0001CDECAE
:101F900009F0F2CF41F6F29EAA6A3F0EA96EA69C06
:101FA000A69EA680A850060141BFF28E426FF2CFD6
:101FB00043F6F29EAA6A3E0EA96EA69CA69EA68035
:101FC000A85043BFF28E446F42C603F04451466F9F
:101FD00003C047F60001E1EC09F003C0D2F502C0EE
:101FE000D1F501C0D0F500C0CFF50A0E06014A6F49
:101FF0000001CDEC09F0F2CF41F6F29EAA6A320E52
:10200000A96EA69CA69EA680A850060141BFF28E8E
:102010000401DF6F0A0E06014A6F0001CDEC09F0E2
:102020008AEF25F047C64EF606014B514E1B4EAFC8
:1020300005D0D894D89047BFD8802FD047C64EF649
:102040004AC64FF646514F5F06E04EAF26D0D850F5
:10205000010AD86E22D04BC64FF647514F5F06E0BB
:102060004EAF1BD0D850010AD86E17D04CC64FF6D1
:1020700048514F5F06E04EAF10D0D850010AD86EDD
:102080000CD04DC64FF649514F5F06E04EAF05D01C
:10209000D850010AD86E01D0D8900001000C05017B
:1020A00023BF03D02351090803E323BF01D016D077
:1020B000236BAA6AA96AA86AA69CA69EA684F25067
:1020C000006EF29E0F01550EA76EAA0EA76EA68295
:1020D000A6B2FED7A6940050F212050124BF03D089
:1020E0002451090803E324BF01D017D0246BAA6A46
:1020F000010EA96EA86AA69CA69EA684F250006E48
:10210000F29E0F01550EA76EAA0EA76EA682A6B26A
:10211000FED7A6940050F212050125BF03D0255129
:10212000090803E325BF01D017D0256BAA6A020E68
:10213000A96EA86AA69CA69EA684F250006EF29E86
:102140000F01550EA76EAA0EA76EA682A6B2FED7E5
:10215000A6940050F212050126BF03D026510908AB
:1021600003E326BF01D017D0266BAA6A030EA96E1F
:10217000A86AA69CA69EA684F250006EF29E0F014D
:10218000550EA76EAA0EA76EA682A6B2FED7A6947B
:102190000050F212050103BF03D00351090803E305
:1021A00003BF01D017D0036BAA6A040EA96EA86AF8
:1021B000A69CA69EA684F250006EF29E0F01550EBC
:1021C000A76EAA0EA76EA682A6B2FED7A69400504E
:1021D000F212050104BF03D00451090803E304BF50
:1021E00001D017D0046BAA6A050EA96EA86AA69C36
:1021F000A69EA684F250006EF29E0F01550EA76EA9
:10220000AA0EA76EA682A6B2FED7A6940050F2121E
:10221000050105BF03D00551090803E305BF01D03F
:1022200019D0020E056FAA6A060EA96E020EA86EDC
:10223000A69CA69EA684F250006EF29E0F01550E3B
:10224000A76EAA0EA76EA682A6B2FED7A6940050CD
:10225000F212050106BF03D00651090803E306BFC9
:1022600001D017D0066BAA6A070EA96EA86AA69CB1
:10227000A69EA684F250006EF29E0F01550EA76E28
:10228000AA0EA76EA682A6B2FED7A6940050F2129E
:1022900005010BBF03D00B51090803E30BBF01D0AD
:1022A00017D00B6BAA6A080EA96EA86AA69CA69EF8
:1022B000A684F250006EF29E0F01550EA76EAA0E74
:1022C000A76EA682A6B2FED7A6940050F212050110
:1022D0000CBF03D00C51090803E30CBF01D017D089
:1022E0000C6BAA6A090EA96EA86AA69CA69EA68473
:1022F000F250006EF29E0F01550EA76EAA0EA76E49
:10230000A682A6B2FED7A6940050F21205010DBF18
:1023100003D00D51090803E30DBF01D019D0020EFF
:102320000D6FAA6A0A0EA96E020EA86EA69CA69E42
:10233000A684F250006EF29E0F01550EA76EAA0EF3
:10234000A76EA682A6B2FED7A6940050F21205018F
:102350000EBF03D00E51090803E30EBF01D017D002
:102360000E6BAA6A0B0EA96EA86AA69CA69EA684EE
:10237000F250006EF29E0F01550EA76EAA0EA76EC8
:10238000A682A6B2FED7A6940050F21205010FBF96
:1023900003D00F51090803E30FBF01D017D00F6B13
:1023A000AA6A0C0EA96EA86AA69CA69EA684F250E4
:1023B000006EF29E0F01550EA76EAA0EA76EA682A2
:1023C000A6B2FED7A6940050F212050110BF03D0AA
:1023D0001051090803E310BF01D017D0106BAA6A8F
:1023E0000D0EA96EA86AA69CA69EA684F250006E49
:1023F000F29E0F01550EA76EAA0EA76EA682A6B278
:10240000FED7A6940050F212050111BF03D011515E
:10241000090803E311BF01D017D0116BAA6A0E0E91
:10242000A96EA86AA69CA69EA684F250006EF29E93
:102430000F01550EA76EAA0EA76EA682A6B2FED7F2
:10244000A6940050F212050112BF03D012510908E0
:1024500003E312BF01D017D0126BAA6A0F0EA96E48
:10246000A86AA69CA69EA684F250006EF29E0F015A
:10247000550EA76EAA0EA76EA682A6B2FED7A69488
:102480000050F21205011BBF03D01B51090803E3E2
:102490001BBF01D017D01B6BAA6A100EA96EA86AC9
:1024A000A69CA69EA684F250006EF29E0F01550EC9
:1024B000A76EAA0EA76EA682A6B2FED7A69400505B
:1024C000F21205011CBF03D01C51090803E31CBF15
:1024D00001D017D01C6BAA6A110EA96EA86AA69C1F
:1024E000A69EA684F250006EF29E0F01550EA76EB6
:1024F000AA0EA76EA682A6B2FED7A6940050F2122C
:1025000005011DBF03D01D51090803E31DBF01D004
:1025100017D01D6BAA6A120EA96EA86AA69CA69E69
:10252000A684F250006EF29E0F01550EA76EAA0E01
:10253000A76EA682A6B2FED7A6940050F21205019D
:102540001EBF03D01E51090803E31EBF01D017D0E0
:102550001E6BAA6A130EA96EA86AA69CA69EA684E4
:10256000F250006EF29E0F01550EA76EAA0EA76ED6
:10257000A682A6B2FED7A6940050F212050117BF9C
:1025800003D01751090803E317BF01D017D0176B09
:10259000AA6A150EA96EA86AA69CA69EA684F250E9
:1025A000006EF29E0F01550EA76EAA0EA76EA682B0
:1025B000A6B2FED7A6940050F212050118BF03D0B0
:1025C0001851090803E318BF01D017D0186BAA6A85
:1025D000160EA96EA86AA69CA69EA684F250006E4E
:1025E000F29E0F01550EA76EAA0EA76EA682A6B286
:1025F000FED7A6940050F212050119BF03D019515D
:10260000090803E319BF01D017D0196BAA6A170E86
:10261000A96EA86AA69CA69EA684F250006EF29EA1
:102620000F01550EA76EAA0EA76EA682A6B2FED700
:10263000A6940050F21205011ABF03D01A510908DE
:1026400003E31ABF01D018D0010E1A6FAA6A180E40
:10265000A96E010EA86EA69CA69EA684F250006EDE
:10266000F29E0F01550EA76EAA0EA76EA682A6B205
:10267000FED7A6940050F2120601496B486B480E33
:10268000476F830E466F5AC54DF659C54CF658C56F
:102690004BF657C54AF60001C5DC32E305015A6B1B
:1026A000596B400E586F7F0E576FAA6A190EA96EAC
:1026B000010EA86EA69CA69EA684F250006EF29E05
:1026C0000F01550EA76EAA0EA76EA682A6B2FED760
:1026D000A6940050F212AA6A1A0EA96E050EA86EF0
:1026E000A69CA69EA684F250006EF29E550EA76E82
:1026F000AA0EA76EA682A6B2FED7A6940050F2122A
:102700000601496B486B480E476F830E466F5EC5E6
:102710004DF65DC54CF65CC54BF65BC54AF600014F
:1027200081DC30E305015E6B5D6B5C6B7F0E5B6F84
:10273000AA6A1B0EA96E010EA86EA69CA69EA68470
:10274000F250006EF29E0F01550EA76EAA0EA76EF4
:10275000A682A6B2FED7A6940050F212AA6A1C0E58
:10276000A96EA86AA69CA69EA684F250006EF29E50
:10277000550EA76EAA0EA76EA682A6B2FED7A69485
:102780000050F2120601496B486B160E476F870E18
:10279000466FC6C54DF6C5C54CF6C4C54BF6C3C598
:1027A0004AF600013FDC31E30501C66BC56B4B0EF9
:1027B000C46F860EC36FAA6A1D0EA96ECB0EA86EDB
:1027C000A69CA69EA684F250006EF29E0F01550EA6
:1027D000A76EAA0EA76EA682A6B2FED7A694005038
:1027E000F212AA6A1E0EA96EA86AA69CA69EA684CC
:1027F000F250006EF29E550EA76EAA0EA76EA6822C
:10280000A6B2FED7A6940050F2120401E3513C0890
:1028100017E2E36BAA6A1F0EA96EA86AA69CA69E81
:10282000A684F250006EF29E0F01550EA76EAA0EFE
:10283000A76EA682A6B2FED7A6940050F21204019B
:10284000F051060819E2020EF06FAA6A200EA96E76
:10285000020EA86EA69CA69EA684F250006EF29E62
:102860000F01550EA76EAA0EA76EA682A6B2FED7BE
:10287000A6940050F2120401FC510D0830E2FF0A48
:1028800003E1FB5110082BE2FC6BFB6BAA6A210EE3
:10289000A96EA86AA69CA69EA684F250006EF29E1F
:1028A0000F01550EA76EAA0EA76EA682A6B2FED77E
:1028B000A6940050F212AA6A220EA96EA86AA69CDB
:1028C000A69EA684F250006EF29E550EA76EAA0E2A
:1028D000A76EA682A6B2FED7A6940050F2120601F9
:1028E000496B486B476B800E466FDAC54DF6D9C50C
:1028F0004CF6D8C54BF6D7C54AF6000112EC10F0DD
:1029000033E3850E0501DA6FEB0ED96F110ED86F28
:102910007E0ED76FAA6A230EA96EA86AA69CA69EF1
:10292000A684F250006EF29E0F01550EA76EAA0EFD
:10293000A76EA682A6B2FED7A6940050F212AA6A8B
:10294000240EA96E390EA86EA69CA69EA684F250EF
:10295000006EF29E550EA76EAA0EA76EA682A6B2B4
:10296000FED7A6940050F2120601496B486B480E40
:10297000476F860E466F36C54DF635C54CF634C5E5
:102980004BF633C54AF6000112EC10F02EE30501B8
:10299000366B356B346B336BAA6A3C0EA96EA86A32
:1029A000A69CA69EA684F250006EF29E0F01550EC4
:1029B000A76EAA0EA76EA682A6B2FED7A694005056
:1029C000F212AA6A3D0EA96EA86AA69CA69EA684CB
:1029D000F250006EF29E550EA76EAA0EA76EA6824A
:1029E000A6B2FED7A6940050F2120601496B486BBE
:1029F000610E476F880E466FD2C54DF6D1C54CF6B5
:102A0000D0C54BF6CFC54AF6000112EC10F031E309
:102A10000501D26BD16B700ED06F860ECF6FAA6A94
:102A20003E0EA96EF00EA86EA69CA69EA684F2503D
:102A3000006EF29E0F01550EA76EAA0EA76EA6821B
:102A4000A6B2FED7A6940050F212AA6A3F0EA96E53
:102A5000A86AA69CA69EA684F250006EF29E550E11
:102A6000A76EAA0EA76EA682A6B2FED7A6940050A5
:102A7000F2120401DF51140819E20A0EDF6FAA6A8C
:102A8000320EA96E0A0EA86EA69CA69EA684F250CF
:102A9000006EF29E0F01550EA76EAA0EA76EA682BB
:102AA000A6B2FED7A6940050F212040100018CEFEA
:102AB00025F00601505303E093968A8602D0939442
:102AC0008A84939C8A9C956A51C68CFF0000939ED1
:102AD0008A8E00D000D00000939E8A9E93948A94A0
:102AE00093968A960001000C06014C6B170E4B6FF3
:102AF000020E4E6F170E4D6F496B495107084EE39A
:102B0000939A8A9A506B400E516F0001D2DF010EEA
:102B10000601506F400E516F0001CBDF0601495195
:102B2000B8094F6F506B516F0001C3DF0601495167
:102B3000B8094F6F010E506F4FC651F60001B9DF53
:102B4000939A8A8A06014A6B4A513F0825E34CC68C
:102B500003F04B514B2BD8B44C2BE96E03C0EAFF6A
:102B6000EFCF4FF6506B4FC651F60001A2DF0601C2
:102B70004EC603F04D514D2BD8B44E2BE96E03C019
:102B8000EAFFEFCF4FF6010E506F4FC651F600012E
:102B900090DF06014A2BD8D7492BAFD70001000C94
:102BA00006014635006E0036FC0E001600C001F02E
:102BB000C250C30B0010C26E010E4A6F0001CDEC73
:102BC00009F0C282C2B2FED7C4CF48F60601C3CF15
:102BD00047F647C601F048C602F0000174EF16F050
:102BE00006016351D8B471D0006E6751D8B46DD06E
:102BF000002604E3810E002668E204D07F0E005E0A
:102C000064E363E064C66BF668516B1B648F688F86
:102C100066516A03F4CF6DF665516903F4CF03F092
:102C2000F3CF6CF66A03F3506D27F4506C23000E5B
:102C3000032266516903F3506D27F4506C23000E94
:102C4000026A0322022264516A03F3506C27F45093
:102C50000322000E022264516903F3500326F4504C
:102C60000222000E016A012266516803F3506C27AC
:102C7000F4500322000E0222012265516803F35032
:102C80000326F4500222000E012264516803F3501F
:102C90000226F4500122002A01BE05D06C3703360B
:102CA000023601360006000E6CAF0AD0032A02225B
:102CB0000122015005E1025003E1035001E1002A25
:102CC0006BBF018E6BAF019E04D0006A016A026A7D
:102CD000036A0001000C0601456B446B436B426BB9
:102CE000020E466F00015CD702C0F4F401C0F3F499
:102CF000F4C447F6F3C446F6E1EC09F003C0CAF5A4
:102D000002C0C9F501C0C8F500C0C7F5CAC549F67B
:102D1000C9C548F6C8C547F6C7C546F6D2C54DF67B
:102D2000D1C54CF6D0C54BF6CFC54AF6FCEC09F040
:102D300000C046F601C047F602C048F603C049F697
:102D4000D88203C04DF602C04CF601C04BF600C05D
:102D50004AF60601516B506B4F6B7F0E4E6F0001B0
:102D6000ABEC0AF003C0CEF502C0CDF501C0CCF546
:102D700000C0CBF5CEC549F6CDC548F6CCC547F663
:102D8000CBC546F606014D6B4C6B4B6B4A6B000195
:102D900012EC10F005E30501CE6BCD6BCC6BCB6B69
:102DA000010E0601415D0401E55D02E001E3E56B12
:102DB000E551040DF350036A9B0FE96E050E0320E5
:102DC000EA6ECEC566F6CDC565F6CCC564F6CBC554
:102DD00063F6D70E06016A6FA30E696F686B810EEA
:102DE000676F0001FDDE00C0EFFF01C0ECFF02C015
:102DF000ECFF03C0ECFF0401E52BE46B010E0601C0
:102E0000415D0401E45D01E038E2E451040DF3505A
:102E1000036A9B0FE96E050E0320EA6EEFCF00F008
:102E2000ECCF01F0ECCF02F0ECCF03F0EACF47F6A5
:102E3000E9CF46F6D89245C64DF644C64CF643C691
:102E40004BF642C64AF603C051F602C050F601C026
:102E50004FF600C04EF60001ABEC0AF047C6EAFFA1
:102E600046C6E9FF03C045F602C044F601C043F67A
:102E700000C042F60401E42BC1D70601476B41C6EE
:102E800046F60001E1EC09F045C649F644C648F6AD
:102E900043C647F642C646F603C04DF602C04CF69E
:102EA00001C04BF600C04AF6FCEC09F003C045F641
:102EB00002C044F601C043F600C042F642C600F02C
:102EC00043C601F044C602F045C603F0000C0601FB
:102ED0005F51016A5E5D03E25EC600F00CD0006ADD
:102EE000080E606F5E3700365F51005CD8B0006E30
:102EF0000136602FF7D70001000C40C6EAFF3FC63D
:102F0000E9FF060163C6EFFFE92AD8B4EA2AEF6AAF
:102F10003F2BD8B4402B0001000C200E060159A90C
:102F2000300E5A6F58C600F058AF07D0001E002A66
:102F300000C058F62D0E5A6F598F015058C65EF6D4
:102F4000640E5F6F0001C3DF00C058F6300E01242D
:102F500006015B6F58C65EF60A0E5F6F0001B7DFB1
:102F6000300E002406015D6F300E01245C6F5AC6DE
:102F700000F059A702D059AF599559B90BD059AFA4
:102F800022D059B520D000C05BF659B31CD000C088
:102F90005CF619D0300E5B5D16E100C05BF6200ECA
:102FA0005A6F59A704D05995598359AF5993300E88
:102FB0005C5D09E100C05CF6200E5B6F59A7F7D796
:102FC000599359AF599159A505D05AC663F60001D6
:102FD00094DF060159A305D05BC663F600018DDFBF
:102FE000060159A104D05CC663F6000186DF5DC608
:102FF00063F6000182DF000C06017B6B76317A6F8D
:103000007A337A331F0E7A177A377B377A377B37E2
:103010007A377B377A377B377A377B377A377B3724
:10302000C00E7A1775517A27000E7B2375513F0821
:103030000DE2170E7A257C6F020E7B217D6F400E0C
:103040007C5D786F000E7D59796F06D0170E7A255A
:10305000786F000E7B21796F775315E079C603F006
:1030600078C6E9FF79C6EAFF7651070B7C6F010E3F
:10307000006E7C51016E04E0D8900036012EFCD722
:103080000050EF1215D079C603F078C6E9FF79C673
:10309000EAFF7651070B7C6F010E006E7C51016ECA
:1030A00004E0D8900036012EFCD70050FF0AEF163E
:1030B0000001000C010E06016E6F6F6F746B65519D
:1030C000675D756F755175AF03D0000ED88075556B
:1030D000036A6C6F03C06DF66651685D756F75515C
:1030E00075AF03D0000ED8807555036A6A6F03C0B0
:1030F0006BF66551675D02E2FF0E6E6F6651685DAB
:1031000002E2FF0E6F6F6B516D5D3BE303E16A51AD
:103110006C5D37E3D8906A376B376C516A5D006E2F
:103120006D516B5900C070F6716F6C51705D726FAC
:103130006D517159736F6D5303E174516C5D20E3F0
:1031400065C675F666C676F669C677F6000154DF81
:10315000060171BF01D008D06A5170276B517123ED
:103160006E516525656F0AD07251702773517123B6
:103170006E516525656F6F516625666F742BDBD7C1
:1031800036D0D8906C376D376A516C5D006E6B51DC
:103190006D5900C070F6716F6A51705D726F6B513E
:1031A0007159736F6B5303E174516A5D20E365C617
:1031B00075F666C676F669C677F600011DDF06016C
:1031C00071BF01D008D06C5170276D5171236F51C0
:1031D0006625666F0AD072517027735171236E5144
:1031E0006525656F6F516625666F742BDBD700010F
:1031F000000C06015E532EE05C515A5D05E25AC692
:1032000061F65CC662F604D05CC661F65AC662F628
:103210005D515B5D05E25BC663F65DC664F604D096
:103220005DC663F65BC664F66151625D12E363C618
:1032300060F66051645D0BE361C675F660C676F6B4
:103240005FC677F60001D8DE0601602BF2D7612B4E
:10325000EBD72ED05AC665F65BC666F65CC667F637
:103260005BC668F65FC669F6000124DF5AC665F6DC
:103270005DC666F65CC667F65DC668F65FC669F64B
:1032800019DF5AC665F65BC666F65AC667F65DC6AE
:1032900068F65FC669F60EDF5CC665F65BC666F665
:1032A0005CC667F65DC668F65FC669F603DF0601B1
:1032B0000001000C5DC603F006015CC6E9FF5DC6B7
:1032C000EAFFEF52D8B4D0D05DC603F05CC6E9FF88
:1032D0005DC6EAFFEF50520827E35DC603F05CC607
:1032E000E9FF5DC6EAFF200EEF5C050DF350036AAF
:1032F000696F060EEA6E640EE96E6D6B69C66CF658
:10330000F2CF6AF6F29E050E016EF76A695100016E
:103310004FEC00F00A000900F5CFEEFF012EFBD7BD
:1033200006016ABFF28E35D05DC603F05CC6E9FFC8
:103330005DC6EAFFEF507E0827E35DC603F05CC67A
:10334000E9FF5DC6EAFF530EEF5C050DF350036A1B
:10335000696F060EEA6E640EE96E6D6B69C66CF6F7
:10336000F2CF6AF6F29E050E016EF76A695100010E
:10337000DEEC00F00A000900F5CFEEFF012EFBD7CE
:1033800006016ABFF28E05D0646B656B666B676B76
:10339000686B5DC603F05C51E96E03C0EAFFEF5055
:1033A0000A0A000103E0070A09E00BD006015E519A
:1033B000070DF350010F5B2750D0000106015A6B37
:1033C0004CD006015E51050DF3505A257F0806E2E8
:1033D0005A6B5E51070DF350010F5B27606B605114
:1033E00004083BE3616B6151060833E3036A6051F3
:1033F000640FE96E060E0320EA6EEFCF69F669C628
:1034000000F06151016E04E0D8900032012EFCD72B
:1034100000A01DD0626B5E51625D19E2636B5E516C
:10342000635D13E263515A25696F61515E03F35086
:103430005B2562256A6F69C675F6766F5FC677F69B
:103440000001DADD0601632BEAD7622BE4D7612B9A
:10345000CAD7602B5E515A27C2D75C2BD8B45D2BDC
:103460005A2B000127D706010001000C060E0601A9
:10347000406F4F0E3F6F4BC658F61F0E596F00013D
:103480004CDD06014E2D27D0120E4C25586F180E1C
:103490004D25596F4CC65AF64DC65BF658C65CF6BC
:1034A0005D6F010E5E6F5F6F0001A3DE020E06010D
:1034B0004C25586F010E4D25596F58C65AF65B6F53
:1034C000060E5D6F4F0E5C6F020E5E6F5F6B00014C
:1034D000F1DE26D00601120E4C25586F180E4D2530
:1034E000596F4CC65AF64DC65BF658C65CF65D6F12
:1034F0005E6B5F6B00017DDE020E06014C25586F8E
:10350000010E4D25596F58C65AF65B6F060E5D6F5A
:103510004F0E5C6F020E5E6F010E5F6F0001CADE20
:10352000000C060149C601F04AC603F049C64FF631
:103530004AC650F6060EEA6E2B0EE96E4AC6E2FF48
:1035400049C6E1FFE752E6CFEEFFFCE14D2D25D065
:103550004E51080DF3504C254F6F5A6B4CC65BF61D
:103560007F0E5C6F4FC65DF6010E5E6F5F6F0001F0
:1035700040DE010E06014B254F6F010E4C25506FAA
:103580004FC65AF65B6F060E5D6F2B0E5C6F4EC614
:103590005EF65F6B00018EDE06014D5326E14E5153
:1035A000080DF3504C254F6F5A6B4CC65BF67F0EDF
:1035B0005C6F4FC65DF6010E5E6F5F6B000119DE3A
:1035C000010E06014B254F6F010E4C25506F4FC663
:1035D0005AF65B6F060E5D6F2B0E5C6F4EC65EF685
:1035E000010E5F6F000166DE06010001000C06019E
:1035F0004C6B170E4B6F020E4E6F170E4D6F4951ED
:10360000FF0DF3CF4AF6506B4F6B505101081AE390
:103610004CC603F04B514B2BD8B44C2BE96E03C076
:10362000EAFF4AC6EFFF4EC603F04D514D2BD8B40A
:103630004E2BE96E03C0EAFF4AC6EFFF4F2BD8B40A
:10364000502BE3D70001000C04011DB14BD01FC566
:103650004BF6140E06014C6F1E0E4D6F010E4E6F91
:10366000000104DF20C54BF6280E06014C6F1E0E2C
:103670004D6F4E6B0001FADE21C54BF63C0E060184
:103680004C6F1E0E4D6F4E6B0001F0DE1FC54BF6EA
:10369000500E06014C6F1E0E4D6F4E6B0001E6DEA4
:1036A000060EEA6E2B0EE96EF2CF49F6F29E000E80
:1036B00085EC07F00A000900F550EE6E0009FBE109
:1036C000060149BFF28E060E4A6F2B0E496F140E8B
:1036D0004B6F4C6B010E4D6F030E4E6F000121DFDF
:1036E00004011D81968284A26BD01C99F86BF76B44
:1036F0001AB165D01A81050E06014A6F0001CDECA2
:1037000009F0010E0401196F1951040858E3195109
:10371000DC5D3AE1010E195D036A1F0FE96E050ECB
:103720000320EA6EEF2A010E195D036A1F0FE96E8E
:10373000050E0320EA6EEFBE0CD0EF50090809E237
:10374000010E195D036A1F0FE96E050E0320EA6E74
:10375000EF6A010E195D036A1F0FE96E050E032063
:10376000EA6EEFCF49F61951140DF3CF4AF6060170
:1037700049C64BF64AC64CF61E0E4D6F010E4E6FF3
:10378000000174DE19D00401010E195D036A1F0FD8
:10379000E96E050E0320EA6EEFCF49F61951140DBC
:1037A000F3CF4AF6060149C64BF64AC64CF61E0E42
:1037B0004D6F4E6B00015ADE0401192BA5D701D0C5
:1037C0001A91968484A469D01C99F86BF76B1AB58A
:1037D00063D01A85050E06014A6F0001CDEC09F091
:1037E000010E0401196F1951040856E31951DC5DEB
:1037F00038E1010E195D036A1F0FE96E050E032003
:10380000EA6EEF06010E195D036A1F0FE96E050EE1
:103810000320EA6EEFAE0AD0010E195D036A1F0F96
:10382000E96E050E0320EA6E090EEF6E010E195DBA
:10383000036A1F0FE96E050E0320EA6EEFCF49F60B
:103840001951140DF3CF4AF6060149C64BF64AC684
:103850004CF61E0E4D6F010E4E6F000107DE19D0A3
:103860000401010E195D036A1F0FE96E050E0320A6
:10387000EA6EEFCF49F61951140DF3CF4AF606015F
:1038800049C64BF64AC64CF61E0E4D6F4E6B0001F4
:10389000EDDD0401192BA7D701D01A95948082A0E1
:1038A0004DD01C99F86BF76B1AB347D01A83050EED
:1038B00006014A6F0001CDEC09F00401DC2B010E7A
:1038C000196F1951040839E31951DC5D1BE1010E30
:1038D000195D036A1F0FE96E050E0320EA6EEFCF34
:1038E00049F61951140DF3CF4AF6060149C64BF6B5
:1038F0004AC64CF61E0E4D6F010E4E6F0001B6DD2E
:1039000019D00401010E195D036A1F0FE96E050E3F
:103910000320EA6EEFCF49F61951140DF3CF4AF6A2
:10392000060149C64BF64AC64CF61E0E4D6F4E6B4D
:1039300000019CDD0401192BC4D701D01A93948295
:1039400082A223D0640E06014A6F0001CDEC09F07B
:10395000948282A219D042C6DBF40601496B0001B1
:1039600046DE04011D91010EDD6FDC6F05011F6B4A
:10397000206B216B226B0601496B000138DE74EC71
:1039800015F0010E016ED0D10401DC510408D8B04D
:10399000CCD10601496B00012ADE010E0401DC6F67
:1039A0001C99F86BF76B05011F510308D8A47CD054
:1039B00020510808D8A478D02151090875E1225176
:1039C000020872E106014353D8B402D005016CD05D
:1039D000AA6AA96AA86AA69CA69EA684F250006E4E
:1039E000F29E0F01550EA76EAA0EA76EA682A6B272
:1039F000FED7A6940050F212140E06014A6F000181
:103A0000CDEC09F0AA6A010EA96EA86AA69CA69E32
:103A1000A684F250006EF29E0F01550EA76EAA0EFC
:103A2000A76EA682A6B2FED7A6940050F212140E7C
:103A300006014A6F0001CDEC09F0AA6A020EA96ED8
:103A4000A86AA69CA69EA684F250006EF29E0F0164
:103A5000550EA76EAA0EA76EA682A6B2FED7A69492
:103A60000050F212140E06014A6F0001CDEC09F06D
:103A7000AA6A030EA96EA86AA69CA69EA684F25006
:103A8000006EF29E0F01550EA76EAA0EA76EA682BB
:103A9000A6B2FED7A6940050F212140E06014A6F89
:103AA0000001CDEC09F0FF000601455105011F5D45
:103AB000D8A477D0060146510501205DD8A471D065
:103AC000060147510501215D6CE1060148510501E0
:103AD000225D67E10601496B000189DD060EEA6E91
:103AE0002B0EE96EF2CF49F6F29E000E85EC07F040
:103AF0000A000900F550EE6E0009FBE1060149BF1E
:103B0000F28E060E4A6F2B0E496F1E0E4B6F4C6BDA
:103B10004D6B020E4E6F000104DD060EEA6E2B0E99
:103B2000E96EF2CF49F6F29E000E97EC07F00A001C
:103B30000900F550EE6E0009FBE1060149BFF28E67
:103B4000060E4A6F2B0E496F0F0E4B6F1E0E4C6FF9
:103B50004D6B020E4E6F0001E4DC44C6DBF474ECE6
:103B600015F0040E0601496FFA0E4A6F0001CDEC04
:103B700009F00601492FF8D7496B000138DD05012E
:103B80001F6B206B216B226B0601435302E1040182
:103B90001B8F04011D91010E016E0001C5D0C4D020
:103BA00005010601496B000122DD060EEA6E2B0EAF
:103BB000E96EF2CF49F6F29E000E85EC07F00A009E
:103BC0000900F550EE6E0009FBE1060149BFF28ED7
:103BD000060E4A6F2B0E496F1E0E4B6F4C6B4D6BD2
:103BE000020E4E6F00019DDC060EEA6E2B0EE96E92
:103BF000F2CF49F6F29E000EABEC07F00A00090086
:103C0000F550EE6E0009FBE1060149BFF28E060E8B
:103C10004A6F2B0E496F4B6B1E0E4C6F4D6B020E95
:103C20004E6F00017EDC010E0401DC6F000174ECBC
:103C300015F0040E0601496FFA0E4A6F0001CDEC33
:103C400009F00601492FF8D705011F6B206B216B86
:103C5000226B0601496B0001CADC06015A6B5B6BE3
:103C60007F0E5C6F190E5D6F010E5E6F5F6F00015E
:103C7000F9EC18F0060EEA6E2B0EE96EF2CF49F65B
:103C8000F29E000E85EC07F00A000900F550EE6E7A
:103C90000009FBE1060149BFF28E190E5A6F010EB1
:103CA0005B6F060E5D6F2B0E5C6F030E5E6F5F6BBE
:103CB00000015AEC19F01FC54BF6140E06014C6FAB
:103CC0001E0E4D6F010E4E6F000136EC1AF020C52E
:103CD0004BF6280E06014C6F1E0E4D6F4E6B000109
:103CE00036EC1AF021C54BF63C0E06014C6F1E0E49
:103CF0004D6F4E6B000136EC1AF01FC54BF6500E9F
:103D000006014C6F1E0E4D6F4E6B000136EC1AF023
:103D100042C6DBF40601496B000169DC04011D9118
:103D2000000E016E000100D004010001000C06012C
:103D3000415303E18B9C949C04D0415302E08B8C53
:103D4000949C0001000C060E0601406F460E3F6F6A
:103D500041C658F61F0E596F00018DEC17F0060191
:103D6000442D2CD04551060DF35042254F6F45513F
:103D7000080DF3504325506F42C65AF643C65BF612
:103D80004FC65CF65D6F010E5E6F5F6F0001F9EC70
:103D900018F0020E060142254F6F010E4325506FA9
:103DA0004FC65AF65B6F060E5D6F460E5C6F45C6DA
:103DB0005EF65F6B00015AEC19F0060144532DE1E9
:103DC0004551060DF35042254F6F4551080DF350F4
:103DD0004325506F42C65AF643C65BF64FC65CF6A3
:103DE0005D6F010E5E6F5F6B0001F9EC18F0020E63
:103DF000060142254F6F010E4325506F4FC65AF6FC
:103E00005B6F060E5D6F460E5C6F45C65EF6010E7B
:103E10005F6F00015AEC19F006010001000C006A06
:103E2000016A06014251D89043B1002600320132A6
:103E300043B300260032013243B50026003201327E
:103E400043B700260032013243B900260032013266
:103E500043BB00260032013243BD0026003201324E
:103E600043BF0026003201320001000C060145511B
:103E70004719800B496F45AF05D0441F451F442BA0
:103E8000D8B4452B47AF05D0461F471F462BD8B4A3
:103E9000472B44514603F3CF01F0F4CF00F0470322
:103EA000F350002645514603F3500020026E49AFFF
:103EB00005D0011E021E012AD8B4022A0001FCEF1F
:103EC00028F08E0E006E42C601F041C602F0036A71
:103ED00001AE05D0011E021E022A01E1012A015293
:103EE00009E102C001F0026A080E005E015202E11F
:103EF000006A0DD0D89001BE04D00236013600060B
:103F0000F9D7060142AF02D0000101D0019E0001A5
:103F10000BEF29F006016351B608636F036A64C6AC
:103F200067F6648FD89064336533663303320232A8
:103F300001320032632FF6D767AF0BD0001E011E8F
:103F4000021E031E002AD8B4012AD8B4022AD8B40B
:103F5000032A000118EF20F0006A016A026A036A6E
:103F600006016B6B6C6B6D6B6E6B6A51691168113E
:103F700067112CE0200E6F6FD89063376437653778
:103F800066376B376C376D376E376A516E5D08E197
:103F900069516D5D05E168516C5D02E167516B5DD2
:103FA0000FE367516B5F6851D8A0683D6C5F695142
:103FB000D8A0693D6D5F6A51D8A06A3D6E5FD88018
:103FC00000360136023603366F2FD6D7060EEA6E5C
:103FD0006B0EE96E0001000CE95006015B6F5A514F
:103FE0005D6F1CE059C666F658C665F657C664F69E
:103FF00056C663F66A6B696B200E686F820E676F38
:104000000001F0EC15F003C059F602C058F601C0EB
:1040100057F600C056F606015D2FE4D759C666F67E
:1040200058C665F657C664F656C663F6000172D7E1
:1040300003C059F602C058F601C057F600C056F644
:10404000060159AF0DD05B075B8B561F571F581FDA
:10405000591F562BD8B4572BD8B4582BD8B4592B3A
:104060003B0E626F9A0E616FCA0E606F5F6B0A0E35
:104070005D6F5A51D8B45B2B59C666F658C665F6C3
:1040800057C664F656C663F662C66AF661C669F636
:1040900060C668F65FC667F600015EDF0150EFCFCD
:1040A00056F6ECCF57F6ECCF58F6ECCF59F6005257
:1040B00013E106015A295D5DD8A402D000010CD09D
:1040C0005B510DE00F0B5D5D01E044E25BBF42D050
:1040D0005BBD05D0200E37D0200E06015B175BAB11
:1040E0000FD05B9B5A51D8A45B0700505B6F2D0E1D
:1040F000636F00017DEC17F006015B51006E5B6B96
:104100005A515D5D0DE100505B6F2E0E636F000133
:104110007DEC17F006015B51006E200E5B17000E60
:10412000300E5BAB10D05B9B5A51D8A45B0700509C
:104130005B6F2D0E636F00017DEC17F006015B5184
:10414000006E5B6B300E002600C063F600017DEC54
:1041500017F0060162C666F661C665F660C664F6CB
:104160005FC663F66A6B696B686B0A0E676F000166
:10417000F3DE03C062F602C061F601C060F600C063
:104180005FF606015D2F78D70001DAEF20F0060E0A
:104190000601406F4D0E3F6F890EE96E48C659F615
:1041A00047C658F646C657F645C656F6020E5A6F2B
:1041B000000112D706014B2D2CD04C51300DF3507D
:1041C0004925566F4C51080DF3504A25576F49C683
:1041D0005AF64AC65BF656C65CF65D6F010E5E6F18
:1041E0005F6F0001F9EC18F0020E06014925566FC9
:1041F000010E4A25576F56C65AF65B6F060E5D6F65
:104200004D0E5C6F4CC65EF65F6B00015AEC19F008
:1042100006014B532DE14C51300DF3504925566F9B
:104220004C51080DF3504A25576F49C65AF64AC6F5
:104230005BF656C65CF65D6F010E5E6F5F6B00014C
:10424000F9EC18F0020E06014925566F010E4A25B9
:10425000576F56C65AF65B6F060E5D6F4D0E5C6F5C
:104260004CC65EF6010E5F6F00015AEC19F00601B4
:104270000001000C060145514703F3CF01F0F4CFD4
:1042800000F04803F350002646514703F350002046
:10429000026E0001000C06014151030851E1426B1E
:1042A00042513F084DE3436B43510F0847E3070E6C
:1042B000446F4451800A7F083FE2466B42C645F690
:1042C000486B100E476F0001D5DF02C046F601C0F3
:1042D00045F6060143510124016E000E0220036ED3
:1042E0000150F2CF45F6F29E03C0F7FF00015BECF0
:1042F00001F0060145BFF28E456F070ED880445588
:10430000466F45C600F04651016E04E0D890003279
:10431000012EFCD700A00ED04351080DF3504425C8
:10432000456F756F42C676F6010E776F0001FCECA3
:1043300017F006014407BDD7432BB6D7422BB0D7A1
:104340004151040851E1426B42513F084DE3436B38
:1043500043510F0847E3070E446F4451800A7F081A
:104360003FE2466B42C645F6486B100E476F0001B0
:1043700081DF02C046F601C045F606014351012423
:10438000016E000E0220036E0150F2CF45F6F29E40
:1043900003C0F7FF000169EC03F0060145BFF28E90
:1043A000456F070ED8804455466F45C600F046510C
:1043B000016E04E0D8900032012EFCD700A00ED090
:1043C0004351080DF3504425456F756F42C676F68C
:1043D000010E776F0001FCEC17F006014407BDD712
:1043E000432BB6D7422BB0D74151050851E1426B60
:1043F00042513F084DE3436B43510F0847E3070E1B
:10440000446F4451800A7F083FE2466B42C645F63E
:10441000486B100E476F00012DDF02C046F601C049
:1044200045F6060143510124016E000E0220036E81
:104430000150F2CF45F6F29E03C0F7FF000177EC82
:1044400005F0060145BFF28E456F070ED880445532
:10445000466F45C600F04651016E04E0D890003228
:10446000012EFCD700A00ED04351080DF350442577
:10447000456F756F42C676F6010E776F0001FCEC52
:1044800017F006014407BDD7432BB6D7422BB0D750
:104490000001000C93988A88939E8A9E93948A9434
:1044A00093968A96939A8A9A0601506BC00E516F22
:1044B000000159EC15F0010E0601506FC00E516F4E
:1044C000000159EC15F00601506B400E516F0001D0
:1044D00059EC15F0010E0601506F400E516F0001AE
:1044E00059EC15F00601506BB80E516F000159ECF4
:1044F00015F0010E0601506FB80E516F000159EC16
:1045000015F00601412D10D0506B3F0E516F000188
:1045100059EC15F0010E0601506F3F0E516F00016E
:1045200059EC15F00FD00601506B3E0E516F000193
:1045300059EC15F0010E0601506F3E0E516F00014F
:1045400059EC15F00601496B0001F7EC1AF074EC18
:1045500015F0000C8E0E006E06014151005E42C641
:1045600002F043C601F0028E005209E0D8900252D8
:1045700002E1015204E002320132002EF7D742AFCD
:1045800005D0011E021E012AD8B4022A0001000C27
:10459000F86AD09E078EEA6AE96A0401186B176B05
:1045A000196B1A911A931A951A971A991A9B1A9DB0
:1045B0001A9F1B911B931B951B971B991B9B1B9D64
:1045C0001B9F1C911C931C951C971C991C9B1C9D4C
:1045D0001C9F1D911D93C80EDB6F010EDC6FDD6FFC
:1045E000DE6B0A0EDF6FE06BE16BE26BE36BE46B9B
:1045F000E56BE66BE76BE86BE96BEA6FEB6FEC6F13
:10460000ED6BEE6BEF6BF06BF26BF16BF46BF36BCE
:10461000F66BF56BF86BF76BFA6BF96BFC6BFB6B7E
:10462000FE6BFD6B05012A6B296B286B276B2E6BCC
:104630002D6B2C6B2B6B326B316B306B2F6B366BA6
:10464000356B346B336B3A6B396B386B376B3E6B56
:104650003D6B3C6B3B6B426B416B406B3F6B466B06
:10466000456B446B436B4A6B496B486B476B4E6BB6
:104670004D6B4C6B4B6B526B516B506B4F6B566B66
:10468000556B546B536B5A6B596B586B576B5E6B16
:104690005D6B5C6B5B6B626B616B606B5F6B666BC6
:1046A000656B646B636B6A6B696B686B676B190E28
:1046B0006E6F530E6D6F180E6C6F680E6B6FE90E98
:1046C000726FBD0E716FC60E706F710E6F6FBE0E82
:1046D000766F960E756F240E746F7A0E736FF30EED
:1046E0007A6F5A0E796FAB0E786F810E776FBE6B53
:1046F000BD6BBC6BBB6BC26BC16B4B0EC06F860ED0
:10470000BF6FC66BC56BC46BC36BCA6BC96BC86B21
:10471000C76BCE6BCD6BCC6BCB6BD26BD16BD06BD5
:10472000800ECF6FD66BD56BD46BD36B850EDA6FE3
:10473000EB0ED96F110ED86F7E0ED76FC150C00B24
:104740000F09C16E070EB46E4A0E04011E6F500EA3
:104750001F6F200E206F490E216F6E0E226F670EA5
:10476000236F6C0E246F6F0E256F620E266F610E25
:10477000276F6C0E286F296B430E2A6F610E2B6F0B
:10478000620E2C6F690E2D6F6E0E2E6F610E2F6FE5
:10479000200E306F460E316F6C0E326F750E336F18
:1047A0006A0E346F6F0E356F200E366F4C0E376FFA
:1047B000610E386F6D0E396F690E3A6F6E0E3B6F7A
:1047C000610E3C6F720E3D6F3E6B540E3F6F200EBC
:1047D000406F650E416F730E426F740E436F3D0E56
:1047E000446F456B3A0E466F476B480E486F6F0E2D
:1047F000496F720E4A6F690E4B6F7A0E4C6F6F0ED7
:104800004D6F6E0E4E6F740E4F6F610E506F6C0ECB
:10481000516F526B540E536F690E546F650E556F86
:104820006D0E566F700E576F6F0E586F200E596FCA
:10483000640E5A6F650E5B6F200E5C6F500E5D6FDD
:10484000750E5E6F720E5F6F670E606F610E616F47
:10485000626B550E636F560E646F656B210E666F4B
:10486000676F550E686F620E696F690E6A6F710E21
:104870006B6F750E6C6F650E6D6F200E6E6F560E42
:104880006F6F690E706F640E716F720E726F690ECA
:10489000736F6F0E746F210E756F766F776B500E9E
:1048A000786F720E796F650E7A6F730E7B6F690E7B
:1048B0007C6F6F0E7D6F6E0E7E6F3A0E7F6F806B1A
:1048C0004A0E816F500E826F430E836F460E846FC7
:1048D0004C0E856F480E866F876B460E886F610E93
:1048E000896F620E8A6F720E8B6F690E8C6F630E0A
:1048F0008D6F610E8E6F3A0E8F6F320E906F300E8D
:10490000916F330E926F2E0E936F300E946F956BE6
:10491000410E966F630E976F740E986F750E996FB8
:10492000610E9A6F6C0E9B6F3A0E9C6F9D6B410EE1
:104930009E6F6A0E9F6F750EA06F730EA16F740E3F
:10494000A26F650EA36F3A0EA46FA56B550EA66FEE
:10495000560EA76F4C0EA86F690EA96F660EAA6F50
:10496000650EAB6F3A0EAC6FAD6B460EAE6F690E57
:10497000AF6F6C0EB06F740EB16F650EB26F720ECA
:10498000B36F3A0EB46FB56B460EB66F610EB76F6C
:10499000620EB86F720EB96F690EBA6F630EBB6F9D
:1049A000610EBC6F3A0EBD6F320EBE6F330EBF6F1D
:1049B000350EC06F2E0EC16F300EC26FC36B210E4D
:1049C000C46F500EC56F650EC66F720EC76F640E52
:1049D000C86F690EC96F640ECA6F610ECB6F200E6F
:1049E000CC6F460ECD6F6C0ECE6F750ECF6F6A0E0C
:1049F000D06F6F0ED16F210ED26FD36B540ED46F68
:104A0000690ED56F6D0ED66F650ED76F550ED86FC8
:104A1000560ED96FDA6BFF6B0501006B016B026BF1
:104A2000090E036F046B056B066B076B086B096B54
:104A30000A6B0B6F0C6B0D6B0E6B0F6B106B116BAE
:104A4000126B136B146B156B166B176B186B196B62
:104A50001A6B1B6B1C6B1D6B1E6B1F6B206B216B12
:104A6000226B236B246B256B266B7B6B7C6B7D6BC6
:104A70007E6B7F6B806B816B826B836B846B856BD2
:104A8000866B876B886B896B8A6B8B6B8C6B8D6B82
:104A90008E6B8F6B906B916B926B936B946B956B32
:104AA000966B976B986B996B9A6B9B6B9C6B9D6BE2
:104AB0009E6B9F6BA06BA16BA26BA36BA46BA56B92
:104AC000A66BA76BA86BA96BAA6BAB6BAC6BAD6B42
:104AD000AE6BAF6BB06BB16BB26BB36BB46BB56BF2
:104AE000B66BB76BB86BB96BBA6B06013F6B406BBB
:104AF000850ECD6E9D80C150C00B0C09C16EC0509B
:104B0000C00B0209C06EC08EC280C00EF21200013E
:104B1000E7EF0BF04FEF10F074EC15F004011CAF51
:104B200010D01C9F080E0601416F00016BEC16F0BF
:104B300003C032F502C031F501C030F500C02FF5D9
:104B40000401FC510D08D8B0D3D0FF0A04E1FB5199
:104B50000F08D8B0CDD0FC6BFB6BFBC441F6AA6A42
:104B6000210EA96E41C6A8FFA69CA69EA684F2505F
:104B7000006EF29E0F01550EA76EAA0EA76EA682BA
:104B8000A6B2FED7A6940050F212140E06014A6F88
:104B90000001CDEC09F0FCC441F6AA6A220EA96E10
:104BA00041C6A8FFA69CA69EA684F250006EF29E67
:104BB0000F01550EA76EAA0EA76EA682A6B2FED74B
:104BC000A6940050F212140E06014A6F0001CDECBB
:104BD00009F005011B2B1BBF05D01B51090802E280
:104BE0001B6B1C2B1CBF05D01C51090802E21C6B5F
:104BF0001D2B1DBF05D01D51090802E21D6B1E2B88
:104C00001EBF04D01E51090801E21E6BAA6A100ED5
:104C1000A96E1BC5A8FFA69CA69EA684F250006E96
:104C2000F29E0F01550EA76EAA0EA76EA682A6B21F
:104C3000FED7A6940050F212140E06014A6F00012E
:104C4000CDEC09F0AA6A110EA96E1CC5A8FFA69C9E
:104C5000A69EA684F250006EF29E0F01550EA76E1E
:104C6000AA0EA76EA682A6B2FED7A6940050F21294
:104C7000140E06014A6F0001CDEC09F0AA6A120E6B
:104C8000A96E1DC5A8FFA69CA69EA684F250006E24
:104C9000F29E0F01550EA76EAA0EA76EA682A6B2AF
:104CA000FED7A6940050F212140E06014A6F0001BE
:104CB000CDEC09F0AA6A130EA96E1EC5A8FFA69C2A
:104CC000A69EA684F250006EF29E0F01550EA76EAE
:104CD000AA0EA76EA682A6B2FED7A6940050F21224
:104CE000140E06014A6F0001CDEC09F04FD004010B
:104CF000FB51840803E1FC5103080CE0FB51080858
:104D000003E1FC51070806E0FB518C0840E1FC512F
:104D10000A083DE1FBC441F6AA6A210EA96E41C60C
:104D2000A8FFA69CA69EA684F250006EF29E0F01DC
:104D3000550EA76EAA0EA76EA682A6B2FED7A6949F
:104D40000050F212140E06014A6F0001CDEC09F07A
:104D5000FCC441F6AA6A220EA96E41C6A8FFA69C11
:104D6000A69EA684F250006EF29E0F01550EA76E0D
:104D7000AA0EA76EA682A6B2FED7A6940050F21283
:104D8000140E06014A6F0001CDEC09F00401FA533C
:104D900003E1F9513B0803E2FA6BF96BE32BE351B2
:104DA0003B08D8B0ACD0E36B05010F2B0FBF05D08B
:104DB0000F51090802E20F6B102B10BF05D01051E4
:104DC000090802E2106B112B11BF05D0115109081F
:104DD00002E2116B122B12BF04D01251090801E23A
:104DE000126BAA6A1F0EA96EE3C4A8FFA69CA69E1A
:104DF000A684F250006EF29E0F01550EA76EAA0E09
:104E0000A76EA682A6B2FED7A6940050F212140E88
:104E100006014A6F0001CDEC09F0AA6A0C0EA96EDA
:104E20000FC5A8FFA69CA69EA684F250006EF29E17
:104E30000F01550EA76EAA0EA76EA682A6B2FED7C8
:104E4000A6940050F212140E06014A6F0001CDEC38
:104E500009F0AA6A0D0EA96E10C5A8FFA69CA69E11
:104E6000A684F250006EF29E0F01550EA76EAA0E98
:104E7000A76EA682A6B2FED7A6940050F212140E18
:104E800006014A6F0001CDEC09F0AA6A0E0EA96E68
:104E900011C5A8FFA69CA69EA684F250006EF29EA5
:104EA0000F01550EA76EAA0EA76EA682A6B2FED758
:104EB000A6940050F212140E06014A6F0001CDECC8
:104EC00009F0AA6A0F0EA96E12C5A8FFA69CA69E9D
:104ED000A684F250006EF29E0F01550EA76EAA0E28
:104EE000A76EA682A6B2FED7A6940050F212140EA8
:104EF00006014A6F0001CDEC09F026D00401E35110
:104F00000F0806E0E3511E0803E0E3512D081DE100
:104F1000AA6A1F0EA96EE3C4A8FFA69CA69EA6843B
:104F2000F250006EF29E0F01550EA76EAA0EA76EEC
:104F3000A682A6B2FED7A6940050F212140E060165
:104F40004A6F0001CDEC09F00401DB51020804E0D6
:104F50008B9494940A0EEC6FDB5311E10601426BC3
:104F6000436B010E446F23C545F624C546F625C59F
:104F700047F626C548F6000124EC1BF00401DB2DA2
:104F8000C4D00F0E06015A6F010E5B6F040E5D6FE9
:104F9000530E5C6F010E5E6F5F6F00015AEC19F0EB
:104FA00004011B8F8B9894988B9A949A8B9E949E55
:104FB0008B949494F0C441F6000197EC1EF0090E16
:104FC00006015A6F360E5B6F780E5C6F400E5D6F98
:104FD000010E5E6F5F6B0001F9EC18F002C541F63F
:104FE000140E0601426F436F446B020E456F0001C1
:104FF000A3EC1EF001C541F6280E0601426F140E07
:10500000436F446B020E456F0001A3EC1EF03C0E93
:1050100006015A6F160E5B6F040E5D6F460E5C6FD5
:10502000020E5E6F010E5F6F00015AEC19F000C5B1
:1050300041F6460E0601426F140E436F446B020E9A
:10504000456F0001A3EC1EF0FFC441F65A0E0601A5
:10505000426F140E436F446B020E456F0001A3ECC8
:105060001EF0948082A017D0040E0601416FFA0E44
:105070004A6F0001CDEC09F00601412FF8D794806A
:1050800082A00AD004011B9F020EDB6F0601496B50
:105090000001F7EC1AF0060105010351800A006EC9
:1050A0000401FF51800A005C01E02FE20501045178
:1050B000800A006E0051800A005C04E0D8A002D093
:1050C000040123D00551800A006E0151800A005C62
:1050D00004E0D8A002D0040118D00651800A006E66
:1050E0000251800A005C04E0D8A002D004010DD077
:1050F00004011B9F020EDB6F0601496B0001F7ECF8
:105100001AF004011B771B831B85DB510208D8A40E
:10511000F6EF2EF01B9B06015A6B010E5B6F040E1F
:105120005D6F810E5C6F010E5E6F5F6F00015AEC68
:1051300019F006015A6B0F0E5B6F040E5D6F780E4F
:105140005C6F010E5E6F5F6F00015AEC19F0060193
:105150005A6B1D0E5B6F040E5D6FAE0E5C6F010E21
:105160005E6F5F6F00015AEC19F006015A6B2B0E4F
:105170005B6F040E5D6FA60E5C6F010E5E6F5F6F5E
:1051800000015AEC19F006015A6B370E5B6F040EE2
:105190005D6FD40E5C6F010E5E6F5F6F00015AECA5
:1051A00019F010C542F60A0E0601436F00010FEC1C
:1051B0001FF0015005010F250601416F11C542F690
:1051C000640E436F00010FEC1FF0015006014127F0
:1051D000036A05011251006EE8BE03060601426F24
:1051E00003C043F603C045F6446F030E476FE80E55
:1051F000466F000136EF1FF002C003F001500601B8
:105200004125016E000E032201C041F603C042F6A3
:10521000000161EF1FF003C0D6F502C0D5F501C053
:10522000D4F500C0D3F516C541F6280E0601426F2D
:10523000370E436F446B010E456F0001A3EC1EF067
:1052400015C541F62F0E0601426F370E436F446BB2
:10525000010E456F0001A3EC1EF0360E06015A6FD9
:10526000380E5B6F040E5D6F460E5C6F010E5E6F55
:105270005F6F00015AEC19F014C541F6390E0601B2
:10528000426F370E436F446B010E456F0001A3EC74
:105290001EF013C541F6400E0601426F370E436FF4
:1052A000446B010E456F0001A3EC1EF004011AAF20
:1052B00023D0080E0601416F00016BEC16F000C010
:1052C00041F601C042F602C043F603C044F603C0F3
:1052D00048F602C047F601C046F600C045F6460E45
:1052E0000601496F0F0E4A6F4B6B010E4C6F0001A8
:1052F000C7EC20F004011A9F1BA3D6D0050E0601AF
:10530000416F00014BEC21F004011C83F0C441F615
:10531000000197EC1EF004011CADC5D01C9DFBC420
:1053200041F6AA6A210EA96E41C6A8FFA69CA69EB8
:10533000A684F250006EF29E0F01550EA76EAA0EC3
:10534000A76EA682A6B2FED7A6940050F212140E43
:1053500006014A6F0001CDEC09F0FCC441F6AA6ACF
:10536000220EA96E41C6A8FFA69CA69EA684F25056
:10537000006EF29E0F01550EA76EAA0EA76EA682B2
:10538000A6B2FED7A6940050F212140E06014A6F80
:105390000001CDEC09F0AA6A100EA96E1BC5A8FF8A
:1053A000A69CA69EA684F250006EF29E0F01550E9A
:1053B000A76EAA0EA76EA682A6B2FED7A69400502C
:1053C000F212140E06014A6F0001CDEC09F0AA6A30
:1053D000110EA96E1CC5A8FFA69CA69EA684F2501D
:1053E000006EF29E0F01550EA76EAA0EA76EA68242
:1053F000A6B2FED7A6940050F212140E06014A6F10
:105400000001CDEC09F0AA6A120EA96E1DC5A8FF15
:10541000A69CA69EA684F250006EF29E0F01550E29
:10542000A76EAA0EA76EA682A6B2FED7A6940050BB
:10543000F212140E06014A6F0001CDEC09F0AA6ABF
:10544000130EA96E1EC5A8FFA69CA69EA684F250A8
:10545000006EF29E0F01550EA76EAA0EA76EA682D1
:10546000A6B2FED7A6940050F212140E06014A6F9F
:105470000001CDEC09F0020E0601416FFA0E4A6FF1
:105480000001CDEC09F00601412FF8D7010E416F64
:1054900000014AEC22F00601496B0001F7EC1AF01A
:1054A00074EC15F00401E3D00501326B316B306B05
:1054B0002F6B660E06015A6F2D0E5B6F7F0E5C6FB1
:1054C000400E5D6F010E5E6F5F6B0001F9EC18F02E
:1054D00004011C930601416B000197EC1EF00401CE
:1054E0001CBDC5D01C8DFBC441F6AA6A210EA96E55
:1054F00041C6A8FFA69CA69EA684F250006EF29E0E
:105500000F01550EA76EAA0EA76EA682A6B2FED7F1
:10551000A6940050F212140E06014A6F0001CDEC61
:1055200009F0FCC441F6AA6A220EA96E41C6A8FF82
:10553000A69CA69EA684F250006EF29E0F01550E08
:10554000A76EAA0EA76EA682A6B2FED7A69400509A
:10555000F212140E06014A6F0001CDEC09F0AA6A9E
:10556000100EA96E1BC5A8FFA69CA69EA684F2508D
:10557000006EF29E0F01550EA76EAA0EA76EA682B0
:10558000A6B2FED7A6940050F212140E06014A6F7E
:105590000001CDEC09F0AA6A110EA96E1CC5A8FF86
:1055A000A69CA69EA684F250006EF29E0F01550E98
:1055B000A76EAA0EA76EA682A6B2FED7A69400502A
:1055C000F212140E06014A6F0001CDEC09F0AA6A2E
:1055D000120EA96E1DC5A8FFA69CA69EA684F25019
:1055E000006EF29E0F01550EA76EAA0EA76EA68240
:1055F000A6B2FED7A6940050F212140E06014A6F0E
:105600000001CDEC09F0AA6A130EA96E1EC5A8FF11
:10561000A69CA69EA684F250006EF29E0F01550E27
:10562000A76EAA0EA76EA682A6B2FED7A6940050B9
:10563000F212140E06014A6F0001CDEC09F0020EC1
:105640000601416FFA0E4A6F0001CDEC09F0060128
:10565000412FF8D7010E416F00014AEC22F00601FC
:10566000496B0001F7EC1AF074EC15F0040132C537
:1056700049F631C548F630C547F62FC546F606014E
:105680004D6B4C6B4B6B7F0E4A6F0001FCEC09F0CD
:105690000601666B656B480E646F850E636F03C011
:1056A0006AF602C069F601C068F600C067F600013C
:1056B000F0EC15F003C03AF502C039F501C038F539
:1056C00000C037F50601496B486B480E476F850EE1
:1056D000466F3AC54DF639C54CF638C54BF637C559
:1056E0004AF6000112EC10F007E305013A6B396B42
:1056F000480E386F850E376F3AC549F639C548F6FA
:1057000038C547F637C546F606014D6B4C6B4B6BFB
:10571000800E4A6F0001FCEC09F003C03AF502C0AC
:1057200039F501C038F500C037F53EC544F63DC532
:1057300043F63CC542F63BC541F6AAEC22F02A0EE0
:1057400001240601416F2A0E5A6F1C0E5B6F41C681
:105750005CF6230E5D6F010E5E6F5F6B0001F9EC6E
:1057600018F03AC544F639C543F638C542F637C590
:1057700041F6AAEC22F02A0E01240601416F2A0EFE
:105780005A6F1C0E5B6F41C65CF6230E5D6F010EF7
:105790005E6F5F6F0001F9EC18F0280E06015A6F7A
:1057A0001A0E5B6F5E0E5C6F250E5D6F5E6B010EF9
:1057B0005F6F0001F9EC18F03AC53EF539C53DF5CB
:1057C00038C53CF537C53BF5D6C549F6D5C548F6CD
:1057D000D4C547F6D3C546F606014D6B4C6B7A0E21
:1057E0004B6F880E4A6F0001FCEC09F00601666BF6
:1057F000656B480E646F850E636F03C06AF602C066
:1058000069F601C068F600C067F60001F0EC15F01B
:1058100003C042F502C041F501C040F500C03FF5AC
:105820000601496B486B480E476F850E466F42C5AF
:105830004DF641C54CF640C54BF63FC54AF6000152
:1058400012EC10F007E30501426B416B480E406F0C
:10585000850E3F6F42C549F641C548F640C547F63B
:105860003FC546F606014D6B4C6B4B6B800E4A6F85
:105870000001FCEC09F003C042F502C041F501C093
:1058800040F500C03FF546C544F645C543F644C55E
:1058900042F643C541F6AAEC22F02A0E0124060185
:1058A000416F2A0E5A6F5B6F41C65CF6310E5D6F19
:1058B000010E5E6F5F6B0001F9EC18F042C544F613
:1058C00041C543F640C542F63FC541F6AAEC22F079
:1058D0002A0E01240601416F2A0E5A6F5B6F41C6E2
:1058E0005CF6310E5D6F010E5E6F5F6F0001F9ECCB
:1058F00018F0280E06015A6F5B6F5E0E5C6F330E58
:105900005D6F5E6B010E5F6F0001F9EC18F042C530
:1059100046F541C545F540C544F53FC543F5CD0EB7
:105920000601496FCC0E486F4C0E476F7E0E466FD6
:1059300032C54DF631C54CF630C54BF62FC54AF68B
:10594000000112EC10F001E21EE104011C891CA709
:1059500019D0CD0E0601496FCC0E486F4C0E476F23
:105960007E0E466F32C54DF631C54CF630C54BF64E
:105970002FC54AF6000112EC10F001E204E1050E19
:105980000401EC6F000104011BA70AD0030E0601FD
:10599000416F00014BEC21F08B88949812D00401E8
:1059A000660E06015A6F0E0E5B6F7F0E5C6F1C0E4B
:1059B0005D6F010E5E6F5F6B0001F9EC18F08B9864
:1059C00094980401ED510A08D8A4C2D01B978B9873
:1059D00094981B930601416B000197EC1EF00401A3
:1059E0001C818B8A949A1BBD12D0020E0601416F56
:1059F000FA0E4A6F0001CDEC09F00601412FF8D7ED
:105A0000010E416F00014AEC22F004011B8D690E6A
:105A100006015A6F5B6B040E5D6F630E5C6F020EC6
:105A20005E6F010E5F6F00015AEC19F004011CABB0
:105A30008ED01C9BAA6A1F0EA96EE3C4A8FFA69C69
:105A4000A69EA684F250006EF29E0F01550EA76E20
:105A5000AA0EA76EA682A6B2FED7A6940050F21296
:105A6000140E06014A6F0001CDEC09F0AA6A0C0E73
:105A7000A96E0FC5A8FFA69CA69EA684F250006E34
:105A8000F29E0F01550EA76EAA0EA76EA682A6B2B1
:105A9000FED7A6940050F212140E06014A6F0001C0
:105AA000CDEC09F0AA6A0D0EA96E10C5A8FFA69C40
:105AB000A69EA684F250006EF29E0F01550EA76EB0
:105AC000AA0EA76EA682A6B2FED7A6940050F21226
:105AD000140E06014A6F0001CDEC09F0AA6A0E0E01
:105AE000A96E11C5A8FFA69CA69EA684F250006EC2
:105AF000F29E0F01550EA76EAA0EA76EA682A6B241
:105B0000FED7A6940050F212140E06014A6F00014F
:105B1000CDEC09F0AA6A0F0EA96E12C5A8FFA69CCB
:105B2000A69EA684F250006EF29E0F01550EA76E3F
:105B3000AA0EA76EA682A6B2FED7A6940050F212B5
:105B4000140E06014A6F0001CDEC09F00401A3D048
:105B50001B9D8B9A949A1C91660E06015A6F5B6B83
:105B60007F0E5C6F0E0E5D6F010E5E6F5F6B00014E
:105B7000F9EC18F004011CBB8ED01C8BAA6A1F0E16
:105B8000A96EE3C4A8FFA69CA69EA684F250006E50
:105B9000F29E0F01550EA76EAA0EA76EA682A6B2A0
:105BA000FED7A6940050F212140E06014A6F0001AF
:105BB000CDEC09F0AA6A0C0EA96E0FC5A8FFA69C31
:105BC000A69EA684F250006EF29E0F01550EA76E9F
:105BD000AA0EA76EA682A6B2FED7A6940050F21215
:105BE000140E06014A6F0001CDEC09F0AA6A0D0EF1
:105BF000A96E10C5A8FFA69CA69EA684F250006EB2
:105C0000F29E0F01550EA76EAA0EA76EA682A6B22F
:105C1000FED7A6940050F212140E06014A6F00013E
:105C2000CDEC09F0AA6A0E0EA96E11C5A8FFA69CBC
:105C3000A69EA684F250006EF29E0F01550EA76E2E
:105C4000AA0EA76EA682A6B2FED7A6940050F212A4
:105C5000140E06014A6F0001CDEC09F0AA6A0F0E7E
:105C6000A96E12C5A8FFA69CA69EA684F250006E3F
:105C7000F29E0F01550EA76EAA0EA76EA682A6B2BF
:105C8000FED7A6940050F212140E06014A6F0001CE
:105C9000CDEC09F00401948082A00CD01AB709D091
:105CA0001A87050E06014A6F0001CDEC09F00401C8
:105CB0001B7301D01A97948282A212D01AB90FD006
:105CC0001A89050E06014A6F0001CDEC09F00401A6
:105CD0001B71ED5303E10A0EED6F01D0ED6B01D0A6
:105CE0001A99968484A40CD01ABB09D01A8B050E7D
:105CF00006014A6F0001CDEC09F004011B7701D0C9
:105D00001A9B968284A22DD0968284A21CD01E0E4D
:105D100006014A6F0001CDEC09F0030E0401DB6FB0
:105D2000010E0601416F00014AEC22F00601496BA9
:105D30000001F7EC1AF074EC15F08B9894988B9A9C
:105D4000949A0DD004011ABD09D01A8D1E0E0601B9
:105D50004A6F0001CDEC09F004011B75000102D06F
:105D600004011A9D05011751800A006E1351800A23
:105D7000005C01E03CE21851800A006E1451800A78
:105D8000005C01E034E21951800A006E1551800A6E
:105D9000005C01E02CE21A51800A006E1651800A64
:105DA000005C01E024E2175307E1185305E11953A1
:105DB00003E11A5301E11BD004011C910A0EEA6FA2
:105DC0001B71660E06015A6F5B6B7F0E5C6F0E0EC9
:105DD0005D6F010E5E6F5F6B0001F9EC18F005015D
:105DE000136B146B156B166B0401ED6B050104014D
:105DF000DB510308D8A473D1060EEA6E2B0EE96EB0
:105E0000F2CF41F6F29E000E0001C0EC07F00A004E
:105E10000900F550EE6E0009FBE1060141BFF28E6C
:105E2000060E4A6F2B0E496F280E4B6F4C6B010EFE
:105E30004D6F020E4E6F000191EC1AF00401DD2D42
:105E400023D0060EEA6E2B0EE96EF2CF41F6F29EDB
:105E5000000E0001D2EC07F00A000900F550EE6ECA
:105E60000009FBE1060141BFF28E060E4A6F2B0EC0
:105E7000496F4B6B130E4C6F010E4D6F4E6F00014F
:105E800091EC1AF022D00401060EEA6E2B0EE96E98
:105E9000F2CF41F6F29E000E0001D2EC07F00A00AC
:105EA0000900F550EE6E0009FBE1060141BFF28EDC
:105EB000060E4A6F2B0E496F4B6B130E4C6F4D6BDA
:105EC000010E4E6F000191EC1AF00401DD51020841
:105ED00023E1060EEA6E2B0EE96EF2CF41F6F29E3A
:105EE000000E0001E5EC07F00A000900F550EE6E27
:105EF0000009FBE1060141BFF28E060E4A6F2B0E30
:105F0000496F4B6B230E4C6F010E4D6F4E6F0001AE
:105F100091EC1AF022D00401060EEA6E2B0EE96E07
:105F2000F2CF41F6F29E000E0001E5EC07F00A0008
:105F30000900F550EE6E0009FBE1060141BFF28E4B
:105F4000060E4A6F2B0E496F4B6B230E4C6F4D6B39
:105F5000010E4E6F000191EC1AF00401DD510308AF
