:1000000073EF05F0F76A140FF66E000EF722090081
:10001000F5501200280C01064C555A205556202048
:1000200020202020202020204F4646004C555A20DA
:10003000555620202020202020202020204F4E0018
:100040004C555A20424C414E434120202020202034
:100050004F4646004C555A20424C414E43412020C9
:1000600020202020204F4E0056454E54494C4144FC
:100070004F522020202020204F46460056454E5407
:10008000494C41444F52202020202020204F4E0038
:1000900056454C4F434944414420444520464C5525
:1000A0004A4F200043414D42494F20434F4E545246
:1000B0004153454E412020004D494E492D43414278
:1000C000494E4120444520464C554A4F0000204CA3
:1000D000414D494E415220484F52495A4F4E54418A
:1000E0004C200000202020204A5020494E474C4FF1
:1000F00042414C202020202000002020202052457A
:10010000463A204A5043482D323420202020000017
:100110002020202020496E677265736520202020F2
:1001200020202020000020202020436F6E74726168
:100130007365F16120202020202000002020202055
:10014000434C4156453D256925692569256920208F
:1001500000002020202020202020202020202020DF
:100160002020202020002020202020436F6E747249
:10017000617365F1612020202000202020202020B4
:10018000436F72726563746120202020200020205C
:10019000202020202020202020202020202020205F
:1001A00020002020202020436F6E7472617365F15F
:1001B0006120202020002020202020496E636F72C3
:1001C00072656374612020202000202020202020E0
:1001D00020202020202020202020202020002D2D25
:1001E0002D4D454E55205052494E434950414C2DBE
:1001F0002D2D000020202020202020202020202025
:10020000202020202020202000002020202020202E
:10021000456E63656E64696F2020202020200000F9
:10022000202020202020204C757A20555620202088
:1002300020202020000020202020202020202020FE
:1002400020202020202020202020000020202020EE
:10025000202020202020202020202020202020209E
:10026000000020202020202020417061676F202086
:1002700020202020202000002020202020204C753D
:100280007A202055562020202020202000002020E9
:10029000202020202020202020202020202020205E
:1002A000202000002121205061726120656E63656D
:1002B0006E64657220202020000020202020206C09
:1002C00061204C757A2055562020202020200000E7
:1002D0002020617061677565204C757A20426C61E1
:1002E0006E63612000002020202020205072696D64
:1002F00065726F2121202020202000002020202056
:1003000020202020202020202020202020202020ED
:100310000000202020202020456E63656E64696FF8
:10032000202020202020000020202020204C757A32
:1003300020426C616E63612020202020000020207C
:1003400020202020202020202020202020202020AD
:1003500020200000202020202020202020202020DD
:1003600020202020202020200000202020202020CD
:1003700020417061676F2020202020202020000075
:10038000202020204C757A2020426C616E63612011
:10039000202020200000202020202020202020209D
:1003A000202020202020202020200000212120505B
:1003B00061726120656E63656E6465722020202025
:1003C00000002020206C61204C757A20426C616E08
:1003D0006361202020200000202061706167756526
:1003E000206C61204C757A2055562020000020207A
:1003F000202020205072696D65726F2121202020FD
:10040000202000002020202020202020202020202C
:10041000202020202020202000002020202020201C
:10042000456E63656E64696F2020202020200000E7
:10043000202020202056656E74696C61646F7220E4
:1004400020202020000020202020202020202020EC
:1004500020202020202020202020000020202020DC
:10046000202020202020202020202020202020208C
:10047000000020202020202020417061676F202074
:100480002020202020200000202020202056656EE3
:1004900074696C61646F722020202020000020208D
:1004A000202020202020202020202020202020204C
:1004B0002020000053656C656363696F6E6520568C
:1004C000656C6F63696461640000202020206465AE
:1004D0002056656E74696C61646F72202020000084
:1004E000202020202020202020202020202020200C
:1004F00020202020000020202048612073656C65AA
:100500006363696F6E61646F2020000020206C615E
:100510002076656C6F636964616420202569202002
:10052000000020202020202020202020202020200B
:100530002020202020200000202020202020496E84
:100540006772657365202020202020200000204352
:100550006F6E7472617365F1612041637475616CD3
:100560002020000020202020434C4156453D256995
:1005700025692569256920200000202020202020D1
:1005800020202020202020202020202020200000AB
:100590002020202020436F6E7472617365F161200A
:1005A000202020200000202020202020436F727275
:1005B000656374612020202020200000202020205E
:1005C000202020202020202020202020202020202B
:1005D000000020202020202020202020202020205B
:1005E00020202020202000002020202020436F6E8B
:1005F0007472617365F161202020202000002020AA
:10060000202020496E636F72726563746120202020
:10061000202000002020202020202020202020201A
:1006200020202020202020200000202020202049E1
:100630006E67726573652020202020202020000036
:100640002020436F6E7472617365F161204E756591
:1006500076612020000020202020434C4156453D5B
:100660002569256925692569202000002020202092
:10067000202020202020202020202020202020207A
:1006800000002020202020436F6E7472617365F19A
:1006900061202020202000002020202020416C6D9F
:1006A0006163656E616461202020202000002020AD
:1006B000202020202020202020202020202020203A
:1006C00020200000EA6A230EE96EEF500EE0010ED2
:1006D000016E006A002EFED7012EFBD74A0E006E77
:1006E000002EFED700D0EF2EF2D7000C2938F00BE9
:1006F000006E0F0E81140010816E0000818000D00A
:100700008190000CF00E936E8184000081800000C7
:1007100081380F0B296E81900000818000008138A4
:100720000F0B286E8190000E936E2938006EF00E2C
:10073000001600502810016EA0EF03F08192E2D75E
:1007400001C028F001BEFBD726A0819226B081828D
:1007500000008194000081902738286E0F0E281623
:1007600028C029F0C3DF27500F0B286E296EBEDF8B
:10077000000C000E936E8192819481900F0E236E77
:10078000A1DF010E1C6E1C50030808E3030E296E46
:10079000ADDF050E236E96DF1C2AF5D7020E296EFB
:1007A000A5DF1C6A1C5003080EE3036A1C50F2CF3D
:1007B0001DF0F29E27DC1DBEF28E1D6E266A276E8E
:1007C000BDDF1C2AEFD7A8EF05F0010E245CFC0F5B
:1007D0000FE2040F00EF04F0800E256E09D0C00E6A
:1007E000256E06D0940E256E03D0D40E256E00D053
:1007F000010E235C2526266A25C027F09FDF000C0A
:10080000E824F76AF7361B0FF66E080EF7220A0087
:10081000F550FA6E0800F550F96ED807DE07E407C8
:10082000EA072250F10802E1EE0E226E22500C0A75
:1008300005E0060A0DE0020A12E016D0266A010E53
:10084000276E7CDF010E046E020E236E3BDF12D09A
:10085000042A010E236E04C024F0B7DF0BD0266AF1
:10086000100E276E6BDF06D0010E266E22C027F019
:1008700065DF00D0000C0900F5520CE0F6CF1FF048
:10088000F7CF20F0F5CF22F0CCDF1FC0F6FF20C05D
:10089000F7FFF1D7000C0900F6CF1DF0F7CF1EF0DF
:1008A000F5CF22F0BEDF1DC0F6FF1EC0F7FF1C2EE5
:1008B000F2D7000C2350016A225C03E222C000F050
:1008C0000CD0006A080E246E223600362350005CDD
:1008D000D8B0006E0136242EF7D7000C200E1DA8CC
:1008E000300E1E6E1CC000F01CAE07D0001E002A89
:1008F00000C01CF02D0E1E6E1D8E01501CC022F07B
:10090000640E236ED7DF00C01CF0300E01241F6E72
:100910001CC022F00A0E236ECDDF300E0024216EA3
:10092000300E0124206E1EC000F01DA602D01DAEA8
:100930001D941DB80BD01DAE22D01DB420D000C018
:100940001FF01DB21CD000C020F019D0300E1F5C6B
:1009500016E100C01FF0200E1E6E1DA604D01D94CF
:100960001D821DAE1D92300E205C09E100C020F0FA
:10097000200E1F6E1DA6F7D71D921DAE1D901DA443
:1009800003D01EC022F04DDF1DA203D01FC022F0F5
:1009900048DF1DA003D020C022F043DF21C022F099
:1009A00040DF000C1D2C18D00EB00AD0020E236EB2
:1009B0001EC024F00ADF180EF66E000EF76E5BDF25
:1009C0000EA00AD0020E236E1EC024F0FEDE2C0EF6
:1009D000F66E000EF76E4FDF1D50020818E10EB2E2
:1009E0000AD0020E236E1EC024F0EFDE400EF66E1B
:1009F000000EF76E40DF0EA20AD0020E236E1EC05C
:100A000024F0E3DE540EF66E000EF76E34DF1D5058
:100A1000030818E10EB40AD0020E236E1EC024F0A3
:100A2000D4DE680EF66E000EF76E25DF0EA40AD037
:100A3000020E236E1EC024F0C8DE7C0EF66E000E81
:100A4000F76E19DF1D5004080AE1020E236E1EC066
:100A500024F0BBDE900EF66E000EF76E0CDF1D501C
:100A600005080AE1020E236E1EC024F0AEDEA40EBD
:100A7000F66E000EF76EFFDE000C1E5208E18C963B
:100A800095968C9895988C9A959A8C9495941E2C02
:100A900008D08C9695968C9895988C9A959A8C847B
:100AA00095941E50020808E18C9895988C9A959A16
:100AB0008C9495948C8695961E50030808E18C9A28
:100AC000959A8C9495948C9695968C8895981E50B2
:100AD000040808E18C9695968C9895988C9495943A
:100AE0008C8A959A000CF86AD09EEA6AE96A056ACF
:100AF000060E066E020E076E0B0E086E020E096ED3
:100B0000030E0A6E020E0B6E0C6E040E0D6E0E902E
:100B10000E920E940E960E980E9A0E9C0F6A010E6F
:100B2000106EC150C00B0F09C16E070EB46E3E0EA1
:100B3000116E200E126E5E0E136E146A156A166A1E
:100B4000176A186A196A1A6A1B6A956A8C6A11D63A
:100B5000010E236E246E39DEB80EF66E000EF76EAF
:100B60008ADE010E236E020E246E2FDECE0EF66E8E
:100B7000000EF76E80DE010E236E030E246E25DE5E
:100B8000E40EF66E000EF76E76DE010E236E040E96
:100B9000246E1BDEFA0EF66E000EF76E6CDE080E8B
:100BA0001C6EFA0E236E8EDD1C2EFBD70C0E226EF1
:100BB00038DEF2CF1CF0F29E050EA96EA69CA69E12
:100BC000A680A8501CBEF28E106EF2CF1CF0F29ED2
:100BD000A96AA69CA69EA680A8501CBEF28E186E7E
:100BE000140E236E6FDDF2CF1CF0F29E010EA96E83
:100BF000A69CA69EA680A8501CBEF28E196E140E4E
:100C0000236E60DDF2CF1CF0F29E020EA96EA69C50
:100C1000A69EA680A8501CBEF28E1A6E140E236EDD
:100C200051DDF2CF1CF0F29E030EA96EA69CA69E8B
:100C3000A680A8501CBEF28E1B6E140E236E42DDE1
:100C40000552D8A4A9D1010E236E246EBEDD100E6C
:100C5000F66E010EF76E0FDE010E236E020E246E8D
:100C6000B4DD260EF66E010EF76E05DE010E236E64
:100C7000030E246EAADD3C0EF66E010EF76E0A0E10
:100C80001C6E09DE14C01CF01F0E1D6E27DE15C081
:100C90001CF01F0E1D6E22DE16C01CF01F0E1D6EF6
:100CA0001DDE17C01CF01F0E1D6E18DE200E226EFA
:100CB000B8DD200E226EB5DD928080A010D00EB679
:100CC0000DD00B0E085C036A140FE96E000E0320B2
:100CD000EA6EEF2A0E861E0E236EF4DC01D00E960D
:100CE000928280A210D00EBA0DD00B0E085C036A5F
:100CF000140FE96E000E0320EA6EEF060E8A1E0E38
:100D0000236EE0DC01D00E9A928480A40BD00EB842
:100D100008D00E88082A1E0E236ED4DC0C0E226E1C
:100D200080DD01D00E98928680A60BD00EBC08D034
:100D30000E8C08061E0E236EC5DC0C0E226E71DDB5
:100D400001D00E9C0B0E085C036A140FE96E000EB6
:100D50000320EA6EEFBE01D00AD00B0E085C036AD6
:100D6000140FE96E000E0320EA6E090EEF6E0B0EF3
:100D7000085C036A140FE96E000E0320EA6EEFBEF2
:100D80000CD0EF50090809E20B0E085C036A140F3F
:100D9000E96E000E0320EA6EEF6A08500A0802E3CB
:100DA0000B0E086E08C023F0040E246E0EDD13C077
:100DB00022F037DD08500E08D8B0DED014500308FA
:100DC00069E11550080866E11650090863E11750FB
:100DD000020860E1A96AA86AA69CA69EA684F250B1
:100DE000006EF29E0F01550EA76EAA0EA76EA68288
:100DF000A6B2FED7A6940050F212140E236E000184
:100E000061DC010EA96EA86AA69CA69EA684F2507B
:100E1000006EF29E0F01550EA76EAA0EA76EA68257
:100E2000A6B2FED7A6940050F212140E236E000153
:100E300049DC020EA96EA86AA69CA69EA684F25062
:100E4000006EF29E0F01550EA76EAA0EA76EA68227
:100E5000A6B2FED7A6940050F212140E236E000123
:100E600031DC030EA96EA86AA69CA69EA684F25049
:100E7000006EF29E0F01550EA76EAA0EA76EA682F7
:100E8000A6B2FED7A6940050F212140E236E0001F3
:100E900019DCFF001850145C40E11950155C3DE16D
:100EA0001A50165C3AE11B50175C37E1010E236EB5
:100EB000246E8BDC520EF66E010EF76EDCDC010E3A
:100EC000236E020E246E81DC660EF66E010EF76E46
:100ED000D2DC010E236E030E246E77DC7A0EF66EE2
:100EE000010EF76EC8DC010E236E040E246E6DDC5D
:100EF0008E0EF66E010EF76EBEDC020E1C6EFA0E42
:100F0000236E62EC03F01C2EFAD7010E056E0B0E59
:100F1000086E0C0E226E85DC2FD0010E236E246E1F
:100F200054DC010E236E020E246E4FDCA20EF66E10
:100F3000010EF76EA0DC010E236E030E246E45DC5D
:100F4000B60EF66E010EF76E96DC010E236E040EE1
:100F5000246E3BDCCA0EF66E010EF76E8CDC020EC0
:100F60001C6EFA0E236E62EC03F01C2EFAD70B0EE9
:100F7000086E0C0E226E55DC08500B080DE208506E
:100F80000D080AE3010E085C1C6E236E040E246E2D
:100F90001CDC12C022F045DC052CDDD0010E236ED6
:100FA000246E13DCDE0EF66E010EF76E64DC0FBEEF
:100FB00001D001D00F6A928080A00DD00EB60AD069
:100FC0000B060906010E09240A6E0E861E0E236EFC
:100FD00062EC03F001D00E96928280A20DD00EBA80
:100FE0000AD00B2A092A010E095C0A6E0E8A1E0E0F
:100FF000236E62EC03F001D00E9A0B500D5C08E2F8
:101000000F2A0BC00DF0020E0D5C0C6E040E096E63
:101010000C500B5C08E20F060BC00CF0020E0C2407
:101020000D6E020E096E0B50065C09E207C00BF054
:10103000020E096E0F6A0BC00CF00C240D6E0750E7
:101040000B5C0AE206C00BF0040E096E020E0F6E76
:101050000BC00DF00D5C0C6E010E0F241C6E1D6E8E
:10106000020E1E6E9FDC020E0F241C6E1D6E030E00
:101070001E6E98DC030E0F241C6E1D6E040E1E6E79
:1010800091DC010E236E09C024F0E5EC03F011C0E1
:1010900022F011EC04F00950020814E1010E236E55
:1010A000040E246EE5EC03F012C022F011EC04F003
:1010B000010E236E030E246EE5EC03F012C022F045
:1010C00011EC04F00950040814E1010E236E020E25
:1010D000246EE5EC03F012C022F011EC04F0010ED6
:1010E000236E030E246EE5EC03F012C022F011EC27
:1010F00004F00950030814E1010E236E040E246E5F
:10110000E5EC03F012C022F011EC04F0010E236EA6
:10111000020E246EE5EC03F012C022F011EC04F094
:10112000928480A417D00EB814D00E880BC005F09E
:10113000030E096E1E0E236E62EC03F00C0E226E7F
:1011400011EC04F00550060804E1146A156A166AE9
:10115000176A01D00E9805500208D8A4AED0010E2F
:10116000056E0F6A0EB269D00E700EA032D00E80DE
:10117000010E236E246EE5EC03F0F40EF66E010E04
:10118000F76E3BEC04F0010E236E020E246EE5ECCC
:1011900003F00A0EF66E020EF76E3BEC04F0010E41
:1011A000236E030E246EE5EC03F0200EF66E020EA5
:1011B000F76E3BEC04F0010E236E040E246EE5EC9A
:1011C00003F0360EF66E020EF76E3BEC04F08C80E8
:1011D00095900EB032D00E908C909590010E236EAB
:1011E000246EE5EC03F04C0EF66E020EF76E3BEC4F
:1011F00004F0010E236E020E246EE5EC03F0620E85
:10120000F66E020EF76E3BEC04F0010E236E030E39
:10121000246EE5EC03F0780EF66E020EF76E3BECF2
:1012200004F0010E236E040E246EE5EC03F08E0E26
:10123000F66E020EF76E3BEC04F00EA22FD0010EFC
:10124000236E246EE5EC03F0A40EF66E020EF76E2C
:101250003BEC04F0010E236E020E246EE5EC03F06D
:10126000BA0EF66E020EF76E3BEC04F0010E236E22
:10127000030E246EE5EC03F0D00EF66E020EF76E50
:101280003BEC04F0010E236E040E246EE5EC03F03B
:10129000E60EF66E020EF76E3BEC04F0020E1C6ECC
:1012A000FA0E236E62EC03F01C2EFAD7020E096EC2
:1012B0000B6E0C0E226E11EC04F005500308D8A43E
:1012C000AED0010E056E0F6A0EB069D00E720EA27E
:1012D00032D00E828C829592010E236E246EE5EC44
:1012E00003F0FC0EF66E020EF76E3BEC04F0010EFE
:1012F000236E020E246EE5EC03F0120EF66E030E62
:10130000F76E3BEC04F0010E236E030E246EE5EC49
:1013100003F0280EF66E030EF76E3BEC04F0010EA0
:10132000236E040E246EE5EC03F03E0EF66E030E03
:10133000F76E3BEC04F00EB232D00E928C92959286
:10134000010E236E246EE5EC03F0540EF66E030ED0
:10135000F76E3BEC04F0010E236E020E246EE5ECFA
:1013600003F06A0EF66E030EF76E3BEC04F0010E0E
:10137000236E030E246EE5EC03F0800EF66E030E72
:10138000F76E3BEC04F0010E236E040E246EE5ECC8
:1013900003F0960EF66E030EF76E3BEC04F00EA013
:1013A0002FD0010E236E246EE5EC03F0AC0EF66E2A
:1013B000030EF76E3BEC04F0010E236E020E246E5A
:1013C000E5EC03F0C20EF66E030EF76E3BEC04F094
:1013D000010E236E030E246EE5EC03F0D80EF66EBC
:1013E000030EF76E3BEC04F0010E236E040E246E28
:1013F000E5EC03F0EE0EF66E030EF76E3BEC04F038
:10140000020E1C6EFA0E236E62EC03F01C2EFAD74D
:10141000020E096E0B6E0C0E226E11EC04F00550DC
:101420000408D8A48BD00E740E88010E056E0F6AC6
:101430000EA440D00E84F2CF1CF0F29E050EA96ED1
:10144000A69CA69EA680A8501CBEF28E1D6E1DC036
:101450001EF03DEC05F0010E236E246EE5EC03F06A
:10146000040EF66E040EF76E3BEC04F0010E236ED4
:10147000020E246EE5EC03F01A0EF66E040EF76E03
:101480003BEC04F0010E236E030E246EE5EC03F03A
:10149000300EF66E040EF76E3BEC04F0010E236E78
:1014A000040E246EE5EC03F0460EF66E040EF76EA5
:1014B0003BEC04F00EB433D00E941E6A3DEC05F004
:1014C000010E236E246EE5EC03F05C0EF66E040E46
:1014D000F76E3BEC04F0010E236E020E246EE5EC79
:1014E00003F0720EF66E040EF76E3BEC04F0010E84
:1014F000236E030E246EE5EC03F0880EF66E040EE8
:10150000F76E3BEC04F0010E236E040E246EE5EC46
:1015100003F09E0EF66E040EF76E3BEC04F0020E26
:101520001C6EFA0E236E62EC03F01C2EFAD7020E2C
:10153000096E0B6E0C0E226E11EC04F005500508BE
:10154000D8A4DED0010E236E246EE5EC03F0B40EB9
:10155000F66E040EF76E3BEC04F0010E236E020EE5
:10156000246EE5EC03F0CA0EF66E040EF76E3BEC4B
:1015700004F0080E236E030E246EE5EC03F010C099
:101580001CF01F0E1D6E6EEC04F0928080A009D03E
:101590000EB606D0102A0E861E0E236E62EC03F0E5
:1015A00001D00E96928280A209D00EBA06D0100603
:1015B0000E8A1E0E236E62EC03F001D00E9A928604
:1015C00080A60ED00EBC0BD0020E096E0B6E0E8CD8
:1015D000010E056E0F6A1E0E236E62EC03F001D041
:1015E0000E9C10BE03D01050000802E3040E106ED3
:1015F00010BE05D01050040802E2010E106E928455
:1016000080A473D00EB870D00E88010E056E0F6ADC
:10161000050EA96E10C0A8FFA69CA69EA684F25037
:10162000006EF29E0F01550EA76EAA0EA76EA6823F
:10163000A6B2FED7A6940050F2120EA406D010C097
:101640001EF000013DEC05F00F01010E236E246E2B
:101650000001E5EC03F0E00EF66E040EF76E3BECD5
:1016600004F0010E236E020E246EE5EC03F0F60E7C
:10167000F66E040EF76E3BEC04F0010E236E030EC3
:10168000246EE5EC03F00C0EF66E050EF76E100EF0
:101690001C6E4BEC04F010C01CF01F0E1D6E6EECA7
:1016A00004F0200E226E11EC04F0200E226E11ECDC
:1016B00004F0010E236E040E246EE5EC03F0220EFE
:1016C000F66E050EF76E3BEC04F0020E1C6EFA0E81
:1016D000236E62EC03F01C2EFAD7020E096E0B6E1D
:1016E0000C0E226E11EC04F001D00E98060E236E43
:1016F00009C024F0E5EC03F011C022F011EC04F075
:1017000005500608D8A474D1010E236E246EE5ECB2
:1017100003F0380EF66E050EF76E3BEC04F0010E8A
:10172000236E020E246EE5EC03F04E0EF66E050EEF
:10173000F76E3BEC04F0010E236E030E246EE5EC15
:1017400003F0640EF66E050EF76E0A0E1C6E4BEC7F
:1017500004F014C01CF01F0E1D6E6EEC04F015C0DA
:101760001CF01F0E1D6E6EEC04F016C01CF01F0E58
:101770001D6E6EEC04F017C01CF01F0E1D6E6EEC9B
:1017800004F0200E226E11EC04F0200E226E11ECFB
:1017900004F0928080A011D00EB60ED00B0E085C23
:1017A000036A140FE96E000E0320EA6EEF2A0E861C
:1017B0001E0E236E62EC03F001D00E96928280A280
:1017C00011D00EBA0ED00B0E085C036A140FE96E2E
:1017D000000E0320EA6EEF060E8A1E0E236E62ECE8
:1017E00003F001D00E9A928480A40DD00EB80AD0D6
:1017F0000E88082A1E0E236E62EC03F00C0E226E79
:1018000011EC04F001D00E98928680A60DD00EBC8B
:101810000AD00E8C08061E0E236E62EC03F00C0E2E
:10182000226E11EC04F001D00E9C0B0E085C036AD2
:10183000140FE96E000E0320EA6EEFBE01D00AD04D
:101840000B0E085C036A140FE96E000E0320EA6EAB
:10185000090EEF6E0B0E085C036A140FE96E000EA2
:101860000320EA6EEFBE0CD0EF50090809E20B0E20
:10187000085C036A140FE96E000E0320EA6EEF6A3B
:1018800008500A0808E3010E056E0F6A020E096E81
:101890000B6E0B0E086E08C023F0040E246EE5ECF0
:1018A00003F013C022F011EC04F008500E08D8B079
:1018B0008DD01850145C4DE11950155C4AE11A5056
:1018C000165C47E11B50175C44E1010E236E246E49
:1018D000E5EC03F07A0EF66E050EF76E3BEC04F0C5
:1018E000010E236E020E246EE5EC03F0900EF66EF0
:1018F000050EF76E3BEC04F0010E236E030E246E12
:10190000E5EC03F0A60EF66E050EF76E3BEC04F068
:10191000010E236E040E246EE5EC03F0BC0EF66E91
:10192000050EF76E3BEC04F0020E1C6EFA0E236EF1
:1019300062EC03F01C2EFAD73D0E056E0B0E086EFE
:101940000C0E226E11EC04F0146A156A166A176AFE
:101950003DD0010E236E246EE5EC03F0D20EF66E40
:10196000050EF76E3BEC04F0010E236E020E246EA2
:10197000E5EC03F0E80EF66E050EF76E3BEC04F0B6
:10198000010E236E030E246EE5EC03F0FE0EF66EE0
:10199000050EF76E3BEC04F0010E236E040E246E70
:1019A000E5EC03F0140EF66E060EF76E3BEC04F059
:1019B000020E1C6EFA0E236E62EC03F01C2EFAD798
:1019C0000B0E086E0C0E226E11EC04F008500B0882
:1019D0000FE208500D080CE3010E085C1C6E236E2C
:1019E000040E246EE5EC03F012C022F011EC04F0BA
:1019F00005503D08D8A487D1010E236E246EE5EC76
:101A000003F02A0EF66E060EF76E3BEC04F0010EA4
:101A1000236E020E246EE5EC03F0400EF66E060E09
:101A2000F76E3BEC04F0010E236E030E246EE5EC22
:101A300003F0560EF66E060EF76E0A0E1C6E4BEC99
:101A400004F014C01CF01F0E1D6E6EEC04F015C0E7
:101A50001CF01F0E1D6E6EEC04F016C01CF01F0E65
:101A60001D6E6EEC04F017C01CF01F0E1D6E6EECA8
:101A700004F0200E226E11EC04F0200E226E11EC08
:101A800004F0928080A011D00EB60ED00B0E085C30
:101A9000036A140FE96E000E0320EA6EEF2A0E8629
:101AA0001E0E236E62EC03F001D00E96928280A28D
:101AB00011D00EBA0ED00B0E085C036A140FE96E3B
:101AC000000E0320EA6EEF060E8A1E0E236E62ECF5
:101AD00003F001D00E9A928480A40DD00EB80AD0E3
:101AE0000E88082A1E0E236E62EC03F00C0E226E86
:101AF00011EC04F001D00E98928680A60DD00EBC99
:101B00000AD00E8C08061E0E236E62EC03F00C0E3B
:101B1000226E11EC04F001D00E9C0B0E085C036ADF
:101B2000140FE96E000E0320EA6EEFBE01D00AD05A
:101B30000B0E085C036A140FE96E000E0320EA6EB8
:101B4000090EEF6E0B0E085C036A140FE96E000EAF
:101B50000320EA6EEFBE0CD0EF50090809E20B0E2D
:101B6000085C036A140FE96E000E0320EA6EEF6A48
:101B700008500A0804E3050E056E0B0E086E08C037
:101B800023F0040E246EE5EC03F013C022F011ECF8
:101B900004F008500E08D8B0A4D0010E236E246EB5
:101BA000E5EC03F06C0EF66E060EF76E3BEC04F0FF
:101BB000010E236E020E246EE5EC03F0820EF66E2B
:101BC000060EF76E3BEC04F0010E236E030E246E3E
:101BD000E5EC03F0980EF66E060EF76E3BEC04F0A3
:101BE000010E236E040E246EE5EC03F0AE0EF66ECD
:101BF000060EF76E3BEC04F0A96A14C0A8FFA69C81
:101C0000A69EA684F250006EF29E0F01550EA76E9E
:101C1000AA0EA76EA682A6B2FED7A6940050F21214
:101C2000140E236E000162EC03F0010EA96E15C0C4
:101C3000A8FFA69CA69EA684F250006EF29E0F01FD
:101C4000550EA76EAA0EA76EA682A6B2FED7A694C0
:101C50000050F212140E236E000162EC03F0020E2B
:101C6000A96E16C0A8FFA69CA69EA684F250006E80
:101C7000F29E0F01550EA76EAA0EA76EA682A6B2FF
:101C8000FED7A6940050F212140E236E000162ECEF
:101C900003F0030EA96E17C0A8FFA69CA69EA684FB
:101CA000F250006EF29E0F01550EA76EAA0EA76E9F
:101CB000A682A6B2FED7A6940050F212140E236E8E
:101CC000000162EC03F0020E1C6EFA0E236E62EC51
:101CD00003F01C2EFAD7010E056E0F6A020E096E74
:101CE0000B6E08500B080FE208500D080CE3010EB4
:101CF000085C1C6E236E040E246EE5EC03F012C02B
:0C1D000022F011EC04F020EF06F00300CC
:020000040030CA
:0E0000003FC03E1E000781000FC00FE00F4002
:00000001FF
;PIC18F4550
;CRC=BC67  CREATED="24-sep-14 15:31"
