:04000000B4EF25F044
:08000800046ED8CF05F0E0CF33
:1000100006F00001E9CF0CF0EACF07F0E1CF08F0DD
:10002000E2CF09F0D9CF0AF0DACF0BF0F3CF12F01C
:10003000F4CF13F0FACF14F0FBCF15F000C00EF0A0
:1000400001C00FF002C010F003C011F09DA02CEF12
:1000500000F09EB0F1EF09F00EC000F00FC001F00B
:1000600010C002F011C003F00CC0E9FF07C0EAFFA6
:10007000078E08C0E1FF09C0E2FF0AC0D9FF0BC02C
:10008000DAFF12C0F3FF13C0F4FF14C0FAFF15C06B
:10009000FBFF045006C0E0FF05C0D8FF1000F2CF00
:1000A0000DF0F29EF76ABC0FF66E000EF722000EFE
:1000B000F86E0900F5500DBEF28E1200000000002F
:1000C0000000005F00000003000300143E143E1413
:1000D000242A7F2A1243330866613649552250008C
:1000E00005030000001C2241000041221C001408EE
:1000F0003E081408083E08080050300000080808B0
:100100000808006060000020100804023E514945C4
:100110003E0004027F00426151494622414949366E
:100120001814127F1027454545393E494949320187
:10013000017109073649494936264949493E003681
:100140003600000056360000081422410014141432
:100150001414004122140802015109063E41595568
:100160005E7E0909097E7F494949363E4141412267
:100170007F4141413E7F494949417F090909013E8B
:100180004141493A7F0808087F00417F41003040E3
:1001900040403F7F081422417F404040407F020C96
:1001A000027F7F0204087F3E4141413E7F090909E9
:1001B000061E2121215E7F0909097600F2CF0DF08C
:1001C000F29EF76ADA0FF66E010EF722000EF86E55
:1001D0000900F5500DBEF28E120026494949320140
:1001E000017F01013F4040403F1F2040201F7F20F2
:1001F00010207F41221C22410708700807615149E5
:100200004543007F41000002040810200000417FA8
:10021000000402010204404040404000010204008A
:1002200020545454787F4444443838444444443837
:100230004444447F385454541804047E050508543B
:1002400054543C7F0804047800447D40002040441E
:100250003D007F1028440000417F40007C0478046A
:10026000787C0804047838444444387C1414140816
:10027000081414147C007C080404485454542004CA
:10028000043F44443C4040207C1C2040201C3C4017
:1002900030403C44281028440C5050503C44645496
:1002A0004C44000836414100007F000041413608BF
:1002B000000201020402F2CF0DF0F29ED20FF66EA0
:1002C000020EF722000EF86E0900F5500DBEF28EF8
:1002D000120000000000000000000000000000000C
:1002E000000000000000000000000000000000000E
:1002F00000000000000000000000000000000000FE
:1003000000000000000000000000000000000000ED
:1003100000000000000000000000000000000000DD
:1003200000000000000000000000000000000000CD
:1003300000000000000000000000000000000000BD
:1003400000000000000000000000000000000000AD
:10035000000000000000000000000000000000009D
:10036000000000000000000000000000000000008D
:10037000000000000000000000000000000000007D
:10038000000000000000000000000000000000006D
:10039000000000000000000000000000000000005D
:1003A000000000000000000000000000000000004D
:1003B000000000000000000000000000000000003D
:1003C0000000000000000000000000000000000825
:1003D0000080000000000000000000000000000499
:1003E000010000000000000000000000000000020A
:1003F00002000000000000000000000000000000FB
:100400007800000000000000000000000000000074
:100410008400000000000000000000000000000157
:10042000020000000000000000000000000000F9D1
:1004300002F80000000000000000000000000001C1
:1004400002000000000000000000000000000001A9
:100450000200000000000000000000000000000496
:100460008480000000000000000000000000000880
:1004700078400000000000000000000000000010B4
:1004800048200000000000000000000000000020E4
:100490004810000000000000000000000000000004
:1004A00078000000000000000000000000000000D4
:1004B000000000000000000000000000000000003C
:1004C000000000000000000000000000000000002C
:1004D000000000000000000000000000000000001C
:1004E000000000000000000000000000000000000C
:1006D0000000F2CF0DF0F29EEE0FF66E060EF7223E
:1006E000000EF86E0900F5500DBEF28E12000000EB
:1006F00000000000000000000000000000000000FA
:1007000000000000000000000000000000000000E9
:1007100000000000000000000000000000000000D9
:1007200000000000000000000000000000000000C9
:1007300000000000000000000000000000000000B9
:1007400000000000000000000000000000000000A9
:100750000000000000000000000000000000000099
:100760000000000000000000000000000000000089
:100770000000000000000000000000000000000079
:100780000000000000000000000000000000000069
:100790000000000000000000000000000000000059
:1007A0000000000000000000000000000000000049
:1007B0000000000000000000000000000000000039
:1007C0000000000000000000000000000000000029
:1007D0000000000000000000000000000000000019
:1007E0000000000000000000000000000000000009
:1007F00000000000000000000000000000000000F9
:1008000000000000000000000000000000000000E8
:1008100000000000000000000000000000000000D8
:1008200000000000000000000000000000000000C8
:1008300000000000000000000000000000000000B8
:1008400000000000000000000000000000000000A8
:100850000000000000000000000000000000000098
:100860000000000000000000000000000000000088
:100870000000000000000000000000000000000078
:100880000000000000000000000000000000000068
:100890000000000000000000000000000000000058
:1008A0000000000000000000000000000000000048
:1008B0000000000000000000000000000000000038
:1008C0000000000000000000000000000000000028
:1008D00000000000000000000000007FFFF80000A2
:1008E00000000000000000000000004000080000C0
:1008F0000000000000000000000000470388000026
:100900000000000000000000000000450288000018
:100910000000000000000000000000450288000008
:1009200000000000000000000000004502880000F8
:1009300000000000000000000000004502880000E8
:1009400000000000000000000000004703880000D5
:10095000000000000000000000000040000800004F
:10096000000000000000000000000040FC08000043
:1009700000000000000000000000004084080000AB
:10098000000000000000000000000040840800009B
:10099000000000000000000000000040FC08000013
:1009A00000000000000000000000004000080000FF
:1009B00000000000000000000000007FFFF80000C1
:1009C0000000000000000000000000000000000027
:1009D0000000000000000000000000000000000017
:1009E0000000000000000000000000000000000007
:1009F00000000000000000000000000000000000F7
:100A000000000000000000000000000000000000E6
:100A100000000000000000000000000000000000D6
:100A200000000000000000000000000000000000C6
:100A300000000000000000000000000000000000B6
:100A400000000000000000000000000000000000A6
:100A50000000000000000000000000000000000096
:100A60000000000000000000000000000000000086
:100A70000000000000000000000000000000000076
:100A80000000000000000000000000000000000066
:100A90000000000000000000000000000000000056
:100AA0000000000000000000000000000000000046
:100AB0000000000000000000000000000000000036
:100AC0000000000000000000000000000000000026
:100AD0000000000000000000000000000000000016
:100AE0000000000000000000000000000000F2CF45
:100AF0000DF0F29E0A0FF66E0B0EF722000EF86E46
:100B00000900F5500DBEF28E12000000000000003A
:100B100000000000000000000000000000000000D5
:100B200000000000000000000000000000000000C5
:100B300000000000000000000000000000000000B5
:100B400000000000000000000000000000000000A5
:100DF0000000000000000000600000000000000093
:100E00000000000000000000F000000000000000F2
:100E10000000000000000001F800000000000000D9
:100E20000000000000000001F800000000000000C9
:100E30000000000000000001F800000000000000B9
:100E40000000000000000000F000000000000000B2
:100E5000000000000000003871C000000000000029
:100E6000000000000000007C93E000000000000093
:100E700000000000000000FF0FF000000000000074
:100E800000000000000000FF0FF000000000000064
:100E9000000000000000007D93E000000000000062
:100EA000000000000000003861C0000000000000E9
:100EB0000000000000000000F00000000000000042
:100EC0000000000000000001F80000000000000029
:100ED0000000000000000001F80000000000000019
:100EE0000000000000000001F80000000000000009
:100EF0000000000000000000F00000000000000002
:100F000000000000000000006000F2CF0DF0F29E33
:100F1000F76A280FF66E0F0EF722000EF86E090022
:100F2000F5500DBEF28E1200436C61766500F2CF73
:100F30000DF0F29EF76A4C0FF66E0F0EF722000EC0
:100F4000F86E0900F5500DBEF28E1200436F7272FA
:100F5000656374610000F2CF0DF0F29EF76A740FC2
:100F6000F66E0F0EF722000EF86E0900F5500DBE5A
:100F7000F28E1200496E636F7272656374610000D5
:100F8000F2CF0DF0F29EF76A9E0FF66E0F0EF7226B
:100F9000000EF86E0900F5500DBEF28E12004D6580
:100FA0006E750000F2CF0DF0F29EF76AC20FF66E7A
:100FB0000F0EF722000EF86E0900F5500DBEF28EEE
:100FC0001200416A757374657300F2CF0DF0F29EE2
:100FD000F76AE80FF66E0F0EF722000EF86E0900A2
:100FE000F5500DBEF28E120043616D62696F206490
:100FF0006520436C61766500F2CF0DF0F29EF76AD2
:10100000160FF66E100EF722000EF86E0900F5505E
:101010000DBEF28E12004D6F646F0000F2CF0DF026
:10102000F29EF76A3A0FF66E100EF722000EF86E77
:101030000900F5500DBEF28E12005469656D706F97
:101040002050757267610000F2CF0DF0F29EF76AD2
:10105000660FF66E100EF722000EF86E0900F550BE
:101060000DBEF28E120054656D706F205556000053
:10107000F2CF0DF0F29EF76A8E0FF66E100EF72289
:10108000000EF86E0900F5500DBEF28E12004D6193
:101090006E74656E696D69656E746F00F2CF0DF0E8
:1010A000F29EF76ABA0FF66E100EF722000EF86E77
:1010B0000900F5500DBEF28E120053657276696319
:1010C000696F0000F2CF0DF0F29EF76AE20FF66E44
:1010D000100EF722000EF86E0900F5500DBEF28ECC
:1010E0001200542E2050757267610000F2CF0DF08F
:1010F000F29EF76A0A0FF66E110EF722000EF86ED6
:101100000900F5500DBEF28E1200542E20555600E7
:10111000F2CF0DF0F29EF76A2E0FF66E110EF72247
:10112000000EF86E0900F5500DBEF28E1200436CF1
:10113000617665204E7565766100F2CF0DF0F29E06
:10114000F76A580FF66E110EF722000EF86E0900BE
:10115000F5500DBEF28E12004D616E74656E6965BC
:101160006E746F00F2CF0DF0F29EF76A820FF66E8A
:10117000110EF722000EF86E0900F5500DBEF28E2A
:10118000120054726162616A6F2046696C74726FFA
:101190002868293A0000F2CF0DF0F29EF76AB40FEA
:1011A000F66E110EF722000EF86E0900F5500DBE16
:1011B000F28E120054726162616A6F204C757A205F
:1011C00055562868293A0000F2CF0DF0F29EF76AD2
:1011D000E60FF66E110EF722000EF86E0900F550BC
:1011E0000DBEF28E120053656E736F72206465201F
:1011F000466C756A6F00F2CF0DF0F29EF76A140F1D
:10120000F66E120EF722000EF86E0900F5500DBEB4
:10121000F28E120053656E736F72206465205072F7
:101220006573696F6E00F2CF0DF0F29EF76A440F9E
:10123000F66E120EF722000EF86E0900F5500DBE84
:10124000F28E120056656C6F6369646164205665A6
:101250006E74696C61646F720000F2CF0DF0F29EE3
:10126000F76A780FF66E120EF722000EF86E09007C
:10127000F5500DBEF28E120052656C6163696F6E9F
:1012800020442F490000F2CF0DF0F29EF76AA40F20
:10129000F66E120EF722000EF86E0900F5500DBE24
:1012A000F28E120020204170616761723F00F2CF20
:1012B0000DF0F29EF76ACC0FF66E120EF722000EBA
:1012C000F86E0900F5500DBEF28E12005349000071
:1012D000F2CF0DF0F29EF76AEE0FF66E120EF722C5
:1012E000000EF86E0900F5500DBEF28E12004E4F42
:1012F0000000F2CF0DF0F29EF76A100FF66E130E9B
:10130000F722000EF86E0900F5500DBEF28E1200A5
:1013100053656C656363696F6E2056656C00F2CF30
:101320000DF0F29EF76A3C0FF66E130EF722000ED8
:10133000F86E0900F5500DBEF28E120056656C6F06
:10134000636964616400F2CF0DF0F29EF76A640F86
:10135000F66E130EF722000EF86E0900F5500DBE62
:10136000F28E120047756172646164610000F2CF11
:101370000DF0F29EF76A8C0FF66E130EF722000E38
:10138000F86E0900F5500DBEF28E120052656C61C8
:1013900063696F6E0000F2CF0DF0F29EF76AB40F32
:1013A000F66E130EF722000EF86E0900F5500DBE12
:1013B000F28E120056616C6F7200F2CF0DF0F29E49
:1013C000F76AD80FF66E130EF722000EF86E0900BA
:1013D000F5500DBEF28E1200477561726461646F44
:1013E00000009E0ECF6E580ECE6E0401172BD8B49F
:1013F000182B1CA703D0F42BD8B4F52BF5510A08F1
:1014000006E2FF0A03E1F451B70801E21C85185314
:1014100004E11751C708D8B078D0186B176B1A8F32
:10142000DB2B1C8DDF2BE951050809E11DB104D030
:101430008B8294921D8103D08B9294921D911CA358
:101440001ED00501042B04BF05D00451090802E297
:10145000046B052B05BF05D00551050802E2056B9D
:10146000062B06BF05D00651090802E2066B072BC2
:1014700007BF04D00751050801E2076B04011BAF49
:1014800021D0F62BD8B4F72B0501102B10BF05D0B7
:101490001051090802E2106B112B11BF05D0115138
:1014A000050802E2116B122B12BF05D01251090878
:1014B00002E2126B132B13BF04D01351050801E293
:1014C000136B04011BA303D0F82BD8B4F92B1BAD6D
:1014D0001CD0FC2BFCBF05D0FC51090802E2FC6BC0
:1014E000FD2BFDBF05D0FD51050802E2FD6BFE2B73
:1014F000FEBF05D0FE51090802E2FE6BFF2BFFBFC5
:1015000004D0FF51050801E2FF6B9E9000012CEF13
:1015100000F0060EEA6E470EE96EEF500DE0060E83
:10152000016E006A002EFED7012EFBD77B0E006EE7
:10153000002EFED7EF2EF3D7000C8E0E006E44C6A1
:1015400001F043C602F0036A015209E102C001F052
:10155000026A080E005E015202E1006A08D0D890CB
:1015600001BE04D0023601360006F9D7019E000CF8
:1015700006014351D8B4A5D04F6F4751D8B4A1D07C
:101580004F5F05E37F0E4F27D8B09BD006D0810E6A
:101590004F5FD8A096D0D8B494D04FC600F0016A5F
:1015A000026A036A4E6B44C64DF64D8F45C64CF633
:1015B00046C64BF6190E4F6F4A514B5F0DE2010EB6
:1015C0004C5F0AE24D5F08E24E5F06E24E2B4D2B68
:1015D0004C2B4A514B2728D049514C5F12E2010E47
:1015E0004D5F0FE24E5F0DE24E2B4D2B49514C27C4
:1015F0004A514B2719E34C2B17E14D2B15E14E2B8C
:1016000013D0485180094D5F0EE2010E4E5F0BE290
:101610004E2B485180094D2749514C27E9E34D2B6A
:10162000E7E14E2BE5D703804F2F01D00BD0D890A8
:101630004B374C374D374E37D8900336023601368C
:101640005037BAD750A106D0D890013202320332B7
:10165000503302D0000635E050BF1ED0D8904B3733
:101660004C374D374E374A514B5F07E2010E4C5F06
:1016700004E24D5F02E24E5F1AE349514C5F05E21E
:10168000010E4D5F02E24E5F12E3485180094D5F4B
:1016900003E2010E4E5F0BE3032A09E1022A07E190
:1016A000012A05E1002A0DE001320232033244C66C
:1016B0004FF648514F1B4FAF02D0018E06D0019E0E
:1016C00004D0006A016A026A036A0001000C800EFD
:1016D000D8A202D006014C1B0601516B526B48C6C2
:1016E00050F64C51501B4751D8B4DFD04F6F006EAD
:1016F0004B51D8B4E3D04F5FD8B483D03EE34CC64F
:1017000055F6558F4DC654F64EC653F6526BD890CB
:1017100055335433533352334F2FF8D750AF03D090
:101720005181E0D051914F915189060EEA6E4A0ED7
:10173000E96EEBD0519950BF0AD04FA113D0553369
:10174000543353335233002AD8B4C7D00BD055BFCB
:101750000CD0D89052375337543755370006D8B489
:10176000BCD0F5D7518D6DD0519D48C650F648AFCD
:1017700002D0558FABD0559FA9D04BC64FF64BC664
:1017800000F047514F5F48C655F6558F49C654F68D
:101790004AC653F6526BD8905533543353335233B1
:1017A0004F2FF8D750AF03D051839CD051934F9116
:1017B000518B060EEA6E4E0EE96EA7D0519B50BFBC
:1017C0000AD04FA113D05533543353335233002A28
:1017D000D8B483D00BD055BF0CD0D89052375337E4
:1017E000543755370006D8B478D0F5D7518F29D063
:1017F000519F4CC650F64CAF02D0558F67D0559FC5
:1018000065D04CC655F6558F4DC654F64EC653F6A8
:1018100050AF04D0559F518565D05195526B4F9173
:10182000060EEA6E4A0EE96E70D050BF1CD048C654
:1018300050F64FA106D05533543353335233002A58
:101840004CE052AF0BD0532B09E1542B07E1552B41
:1018500005E1553354335333002A3FE051BD84D75B
:1018600051BFC6D71CD0800E551B55AF04D03AD0FF
:101870004CC650F60AD048C650F6555306E15453AC
:1018800004E1535302E1006A21D055BF08D0D8903B
:101890005237533754375537002EF7D71ED050AF35
:1018A00002D0558F13D0559F11D04BC600F04CC6B7
:1018B00055F64DC654F64EC653F608D047C600F04E
:1018C00048C655F649C654F64AC653F655C601F001
:1018D00054C602F053C603F034D0006A016A026AAB
:1018E000036A2FD0526B531F541F551F521F522B88
:1018F00005E1532B03E1542B01E1552B51B112D7D4
:1019000051B354D751B589D7B3D7EF50532705E317
:10191000542B03E1552BD8B44F81ED52EF5054278F
:1019200003E3552BD8B44F81ED52EF50EFBE01D0F9
:10193000800A5527D8B04F8151B9FCD651BB3ED74C
:1019400074D70001000CF2CF3EF6F29EAA6AA96A93
:10195000A69CA69EA680A85006013EBFF28E050159
:10196000206F0A0E0601476F0001D3DDF2CF3EF66D
:10197000F29EAA6A010EA96EA69CA69EA680A850F9
:1019800006013EBFF28E0501216F0A0E0601476F68
:101990000001BFDDF2CF3EF6F29EAA6A020EA96EEA
:1019A000A69CA69EA680A85006013EBFF28E050109
:1019B000226F0A0E0601476F0001ABDDF2CF3EF643
:1019C000F29EAA6A030EA96EA69CA69EA680A850A7
:1019D00006013EBFF28E0501236F0A0E0601476F16
:1019E000000197DDF2CF3EF6F29EAA6A040EA96EC0
:1019F000A69CA69EA680A85006013EBFF28E0501B9
:101A0000006F0A0E0601476F000183DDF2CF3EF63C
:101A1000F29EAA6A050EA96EA69CA69EA680A85054
:101A200006013EBFF28E0501016F0A0E0601476FE7
:101A300000016FDDF2CF3EF6F29EAA6A060EA96E95
:101A4000A69CA69EA680A85006013EBFF28E050168
:101A5000026F0A0E0601476F00015BDDF2CF3EF612
:101A6000F29EAA6A070EA96EA69CA69EA680A85002
:101A700006013EBFF28E0501036F0A0E0601476F95
:101A8000000147DDF2CF3EF6F29EAA6A080EA96E6B
:101A9000A69CA69EA680A85006013EBFF28E050118
:101AA000086F0A0E0601476F000133DDF2CF3EF6E4
:101AB000F29EAA6A090EA96EA69CA69EA680A850B0
:101AC00006013EBFF28E0501096F0A0E0601476F3F
:101AD00000011FDDF2CF3EF6F29EAA6A0A0EA96E41
:101AE000A69CA69EA680A85006013EBFF28E0501C8
:101AF0000A6F0A0E0601476F00010BDDF2CF3EF6BA
:101B0000F29EAA6A0B0EA96EA69CA69EA680A8505D
:101B100006013EBFF28E05010B6F0A0E0601476FEC
:101B20000001F7DCF2CF3EF6F29EAA6A0C0EA96E17
:101B3000A69CA69EA680A85006013EBFF28E050177
:101B40000C6F0A0E0601476F0001E3DCF2CF3EF690
:101B5000F29EAA6A0D0EA96EA69CA69EA680A8500B
:101B600006013EBFF28E05010D6F0A0E0601476F9A
:101B70000001CFDCF2CF3EF6F29EAA6A0E0EA96EED
:101B8000A69CA69EA680A85006013EBFF28E050127
:101B90000E6F0A0E0601476F0001BBDCF2CF3EF666
:101BA000F29EAA6A0F0EA96EA69CA69EA680A850B9
:101BB00006013EBFF28E05010F6F0A0E0601476F48
:101BC0000001A7DCF2CF3EF6F29EAA6A100EA96EC3
:101BD000A69CA69EA680A85006013EBFF28E0501D7
:101BE000186F0A0E0601476F000193DCF2CF3EF634
:101BF000F29EAA6A110EA96EA69CA69EA680A85067
:101C000006013EBFF28E0501196F0A0E0601476FED
:101C100000017FDCF2CF3EF6F29EAA6A120EA96E98
:101C2000A69CA69EA680A85006013EBFF28E050186
:101C30001A6F0A0E0601476F00016BDCF2CF3EF609
:101C4000F29EAA6A130EA96EA69CA69EA680A85014
:101C500006013EBFF28E05011B6F0A0E0601476F9B
:101C6000000157DCF2CF3EF6F29EAA6A150EA96E6D
:101C7000A69CA69EA680A85006013EBFF28E050136
:101C8000146F0A0E0601476F000143DCF2CF3EF6E7
:101C9000F29EAA6A160EA96EA69CA69EA680A850C1
:101CA00006013EBFF28E0501156F0A0E0601476F51
:101CB00000012FDCF2CF3EF6F29EAA6A170EA96E43
:101CC000A69CA69EA680A85006013EBFF28E0501E6
:101CD000166F0A0E0601476F00011BDCF2CF3EF6BD
:101CE000F29EAA6A180EA96EA69CA69EA680A8506F
:101CF00006013EBFF28E0501176F0A0E0601476FFF
:101D0000000107DCF2CF3EF6F29EAA6A190EA96E18
:101D1000A69CA69EA680A85006013EBFF28E040196
:101D2000E56F0A0E0601476F000189EC0AF0F2CF59
:101D30003EF6F29EAA6A1A0EA96EA69CA69EA680E0
:101D4000A85006013EBFF28E446B436F00019DEC2C
:101D50000AF003C063F502C062F501C061F500C07E
:101D600060F50A0E0601476F000189EC0AF063C5B1
:101D700046F662C545F661C544F660C543F6060100
:101D80004A6B496B200E486F820E476F0001B8EC1A
:101D90000AF003C063F502C062F501C061F500C03E
:101DA00060F50601446BE5C443F600019DEC0AF0C2
:101DB000D89203C04AF602C049F601C048F600C0F6
:101DC00047F663C54EF662C54DF661C54CF660C573
:101DD0004BF67DDC03C057F502C056F501C055F542
:101DE00000C054F5F2CF3EF6F29EAA6A1B0EA96E11
:101DF000A69CA69EA680A85006013EBFF28E0401B6
:101E0000E56F0A0E0601476F000189EC0AF0F2CF78
:101E10003EF6F29EAA6A1C0EA96EA69CA69EA680FD
:101E2000A85006013EBFF28E446B436F00019DEC4B
:101E30000AF003C063F502C062F501C061F500C09D
:101E400060F50A0E0601476F000189EC0AF063C5D0
:101E500046F662C545F661C544F660C543F606011F
:101E60004A6B496B200E486F820E476F0001B8EC39
:101E70000AF003C063F502C062F501C061F500C05D
:101E800060F50601446BE5C443F600019DEC0AF0E1
:101E9000D89203C04AF602C049F601C048F600C015
:101EA00047F663C54EF662C54DF661C54CF660C592
:101EB0004BF60DDC03C05BF502C05AF501C059F5C5
:101EC00000C058F5F2CF3EF6F29EAA6A1E0EA96E29
:101ED000A69CA69EA680A85006013EBFF28E3F6F2C
:101EE000F2CF40F6F29EAA6A1D0EA96EA69CA69E8F
:101EF000A680A85040BFF28E416F3FC603F041510B
:101F0000436F03C044F600019DEC0AF003C0C3F523
:101F100002C0C2F501C0C1F500C0C0F50A0E06013D
:101F2000476F000189EC0AF0F2CF3EF6F29EAA6AF2
:101F3000220EA96EA69CA69EA680A85006013EBFB2
:101F4000F28E3F6FF2CF40F6F29EAA6A210EA96E82
:101F5000A69CA69EA680A85040BFF28E416F3FC6A9
:101F6000F9F441C6F8F40A0E476F000189EC0AF053
:101F7000F2CF3EF6F29EAA6A1F0EA96EA69CA69EFE
:101F8000A680A85006013EBFF28E0401E06F0A0E43
:101F90000601476F000189EC0AF0F2CF3EF6F29E8F
:101FA000AA6A200EA96EA69CA69EA680A85006012D
:101FB0003EBFF28E0401ED6F0A0E0601476F00016D
:101FC00089EC0AF0F2CF3EF6F29EAA6A230EA96EC1
:101FD000A69CA69EA680A85006013EBFF28E0401D4
:101FE000E56F0A0E0601476F000189EC0AF0F2CF97
:101FF0003EF6F29EAA6A240EA96EA69CA69EA68014
:10200000A85006013EBFF28E446B436F00019DEC69
:102010000AF003C063F502C062F501C061F500C0BB
:1020200060F50A0E0601476F000189EC0AF063C5EE
:1020300046F662C545F661C544F660C543F606013D
:102040004A6B496B480E486F850E476F0001B8EC2C
:102050000AF003C063F502C062F501C061F500C07B
:1020600060F50601446BE5C443F600019DEC0AF0FF
:10207000D89203C04AF602C049F601C048F600C033
:1020800047F663C54EF662C54DF661C54CF660C5B0
:102090004BF667EC0BF003C0D7F502C0D6F501C0D4
:1020A000D5F500C0D4F5F2CF3EF6F29EAA6A3D0EF9
:1020B000A96EA69CA69EA680A85006013EBFF28EE1
:1020C0003F6FF2CF40F6F29EAA6A3C0EA96EA69C24
:1020D000A69EA680A85040BFF28E416F3FC603F077
:1020E0004151436F03C044F600019DEC0AF003C068
:1020F00033F502C032F501C031F500C030F50A0EEB
:102100000601476F000189EC0AF0F2CF3EF6F29E1D
:10211000AA6A3F0EA96EA69CA69EA680A85006019C
:102120003EBFF28E3F6FF2CF40F6F29EAA6A3E0E9D
:10213000A96EA69CA69EA680A85040BFF28E416FB5
:102140003FC603F04151436F03C044F600019DECCC
:102150000AF003C0CFF502C0CEF501C0CDF500C036
:10216000CCF50A0E0601476F000189EC0AF0F2CFA8
:102170003EF6F29EAA6A320EA96EA69CA69EA68084
:10218000A85006013EBFF28E0401DC6F0A0E060164
:10219000476F000189EC0AF070EF28F044C64BF657
:1021A000060148514B1B4BAF05D0D894D89044BF83
:1021B000D8802FD044C64BF647C64CF643514C5FEF
:1021C00006E04BAF26D0D850010AD86E22D048C6C0
:1021D0004CF644514C5F06E04BAF1BD0D850010A7F
:1021E000D86E17D049C64CF645514C5F06E04BAF50
:1021F00010D0D850010AD86E0CD04AC64CF64651C1
:102200004C5F06E04BAF05D0D850010AD86E01D024
:10221000D8900001000C050120BF03D0205109080F
:1022200003E320BF01D016D0206BAA6AA96AA86A6E
:10223000A69CA69EA684F250006EF29E0F01550E3B
:10224000A76EAA0EA76EA682A6B2FED7A6940050CD
:10225000F212050121BF03D02151090803E321BF78
:1022600001D017D0216BAA6A010EA96EA86AA69C9C
:10227000A69EA684F250006EF29E0F01550EA76E28
:10228000AA0EA76EA682A6B2FED7A6940050F2129E
:10229000050122BF03D02251090803E322BF01D068
:1022A00017D0226BAA6A020EA96EA86AA69CA69EE7
:1022B000A684F250006EF29E0F01550EA76EAA0E74
:1022C000A76EA682A6B2FED7A6940050F212050110
:1022D00023BF03D02351090803E323BF01D017D044
:1022E000236BAA6A030EA96EA86AA69CA69EA68462
:1022F000F250006EF29E0F01550EA76EAA0EA76E49
:10230000A682A6B2FED7A6940050F212050100BF25
:1023100003D00051090803E300BF01D017D0006BC0
:10232000AA6A040EA96EA86AA69CA69EA684F2506C
:10233000006EF29E0F01550EA76EAA0EA76EA68222
:10234000A6B2FED7A6940050F212050101BF03D039
:102350000151090803E301BF01D017D0016BAA6A3C
:10236000050EA96EA86AA69CA69EA684F250006ED1
:10237000F29E0F01550EA76EAA0EA76EA682A6B2F8
:10238000FED7A6940050F212050102BF03D00251FD
:10239000090803E302BF01D019D0020E026FAA6A36
:1023A000060EA96E020EA86EA69CA69EA684F250EA
:1023B000006EF29E0F01550EA76EAA0EA76EA682A2
:1023C000A6B2FED7A6940050F212050103BF03D0B7
:1023D0000351090803E303BF01D017D0036BAA6AB6
:1023E000070EA96EA86AA69CA69EA684F250006E4F
:1023F000F29E0F01550EA76EAA0EA76EA682A6B278
:10240000FED7A6940050F212050108BF03D0085170
:10241000090803E308BF01D017D0086BAA6A080EA9
:10242000A96EA86AA69CA69EA684F250006EF29E93
:102430000F01550EA76EAA0EA76EA682A6B2FED7F2
:10244000A6940050F212050109BF03D009510908F2
:1024500003E309BF01D017D0096BAA6A090EA96E60
:10246000A86AA69CA69EA684F250006EF29E0F015A
:10247000550EA76EAA0EA76EA682A6B2FED7A69488
:102480000050F21205010ABF03D00A51090803E304
:102490000ABF01D019D0020E0A6FAA6A0A0EA96EED
:1024A000020EA86EA69CA69EA684F250006EF29E16
:1024B0000F01550EA76EAA0EA76EA682A6B2FED772
:1024C000A6940050F21205010BBF03D00B5109086E
:1024D00003E30BBF01D017D00B6BAA6A0B0EA96EDA
:1024E000A86AA69CA69EA684F250006EF29E0F01DA
:1024F000550EA76EAA0EA76EA682A6B2FED7A69408
:102500000050F21205010CBF03D00C51090803E37F
:102510000CBF01D017D00C6BAA6A0C0EA96EA86A6A
:10252000A69CA69EA684F250006EF29E0F01550E48
:10253000A76EAA0EA76EA682A6B2FED7A6940050DA
:10254000F21205010DBF03D00D51090803E30DBFC1
:1025500001D017D00D6BAA6A0D0EA96EA86AA69CB1
:10256000A69EA684F250006EF29E0F01550EA76E35
:10257000AA0EA76EA682A6B2FED7A6940050F212AB
:1025800005010EBF03D00E51090803E30EBF01D0B1
:1025900017D00E6BAA6A0E0EA96EA86AA69CA69EFC
:1025A000A684F250006EF29E0F01550EA76EAA0E81
:1025B000A76EA682A6B2FED7A6940050F21205011D
:1025C0000FBF03D00F51090803E30FBF01D017D08D
:1025D0000F6BAA6A0F0EA96EA86AA69CA69EA68477
:1025E000F250006EF29E0F01550EA76EAA0EA76E56
:1025F000A682A6B2FED7A6940050F212050118BF1B
:1026000003D01851090803E318BF01D017D0186B85
:10261000AA6A100EA96EA86AA69CA69EA684F2506D
:10262000006EF29E0F01550EA76EAA0EA76EA6822F
:10263000A6B2FED7A6940050F212050119BF03D02E
:102640001951090803E319BF01D017D0196BAA6A01
:10265000110EA96EA86AA69CA69EA684F250006ED2
:10266000F29E0F01550EA76EAA0EA76EA682A6B205
:10267000FED7A6940050F21205011ABF03D01A51DA
:10268000090803E31ABF01D017D01A6BAA6A120E09
:10269000A96EA86AA69CA69EA684F250006EF29E21
:1026A0000F01550EA76EAA0EA76EA682A6B2FED780
:1026B000A6940050F21205011BBF03D01B5109085C
:1026C00003E31BBF01D017D01B6BAA6A130EA96EC0
:1026D000A86AA69CA69EA684F250006EF29E0F01E8
:1026E000550EA76EAA0EA76EA682A6B2FED7A69416
:1026F0000050F212050114BF03D01451090803E37E
:1027000014BF01D017D0146BAA6A150EA96EA86A5F
:10271000A69CA69EA684F250006EF29E0F01550E56
:10272000A76EAA0EA76EA682A6B2FED7A6940050E8
:10273000F212050115BF03D01551090803E315BFB7
:1027400001D017D0156BAA6A160EA96EA86AA69CAE
:10275000A69EA684F250006EF29E0F01550EA76E43
:10276000AA0EA76EA682A6B2FED7A6940050F212B9
:10277000050116BF03D01651090803E316BF01D0A7
:1027800017D0166BAA6A170EA96EA86AA69CA69EF9
:10279000A684F250006EF29E0F01550EA76EAA0E8F
:1027A000A76EA682A6B2FED7A6940050F21205012B
:1027B00017BF03D01751090803E317BF01D018D082
:1027C000010E176FAA6A180EA96E010EA86EA69CBC
:1027D000A69EA684F250006EF29E0F01550EA76EC3
:1027E000AA0EA76EA682A6B2FED7A6940050F21239
:1027F0000601466B456B480E446F830E436F57C509
:102800004AF656C549F655C548F654C547F600017F
:10281000C5DC32E30501576B566B400E556F7F0EDA
:10282000546FAA6A190EA96E010EA86EA69CA69EE8
:10283000A684F250006EF29E0F01550EA76EAA0EEE
:10284000A76EA682A6B2FED7A6940050F212AA6A7C
:102850001A0EA96E050EA86EA69CA69EA684F2501E
:10286000006EF29E550EA76EAA0EA76EA682A6B2A5
:10287000FED7A6940050F2120601466B456B480E37
:10288000446F830E436F5BC54AF65AC549F659C576
:1028900048F658C547F6000181DC30E305015B6B63
:1028A0005A6B596B7F0E586FAA6A1B0EA96E010EE8
:1028B000A86EA69CA69EA684F250006EF29E0F0102
:1028C000550EA76EAA0EA76EA682A6B2FED7A69434
:1028D0000050F212AA6A1C0EA96EA86AA69CA69EB7
:1028E000A684F250006EF29E550EA76EAA0EA76E39
:1028F000A682A6B2FED7A6940050F2120601466B3D
:10290000456B160E446F870E436FC3C54AF6C2C5AA
:1029100049F6C1C548F6C0C547F600013FDC31E3C2
:102920000501C36BC26B4B0EC16F860EC06FAA6AE6
:102930001D0EA96ECB0EA86EA69CA69EA684F25074
:10294000006EF29E0F01550EA76EAA0EA76EA6820C
:10295000A6B2FED7A6940050F212AA6A1E0EA96E65
:10296000A86AA69CA69EA684F250006EF29E550E02
:10297000A76EAA0EA76EA682A6B2FED7A694005096
:10298000F2120401E0513C0817E2E06BAA6A1F0E44
:10299000A96EA86AA69CA69EA684F250006EF29E1E
:1029A0000F01550EA76EAA0EA76EA682A6B2FED77D
:1029B000A6940050F2120401ED51060819E2020E2D
:1029C000ED6FAA6A200EA96E020EA86EA69CA69EA6
:1029D000A684F250006EF29E0F01550EA76EAA0E4D
:1029E000A76EA682A6B2FED7A6940050F2120401EA
:1029F000F9510D0830E2FF0A03E1F85110082BE20B
:102A0000F96BF86BAA6A210EA96EA86AA69CA69E0D
:102A1000A684F250006EF29E0F01550EA76EAA0E0C
:102A2000A76EA682A6B2FED7A6940050F212AA6A9A
:102A3000220EA96EA86AA69CA69EA684F250006EDD
:102A4000F29E550EA76EAA0EA76EA682A6B2FED75C
:102A5000A6940050F2120601466B456B446B800E43
:102A6000436FD7C54AF6D6C549F6D5C548F6D4C58D
:102A700047F60001CEEC10F033E3850E0501D76F69
:102A8000EB0ED66F110ED56F7E0ED46FAA6A230E91
:102A9000A96EA86AA69CA69EA684F250006EF29E1D
:102AA0000F01550EA76EAA0EA76EA682A6B2FED77C
:102AB000A6940050F212AA6A240EA96E390EA86ECE
:102AC000A69CA69EA684F250006EF29E550EA76E9E
:102AD000AA0EA76EA682A6B2FED7A6940050F21246
:102AE0000601466B456B480E446F860E436F33C537
:102AF0004AF632C549F631C548F630C547F60001F9
:102B0000CEEC10F02EE30501336B326B316B306B82
:102B1000AA6A3C0EA96EA86AA69CA69EA684F2503C
:102B2000006EF29E0F01550EA76EAA0EA76EA6822A
:102B3000A6B2FED7A6940050F212AA6A3D0EA96E64
:102B4000A86AA69CA69EA684F250006EF29E550E20
:102B5000A76EAA0EA76EA682A6B2FED7A6940050B4
:102B6000F2120601466B456B610E446F880E436F8F
:102B7000CFC54AF6CEC549F6CDC548F6CCC547F611
:102B80000001CEEC10F031E30501CF6BCE6B700E7F
:102B9000CD6F860ECC6FAA6A3E0EA96EF00EA86E9F
:102BA000A69CA69EA684F250006EF29E0F01550EC2
:102BB000A76EAA0EA76EA682A6B2FED7A694005054
:102BC000F212AA6A3F0EA96EA86AA69CA69EA684C7
:102BD000F250006EF29E550EA76EAA0EA76EA68248
:102BE000A6B2FED7A6940050F2120401DC511408DC
:102BF00019E20A0EDC6FAA6A320EA96E0A0EA86EDE
:102C0000A69CA69EA684F250006EF29E0F01550E61
:102C1000A76EAA0EA76EA682A6B2FED7A6940050F3
:102C2000F2120401000172EF28F006014D5303E097
:102C300093968A8602D093948A84939C8A9C956A00
:102C40004EC68CFF0000939E8A8E00D000D00000FC
:102C5000939E8A9E93948A9493968A960001000C80
:102C60000601496B170E486F020E4B6F170E4A6F25
:102C7000466B465107084EE3939A8A9A4D6B400E75
:102C80004E6F0001D2DF010E06014D6F400E4E6FF8
:102C90000001CBDF06014651B8094C6F4D6B4E6FFA
:102CA0000001C3DF06014651B8094C6F010E4D6F9C
:102CB0004CC64EF60001B9DF939A8A8A0601476B2B
:102CC00047513F0825E349C603F04851482BD8B483
:102CD000492BE96E03C0EAFFEFCF4CF64D6B4CC6B3
:102CE0004EF60001A2DF06014BC603F04A514A2B03
:102CF000D8B44B2BE96E03C0EAFFEFCF4CF6010EC0
:102D00004D6F4CC64EF6000190DF0601472BD8D719
:102D1000462BAFD70001000C06014335006E00368C
:102D2000FC0E001600C001F0C250C30B0010C26EB2
:102D3000010E476F000189EC0AF0C282C2B2FED7D1
:102D4000C4CF45F60601C3CF44F644C601F045C6DC
:102D500002F00001000C06016051D8B471D0006E81
:102D60006451D8B46DD0002604E3810E002668E2D9
:102D700004D07F0E005E64E363E061C668F66551CF
:102D8000681B618F658F63516703F4CF6AF66251E8
:102D90006603F4CF03F0F3CF69F66703F3506A27B5
:102DA000F4506923000E032263516603F3506A272F
:102DB000F4506923000E026A032202226151670364
:102DC000F3506927F4500322000E0222615166037A
:102DD000F3500326F4500222000E016A01226351CF
:102DE0006503F3506927F4500322000E02220122EA
:102DF00062516503F3500326F4500222000E0122B3
:102E000061516503F3500226F4500122002A01BEED
:102E100005D069370336023601360006000E69AF69
:102E20000AD0032A02220122015005E1025003E1E7
:102E3000035001E1002A68BF018E68AF019E04D0F3
:102E4000006A016A026A036A0001000C0601436B12
:102E5000000162DF02C0EFF401C0EEF40401DC51B6
:102E60000A0823E1EFC444F6EEC443F600019DECEA
:102E70000AF0D89203C04AF602C049F601C048F6EB
:102E800000C047F633C54EF632C54DF631C54CF697
:102E900030C54BF667EC0BF003C04BF502C04AF5AA
:102EA00001C049F500C048F50401DC51140822E1D5
:102EB000EFC444F6EEC443F600019DEC0AF0D8825C
:102EC00003C04AF602C049F601C048F600C047F602
:102ED00033C54EF632C54DF631C54CF630C54BF60E
:102EE00067EC0BF003C04BF502C04AF501C049F591
:102EF00000C048F54BC563F64AC562F649C561F6A0
:102F000048C560F64BC567F64AC566F649C565F61D
:102F100048C564F600011FDF03C04FF502C04EF53F
:102F200001C04DF500C04CF54BC563F64AC562F6CD
:102F300049C561F648C560F64FC567F64EC566F6E9
:102F40004DC565F64CC564F606DF03C053F502C0F7
:102F500052F501C051F500C050F553C563F652C596
:102F600062F651C561F650C560F66BC567F66AC575
:102F700066F669C565F668C564F6EDDE00C03FF625
:102F800001C040F602C041F603C042F64FC563F6E9
:102F90004EC562F64DC561F64CC560F66FC567F665
:102FA0006EC566F66DC565F66CC564F6D4DED8925E
:102FB00042C64AF641C649F640C648F63FC647F6FD
:102FC00003C04EF602C04DF601C04CF600C04BF6F1
:102FD00067EC0BF000C03FF601C040F602C041F6BE
:102FE00003C042F64BC563F64AC562F649C561F6B1
:102FF00048C560F673C567F672C566F671C565F6B5
:1030000070C564F6A8DED89242C64AF641C649F6B3
:1030100040C648F63FC647F603C04EF602C04DF61E
:1030200001C04CF600C04BF667EC0BF000C03FF659
:1030300001C040F602C041F603C042F6D89203C078
:103040004AF602C049F601C048F600C047F677C507
:103050004EF676C54DF675C54CF674C54BF667EC65
:103060000BF003C047F502C046F501C045F500C0AE
:1030700044F5D88247C54AF646C549F645C548F6DF
:1030800044C547F60A0E06014E6FD70E4D6F230E4C
:103090004C6F7B0E4B6F000167EC0BF003C047F5E4
:1030A00002C046F501C045F500C044F547C546F6E7
:1030B00046C545F645C544F644C543F606014A6B88
:1030C000496B486B476B0001CEEC10F005E305013E
:1030D000476B466B456B446B06013E510401E35D53
:1030E00001E3E36BE351040DF350036A780FE96EDB
:1030F000050E0320EA6E44C5EFFF45C5ECFF46C54B
:10310000ECFF47C5ECFFE32B0501BB6BBA6BB96B5A
:10311000B86B0401E46B010E06013E5D0401E45D41
:1031200001E038E2E451040DF350036A780FE96ED0
:10313000050E0320EA6EEFCF00F0ECCF01F0ECCFEC
:1031400002F0ECCF03F0EACF40F6E9CF3FF6D89299
:10315000BBC54AF6BAC549F6B9C548F6B8C547F67B
:1031600003C04EF602C04DF601C04CF600C04BF64F
:10317000000167EC0BF040C6EAFF3FC6E9FF03C061
:10318000BBF502C0BAF501C0B9F500C0B8F504013D
:10319000E42BC1D70601446B3EC643F600019DEC0B
:1031A0000AF0BBC546F6BAC545F6B9C544F6B8C57A
:1031B00043F603C04AF602C049F601C048F600C013
:1031C00047F6B8EC0AF000C03FF601C040F602C076
:1031D00041F603C042F603C063F602C062F601C0C6
:1031E00061F600C060F657C567F656C566F655C568
:1031F00065F654C564F6AFDD03C0BBF502C0BAF591
:1032000001C0B9F500C0B8F5B8C500F0B9C501F006
:10321000BAC502F0BBC503F07EEF28F00601426B91
:10322000416B406B3F6B010E436F000175DD02C0C7
:10323000F1F401C0F0F4F1C444F6F0C443F69DEC9F
:103240000AF003C0C7F502C0C6F501C0C5F500C04D
:10325000C4F5C7C546F6C6C545F6C5C544F6C4C5DA
:1032600043F6CFC54AF6CEC549F6CDC548F6CCC51E
:1032700047F6B8EC0AF000C043F601C044F602C0BD
:1032800045F603C046F6D88203C04AF602C049F6A6
:1032900001C048F600C047F606014E6B4D6B4C6B03
:1032A0007F0E4B6F000167EC0BF003C0CBF502C043
:1032B000CAF501C0C9F500C0C8F5CBC546F6CAC5F8
:1032C00045F6C9C544F6C8C543F606014A6B496BC5
:1032D000486B476B0001CEEC10F005E30501CB6BAA
:1032E000CA6BC96BC86B010E06013E5D0401E25D4D
:1032F00002E001E3E26BE251040DF350036A980F20
:10330000E96E050E0320EA6ECBC563F6CAC562F608
:10331000C9C561F6C8C560F6D70E0601676FA30E72
:10332000666F656B810E646F000115DD00C0EFFFF5
:1033300001C0ECFF02C0ECFF03C0ECFF0401E22B74
:10334000E16B010E06013E5D0401E15D01E038E242
:10335000E151040DF350036A980FE96E050E032046
:10336000EA6EEFCF00F0ECCF01F0ECCF02F0ECCF43
:1033700003F0EACF44F6E9CF43F6D89242C64AF6C4
:1033800041C649F640C648F63FC647F603C04EF66A
:1033900002C04DF601C04CF600C04BF6000167ECD0
:1033A0000BF044C6EAFF43C6E9FF03C042F602C081
:1033B00041F601C040F600C03FF60401E12BC1D741
:1033C0000601446B3EC643F600019DEC0AF042C67E
:1033D00046F641C645F640C644F63FC643F603C02E
:1033E0004AF602C049F601C048F600C047F6B8ECFC
:1033F0000AF003C042F602C041F601C040F600C028
:103400003FF63FC600F040C601F041C602F042C69A
:1034100003F08CEF28F006015C51016A5B5D03E26A
:103420005BC600F00CD0006A080E5D6F5B3700369B
:103430005C51005CD8B0006E01365D2FF7D70001FB
:10344000000C3DC6EAFF3CC6E9FF060160C6EFFF7F
:10345000E92AD8B4EA2AEF6A3C2BD8B43D2B000104
:10346000000C200E060156A9300E576F55C600F00D
:1034700055AF07D0001E002A00C055F62D0E576F1D
:10348000568F015055C65BF6640E5C6F0001C3DFBA
:1034900000C055F6300E01240601586F55C65BF684
:1034A0000A0E5C6F0001B7DF300E002406015A6F70
:1034B000300E0124596F57C600F056A702D056AF00
:1034C000569556B90BD056AF22D056B520D000C075
:1034D00058F656B31CD000C059F619D0300E585DBE
:1034E00016E100C058F6200E576F56A704D0569527
:1034F000568356AF5693300E595D09E100C059F618
:10350000200E586F56A7F7D7569356AF569156A52B
:1035100005D057C660F6000194DF060156A305D01A
:1035200058C660F600018DDF060156A104D059C6C9
:1035300060F6000186DF5AC660F6000182DF000CEB
:103540000601786B7331776F773377331F0E7717F8
:1035500077377837773778377737783777377837F7
:103560007737783777377837C00E771772517727E4
:10357000000E782372513F080DE2170E7725796F00
:10358000020E78217A6F400E795D756F000E7A59C0
:10359000766F06D0170E7725756F000E7821766F3F
:1035A000745315E076C603F075C6E9FF76C6EAFFE8
:1035B0007351070B796F010E006E7951016E04E0B3
:1035C000D8900036012EFCD70050EF1215D076C6E9
:1035D00003F075C6E9FF76C6EAFF7351070B796FF2
:1035E000010E006E7951016E04E0D8900036012E74
:1035F000FCD70050FF0AEF160001000C010E060177
:103600006B6F6C6F716B6251645D726F725172AFF0
:1036100003D0000ED8807255036A696F03C06AF642
:103620006351655D726F725172AF03D0000ED88026
:103630007255036A676F03C068F66251645D02E207
:10364000FF0E6B6F6351655D02E2FF0E6C6F685198
:103650006A5D3BE303E16751695D37E3D890673703
:1036600068376951675D006E6A51685900C06DF630
:103670006E6F69516D5D6F6F6A516E59706F6A53ED
:1036800003E17151695D20E362C672F663C673F6A9
:1036900066C674F6000154DF06016EBF01D008D083
:1036A00067516D2768516E236B516225626F0AD096
:1036B0006F516D2770516E236B516225626F6C5193
:1036C0006325636F712BDBD736D0D89069376A37A3
:1036D0006751695D006E68516A5900C06DF66E6F82
:1036E00067516D5D6F6F68516E59706F685303E17C
:1036F0007151675D20E362C672F663C673F666C6F3
:1037000074F600011DDF06016EBF01D008D06951BB
:103710006D276A516E236C516325636F0AD06F5118
:103720006D2770516E236B516225626F6C5163255A
:10373000636F712BDBD70001000C06015B532EE099
:103740005951575D05E257C65EF659C65FF604D07B
:1037500059C65EF657C65FF65A51585D05E258C61F
:1037600060F65AC661F604D05AC660F658C661F6CD
:103770005E515F5D12E360C65DF65D51615D0BE316
:103780005EC672F65DC673F65CC674F60001D8DEDE
:1037900006015D2BF2D75E2BEBD72ED057C662F613
:1037A00058C663F659C664F658C665F65CC666F632
:1037B000000124DF57C662F65AC663F659C664F69E
:1037C0005AC665F65CC666F619DF57C662F658C675
:1037D00063F657C664F65AC665F65CC666F60EDF33
:1037E00059C662F658C663F659C664F65AC665F6F7
:1037F0005CC666F603DF06010001000C5AC603F042
:10380000060159C6E9FF5AC6EAFFEF52D8B4D0D034
:103810005AC603F059C6E9FF5AC6EAFFEF505208EC
:1038200027E35AC603F059C6E9FF5AC6EAFF200E3D
:10383000EF5C050DF350036A666F060EEA6E610ECB
:10384000E96E6A6B66C669F6F2CF67F6F29E050E00
:10385000016EF76A665100014FEC00F00A000900A2
:10386000F5CFEEFF012EFBD7060167BFF28E35D0F4
:103870005AC603F059C6E9FF5AC6EAFFEF507E0860
:1038800027E35AC603F059C6E9FF5AC6EAFF530EAA
:10389000EF5C050DF350036A666F060EEA6E610E6B
:1038A000E96E6A6B66C669F6F2CF67F6F29E050EA0
:1038B000016EF76A66510001DEEC00F00A000900B3
:1038C000F5CFEEFF012EFBD7060167BFF28E05D0C4
:1038D000616B626B636B646B656B5AC603F0595125
:1038E000E96E03C0EAFFEF500A0A000103E0070A8D
:1038F00009E00BD006015B51070DF350010F58276B
:1039000050D000010601576B4CD006015B51050DEC
:10391000F35057257F0806E2576B5B51070DF350B4
:10392000010F58275D6B5D5104083BE35E6B5E51F0
:10393000060833E3036A5D51610FE96E060E03204A
:10394000EA6EEFCF66F666C600F05E51016E04E0E7
:10395000D8900032012EFCD700A01DD05F6B5B51C8
:103960005F5D19E2606B5B51605D13E2605157254A
:10397000666F5E515B03F35058255F25676F66C61F
:1039800072F6736F5CC674F60001DADD0601602B17
:10399000EAD75F2BE4D75E2BCAD75D2B5B51572745
:1039A000C2D7592BD8B45A2B572B000127D7060161
:1039B0000001000C060E06013D6F4C0E3C6F48C620
:1039C00055F61F0E566F00014CDD06014B2D27D01A
:1039D000120E4925556F180E4A25566F49C657F6DF
:1039E0004AC658F655C659F65A6F010E5B6F5C6FA2
:1039F0000001A3DE020E06014925556F010E4A257E
:103A0000566F55C657F6586F060E5A6F4C0E596FC3
:103A1000020E5B6F5C6B0001F1DE26D00601120E18
:103A20004925556F180E4A25566F49C657F64AC69E
:103A300058F655C659F65A6F5B6B5C6B00017DDE1C
:103A4000020E06014925556F010E4A25566F55C6CF
:103A500057F6586F060E5A6F4C0E596F020E5B6F79
:103A6000010E5C6F0001CADE000C060146C601F0C3
:103A700047C603F046C64CF647C64DF6060EEA6E3C
:103A8000280EE96E47C6E2FF46C6E1FFE752E6CFE1
:103A9000EEFFFCE14A2D25D04B51080DF35049258E
:103AA0004C6F576B49C658F67F0E596F4CC65AF685
:103AB000010E5B6F5C6F000140DE010E06014825C0
:103AC0004C6F010E49254D6F4CC657F6586F060EC8
:103AD0005A6F280E596F4BC65BF65C6B00018EDE89
:103AE00006014A5326E14B51080DF35049254C6F0E
:103AF000576B49C658F67F0E596F4CC65AF6010EE1
:103B00005B6F5C6B000119DE010E060148254C6FEE
:103B1000010E49254D6F4CC657F6586F060E5A6F69
:103B2000280E596F4BC65BF6010E5C6F000166DE16
:103B300006010001000C0601496B170E486F020ECA
:103B40004B6F170E4A6F4651FF0DF3CF47F64D6B83
:103B50004C6B4D5101081AE349C603F04851482BFC
:103B6000D8B4492BE96E03C0EAFF47C6EFFF4BC646
:103B700003F04A514A2BD8B44B2BE96E03C0EAFF3D
:103B800047C6EFFF4C2BD8B44D2BE3D70001000CF8
:103B900004011CBF4BD01CC548F6140E0601496F2A
:103BA0001E0E4A6F010E4B6F000104DF1DC548F663
:103BB000280E0601496F1E0E4A6F4B6B0001FADE9C
:103BC0001EC548F63C0E0601496F1E0E4A6F4B6B30
:103BD0000001F0DE1CC548F6500E0601496F1E0EAE
:103BE0004A6F4B6B0001E6DE060EEA6E280EE96EA8
:103BF000F2CF46F6F29E000E85EC07F00A000900AF
:103C0000F550EE6E0009FBE1060146BFF28E060E8E
:103C1000476F280E466F140E486F496B010E4A6FAE
:103C2000030E4B6F000121DF04011C8F928880B8C6
:103C30006BD01C97F56BF46B1AB165D01A81050E29
:103C40000601476F000189EC0AF0010E0401196FAB
:103C50001951040858E31951D95D3AE1010E195D73
:103C6000036A1C0FE96E050E0320EA6EEF2A010EAF
:103C7000195D036A1C0FE96E050E0320EA6EEFBEA4
:103C80000CD0EF50090809E2010E195D036A1C0F00
:103C9000E96E050E0320EA6EEF6A010E195D036AF4
:103CA0001C0FE96E050E0320EA6EEFCF46F61951A0
:103CB000140DF3CF47F6060146C648F647C649F647
:103CC0001E0E4A6F010E4B6F000174DE19D0040105
:103CD000010E195D036A1C0FE96E050E0320EA6EE2
:103CE000EFCF46F61951140DF3CF47F6060146C63D
:103CF00048F647C649F61E0E4A6F4B6B00015ADE66
:103D00000401192BA5D701D01A91928A80BA69D0E3
:103D10001C97F56BF46B1AB563D01A85050E060176
:103D2000476F000189EC0AF0010E0401196F195167
:103D3000040856E31951D95D38E1010E195D036A93
:103D40001C0FE96E050E0320EA6EEF06010E195DE9
:103D5000036A1C0FE96E050E0320EA6EEFAE0AD06F
:103D6000010E195D036A1C0FE96E050E0320EA6E51
:103D7000090EEF6E010E195D036A1C0FE96E050E48
:103D80000320EA6EEFCF46F61951140DF3CF47F634
:103D9000060146C648F647C649F61E0E4A6F010E92
:103DA0004B6F000107DE19D00401010E195D036A93
:103DB0001C0FE96E050E0320EA6EEFCF46F619518F
:103DC000140DF3CF47F6060146C648F647C649F636
:103DD0001E0E4A6F4B6B0001EDDD0401192BA7D7B6
:103DE00001D01A95968084B04DD01C97F56BF46B7A
:103DF0001AB347D01A83050E0601476F000189ECFC
:103E00000AF00401D92B010E196F1951040839E386
:103E10001951D95D1BE1010E195D036A1C0FE96E92
:103E2000050E0320EA6EEFCF46F61951140DF3CFBD
:103E300047F6060146C648F647C649F61E0E4A6FC3
:103E4000010E4B6F0001B6DD19D00401010E195DA2
:103E5000036A1C0FE96E050E0320EA6EEFCF46F6EB
:103E60001951140DF3CF47F6060146C648F647C66A
:103E700049F61E0E4A6F4B6B00019CDD0401192BA5
:103E8000C4D701D01A93968284B223D0640E06015F
:103E9000476F000189EC0AF0968284B219D03FC6C0
:103EA000D8F40601466B000146DE04011C9F010E9A
:103EB000DA6FD96F05011C6B1D6B1E6B1F6B060142
:103EC000466B000138DE30EC16F0010E016ED0D1E9
:103ED0000401D9510408D8B0CCD10601466B0001C9
:103EE0002ADE010E0401D96F1C97F56BF46B0501F6
:103EF0001C510308D8A47CD01D510808D8A478D040
:103F00001E51090875E11F51020872E10601405374
:103F1000D8B402D005016CD0AA6AA96AA86AA69C86
:103F2000A69EA684F250006EF29E0F01550EA76E5B
:103F3000AA0EA76EA682A6B2FED7A6940050F212D1
:103F4000140E0601476F000189EC0AF0AA6A010EFF
:103F5000A96EA86AA69CA69EA684F250006EF29E48
:103F60000F01550EA76EAA0EA76EA682A6B2FED7A7
:103F7000A6940050F212140E0601476F000189EC5E
:103F80000AF0AA6A020EA96EA86AA69CA69EA6843A
:103F9000F250006EF29E0F01550EA76EAA0EA76E8C
:103FA000A682A6B2FED7A6940050F212140E060105
:103FB000476F000189EC0AF0AA6A030EA96EA86A8D
:103FC000A69CA69EA684F250006EF29E0F01550E8E
:103FD000A76EAA0EA76EA682A6B2FED7A694005020
:103FE000F212140E0601476F000189EC0AF0FF007F
:103FF0000601425105011C5DD8A477D0060143514A
:1040000005011D5DD8A471D00601445105011E5D56
:104010006CE10601455105011F5D67E10601466B34
:10402000000189DD060EEA6E280EE96EF2CF46F633
:10403000F29E000E85EC07F00A000900F550EE6EC6
:104040000009FBE1060146BFF28E060E476F280EFF
:10405000466F1E0E486F496B4A6B020E4B6F000194
:1040600004DD060EEA6E280EE96EF2CF46F6F29EE9
:10407000000E97EC07F00A000900F550EE6E0009FB
:10408000FBE1060146BFF28E060E476F280E466F13
:104090000F0E486F1E0E496F4A6B020E4B6F0001E8
:1040A000E4DC41C6D8F430EC16F0040E0601466F8D
:1040B000FA0E476F000189EC0AF00601462FF8D787
:1040C000466B000138DD05011C6B1D6B1E6B1F6B01
:1040D0000601405302E104011B8D04011C9F010EE7
:1040E000016E0001C5D0C4D005010601466B000178
:1040F00022DD060EEA6E280EE96EF2CF46F6F29E3B
:10410000000E85EC07F00A000900F550EE6E00097C
:10411000FBE1060146BFF28E060E476F280E466F82
:104120001E0E486F496B4A6B020E4B6F00019DDCFF
:10413000060EEA6E280EE96EF2CF46F6F29E000EEB
:10414000ABEC07F00A000900F550EE6E0009FBE148
:10415000060146BFF28E060E476F280E466F486B6B
:104160001E0E496F4A6B020E4B6F00017EDC010E82
:104170000401D96F000130EC16F0040E0601466F01
:10418000FA0E476F000189EC0AF00601462FF8D7B6
:1041900005011C6B1D6B1E6B1F6B0601466B00013E
:1041A000CADC0601576B586B7F0E596F190E5A6F98
:1041B000010E5B6F5C6F00019DEC1BF0060EEA6E5A
:1041C000280EE96EF2CF46F6F29E000E85EC07F05F
:1041D0000A000900F550EE6E0009FBE1060146BF3A
:1041E000F28E190E576F010E586F060E5A6F280E79
:1041F000596F030E5B6F5C6B0001FEEC1BF01CC57E
:1042000048F6140E0601496F1E0E4A6F010E4B6FE1
:104210000001DAEC1CF01DC548F6280E0601496FB6
:104220001E0E4A6F4B6B0001DAEC1CF01EC548F6FF
:104230003C0E0601496F1E0E4A6F4B6B0001DAEC13
:104240001CF01CC548F6500E0601496F1E0E4A6F41
:104250004B6B0001DAEC1CF03FC6D8F40601466B4C
:10426000000169DC04011C9F000E016E000100D0FA
:1042700004010001000C06013E5309E18B8894986B
:104280008B8A949A8B8C949C8B8E949E46D03E51B4
:10429000030809E18B9894988B8A949A8B9C949C40
:1042A0008B8E949E3AD03E51020809E18B889498F7
:1042B0008B9A949A8B8C949C8B9E949E2ED03E2DA0
:1042C00009D08B9894988B8A949A8B8C949C8B8E23
:1042D000949E23D03E51040809E18B8894988B9AD0
:1042E000949A8B8C949C8B8E949E17D03E5105088B
:1042F00009E18B8894988B8A949A8B9C949C8B8EE2
:10430000949E0BD03E51060808E18B8894988B8AC6
:10431000949A8B8C949C8B9E949E0001000C060EAC
:1043200006013D6F430E3C6F3EC655F61F0E566F9D
:10433000000131EC1AF00601412D2CD04251060D3E
:10434000F3503F254C6F4251080DF35040254D6FFF
:104350003FC657F640C658F64CC659F65A6F010E7E
:104360005B6F5C6F00019DEC1BF0020E06013F25A8
:104370004C6F010E40254D6F4CC657F6586F060E18
:104380005A6F430E596F42C65BF65C6B0001FEEC40
:104390001BF0060141532DE14251060DF3503F251C
:1043A0004C6F4251080DF35040254D6F3FC657F6F4
:1043B00040C658F64CC659F65A6F010E5B6F5C6BDF
:1043C00000019DEC1BF0020E06013F254C6F010E13
:1043D00040254D6F4CC657F6586F060E5A6F430E68
:1043E000596F42C65BF6010E5C6F0001FEEC1BF0DC
:1043F00006010001000C006A016A06013F51D890D5
:1044000040B100260032013240B3002600320132B2
:1044100040B500260032013240B70026003201329A
:1044200040B900260032013240BB00260032013282
:1044300040BD00260032013240BF0026003201326A
:104440000001000C060142514419800B466F42AF37
:1044500005D0411F421F412BD8B4422B44AF05D099
:10446000431F441F432BD8B4442B41514303F3CF84
:1044700001F0F4CF00F04403F3500026425143030F
:10448000F3500020026E46AF05D0011E021E012A25
:10449000D8B4022A0001DDEF2BF08E0E006E3FC66D
:1044A00001F03EC602F0036A01AE05D0011E021EF5
:1044B000022A01E1012A015209E102C001F0026A67
:1044C000080E005E015202E1006A0DD0D89001BED4
:1044D00004D0023601360006F9D706013FAF02D0FC
:1044E000000101D0019E0001ECEF2BF006016051AC
:1044F000B608606F036A61C664F6618FD890613355
:10450000623363330332023201320032602FF6D756
:1045100064AF0BD0001E011E021E031E002AD8B479
:10452000012AD8B4022AD8B4032A000104EF23F0E8
:10453000006A016A026A036A0601686B696B6A6B4A
:104540006B6B67516611651164112CE0200E6C6F66
:10455000D8906037613762376337683769376A37B1
:104560006B3767516B5D08E166516A5D05E1655126
:10457000695D02E16451685D0FE36451685F6551F4
:10458000D8A0653D695F6651D8A0663D6A5F6751F6
:10459000D8A0673D6B5FD8800036013602360336FF
:1045A0006C2FD6D7060EEA6E680EE96E0001000C7D
:1045B000E9500601586F57515A6F1CE056C663F612
:1045C00055C662F654C661F653C660F6676B666BF5
:1045D000200E656F820E646F0001ABEC16F003C015
:1045E00056F602C055F601C054F600C053F6060157
:1045F0005A2FE4D756C663F655C662F654C661F61E
:1046000053C660F6000172D703C056F602C055F6D5
:1046100001C054F600C053F6060156AF0DD058073E
:10462000588B531F541F551F561F532BD8B4542B50
:10463000D8B4552BD8B4562B3B0E5F6F9A0E5E6FD5
:10464000CA0E5D6F5C6B0A0E5A6F5751D8B4582B67
:1046500056C663F655C662F654C661F653C660F692
:104660005FC667F65EC666F65DC665F65CC664F64E
:1046700000015EDF0150EFCF53F6ECCF54F6ECCFE4
:1046800055F6ECCF56F6005213E1060157295A5D54
:10469000D8A402D000010CD058510DE00F0B5A5D88
:1046A00001E044E258BF42D058BD05D0200E37D0BB
:1046B000200E0601581758AB0FD0589B5751D8A45D
:1046C00058070050586F2D0E606F000121EC1AF052
:1046D00006015851006E586B57515A5D0DE100505C
:1046E000586F2E0E606F000121EC1AF00601585130
:1046F000006E200E5817000E300E58AB10D0589B8D
:104700005751D8A458070050586F2D0E606F000104
:1047100021EC1AF006015851006E586B300E00263D
:1047200000C060F6000121EC1AF006015FC663F6D6
:104730005EC662F65DC661F65CC660F6676B666B68
:10474000656B0A0E646F0001F3DE03C05FF602C002
:104750005EF601C05DF600C05CF606015A2F78D700
:104760000001C6EF23F0060E06013D6F4A0E3C6FB6
:10477000890EE96E45C656F644C655F643C654F64C
:1047800042C653F6020E576F000112D70601482D9C
:104790002CD04951300DF3504625536F4951080D27
:1047A000F3504725546F46C657F647C658F653C6CA
:1047B00059F65A6F010E5B6F5C6F00019DEC1BF0A8
:1047C000020E06014625536F010E4725546F53C64E
:1047D00057F6586F060E5A6F4A0E596F49C65BF668
:1047E0005C6B0001FEEC1BF0060148532DE14951C2
:1047F000300DF3504625536F4951080DF3504725AE
:10480000546F46C657F647C658F653C659F65A6F00
:10481000010E5B6F5C6B00019DEC1BF0020E06014C
:104820004625536F010E4725546F53C657F6586FF0
:10483000060E5A6F4A0E596F49C65BF6010E5C6F41
:104840000001FEEC1BF006010001000C06014251C4
:104850004403F3CF01F0F4CF00F04503F3500026FA
:1048600043514403F3500020026E0001000C060186
:104870003E51030851E13F6B3F513F084DE3406B10
:1048800040510F0847E3070E416F4151800A7F08EE
:104890003FE2436B3FC642F6456B100E446F00018A
:1048A000D5DF02C043F601C042F6060140510124A3
:1048B000016E000E0220036E0150F2CF42F6F29E0E
:1048C00003C0F7FF00015BEC01F0060142BFF28E6E
:1048D000426F070ED8804155436F42C600F04351E6
:1048E000016E04E0D8900032012EFCD700A00ED05B
:1048F0004051080DF3504125426F726F3FC673F669
:10490000010E746F0001A0EC1AF006014107BDD73B
:10491000402BB6D73F2BB0D73E51040851E13F6B37
:104920003F513F084DE3406B40510F0847E3070EEE
:10493000416F4151800A7F083FE2436B3FC642F618
:10494000456B100E446F000181DF02C043F601C0C9
:1049500042F6060140510124016E000E0220036E52
:104960000150F2CF42F6F29E03C0F7FF000169EC5E
:1049700003F0060142BFF28E426F070ED880415508
:10498000436F42C600F04351016E04E0D8900032FC
:10499000012EFCD700A00ED04051080DF350412548
:1049A000426F726F3FC673F6010E746F0001A0EC88
:1049B0001AF006014107BDD7402BB6D73F2BB0D721
:1049C0003E51050851E13F6B3F513F084DE3406BBD
:1049D00040510F0847E3070E416F4151800A7F089D
:1049E0003FE2436B3FC642F6456B100E446F000139
:1049F0002DDF02C043F601C042F6060140510124FA
:104A0000016E000E0220036E0150F2CF42F6F29EBC
:104A100003C0F7FF000177EC05F0060142BFF28EFC
:104A2000426F070ED8804155436F42C600F0435194
:104A3000016E04E0D8900032012EFCD700A00ED009
:104A40004051080DF3504125426F726F3FC673F617
:104A5000010E746F0001A0EC1AF006014107BDD7EA
:104A6000402BB6D73F2BB0D70001000C8E0E006E46
:104A700006013E51005E3FC602F040C601F0028EC4
:104A8000005209E0D890025202E1015204E00232E1
:104A90000132002EF7D73FAF05D0011E021E012ABA
:104AA000D8B4022A0001000C93988A88939E8A9EAB
:104AB00093948A9493968A96939A8A9A06014D6B58
:104AC000C00E4E6F000115EC16F0010E06014D6F81
:104AD000C00E4E6F000115EC16F006014D6B400E36
:104AE0004E6F000115EC16F0010E06014D6F400EE1
:104AF0004E6F000115EC16F006014D6BB80E4E6FAF
:104B0000000115EC16F0010E06014D6FB80E4E6F48
:104B1000000115EC16F006013E2D10D04D6B3F0E36
:104B20004E6F000115EC16F0010E06014D6F3F0EA1
:104B30004E6F000115EC16F00FD006014D6B3E0EC6
:104B40004E6F000115EC16F0010E06014D6F3E0E82
:104B50004E6F000115EC16F00601466B00019BEC50
:104B60001DF030EC16F0000CF86AD09E078EEA6A51
:104B7000E96A0401186B176B196B1A911A931A954D
:104B80001A971A991A9B1A9D1A9F1B911B931B9592
:104B90001B971B991B9B1B9D1B9F1C911C931C957A
:104BA0001C971C991C9B1C9D1C9F1D91C80ED86FA7
:104BB000010ED96FDA6FDB6B0A0EDC6FDD6BDE6B1B
:104BC000DF6BE06BE16BE26BE36BE46BE56BE66B79
:104BD000E76FE86FE96FEA6BEB6BEC6BED6BEF6B1C
:104BE000EE6BF16BF06BF36BF26BF56BF46BF76BD9
:104BF000F66BF96BF86BFB6BFA6B0501276B266B99
:104C0000256B246B2B6B2A6B296B286B2F6B2E6B00
:104C10002D6B2C6B336B326B316B306B376B366BB0
:104C2000356B346B3B6B3A6B396B386B3F6B3E6B60
:104C30003D6B3C6B436B426B416B406B476B466B10
:104C4000456B446B4B6B4A6B496B486B4F6B4E6BC0
:104C50004D6B4C6B536B526B516B506B576B566B70
:104C6000556B546B5B6B5A6B596B586B5F6B5E6B20
:104C70005D6B5C6B636B626B616B606B676B666BD0
:104C8000656B646B190E6B6F530E6A6F180E696F4C
:104C9000680E686FE90E6F6FBD0E6E6FC60E6D6F9A
:104CA000710E6C6FBE0E736F960E726F240E716F65
:104CB0007A0E706FF30E776F5A0E766FAB0E756FBC
:104CC000810E746FBB6BBA6BB96BB86BBF6BBE6B8D
:104CD0004B0EBD6F860EBC6FC36BC26BC16BC06BDE
:104CE000C76BC66BC56BC46BCB6BCA6BC96BC86B30
:104CF000CF6BCE6BCD6B800ECC6FD36BD26BD16B89
:104D0000D06B850ED76FEB0ED66F110ED56F7E0E62
:104D1000D46FC150C00B0F09C16E070EB46E4A0E9E
:104D200004011E6F500E1F6F200E206F490E216F61
:104D30006E0E226F670E236F6C0E246F6F0E256F41
:104D4000620E266F610E276F6C0E286F296B430E63
:104D50002A6F610E2B6F620E2C6F690E2D6F6E0E17
:104D60002E6F610E2F6F200E306F460E316F6C0E5E
:104D7000326F750E336F6A0E346F6F0E356F200E03
:104D8000366F4C0E376F610E386F6D0E396F690ECE
:104D90003A6F6E0E3B6F610E3C6F720E3D6F3E6B55
:104DA000540E3F6F200E406F650E416F730E426FC1
:104DB000740E436F3D0E446F456B3A0E466F476B62
:104DC000480E486F6F0E496F720E4A6F690E4B6F37
:104DD0007A0E4C6F6F0E4D6F6E0E4E6F740E4F6FDE
:104DE000610E506F6C0E516F526B540E536F690E03
:104DF000546F650E556F6D0E566F700E576F6F0EB8
:104E0000586F200E596F640E5A6F650E5B6F200E3F
:104E10005C6F500E5D6F750E5E6F720E5F6F670E8A
:104E2000606F610E616F626B550E636F560E646F3B
:104E3000656B210E666F676F550E686F620E696F46
:104E4000690E6A6F710E6B6F750E6C6F650E6D6F0C
:104E5000200E6E6F560E6F6F690E706F640E716F5D
:104E6000720E726F690E736F6F0E746F210E756F15
:104E7000766F776B460E786F6C0E796F6F0E7A6F68
:104E8000770E7B6F200E7C6F280E7D6F6D0E7E6F10
:104E90002F0E7F6F730E806F290E816F200E826F31
:104EA0003A0E836F846B4A0E856F500E866F430EE9
:104EB000876F460E886F4C0E896F480E8A6F8B6B1A
:104EC000460E8C6F610E8D6F620E8E6F720E8F6F3D
:104ED000690E906F630E916F610E926F3A0E936F31
:104EE000320E946F300E956F330E966F2E0E976FB5
:104EF000300E986F996B410E9A6F630E9B6F740E14
:104F00009C6F750E9D6F610E9E6F6C0E9F6F3A0EBB
:104F1000A06FA16B410EA26F6A0EA36F750EA46FF6
:104F2000730EA56F740EA66F650EA76F3A0EA86F6D
:104F3000A96B550EAA6F560EAB6F4C0EAC6F690E77
:104F4000AD6F660EAE6F650EAF6F3A0EB06FB16BA0
:104F5000460EB26F690EB36F6C0EB46F740EB56F00
:104F6000650EB66F720EB76F3A0EB86FB96B460E1C
:104F7000BA6F610EBB6F620EBC6F720EBD6F690EB1
:104F8000BE6F630EBF6F610EC06F3A0EC16F320EFF
:104F9000C26F330EC36F350EC46F2E0EC56F300E49
:104FA000C66FC76B210EC86F500EC96F650ECA6FF2
:104FB000720ECB6F640ECC6F690ECD6F640ECE6F28
:104FC000610ECF6F200ED06F460ED16F6C0ED26F78
:104FD000750ED36F6A0ED46F6F0ED56F210ED66F1C
:104FE000D76BFC6BFD6BFE6BFF6B090E0501006F51
:104FF000016B026B036B046B056B066B076B086F31
:10500000096B0A6B0B6B0C6B0D6B0E6B0F6B106BE4
:10501000116B126B136B146B156B166B176B186B94
:10502000196B1A6B1B6B1C6B1D6B1E6B1F6B206B44
:10503000216B226B236B786B796B7A6B7B6B7C6B50
:105040007D6B7E6B7F6B806B816B826B836B846B04
:10505000856B866B876B886B896B8A6B8B6B8C6BB4
:105060008D6B8E6B8F6B906B916B926B936B946B64
:10507000956B966B976B986B996B9A6B9B6B9C6B14
:105080009D6B9E6B9F6BA06BA16BA26BA36BA46BC4
:10509000A56BA66BA76BA86BA96BAA6BAB6BAC6B74
:1050A000AD6BAE6BAF6BB06BB16BB26BB36BB46B24
:1050B000B56BB66BB76B06013C6B3D6B850ECD6E69
:1050C0009D80C150C00B0D09C16EC050C00B0209BC
:1050D000C06EC08EC280C00EF2120001A3EF0CF0B1
:1050E0000BEF11F030EC16F004011CAD1ED01C9D2E
:1050F000080E06013E6F000126EF17F003C027F5EA
:1051000002C026F501C025F500C024F5080E0601F1
:105110003E6F00010EEF19F003C02FF502C02EF50F
:1051200001C02DF500C02CF50401F9510D08D8B0CF
:10513000D3D0FF0A04E1F8510F08D8B0CDD0F96BF5
:10514000F86BF8C43EF6AA6A210EA96E3EC6A8FF07
:10515000A69CA69EA684F250006EF29E0F01550EEC
:10516000A76EAA0EA76EA682A6B2FED7A69400507E
:10517000F212140E0601476F000189EC0AF0F9C41F
:105180003EF6AA6A220EA96E3EC6A8FFA69CA69E5F
:10519000A684F250006EF29E0F01550EA76EAA0E65
:1051A000A76EA682A6B2FED7A6940050F212140EE5
:1051B0000601476F000189EC0AF00501182B18BFA2
:1051C00005D01851090802E2186B192B19BF05D038
:1051D0001951090802E2196B1A2B1ABF05D01A518E
:1051E000090802E21A6B1B2B1BBF04D01B510908D4
:1051F00001E21B6BAA6A100EA96E18C5A8FFA69C37
:10520000A69EA684F250006EF29E0F01550EA76E68
:10521000AA0EA76EA682A6B2FED7A6940050F212DE
:10522000140E0601476F000189EC0AF0AA6A110EFC
:10523000A96E19C5A8FFA69CA69EA684F250006E72
:10524000F29E0F01550EA76EAA0EA76EA682A6B2F9
:10525000FED7A6940050F212140E0601476F00010B
:1052600089EC0AF0AA6A120EA96E1AC5A8FFA69CBC
:10527000A69EA684F250006EF29E0F01550EA76EF8
:10528000AA0EA76EA682A6B2FED7A6940050F2126E
:10529000140E0601476F000189EC0AF0AA6A130E8A
:1052A000A96E1BC5A8FFA69CA69EA684F250006E00
:1052B000F29E0F01550EA76EAA0EA76EA682A6B289
:1052C000FED7A6940050F212140E0601476F00019B
:1052D00089EC0AF04FD00401F851840803E1F95138
:1052E00003080CE0F851080803E1F951070806E04B
:1052F000F8518C0840E1F9510A083DE1F8C43EF646
:10530000AA6A210EA96E3EC6A8FFA69CA69EA684E8
:10531000F250006EF29E0F01550EA76EAA0EA76EF8
:10532000A682A6B2FED7A6940050F212140E060171
:10533000476F000189EC0AF0F9C43EF6AA6A220E12
:10534000A96E3EC6A8FFA69CA69EA684F250006E3B
:10535000F29E0F01550EA76EAA0EA76EA682A6B2E8
:10536000FED7A6940050F212140E0601476F0001FA
:1053700089EC0AF00401F75303E1F6513B0803E21C
:10538000F76BF66BE02BE0513B08D8B0ACD0E06B8C
:1053900005010C2B0CBF05D00C51090802E20C6B67
:1053A0000D2B0DBF05D00D51090802E20D6B0E2B20
:1053B0000EBF05D00E51090802E20E6B0F2B0FBF76
:1053C00004D00F51090801E20F6BAA6A1F0EA96EE3
:1053D000E0C4A8FFA69CA69EA684F250006EF29E92
:1053E0000F01550EA76EAA0EA76EA682A6B2FED713
:1053F000A6940050F212140E0601476F000189ECCA
:105400000AF0AA6A0C0EA96E0CC5A8FFA69CA69E5F
:10541000A684F250006EF29E0F01550EA76EAA0EE2
:10542000A76EA682A6B2FED7A6940050F212140E62
:105430000601476F000189EC0AF0AA6A0D0EA96EF9
:105440000DC5A8FFA69CA69EA684F250006EF29EF3
:105450000F01550EA76EAA0EA76EA682A6B2FED7A2
:10546000A6940050F212140E0601476F000189EC59
:105470000AF0AA6A0E0EA96E0EC5A8FFA69CA69EEB
:10548000A684F250006EF29E0F01550EA76EAA0E72
:10549000A76EA682A6B2FED7A6940050F212140EF2
:1054A0000601476F000189EC0AF0AA6A0F0EA96E87
:1054B0000FC5A8FFA69CA69EA684F250006EF29E81
:1054C0000F01550EA76EAA0EA76EA682A6B2FED732
:1054D000A6940050F212140E0601476F000189ECE9
:1054E0000AF026D00401E0510F0806E0E0511E0842
:1054F00003E0E0512D081DE1AA6A1F0EA96EE0C469
:10550000A8FFA69CA69EA684F250006EF29E0F01F4
:10551000550EA76EAA0EA76EA682A6B2FED7A694B7
:105520000050F212140E0601476F000189EC0AF0D8
:105530000401D851020804E08B9294920A0EE96F9C
:10554000D85311E106013F6B406B010E416F20C53E
:1055500042F621C543F622C544F623C545F60001AF
:10556000C8EC1DF00401D82DBFD00F0E0601576FF7
:10557000010E586F040E5A6F530E596F010E5B6F78
:105580005C6F0001FEEC1BF004011B8D8B84949476
:105590008B8694968B8094908B929492EDC43EF679
:1055A00000013BEC21F0090E0601576F360E586FD3
:1055B000780E596F400E5A6F010E5B6F5C6B0001E5
:1055C0009DEC1BF0FFC43EF6140E06013F6F406FCA
:1055D000416B020E426F00018FEC21F0FEC43EF6DB
:1055E000280E06013F6F140E406F416B020E426F92
:1055F00000018FEC21F03C0E0601576F160E586F1C
:10560000040E5A6F460E596F020E5B6F010E5C6FEF
:105610000001FEEC1BF0FDC43EF6460E06013F6F96
:10562000140E406F416B020E426F00018FEC21F0AF
:10563000FCC43EF65A0E06013F6F140E406F416BDC
:10564000020E426F00018FEC21F0968084B017D0DB
:10565000040E06013E6FFA0E476F000189EC0AF056
:1056600006013E2FF8D7968084B00AD004011B9D16
:10567000020ED86F0601466B00019BEC1DF006017F
:1056800005010051800A006E0401FC51800A005C93
:1056900001E02AE205010151800A006E0401FD517A
:1056A000800A005C01E020E205010251800A006EE0
:1056B0000401FE51800A005C01E016E2050103517D
:1056C000800A006E0401FF51800A005C01E00CE2D8
:1056D0001B9D020ED86F0601466B00019BEC1DF06E
:1056E00004011B771B831B85D8510208D8A4A6EFA1
:1056F00031F01B9B0601576B010E586F040E5A6F59
:10570000850E596F010E5B6F5C6F0001FEEC1BF0A4
:105710000601576B0F0E586F040E5A6F780E596FB3
:10572000010E5B6F5C6F0001FEEC1BF00601576B16
:105730001D0E586F040E5A6FB20E596F010E5B6F3B
:105740005C6F0001FEEC1BF00601576B2B0E586FCF
:10575000040E5A6FAA0E596F010E5B6F5C6F000149
:10576000FEEC1BF00DC53FF60A0E0601406F00016E
:10577000FBEC21F0015005010C2506013E6F0EC522
:105780003FF6640E406F0001FBEC21F00150060172
:105790003E27036A05010F51006EE8BE03060601AD
:1057A0003F6F03C040F603C042F6416F030E446FE3
:1057B000E80E436F000122EF22F002C003F0015017
:1057C00006013E25016E000E032201C03EF603C015
:1057D0003FF600014DEF22F003C0D3F502C0D2F531
:1057E00001C0D1F500C0D0F504011AAF15D027C50E
:1057F00045F626C544F625C543F624C542F6460EB1
:105800000601466F0F0E476F486B010E496F00018E
:10581000B3EC23F004011A9F1BA3BFD0050E0601B1
:105820003E6F000137EC24F004011C81EDC43EF60C
:1058300000013BEC21F004011CABAED01C9BF8C472
:105840003EF6AA6A210EA96E3EC6A8FFA69CA69E99
:10585000A684F250006EF29E0F01550EA76EAA0E9E
:10586000A76EA682A6B2FED7A6940050F212140E1E
:105870000601476F000189EC0AF0F9C43EF6AA6AF6
:10588000220EA96E3EC6A8FFA69CA69EA684F25034
:10589000006EF29E0F01550EA76EAA0EA76EA6828D
:1058A000A6B2FED7A6940050F212140E0601476F5E
:1058B000000189EC0AF0AA6A100EA96E18C5A8FFAB
:1058C000A69CA69EA684F250006EF29E0F01550E75
:1058D000A76EAA0EA76EA682A6B2FED7A694005007
:1058E000F212140E0601476F000189EC0AF0AA6A51
:1058F000110EA96E19C5A8FFA69CA69EA684F250FB
:10590000006EF29E0F01550EA76EAA0EA76EA6821C
:10591000A6B2FED7A6940050F212140E0601476FED
:10592000000189EC0AF0AA6A120EA96E1AC5A8FF36
:10593000A69CA69EA684F250006EF29E0F01550E04
:10594000A76EAA0EA76EA682A6B2FED7A694005096
:10595000F212140E0601476F000189EC0AF0AA6AE0
:10596000130EA96E1BC5A8FFA69CA69EA684F25086
:10597000006EF29E0F01550EA76EAA0EA76EA682AC
:10598000A6B2FED7A6940050F212140E0601476F7D
:10599000000189EC0AF00401CCD005012F6B2E6BBD
:1059A0002D6B2C6B660E0601576F2D0E586F7F0EF8
:1059B000596F400E5A6F010E5B6F5C6B00019DECDE
:1059C0001BF004011C9106013E6B00013BEC21F031
:1059D00004011CBBAED01C8BF8C43EF6AA6A210E93
:1059E000A96E3EC6A8FFA69CA69EA684F250006E95
:1059F000F29E0F01550EA76EAA0EA76EA682A6B242
:105A0000FED7A6940050F212140E0601476F000153
:105A100089EC0AF0F9C43EF6AA6A220EA96E3EC6C7
:105A2000A8FFA69CA69EA684F250006EF29E0F01CF
:105A3000550EA76EAA0EA76EA682A6B2FED7A69492
:105A40000050F212140E0601476F000189EC0AF0B3
:105A5000AA6A100EA96E18C5A8FFA69CA69EA684C9
:105A6000F250006EF29E0F01550EA76EAA0EA76EA1
:105A7000A682A6B2FED7A6940050F212140E06011A
:105A8000476F000189EC0AF0AA6A110EA96E19C5C8
:105A9000A8FFA69CA69EA684F250006EF29E0F015F
:105AA000550EA76EAA0EA76EA682A6B2FED7A69422
:105AB0000050F212140E0601476F000189EC0AF043
:105AC000AA6A120EA96E1AC5A8FFA69CA69EA68455
:105AD000F250006EF29E0F01550EA76EAA0EA76E31
:105AE000A682A6B2FED7A6940050F212140E0601AA
:105AF000476F000189EC0AF0AA6A130EA96E1BC554
:105B0000A8FFA69CA69EA684F250006EF29E0F01EE
:105B1000550EA76EAA0EA76EA682A6B2FED7A694B1
:105B20000050F212140E0601476F000189EC0AF0D2
:105B300004012FC546F62EC545F62DC544F62CC5E5
:105B400043F606014A6B496B486B7F0E476F0001B5
:105B5000B8EC0AF00601636B626B480E616F850E4C
:105B6000606F03C067F602C066F601C065F600C04C
:105B700064F60001ABEC16F003C037F502C036F551
:105B800001C035F500C034F50601466B456B480E83
:105B9000446F850E436F37C54AF636C549F635C59D
:105BA00048F634C547F60001CEEC10F007E30501D6
:105BB000376B366B480E356F850E346F37C546F63A
:105BC00036C545F635C544F634C543F606014A6B7D
:105BD000496B486B800E476F0001B8EC0AF003C0B8
:105BE00037F502C036F501C035F500C034F53BC5C8
:105BF00041F63AC540F639C53FF638C53EF636ECB3
:105C000025F02A0E012406013E6F2A0E576F1C0E46
:105C1000586F3EC659F6230E5A6F010E5B6F5C6BD0
:105C200000019DEC1BF037C541F636C540F635C581
:105C30003FF634C53EF636EC25F02A0E0124060167
:105C40003E6F2A0E576F1C0E586F3EC659F6230E34
:105C50005A6F010E5B6F5C6F00019DEC1BF0280E0C
:105C60000601576F1A0E586F5E0E596F250E5A6F48
:105C70005B6B010E5C6F00019DEC1BF037C53BF5C3
:105C800036C53AF535C539F534C538F5D3C546F6C8
:105C9000D2C545F6D1C544F6D0C543F606014A6BD8
:105CA000496B7A0E486F880E476F0001B8EC0AF016
:105CB0000601636B626B480E616F850E606F03C0F7
:105CC00067F602C066F601C065F600C064F6000122
:105CD000ABEC16F003C03FF502C03EF501C03DF548
:105CE00000C03CF50601466B456B480E446F850EBF
:105CF000436F3FC54AF63EC549F63DC548F63CC52B
:105D000047F60001CEEC10F007E305013F6B3E6B58
:105D1000480E3D6F850E3C6F3FC546F63EC545F6C5
:105D20003DC544F63CC543F606014A6B496B486BDA
:105D3000800E476F0001B8EC0AF003C03FF502C0C7
:105D40003EF501C03DF500C03CF543C541F642C5F6
:105D500040F641C53FF640C53EF636EC25F02A0E2A
:105D6000012406013E6F2A0E576F586F3EC659F642
:105D7000310E5A6F010E5B6F5C6B00019DEC1BF0E6
:105D80003FC541F63EC540F63DC53FF63CC53EF633
:105D900036EC25F02A0E012406013E6F2A0E576FBD
:105DA000586F3EC659F6310E5A6F010E5B6F5C6F2D
:105DB00000019DEC1BF0280E0601576F586F5E0E18
:105DC000596F330E5A6F5B6B010E5C6F00019DECD7
:105DD0001BF03FC543F53EC542F53DC541F53CC509
:105DE00040F527C546F626C545F625C544F624C523
:105DF00043F6EC0E06014A6F510E496F380E486F9C
:105E00007D0E476F0001CEEC10F01EE304011C87ED
:105E10001CA518D027C546F626C545F625C544F667
:105E200024C543F6EC0E06014A6F510E496F380E39
:105E3000486F7D0E476F0001CEEC10F004E3050EB5
:105E40000401E96F000118D004011C95F56BF46B97
:105E50001C970601576B360E586F680E596F400E2F
:105E60005A6F010E5B6F5C6B00019DEC1BF08B9217
:105E700094920A0E0401E96F04011BA70AD0030ED5
:105E800006013E6F000137EC24F08B94949412D0FD
:105E90000401660E0601576F0E0E586F7F0E596F84
:105EA0001C0E5A6F010E5B6F5C6B00019DEC1BF0CA
:105EB0008B8494940401EA510A08D8A4BDD0060149
:105EC000576B370E586F640E596F3F0E5A6F010EA5
:105ED0005B6F5C6B00019DEC1BF004011B978B84D6
:105EE00094941B9306013E6B00013BEC21F00401EE
:105EF0001B8F8B969496690E0601576F586B040E94
:105F00005A6F630E596F020E5B6F010E5C6F0001DA
:105F1000FEEC1BF004011CA98ED01C99AA6A1F0E6E
:105F2000A96EE0C4A8FFA69CA69EA684F250006EAF
:105F3000F29E0F01550EA76EAA0EA76EA682A6B2FC
:105F4000FED7A6940050F212140E0601476F00010E
:105F500089EC0AF0AA6A0C0EA96E0CC5A8FFA69CD3
