:04000000B6EF0BF05C
:08000800046ED8CF05F0E0CF33
:1000100006F00001E9CF0CF0EACF07F0E1CF08F0DD
:10002000E2CF09F0D9CF0AF0DACF0BF0F3CF12F01C
:10003000F4CF13F0FACF14F000C00EF001C00FF0AF
:1000400002C010F003C011F09DA02AEF00F09EB096
:100050005AEF00F00EC000F00FC001F010C002F027
:1000600011C003F00CC0E9FF07C0EAFF078E08C00B
:10007000E1FF09C0E2FF0AC0D9FF0BC0DAFF12C0DE
:10008000F3FF13C0F4FF14C0FAFF045006C0E0FFF2
:1000900005C0D8FF1000F2CF0DF0F29EF76AB00F46
:1000A000F66E000EF7220900F5500DBEF28E12001A
:1000B000280C0106150ECF6EA00ECE6E452AD8B4C0
:1000C000462A465203E14550C7081AE2466A456A85
:1000D000302A188017A014D0222A17BE11D0295216
:1000E00002E029060DD0285204E028063B0E296EB6
:1000F00007D017908C9095902AC028F02BC029F03B
:100100009E902AEF00F054656D706F72697A616499
:100110006F72205556202020200043616D62696F68
:1001200020436F6E7472617365F161202000546921
:10013000656D706F2054726162616A6F2055562040
:10014000200050756E746F204365726F2020202050
:1001500020202020200020434142494E41202044BD
:1001600045202020464C554A4F200000204C414D50
:10017000494E415220484F52495A4F4E54414C200B
:100180000000202020204A5020494E474C4F424139
:100190004C202020202000002020205245463A20DC
:1001A000204A504346483132302020200000202091
:1001B000202020496E677265736520202020202052
:1001C0002020000020202020436F6E747261736530
:1001D000F161202020202020000020202020434CFE
:1001E0004156453D2569256925692569202000007E
:1001F00020202020202020202020202020202020FF
:10020000202020002020202020436F6E7472617314
:1002100065F1612020202000202020202020436F35
:10022000727265637461202020202000202020202D
:1002300020202020202020202020202020202000DE
:100240002020202020436F6E7472617365F161205D
:10025000202020002020202020496E636F727265CC
:1002600063746120202020002020202020202020D6
:100270002020202020202020202020002D2D2D4D4A
:10028000454E55205052494E434950414C2D2D2D3D
:1002900000002020202054656D706F72697A6164BF
:1002A0006F72202020202000202020202020204CA1
:1002B000757A20555620202020202020200025302F
:1002C00032753A2530327520284D3A5329202000C6
:1002D0005469656D706F20416C6D6163656E61641A
:1002E0006F002020436F7272656374616D656E7478
:1002F00065202000202020202020496E6772657331
:100300006520202020202020000020436F6E747282
:10031000617365F1612041637475616C2020000098
:1003200020202020434C4156453D256925692569FB
:1003300025692020000020202020202020202020AF
:1003400020202020202020202020000020202020ED
:1003500020436F6E7472617365F16120202020204C
:100360000000202020202020436F7272656374619A
:1003700020202020202000002020202020202020BD
:1003800020202020202020202020202000002020AD
:10039000202020202020202020202020202020205D
:1003A000202000002020202020436F6E7472617393
:1003B00065F16120202020200000202020202049FD
:1003C0006E636F72726563746120202020200000CC
:1003D000202020202020202020202020202020201D
:1003E0002020202000002020202020496E677265F8
:1003F0007365202020202020202000002020436F33
:100400006E7472617365F161204E756576612020AE
:10041000000020202020434C4156453D2569256998
:100420002569256920200000202020202020202070
:1004300020202020202020202020202000002020FC
:10044000202020436F6E7472617365F1612020205B
:10045000202000002020202020416C6D6163656E0B
:100460006164612020202020000020202020202006
:1004700020202020202020202020202020200000BC
:1004800020204475726163696F6E204163747561E9
:100490006C20202000002020205469656D706F3D85
:1004A000202530354C7520202000205245534554DE
:1004B0003D204F7072696D61205E2079203E2000E2
:1004C000205265736574206465207469656D706F72
:1004D00020002020202020457869746F736F202031
:1004E0002020200020205A65726F20506F696E74A2
:1004F00020436F6E66696720000050726573696FF4
:100500006E3D2025332E326620696E48324F200022
:10051000202020204144433D25322E3066002020FB
:1005200020205A463D25322E306600004A50435264
:100530002044503A25332E326620696E48324F20CF
:10054000000046696C74726F3A0054656D706F3AC2
:10055000253032753A25303275004D6F746F723A1E
:100560004F4E20004D6F746F723A4F4646005556FD
:100570003A4F4E20000055563A4F464600004C7503
:100580007A3A4F4E20004C757A3A4F464600EA6A56
:10059000DE0EE96EEF500EE00F0E016E006A002EC7
:1005A000FED7012EFBD78F0E006E002EFED7000067
:1005B000EF2EF2D7000CDF39F00B006E0F0E811416
:1005C0000010816E090E006E002EFED700D08186CD
:1005D000DB0E006E002EFED700D08196000C8192BB
:1005E000010EDE6FD4DFDCA18192DCB18182090EC5
:1005F000006E002EFED700D08194090E006E002EF2
:10060000FED700D08196DD39DE6F0F0EDE17DEC01B
:10061000DFF0D1DFDD510F0BDE6FDF6FCCDF000CC1
:10062000000E936E8192819481960F0EDE6FAFDF84
:10063000010EC76FC751030808E3030EDF6FBBDF6E
:10064000050EDE6FA4DFC72BF5D7020EDF6FB3DF19
:10065000C76BC75103080EE3036AC751F2CFC8F056
:10066000F29E19DDC8BFF28EC86FDC6BDD6FB7DF9D
:10067000C72BEFD7000C8E0E006EE0C001F0DFC07C
:1006800002F0036A015209E102C001F0026A080E99
:10069000005E015202E1006A08D0D89001BE04D089
:1006A000023601360006F9D7019E000CCC35006EEB
:1006B0000036FC0E001600C001F0C250C30B001043
:1006C000C26E0A0EDE6F63DFC282C2B2FED7C4CF33
:1006D00003F0C3CFDFF0C4CFE0F0CDDF03C0D0F034
:1006E00002C0CFF001C0CEF000C0CDF0CDC000F010
:1006F000CEC001F0CFC002F0D0C003F0000C010E5C
:10070000DA5DFC0F0FE2040F9AEF03F0800EDB6F4F
:1007100009D0C00EDB6F06D0940EDB6F03D0D40E71
:10072000DB6F00D0010ED95DDB27DC6BDBC0DDF0B9
:1007300056DF000CF2CF0DF0F29EE824F76AF73690
:10074000590FF66E070EF7220A00F550FA6E0800F0
:10075000F5500DBEF28EF96E0C07120718071E0732
:10076000D851F10802E1EE0ED86FD851D10802E15C
:10077000FF0ED86FD8510C0A05E0060A0DE0020AF8
:1007800012E016D0DC6B010EDD6F29DF010E166E54
:10079000020EDE6FFCDE12D0162A010ED96F16C0D3
:1007A000DAF0ADDF0BD0DC6B100EDD6F18DF06D09A
:1007B000010EDC6FD8C0DDF012DF00D0000C0900A4
:1007C000F5520CE0F6CFCAF0F7CFCBF0F5CFD8F06A
:1007D000C7DFCAC0F6FFCBC0F7FFF1D7000CDB5173
:1007E000D8B4A5D0E76FDF51D8B4A1D0E75F05E357
:1007F0007F0EE727D8B09BD006D0810EE75FD8A048
:1008000096D0D8B494D0E7C000F0016A026A036AB7
:10081000E66BDCC0E5F0E58FDDC0E4F0DEC0E3F0C0
:10082000190EE76FE251E35F0DE2010EE45F0AE2A9
:10083000E55F08E2E65F06E2E62BE52BE42BE251FA
:10084000E32728D0E151E45F12E2010EE55F0FE2F9
:10085000E65F0DE2E62BE52BE151E427E251E327C9
:1008600019E3E42B17E1E52B15E1E62B13D0E0515A
:100870008009E55F0EE2010EE65F0BE2E62BE05138
:100880008009E527E151E427E9E3E52BE7E1E62BE1
:10089000E5D70380E72F01D00BD0D890E337E437BA
:1008A000E537E637D890033602360136E837BAD74F
:1008B000E8A106D0D890013202320332E83302D0E8
:1008C000000635E0E8BF1ED0D890E337E437E537BF
:1008D000E637E251E35F07E2010EE45F04E2E55F21
:1008E00002E2E65F1AE3E151E45F05E2010EE55F33
:1008F00002E2E65F12E3E0518009E55F03E2010EE8
:10090000E65F0BE3032A09E1022A07E1012A05E178
:10091000002A0DE0013202320332DCC0E7F0E05180
:10092000E71BE7AF02D0018E06D0019E04D0006A1B
:10093000016A026A036A000C800ED8B2E41BE96BFC
:10094000EA6BE0C0E8F0E451E81BDF51D8B4DCD03A
:10095000E76F006EE351D8B4E0D0E75FD8B481D040
:100960003DE3E4C0EDF0ED8FE5C0ECF0E6C0EBF068
:10097000EA6BD890ED33EC33EB33EA33E72FF8D75B
:10098000E8AF03D0E981DDD0E991E791E989EA6A2E
:10099000E20EE96EE9D0E999E8BF0AD0E7A113D0E9
:1009A000ED33EC33EB33EA33002AD8B4C5D00BD0A7
:1009B000EDBF0CD0D890EA37EB37EC37ED370006B7
:1009C000D8B4BAD0F5D7E98D6BD0E99DE0C0E8F096
:1009D000E0AF02D0ED8FA9D0ED9FA7D0E3C0E7F044
:1009E000E3C000F0DF51E75FE0C0EDF0ED8FE1C064
:1009F000ECF0E2C0EBF0EA6BD890ED33EC33EB3384
:100A0000EA33E72FF8D7E8AF03D0E9839AD0E99328
:100A1000E791E98BEA6AE60EE96EA6D0E99BE8BFAA
:100A20000AD0E7A113D0ED33EC33EB33EA33002ADD
:100A3000D8B482D00BD0EDBF0CD0D890EA37EB37CA
:100A4000EC37ED370006D8B477D0F5D7E98F28D04A
:100A5000E99FE4C0E8F0E4AF02D0ED8F66D0ED9FEF
:100A600064D0E4C0EDF0ED8FE5C0ECF0E6C0EBF053
:100A7000E8AF04D0ED9FE98564D0E995EA6BE79192
:100A8000EA6AE20EE96E70D0E8BF1CD0E0C0E8F080
:100A9000E7A106D0ED33EC33EB33EA33002A4CE028
:100AA000EAAF0BD0EB2B09E1EC2B07E1ED2B05E1D5
:100AB000ED33EC33EB33002A3FE0E9BD86D7E9BFE5
:100AC000C7D71CD0800EED1BEDAF04D03AD0E4C0E8
:100AD000E8F00AD0E0C0E8F0ED5306E1EC5304E1A1
:100AE000EB5302E1006A21D0EDBF08D0D890EA377D
:100AF000EB37EC37ED37002EF7D71ED0E8AF02D03A
:100B0000ED8F13D0ED9F11D0E3C000F0E4C0EDF005
:100B1000E5C0ECF0E6C0EBF008D0DFC000F0E0C0CC
:100B2000EDF0E1C0ECF0E2C0EBF0EDC001F0ECC0A4
:100B300002F0EBC003F034D0006A016A026A036A73
:100B40002FD0EA6BEB1FEC1FED1FEA1FEA2B05E12C
:100B5000EB2B03E1EC2B01E1ED2BE9B115D7E9B368
:100B600056D7E9B58AD7B3D7EF50EB2705E3EC2B7F
:100B700003E1ED2BD8B4E781ED52EF50EC2703E30E
:100B8000ED2BD8B4E781ED52EF50EFBE01D0800AD3
:100B9000ED27D8B0E781E9B9FED6E9BB3FD774D7D6
:100BA000000C34BE05D03450040802E2010E346E4D
:100BB0003C50090801E23C6A3D50090801E23D6AE7
:100BC0003E50090801E23E6A3F50090801E23F6ACF
:100BD00028503C0801E2286A295201E0296A225083
:100BE0003C0801E2226A23503C0801E2236A00EF3C
:100BF0000EF00900F6CFCCF0F7CFCDF0F5CFD8F05E
:100C0000AFDDCCC0F6FFCDC0F7FFCB2FF2D7000C85
:100C1000CE51016ACD5D03E2CDC000F00CD0006A78
:100C2000080ECF6FCD370036CE51005CD8B0006EC5
:100C30000136CF2FF7D7000C200EC8A9300EC96F90
:100C4000C7C000F0C7AF07D0001E002A00C0C7F021
:100C50002D0EC96FC88F0150C7C0CDF0640ECE6F86
:100C6000D7DF00C0C7F0300E0124CA6FC7C0CDF077
:100C70000A0ECE6FCDDF300E0024CC6F300E012473
:100C8000CB6FC9C000F0C8A702D0C8AFC895C8B91B
:100C90000BD0C8AF22D0C8B520D000C0CAF0C8B3AE
:100CA0001CD000C0CBF019D0300ECA5D16E100C0D8
:100CB000CAF0200EC96FC8A704D0C895C883C8AFB2
:100CC000C893300ECB5D09E100C0CBF0200ECA6F97
:100CD000C8A7F7D7C893C8AFC891C8A503D0C9C0E3
:100CE000D8F03EDDC8A303D0CAC0D8F039DDC8A112
:100CF00003D0CBC0D8F034DDCCC0D8F031DD000C4F
:100D0000C82D0AD0020ED96FC9C0DAF0F8DC060E81
:100D1000F66E010EF76E53DDC85102080AE1020EAD
:100D2000D96FC9C0DAF0EBDC1A0EF66E010EF76E61
:100D300046DDC85103080AE1020ED96FC9C0DAF0D6
:100D4000DEDC2E0EF66E010EF76E39DDC85104089A
:100D50000AE1020ED96FC9C0DAF0D1DC420EF66E9C
:100D6000010EF76E2CDD000C0150C7C0CDF0640EF3
:100D7000CE6F4EDF00C0C7F00150300E07E1C8A3B0
:100D80000CD0C8B70AD0C8B9200E03D0C897C899EC
:100D9000C881012601C0D8F0E3DCC7C0CDF00A0E3F
:100DA000CE6F36DF00C0C7F00150300E06E1C8B785
:100DB00008D0C8A106D0C8B9200E012601C0D8F0BD
:100DC000CFDC300EC727C7C0D8F0CADC000CEACF92
:100DD000CFF0E9CFCEF0C839F009CA6FCA27E20FC9
:100DE000CB6F320FCD6FC8510F0BCB27CB27CD2741
:100DF000E90FCC6FCC27CC27C7390F0BCC27CD27D9
:100E0000CC37CD37CD1FCD37C7510F0BCD27CA37C4
:100E1000070EC96F0A0ECC07CD27FDE3CB07CC2701
:100E2000FDE3CA07CB27FDE3C907CA27FDE3EA6A4A
:100E3000C90EE96E070ECE15CE9DE926CD0EE95CF2
:100E4000D8B4CE8DEF50006E08E1CEBD06D0CEB93D
:100E500013D0CEB702D0200E03D0CE87CE99300E5D
:100E60000026EACFC8F0E9CFC7F000C0D8F078DCA0
:100E7000C8C0EAFFC7C0E9FFEE50CEADDFD726EF0E
:100E800015F0DCC0E3F0E051E31BE3AF05D0D894EC
:100E9000D890DCBFD8802FD0DCC0E3F0DFC0E4F016
:100EA000DB51E45F06E0E3AF26D0D850010AD86EEC
:100EB00022D0E0C0E4F0DC51E45F06E0E3AF1BD0F9
:100EC000D850010AD86E17D0E1C0E4F0DD51E45FDC
:100ED00006E0E3AF10D0D850010AD86E0CD0E2C0C3
:100EE000E4F0DE51E45F06E0E3AF05D0D850010A3C
:100EF000D86E01D0D890000CCB6BCA6BC96BC86B95
:100F0000010ECC6F56EC03F003C09EF002C09DF0C2
:100F100001C09CF000C09BF09EC0DEF09DC0DDF0E3
:100F20009CC0DCF09BC0DBF0C6C0E2F0C5C0E1F0C5
:100F3000C4C0E0F0C3C0DFF052DC00C0CCF001C0A0
:100F4000CDF002C0CEF003C0CFF0D88203C0E2F0F3
:100F500002C0E1F001C0E0F000C0DFF0E66BE56B3D
:100F6000E46B7F0EE36FE8DC03C0A2F002C0A1F0E7
:100F700001C0A0F000C09FF0A2C0DEF0A1C0DDF073
:100F8000A0C0DCF09FC0DBF0E26BE16BE06BDF6BDD
:100F900078DF04E3A26BA16BA06B9F6B010EC75DB2
:100FA0002C5C02E001E32C6A2C50040DF350036A20
:100FB0004B0FE96E000E0320EA6E9FC0EFFFA0C04A
:100FC000ECFFA1C0ECFFA2C0ECFF2C2A2D6A010EA1
:100FD000C75D2D5C01E035E22D50040DF350036A2E
:100FE0004B0FE96E000E0320EA6EEFCF00F0ECCF5E
:100FF00001F0ECCF02F0ECCF03F0EACFCDF0E9CF77
:10100000CCF0D892CBC0E2F0CAC0E1F0C9C0E0F0A9
:10101000C8C0DFF003C0E6F002C0E5F001C0E4F0B4
:1010200000C0E3F089DCCDC0EAFFCCC0E9FF03C01B
:10103000CBF002C0CAF001C0C9F000C0C8F02D2A30
:10104000C6D7E06BC7C0DFF03BEC03F0CBC0DEF0EF
:10105000CAC0DDF0C9C0DCF0C8C0DBF003C0E2F0FC
:1010600002C0E1F001C0E0F000C0DFF0EFEC03F0FF
:1010700003C0CBF002C0CAF001C0C9F000C0C8F084
:10108000C8C000F0C9C001F0CAC002F0CBC003F074
:10109000000CDB51D8B471D0006EDF51D8B46DD0E4
:1010A000002604E3810E002668E204D07F0E005E75
:1010B00064E363E0DCC0E3F0E051E31BDC8FE08F2E
:1010C000DE51E203F4CFE5F0DD51E103F4CF03F0AC
:1010D000F3CFE4F0E203F350E527F450E423000EED
:1010E0000322DE51E103F350E527F450E423000E20
:1010F000026A03220222DC51E203F350E427F45097
:101100000322000E0222DC51E103F3500326F450C7
:101110000222000E016A0122DE51E003F350E427AF
:10112000F4500322000E02220122DD51E003F350AD
:101130000326F4500222000E0122DC51E003F3509A
:101140000226F4500122002A01BE05D0E4370336FE
:10115000023601360006000EE4AF0AD0032A02224E
:101160000122015005E1025003E1035001E1002A90
:10117000E3BF018EE3AF019E04D0006A016A026AF8
:10118000036A000CD851B608D86F036AD9C0DCF0E6
:10119000D98FD890D933DA33DB33033202320132BC
:1011A0000032D82FF6D7DCAF0BD0001E011E021E76
:1011B000031E002AD8B4012AD8B4022AD8B4032ABC
:1011C00046EF09F0006A016A026A036AE06BE16BAC
:1011D000E26BE36BDF51DE11DD11DC112CE0200E40
:1011E000E46FD890D837D937DA37DB37E037E137D3
:1011F000E237E337DF51E35D08E1DE51E25D05E10F
:10120000DD51E15D02E1DC51E05D0FE3DC51E05FC7
:10121000DD51D8A0DD3DE15FDE51D8A0DE3DE25FCB
:10122000DF51D8A0DF3DE35FD880003601360236BB
:101230000336E42FD6D7EA6AE00EE96E000CE950D7
:10124000D06FCF51D26F19E0CEC0DEF0CDC0DDF04F
:10125000CCC0DCF0CBC0DBF0E26BE16B200EE06FCA
:10126000820EDF6F16DF03C0CEF002C0CDF001C0EA
:10127000CCF000C0CBF0D22FE7D7CEC0DBF0CDC092
:10128000DAF0CCC0D9F0CBC0D8F07CD703C0CEF018
:1012900002C0CDF001C0CCF000C0CBF0CEAF0DD07D
:1012A000D007D08BCB1FCC1FCD1FCE1FCB2BD8B4DC
:1012B000CC2BD8B4CD2BD8B4CE2B3B0ED76F9A0EF7
:1012C000D66FCA0ED56FD46B0A0ED26FCF51D8B479
:1012D000D02BCEC0DBF0CDC0DAF0CCC0D9F0CBC083
:1012E000D8F0D7C0DFF0D6C0DEF0D5C0DDF0D4C076
:1012F000DCF068DF0150EFCFCBF0ECCFCCF0ECCFDF
:10130000CDF0ECCFCEF000520FE1CF29D25D0CE052
:10131000D0510CE00F0BD25D01E03BE2D0BF39D0E1
:10132000D0BD04D0200E30D0200ED017D0AB0DD0C1
:10133000D09BCF51D8A4D0070050D06F2D0ED86FBE
:10134000B0EC03F0D051006ED06BCF51D25D0BE109
:101350000050D06F2E0ED86FB0EC03F0D051006E5D
:10136000200ED017000E300ED0AB0ED0D09BCF5138
:10137000D8A4D0070050D06F2D0ED86FB0EC03F07A
:10138000D051006ED06B300E002600C0D8F0B0EC0B
:1013900003F0D7C0DBF0D6C0DAF0D5C0D9F0D4C0A6
:1013A000D8F0DF6BDE6BDD6B0A0EDC6F0BDF03C08A
:1013B000D7F002C0D6F001C0D5F000C0D4F0D22FD3
:1013C00088D7000C8E0E006EDB51005EDCC002F090
:1013D000DDC001F0028E005209E0D890025202E115
:1013E000015204E002320132002EF7D7DCAF05D003
:1013F000011E021E012AD8B4022A000CDA91CEC0C6
:10140000D3F0CDC0D2F0CCC0D1F0CBC0D0F0CEC0A4
:10141000DEF0CDC0DDF0CCC0DCF0CBC0DBF0E26BA9
:10142000E16BE06BDF6B2DDD04E3DA81D151800AE3
:10143000D16FD3C0DEF0D2C0DDF0D1C0DCF0D0C0BF
:10144000DBF0E26BE16BE06B8E0EDF6F1ADD01E229
:1014500018E1D3C0DEF0D2C0DDF0D1C0DCF0D0C0E6
:10146000DBF0B0DF02C0E0F001C0DFF03BEC03F0E6
:1014700003C0D7F002C0D6F001C0D5F000C0D4F050
:10148000C4D0D3C0DEF0D2C0DDF0D1C0DCF0D0C01B
:10149000DBF0800EE26F960EE16F180EE06F960E95
:1014A000DF6FEFDCD8A0A9D0D3C0DEF0D2C0DDF072
:1014B000D1C0DCF0D0C0DBF0E26BE16BE06B8E0EF4
:1014C000DF6FEFEC03F003C0DEF002C0DDF001C01F
:1014D000DCF000C0DBF076DF02C0D9F001C0D8F04C
:1014E000D3C0DEF0D2C0DDF0D1C0DCF0D0C0DBF084
:1014F000E26BE16BE06B8E0EDF6FEFEC03F000C090
:10150000DBF001C0DCF002C0DDF003C0DEF0D9C0CA
:10151000E0F0D8C0DFF03BEC03F0D882DEC0E2F0B0
:10152000DDC0E1F0DCC0E0F0DBC0DFF003C0E6F0DE
:1015300002C0E5F001C0E4F000C0E3F09CEC04F070
:10154000DE6BDD6BDC6B8E0EDB6F03C0E2F002C086
:10155000E1F001C0E0F000C0DFF09BDD03C0D3F09C
:1015600002C0D2F001C0D1F000C0D0F0D9C0E0F08C
:10157000D8C0DFF03BEC03F0DE6BDD6BDC6B8E0E76
:10158000DB6F03C0E2F002C0E1F001C0E0F000C098
:10159000DFF07FDD03C0D7F002C0D6F001C0D5F088
:1015A00000C0D4F0D3C0DEF0D2C0DDF0D1C0DCF09A
:1015B000D0C0DBF007DF02C0E0F001C0DFF03BECA1
:1015C00003F0D892D7C0E2F0D6C0E1F0D5C0E0F089
:1015D000D4C0DFF003C0E6F002C0E5F001C0E4F0E3
:1015E00000C0E3F09CEC04F003C0D7F002C0D6F0DA
:1015F00001C0D5F000C0D4F008D0D3C0D7F0D2C01D
:10160000D6F0D1C0D5F0D0C0D4F0D3C0DEF0D2C077
:10161000DDF0D1C0DCF0D0C0DBF0D4DE02C0E0F001
:1016200001C0DFF03BEC03F0D882D3C0E2F0D2C0BF
:10163000E1F0D1C0E0F0D0C0DFF003C0E6F002C0BE
:10164000E5F001C0E4F000C0E3F09CEC04F003C05E
:10165000D3F002C0D2F001C0D1F000C0D0F0DAA1C6
:1016600003D0D551800AD56FD3C0DEF0D2C0DDF0F3
:10167000D1C0DCF0D0C0DBF0E26BE16BE06BDF6B84
:1016800000DC38E0DAA11AD0CF5318E1D882D7C0F5
:10169000E2F0D6C0E1F0D5C0E0F0D4C0DFF0E66BF8
:1016A000E56BE46B7F0EE36F9CEC04F003C0D7F0B6
:1016B00002C0D6F001C0D5F000C0D4F0DAB11AD023
:1016C000CF2D18D0D892D7C0E2F0D6C0E1F0D5C067
:1016D000E0F0D4C0DFF0E66BE56BE46B7F0EE36F08
:1016E0009CEC04F003C0D7F002C0D6F001C0D5F0E6
:1016F00000C0D4F0CEC0DEF0CDC0DDF0CCC0DCF058
:10170000CBC0DBF0E26BE16BE06BDF6B41EC07F031
:1017100004E1D76BD66BD56BD46BD4C000F0D5C0C9
:1017200001F0D6C002F0D7C003F0A1EF0BF0CAC0A1
:10173000CEF0C9C0CDF0C8C0CCF0C7C0CBF0CF6BE5
:101740005DD6000CC75309E18C9295928C989598C0
:101750008C9A959A8C94959408D08C8295928C88CA
:1017600095988C8A959A8C849594000CF86AD09EF2
:10177000078EEA6AE96A17901792179417961798D6
:10178000179A179C179E1890189218941896196A11
:10179000050E1A6E020E1B6E0B0E1C6E020E1D6ED7
:1017A000030E1E6E020E1F6E206E040E216E226A44
:1017B000236A246A256A266A276A286A296A2A6AA5
:1017C0002B6A2C6A2D6A2E6A010E2F6E306A316ADE
:1017D0000A0E326E336A010E346E406A416A426A02
:1017E000436A446A486A476A4A6A496A9E6B9D6BC3
:1017F0009C6B9B6BA26BA16BA06B9F6BA66BA56B8D
:10180000A46BA36BAA6BA96BA86BA76BAE6BAD6B3C
:10181000AC6BAB6BB26BB16B6B0EB06F860EAF6F18
:10182000B66BB56BB46BB36BBA6BB96BB86BB76BAC
:10183000BE6BBD6BBC6B7F0EBB6FC26BC16BC06BF5
:10184000BF6BC66BC56BC46B800EC36FC150C00B42
:101850000F09C16E070EB46E3E0E356E200E366E49
:101860005E0E376E386A396A3A6A3B6A3C6A3D6A8C
:101870003E6A3F6A4B6A4C6A4D6A4E6A4F6A506ACA
:10188000516A526A536A546A556A566A576A586A64
:10189000596A5A6A5B6A5C6A5D6A5E6A5F6A606B13
:1018A000616B626B636B646B656B666B676B686BBC
:1018B000696B6A6B6B6B6C6B6D6B6E6B6F6B706B6C
:1018C000716B726B736B746B756B766B776B786B1C
:1018D000796B7A6B7B6B7C6B7D6B7E6B7F6B806BCC
:1018E000816B826B836B846B856B866B876B886B7C
:1018F000896B8A6B8B6B8C6B8D6B8E6B8F6B906B2C
:10190000916B926B936B946B956B966B976B986BDB
:10191000996B9A6B956A8C6A10EC03F0C00EF21208
:10192000850ECD6E9D80C150C00B0D09C16EC0905B
:10193000C082C094C08EC280CC6B56EC03F0010E06
:10194000D96FDA6F7FEC03F0560EF66E010EF76E6C
:10195000DFEC03F0010ED96F020EDA6F7FEC03F0BB
:101960006C0EF66E010EF76EDFEC03F0010ED96F10
:10197000030EDA6F7FEC03F0820EF66E010EF76E47
:10198000DFEC03F0010ED96F040EDA6F7FEC03F089
:10199000980EF66E010EF76EDFEC03F0080EC76FBF
:1019A000FA0EDE6FC7EC02F0C72FFAD70C0ED86F15
:1019B000B0EC03F0F2CFC7F0F29E050EA96EA69C24
:1019C000A69EA680A850C7BFF28E346EF2CFC7F095
:1019D000F29EA96AA69CA69EA680A850C7BFF28EBA
:1019E0003C6E140EDE6FC7EC02F0F2CFC7F0F29E31
:1019F000010EA96EA69CA69EA680A850C7BFF28E17
:101A00003D6E140EDE6FC7EC02F0F2CFC7F0F29E0F
:101A1000020EA96EA69CA69EA680A850C7BFF28EF5
:101A20003E6E140EDE6FC7EC02F0F2CFC7F0F29EEE
:101A3000030EA96EA69CA69EA680A850C7BFF28ED4
:101A40003F6E140EDE6FC7EC02F0F2CFC7F0F29ECD
:101A5000140EA96EA69CA69EA680A850C7BFF28EA3
:101A6000286EF2CFC7F0F29E150EA96EA69CA69E18
:101A7000A680A850C7BFF28E296EF2CFC7F0F29EA3
:101A8000320EA96EA69CA69EA680A850C7BFF28E55
:101A9000226EF2CFC7F0F29E330EA96EA69CA69ED0
:101AA000A680A850C7BFF28E236EF2CFC7F0F29E79
:101AB000340EA96EA69CA69EA680A850C7BFF28E23
:101AC000246EF2CFC7F0F29E350EA96EA69CA69E9C
:101AD000A680A850C7BFF28E256EF2CFC7F0F29E47
:101AE0003C0EA96EA69CA69EA680A850C7BFF28EEB
:101AF000266EF2CFC7F0F29E3D0EA96EA69CA69E62
:101B0000A680A850C7BFF28E276E27C04AF026C015
:101B100049F04AC0E0F049C0DFF03BEC03F003C0FD
:101B2000C6F002C0C5F001C0C4F000C0C3F0F2CFDF
:101B3000C7F0F29E3C0EA96EA69CA69EA680A85059
:101B4000C7BFF28E436EF2CFC7F0F29E3D0EA96E74
:101B5000A69CA69EA680A850C7BFF28EE06BDF6F42
:101B60003BEC03F003C0B6F002C0B5F001C0B4F026
:101B700000C0B3F0B6C0DEF0B5C0DDF0B4C0DCF03C
:101B8000B3C0DBF0E26BE16B480EE06F850EDF6FF8
:101B9000EFEC03F003C0B6F002C0B5F001C0B4F042
:101BA00000C0B3F0E06B43C0DFF03BEC03F0D89231
:101BB00003C0E2F002C0E1F001C0E0F000C0DFF0DD
:101BC000B6C0E6F0B5C0E5F0B4C0E4F0B3C0E3F0F1
:101BD0009CEC04F003C0AEF002C0ADF001C0ACF06C
:101BE00000C0ABF0F2CFC7F0F29E460EA96EA69CE5
:101BF000A69EA680A850C7BFF28E326ED1EF05F028
:101C000025C048F024C047F028C02AF029C02BF096
:101C10001952D8A4D4D1010ED96FDA6F7FEC03F03A
:101C2000AE0EF66E010EF76EDFEC03F0010ED96F0B
:101C3000020EDA6F7FEC03F0C40EF66E010EF76E43
:101C4000DFEC03F0010ED96F030EDA6F7FEC03F0C7
:101C5000DA0EF66E010EF76E0A0ECB6FF9EC05F098
:101C600038C0C7F01F0EC86F1CEC06F039C0C7F0B3
:101C70001F0EC86F1CEC06F03AC0C7F01F0EC86FED
:101C80001CEC06F03BC0C7F01F0EC86F1CEC06F042
:101C9000200ED86FB0EC03F0200ED86FB0EC03F03C
:101CA000928A80AA11D017B60ED00B0E1C5C036A64
:101CB000380FE96E000E0320EA6EEF2A17861E0E1B
:101CC000DE6FC7EC02F001D01796968084A011D089
:101CD00017BA0ED00B0E1C5C036A380FE96E000EAB
:101CE0000320EA6EEF06178A1E0EDE6FC7EC02F0C5
:101CF00001D0179A968284A20DD017B80AD01788FF
:101D00001C2A1E0EDE6FC7EC02F00C0ED86FB0EC72
:101D100003F001D01798968484A40DD017BC0AD084
:101D2000178C1C061E0EDE6FC7EC02F00C0ED86F6F
:101D3000B0EC03F001D0179C0B0E1C5C036A380F4B
:101D4000E96E000E0320EA6EEFBE01D00AD00B0E42
:101D50001C5C036A380FE96E000E0320EA6E090E60
:101D6000EF6E0B0E1C5C036A380FE96E000E032049
:101D7000EA6EEFBE0CD0EF50090809E20B0E1C5CB6
:101D8000036A380FE96E000E0320EA6EEF6A1C50FA
:101D90000A0802E30B0E1C6E1CC0D9F0040EDA6FA9
:101DA0007FEC03F037C0D8F0B0EC03F01C500E0805
:101DB000D8B0F3D0385003086DE1395008086AE113
:101DC0003A50090867E13B50020864E1A96AA86A31
:101DD000A69CA69EA684F250006EF29E0F01550EA0
:101DE000A76EAA0EA76EA682A6B2FED7A694005032
:101DF000F212140E0001DE6FC7EC02F0010EA96EA4
:101E0000A86AA69CA69EA684F250006EF29E0F01C0
:101E1000550EA76EAA0EA76EA682A6B2FED7A694EE
:101E20000050F212140E0001DE6FC7EC02F0020E39
:101E3000A96EA86AA69CA69EA684F250006EF29E89
:101E40000F01550EA76EAA0EA76EA682A6B2FED7E8
:101E5000A6940050F212140E0001DE6FC7EC02F0DF
:101E6000030EA96EA86AA69CA69EA684F250006ED8
:101E7000F29E0F01550EA76EAA0EA76EA682A6B2FD
:101E8000FED7A6940050F212140E0001DE6FC7ECCC
:101E900002F0FF003C50385C49E13D50395C46E1BE
:101EA0003E503A5C43E13F503B5C40E1010ED96F4C
:101EB000DA6F7FEC03F0F00EF66E010EF76EDFECDA
:101EC00003F0010ED96F020EDA6F7FEC03F0040EFF
:101ED000F66E020EF76EDFEC03F0010ED96F030E03
:101EE000DA6F7FEC03F0180EF66E020EF76EDFEC81
:101EF00003F0010ED96F040EDA6F7FEC03F02C0EA5
:101F0000F66E020EF76EDFEC03F0040EC76FFA0EEA
:101F1000DE6FC7EC02F0C72FFAD7640E196E0B0EF6
:101F20001C6E0C0ED86FB0EC03F037D0010ED96FD9
:101F3000DA6F7FEC03F0010ED96F020EDA6F7FECDF
:101F400003F0400EF66E020EF76EDFEC03F0010EAA
:101F5000D96F030EDA6F7FEC03F0540EF66E020EAB
:101F6000F76EDFEC03F0010ED96F040EDA6F7FEC31
:101F700003F0680EF66E020EF76EDFEC03F0040E4F
:101F8000C76FFA0EDE6FC7EC02F0C72FFAD70B0E41
:101F90001C6E0C0ED86FB0EC03F01C500B080FE257
:101FA0001C500D080CE3010E1C5CC76FD96F040EAA
:101FB000DA6F7FEC03F036C0D8F0B0EC03F0192CE8
:101FC000F8D0010ED96FDA6F7FEC03F07C0EF66E5D
:101FD000020EF76EDFEC03F033BE01D001D0336A9E
:101FE000928A80AA0DD017B60AD01F061D06010ED0
:101FF0001D241E6E17861E0EDE6FC7EC02F001D088
:102000001796968084A00DD017BA0AD01F2A1D2AD1
:10201000010E1D5C1E6E178A1E0EDE6FC7EC02F0ED
:1020200001D0179A1F50215C08E2332A1FC021F00B
:10203000020E215C206E040E1D6E20501F5C08E213
:1020400033061FC020F0020E2024216E020E1D6EEA
:102050001F501A5C09E21BC01FF0020E1D6E336A8E
:102060001FC020F02024216E1B501F5C0BE21AC001
:102070001FF0040E1D6E1A5C336E1FC021F0020E9D
:10208000215C206E010E3324C76FC86F020EC96F2A
:1020900080EC06F0020E3324C76FC86F030EC96FC1
:1020A00080EC06F0030E3324C76FC86F040EC96FAF
:1020B00080EC06F0010ED96F1DC0DAF07FEC03F062
:1020C00035C0D8F0B0EC03F01D50020814E1010E49
:1020D000D96F040EDA6F7FEC03F036C0D8F0B0ECA5
:1020E00003F0010ED96F030EDA6F7FEC03F036C0F8
:1020F000D8F0B0EC03F01D50040814E1010ED96FC4
:10210000020EDA6F7FEC03F036C0D8F0B0EC03F0CB
:10211000010ED96F030EDA6F7FEC03F036C0D8F0F2
:10212000B0EC03F01D50030814E1010ED96F040E4A
:10213000DA6F7FEC03F036C0D8F0B0EC03F0010E9C
:10214000D96F020EDA6F7FEC03F036C0D8F0B0EC36
:1021500003F0968284A21BD017B818D017881FC02E
:1021600019F0030E1D6E020EC76F960EDE6FC7ECE0
:1021700002F0C72FFAD70C0ED86FB0EC03F019504D
:10218000060804E1386A396A3A6A3B6A01D017984E
:10219000968484A40ED0640E196E0C0ED86FB0EC29
:1021A00003F0020EC76FFA0EDE6FC7EC02F0C72F06
:1021B000FAD719500208D8A419D1010ED96FDA6FD5
:1021C0007FEC03F0920EF66E020EF76EDFEC03F07A
:1021D000010ED96F020EDA6F7FEC03F0A80EF66ED7
:1021E000020EF76EDFEC03F0060ED96F030EDA6F06
:1021F0007FEC03F02AC0C7F0010EC86FB4EC06F004
:102200003A0ED86FB0EC03F02BC0C7F0010EC86FC8
:10221000B4EC06F0C70EF66E020EF76E080ECB6F2A
:10222000F9EC05F0060E2F24C76FD96F040EDA6F94
:102230007FEC03F037C0D8F0B0EC03F0928A80AAAC
:102240001DD02F2C0CD02A503C0809E32A2A020E5C
:10225000C76F960EDE6FC7EC02F0C72FFAD72F506C
:1022600003080CE12B503B0809E32B2A020EC76F31
:10227000960EDE6FC7EC02F0C72FFAD7968084A0C7
:1022800035D02F2C18D02A5209E02A06020EC76F2B
:10229000960EDE6FC7EC02F0C72FFAD72A503C0823
:1022A0000AE23C0E2A6E020EC76F960EDE6FC7EC76
:1022B00002F0C72FFAD72F50030818E12B5209E07C
:1022C0002B06020EC76F960EDE6FC7EC02F0C72F0B
:1022D000FAD72B503C080AE23C0E2B6E020EC76F59
:1022E000960EDE6FC7EC02F0C72FFAD7968284A253
:1022F00016D02F2C03D0030E2F6E05D02F500308BD
:1023000002E1010E2F6E020EC76FFA0EDE6FC7ECF0
:1023100002F0C72FFAD70C0ED86FB0EC03F09684FA
:1023200084A464D0C80EDE6FC7EC02F00C0ED86F28
:10233000B0EC03F0010ED96F020EDA6F7FEC03F000
:10234000D00EF66E020EF76EDFEC03F0010ED96FC1
:10235000030EDA6F7FEC03F0E20EF66E020EF76EFC
:10236000DFEC03F0140EA96E2AC0A8FFA69CA69E5F
:10237000A684F250006EF29E0F01550EA76EAA0EB3
:10238000A76EA682A6B2FED7A6940050F212150E32
:10239000A96E2BC0A8FFA69CA69EA684F250006E34
:1023A000F29E550EA76EAA0EA76EA682A6B2FED703
:1023B000A6940050F2122AC028F02BC029F0040E77
:1023C0000001C76FAF0EDE6FC7EC02F0C72FFAD760
:1023D0001E0EDE6FC7EC02F0010E196E336A020E9C
:1023E0001D6E1F6E0C0ED86FB0EC03F01950030871
:1023F000D8A47CD1010ED96FDA6F7FEC03F0F40E14
:10240000F66E020EF76EDFEC03F0010ED96F020ECE
:10241000DA6F7FEC03F00A0EF66E030EF76EDFEC58
:1024200003F0010ED96F030EDA6F7FEC03F0200E7C
:10243000F66E030EF76E0A0ECB6FF9EC05F038C09E
:10244000C7F01F0EC86F1CEC06F039C0C7F01F0E96
:10245000C86F1CEC06F03AC0C7F01F0EC86F1CEC2A
:1024600006F03BC0C7F01F0EC86F1CEC06F0200E34
:10247000D86FB0EC03F0200ED86FB0EC03F0928A66
:1024800080AA11D017B60ED00B0E1C5C036A380F51
:10249000E96E000E0320EA6EEF2A17861E0EDE6F2D
:1024A000C7EC02F001D01796968084A011D017BA1D
:1024B0000ED00B0E1C5C036A380FE96E000E032071
:1024C000EA6EEF06178A1E0EDE6FC7EC02F001D02F
:1024D000179A968284A20DD017B80AD017881C2AA2
:1024E0001E0EDE6FC7EC02F00C0ED86FB0EC03F0DE
:1024F00001D01798968484A40DD017BC0AD0178CED
:102500001C061E0EDE6FC7EC02F00C0ED86FB0EC8E
:1025100003F001D0179C0B0E1C5C036A380FE96EA8
:10252000000E0320EA6EEFBE01D00AD00B0E1C5C39
:10253000036A380FE96E000E0320EA6E090EEF6E93
:102540000B0E1C5C036A380FE96E000E0320EA6E66
:10255000EFBE0CD0EF50090809E20B0E1C5C036AB9
:10256000380FE96E000E0320EA6EEF6A1C500A086D
:1025700010E3010E196E336A020E1D6E1F6E0B0EF4
:102580001C6E020EC76FFA0EDE6FC7EC02F0C72F8B
:10259000FAD71CC0D9F0040EDA6F7FEC03F037C015
:1025A000D8F0B0EC03F01C500E08D8B08DD03C50E1
:1025B000385C4DE13D50395C4AE13E503A5C47E1C0
:1025C0003F503B5C44E1010ED96FDA6F7FEC03F0C2
:1025D000360EF66E030EF76EDFEC03F0010ED96FC8
:1025E000020EDA6F7FEC03F04C0EF66E030EF76E00
:1025F000DFEC03F0010ED96F030EDA6F7FEC03F00E
:10260000620EF66E030EF76EDFEC03F0010ED96F6B
:10261000040EDA6F7FEC03F0780EF66E030EF76EA1
:10262000DFEC03F0020EC76FFA0EDE6FC7EC02F0AC
:10263000C72FFAD73D0E196E0B0E1C6E0C0ED86FFD
:10264000B0EC03F0386A396A3A6A3B6A3DD0010E51
:10265000D96FDA6F7FEC03F08E0EF66E030EF76E15
:10266000DFEC03F0010ED96F020EDA6F7FEC03F09E
:10267000A40EF66E030EF76EDFEC03F0010ED96FB9
:10268000030EDA6F7FEC03F0BA0EF66E030EF76EF0
:10269000DFEC03F0010ED96F040EDA6F7FEC03F06C
:1026A000D00EF66E030EF76EDFEC03F0020EC76F6E
:1026B000FA0EDE6FC7EC02F0C72FFAD70B0E1C6EB6
:1026C0000C0ED86FB0EC03F01C500B080FE21C503E
:1026D0000D080CE3010E1C5CC76FD96F040EDA6F96
:1026E0007FEC03F036C0D8F0B0EC03F019503D0891
:1026F000D8A487D1010ED96FDA6F7FEC03F0E60E14
:10270000F66E030EF76EDFEC03F0010ED96F020ECA
:10271000DA6F7FEC03F0FC0EF66E030EF76EDFEC63
:1027200003F0010ED96F030EDA6F7FEC03F0120E87
:10273000F66E040EF76E0A0ECB6FF9EC05F038C09A
:10274000C7F01F0EC86F1CEC06F039C0C7F01F0E93
:10275000C86F1CEC06F03AC0C7F01F0EC86F1CEC27
:1027600006F03BC0C7F01F0EC86F1CEC06F0200E31
:10277000D86FB0EC03F0200ED86FB0EC03F0928A63
:1027800080AA11D017B60ED00B0E1C5C036A380F4E
:10279000E96E000E0320EA6EEF2A17861E0EDE6F2A
:1027A000C7EC02F001D01796968084A011D017BA1A
:1027B0000ED00B0E1C5C036A380FE96E000E03206E
:1027C000EA6EEF06178A1E0EDE6FC7EC02F001D02C
:1027D000179A968284A20DD017B80AD017881C2A9F
:1027E0001E0EDE6FC7EC02F00C0ED86FB0EC03F0DB
:1027F00001D01798968484A40DD017BC0AD0178CEA
:102800001C061E0EDE6FC7EC02F00C0ED86FB0EC8B
:1028100003F001D0179C0B0E1C5C036A380FE96EA5
:10282000000E0320EA6EEFBE01D00AD00B0E1C5C36
:10283000036A380FE96E000E0320EA6E090EEF6E90
:102840000B0E1C5C036A380FE96E000E0320EA6E63
:10285000EFBE0CD0EF50090809E20B0E1C5C036AB6
:10286000380FE96E000E0320EA6EEF6A1C500A086A
:1028700004E3050E196E0B0E1C6E1CC0D9F0040E7D
:10288000DA6F7FEC03F037C0D8F0B0EC03F01C50E7
:102890000E08D8B0A4D0010ED96FDA6F7FEC03F028
:1028A000280EF66E040EF76EDFEC03F0010ED96F02
:1028B000020EDA6F7FEC03F03E0EF66E040EF76E3A
:1028C000DFEC03F0010ED96F030EDA6F7FEC03F03B
:1028D000540EF66E040EF76EDFEC03F0010ED96FA6
:1028E000040EDA6F7FEC03F06A0EF66E040EF76EDC
:1028F000DFEC03F0A96A38C0A8FFA69CA69EA684B8
:10290000F250006EF29E0F01550EA76EAA0EA76E32
:10291000A682A6B2FED7A6940050F212140E0001B1
:10292000DE6FC7EC02F0010EA96E39C0A8FFA69CAD
:10293000A69EA684F250006EF29E0F01550EA76E61
:10294000AA0EA76EA682A6B2FED7A6940050F212D7
:10295000140E0001DE6FC7EC02F0020EA96E3AC041
:10296000A8FFA69CA69EA684F250006EF29E0F01C0
:10297000550EA76EAA0EA76EA682A6B2FED7A69483
:102980000050F212140E0001DE6FC7EC02F0030ECD
:10299000A96E3BC0A8FFA69CA69EA684F250006E1E
:1029A000F29E0F01550EA76EAA0EA76EA682A6B2C2
:1029B000FED7A6940050F212140E0001DE6FC7EC91
:1029C00002F0020EC76FFA0EDE6FC7EC02F0C72FDF
:1029D000FAD7010E196E336A020E1D6E1F6E1C505F
:1029E0000B080FE21C500D080CE3010E1C5CC76FB6
:1029F000D96F040EDA6F7FEC03F036C0D8F0B0EC7C
:102A000003F019500408D8A4CED0010ED96FDA6FA4
:102A10007FEC03F0800EF66E040EF76EDFEC03F031
:102A2000010ED96F020EDA6F7FEC03F0960EF66E90
:102A3000040EF76E0B0ECB6FF9EC05F0080EE96E85
:102A400048C0C8F047C0C7F0E7EF06F0200ED86FC7
:102A5000B0EC03F0200ED86FB0EC03F0200ED86F6E
:102A6000B0EC03F0010ED96F040EDA6F7FEC03F0C7
:102A7000AA0EF66E040EF76EDFEC03F0928A80AABF
:102A800078D0968284A275D0C80EDE6FC7EC02F0B3
:102A90000C0ED86FB0EC03F0010ED96F020EDA6F96
:102AA0007FEC03F0C00EF66E040EF76EDFEC03F061
:102AB000010ED96F030EDA6F7FEC03F0D20EF66EC3
:102AC000040EF76EDFEC03F0320EA96EA86AA69C26
:102AD000A69EA684F250006EF29E0F01550EA76EC0
:102AE000AA0EA76EA682A6B2FED7A6940050F21236
:102AF000330EA96EA86AA69CA69EA684F250006E0C
:102B0000F29E550EA76EAA0EA76EA682A6B2FED79B
:102B1000A6940050F212340EA96EA86AA69CA69E36
:102B2000A684F250006EF29E550EA76EAA0EA76EF6
:102B3000A682A6B2FED7A6940050F212040E00019F
:102B4000C76FAF0EDE6FC7EC02F0C72FFAD7226A4D
:102B5000236A486A476A1E0EDE6FC7EC02F0010E58
:102B6000196E336A020E1D6E1F6E0C0ED86FB0EC1C
:102B700003F0968484A416D017BC13D0178C020ED1
:102B8000C76FFA0EDE6FC7EC02F0C72FFAD7010E3F
:102B9000196E336A020E1D6E1F6E0C0ED86FB0ECEC
:102BA00003F001D0179C19500508D8A40FD1010ECD
:102BB000D96FDA6F7FEC03F0E40EF66E040EF76E59
:102BC000DFEC03F0010ED96F020EDA6F7FEC03F039
:102BD000050EC76F7CEC07F000C0C7F001C0C8F05D
:102BE00002C0C9F003C0CAF003C0DEF002C0DDF0CD
:102BF00001C0DCF000C0DBF0D70EE26FA30EE16F86
:102C0000E06B810EDF6F49EC08F000C0C7F001C037
:102C1000C8F002C0C9F003C0CAF0FA0EF66E040E86
:102C2000F76E090ECB6FF9EC05F0020EE96ECAC023
:102C3000CEF0C9C0CDF0C8C0CCF0C7C0CBF0CF6FCC
:102C40001FEC09F0080EF66E050EF76E070ECB6F3F
:102C5000F9EC05F0010ED96F030EDA6F7FEC03F08B
:102C6000010ECC6F56EC03F000C0C7F001C0C8F0F5
:102C700002C0C9F003C0CAF0100EF66E050EF76E62
:102C8000080ECB6FF9EC05F0010EE96ECAC0CEF06C
:102C9000C9C0CDF0C8C0CCF0C7C0CBF0CF6B1FEC23
:102CA00009F0010ED96F040EDA6F7FEC03F01E0EEF
:102CB000F66E050EF76E070ECB6FF9EC05F0010E00
:102CC000E96EC6C0CEF0C5C0CDF0C4C0CCF0C3C064
:102CD000CBF0CF6B1FEC09F0968284A25FD017B8BF
:102CE0005CD0010E196E336A020E1D6E1F6E0B0E44
:102CF0001C6E020EC76FFA0EDE6FC7EC02F0C72F14
:102D0000FAD70C0ED86FB0EC03F0010ECC6F56EC76
:102D100003F003C0C6F002C0C5F001C0C4F000C09B
:102D2000C3F0C6C0DEF0C5C0DDF0C4C0DCF0C3C077
:102D3000DBF0E2EC09F002C04AF001C049F049C002
:102D400026F04AC027F03C0EA96E26C0A8FFA69C1C
:102D5000A69EA684F250006EF29E0F01550EA76E3D
:102D6000AA0EA76EA682A6B2FED7A6940050F212B3
:102D70003D0EA96E27C0A8FFA69CA69EA684F25071
:102D8000006EF29E550EA76EAA0EA76EA682A6B280
:102D9000FED7A6940050F212000101D01798968435
:102DA00084A413D017BC10D0010E196E336A020E22
:102DB0001D6E1F6E0B0E1C6E1E0EDE6FC7EC02F03A
:102DC0000C0ED86FB0EC03F001D0179C19506408BA
:102DD000D8A4F6D118A00DD01890050EC76F7CECC2
:102DE00007F003C0AAF002C0A9F001C0A8F000C01B
:102DF000A7F0010ED96FDA6F7FEC03F0AAC0DEF006
:102E0000A9C0DDF0A8C0DCF0A7C0DBF0D70EE26FF0
:102E1000A30EE16FE06B810EDF6F49EC08F000C09C
:102E2000C7F001C0C8F002C0C9F003C0CAF02C0E40
:102E3000F66E050EF76E080ECB6FF9EC05F0020E7C
:102E4000E96ECAC0CEF0C9C0CDF0C8C0CCF0C7C0D2
:102E5000CBF0CF6F1FEC09F0390EF66E050EF76E52
:102E6000070ECB6FF9EC05F0010ED96F020EDA6F89
:102E70007FEC03F0420EF66E050EF76EDFEC03F00A
:102E8000AAC0DEF0A9C0DDF0A8C0DCF0A7C0DBF06E
:102E9000A40EE26F700EE16F3D0EE06F7D0EDF6FEE
:102EA000EFEC03F000C0C7F001C0C8F002C0C9F0E9
:102EB00003C0CAF003C0DEF002C0DDF001C0DCF0E8
:102EC00000C0DBF0E26BE16B300EE06F820EDF6F73
:102ED00049EC08F003C0A6F002C0A5F001C0A4F0C0
:102EE00000C0A3F0DE6BDD6B300EDC6F820EDB6F9B
:102EF000A6C0E2F0A5C0E1F0A4C0E0F0A3C0DFF0FE
:102F000041EC07F006E3A66BA56B300EA46F820EB2
:102F1000A36F2E6AA6C0CAF0A5C0C9F0A4C0C8F0AD
:102F2000A3C0C7F097EC0BF000C0C7F001C0C8F019
:102F300002C0C9F003C0CAF0E06B2EC0DFF03BEC6A
:102F400003F003C0DEF002C0DDF001C0DCF000C021
:102F5000DBF0CAC0E2F0C9C0E1F0C8C0E0F0C7C011
:102F6000DFF041EC07F00EE3080E2E24C76FD96F97
:102F7000020EDA6F7FEC03F0D10ED86FB0EC03F0E5
:102F80002E2AC8D7A6C0CAF0A5C0C9F0A4C0C8F0F0
:102F9000A3C0C7F097EC0BF003C0DEF002C0DDF079
:102FA00001C0DCF000C0DBF0E2EC09F001C02EF063
:102FB0002E500A080EE3080E2E24C76FD96F020E9A
:102FC000DA6F7FEC03F0200ED86FB0EC03F02E2AFE
:102FD000EFD70A0ED96F030EDA6F7FEC03F04A0EBB
:102FE000F66E050EF76E060ECB6FF9EC05F028C0F5
:102FF000C7F0010EC86FB4EC06F03A0ED86FB0EC13
:1030000003F029C0C7F0010EC86FB4EC06F017A496
:1030100011D0010ED96F040EDA6F7FEC03F05A0E57
:10302000F66E050EF76EDFEC03F0010EC76FA2EC33
:103030000BF00FD0010ED96F040EDA6F7FEC03F0A6
:10304000640EF66E050EF76EDFEC03F0C76BA2ECB4
:103050000BF017A022D00D0ED96F040EDA6F7FECA3
:1030600003F06E0EF66E050EF76EDFEC03F01794AC
:10307000C76BA2EC0BF017928C9695968C8095906E
:10308000179E18B209D0320EDE6FC7EC02F010ECBA
:1030900003F01882010E316E1AD017900D0ED96F01
:1030A000040EDA6F7FEC03F0760EF66E050EF76E07
:1030B000DFEC03F08C90959018A209D0320EDE6FF1
:1030C000C7EC02F010EC03F01892010E316E17A25B
:1030D00018D0010ED96F030EDA6F7FEC03F07E0E6D
:1030E000F66E050EF76EDFEC03F08C86959618B43D
:1030F00007D0320EDE6FC7EC02F010EC03F018843C
:1031000017D0010ED96F030EDA6F7FEC03F0860E35
:10311000F66E050EF76EDFEC03F08C96959618A40C
:1031200007D0320EDE6FC7EC02F010EC03F01894FB
:10313000968084A00DD017B60AD017721786020E9B
:10314000C76F960EDE6FC7EC02F0C72FFAD701D01B
:103150001796968284A20DD017B80AD017741788D4
:10316000020EC76F960EDE6FC7EC02F0C72FFAD7BC
:1031700001D01798928A80AA12D00C0ED86FB0ECAA
:1031800003F0020EC76F960EDE6FC7EC02F0C72F7A
:10319000FAD7010E196E336A020E1D6E1F6E9684E9
:1031A00084A40DD017BA0AD01770178A020EC76F01
:1031B000960EDE6FC7EC02F0C72FFAD701D0179A30
:1031C000312C57D0320EA96E22C0A8FFA69CA69E15
:1031D000A684F250006EF29E0F01550EA76EAA0E45
:1031E000A76EA682A6B2FED7A6940050F212330EA6
:1031F000A96E23C0A8FFA69CA69EA684F250006ECE
:10320000F29E550EA76EAA0EA76EA682A6B2FED794
:10321000A6940050F21247C024F04850256E340E98
:10322000A96E24C0A8FFA69CA69EA684F2CF00F09B
:10323000F29E550EA76EAA0EA76EA682A6B2FED764
:10324000A6940050F212350EA96E25C0A8FFA69CC8
:10325000A69EA684F2CF00F0F29E550EA76EAA0E8F
:10326000A76EA682A6B2FED7A6940050F212316ACB
:1032700000013050130803E210EC03F0306A2250D2
:103280003B0802E2226A232A23503C0804E1236A15
:0C329000472AD8B4482A08EF0EF00300CB
:020000040030CA
:0E00000020CE1E1E000781000FC00FE00F4033
:00000001FF
;PIC18F4550
;CRC=DFDA  CREATED="11-ago.-17 15:47"
