:0600000066EF13F0000C96
:080008000000000000000000F0
:100010000000000000000000046ED8CF05F0E0CF23
:1000200006F00001E9CF0CF0EACF07F0E1CF08F0CD
:10003000E2CF09F0D9CF0AF0DACF0BF0F3CF12F00C
:10004000F4CF13F0FACF14F000C00EF001C00FF09F
:1000500002C010F003C011F09DA032EF00F09EB07E
:10006000CDEF00F00EC000F00FC001F010C002F0A4
:1000700011C003F00CC0E9FF07C0EAFF078E08C0FB
:10008000E1FF09C0E2FF0AC0D9FF0BC0DAFF12C0CE
:10009000F3FF13C0F4FF14C0FAFF045006C0E0FFE2
:1000A00005C0D8FF1000F2CF0DF0F29CF29EF76A67
:1000B000C60FF66E000EF7220900F5500DBCF28C4B
:1000C0000DBEF28E1200280C010654656D706F7221
:1000D000697A61646F7220555620202020004361A8
:1000E0006D62696F20436F6E7472617365F1612098
:1000F00020005469656D706F2054726162616A6F8F
:1001000020555620200050756E746F204365726F25
:1001100020202020202020202000416C61726D6171
:10012000202020202020202020204F464600416C07
:1001300061726D6120202020202020202020204F6F
:100140004E00434142494E4120464C554A4F204CB7
:10015000414D494E415200002020202020484F525E
:10016000495A4F4E54414C2020202020000020208E
:1001700020204A502020494E474C4F42414C2020DD
:100180002020000020202020205245463A4A50439B
:1001900048343820202020200000B10ECF6EE00E21
:1001A000CE6E462AD8B4472A928A80BA04D0B32B9E
:1001B000D8B4B42B02D0B46BB36B968084B004D0A7
:1001C000B52BD8B4B62B02D0B66BB56B968284B281
:1001D00004D0B72BD8B4B82B02D0B86BB76B9684C9
:1001E00084B404D0B92BD8B4BA2B02D0BA6BB96B93
:1001F000475203E14650C7082EE292968976476A35
:10020000466A302A1880412C0AD018B603D08B9049
:10021000949004D018A802D08B809490187617A4DC
:1002200003D0BB2BD8B4BC2B17A015D0222A17BEE5
:1002300012D0295202E029060ED0285204E02806E6
:100240003B0E296E08D0178E17908A8693962AC087
:1002500028F02BC029F09E9032EF00F053656C65BA
:100260006363696F6E652056656C6F636964616472
:100270000000496E696369616C20202056656E74C8
:10028000696C61646F720000202020202056656C2C
:100290003A202530327520202020202020002020E8
:1002A000202020202020202020202020202020204E
:1002B000202000002020202020202020202020207E
:1002C0002020202020202020000020202020205638
:1002D000656C6F6369646164202020202020000029
:1002E000202020202020416C6D6163656E61646177
:1002F000202020200000202020202020202020203E
:1003000020202020202020202020000020205469B0
:10031000656D706F2064652054726162616A6F2040
:1003200020002020205469656D706F3D20253035F8
:100330004C75202020002052455345543D204F70DD
:1003400072696D61203C2000202020202020202088
:1003500020202020202020202020202000002020DD
:10036000426F7272616E646F20205469656D706FA8
:1003700020200000202020206465205472616261EA
:100380006A6F202020202020000020202020202014
:10039000202020202020202020202020202000009D
:1003A0002020202020496E67726573652020202060
:1003B00020202020000020202020436F6E747261D6
:1003C0007365F161202020202020000020202020C3
:1003D000434C4156453D25692569256925692020FD
:1003E000000020202020202020202020202020204D
:1003F0002020202020002020202020436F6E7472B7
:10040000617365F161202020200020202020202021
:10041000436F7272656374612020202020002020C9
:1004200020202020202020202020202020202020CC
:1004300020002020202020436F6E7472617365F1CC
:100440006120202020002020202020496E636F7230
:10045000726563746120202020002020202020204D
:1004600020202020202020202020202020002D2D92
:100470002D4D454E55205052494E434950414C2D2B
:100480002D2D00002020202054656D706F72697A38
:1004900061646F7220202020200020202020202056
:1004A000204C757A20555620202020202020200026
:1004B000253033753A2530327520284D3A5329209E
:1004C00020005469656D706F20416C6D6163656ECD
:1004D00061646F002020436F7272656374616D65A3
:1004E0006E74652020002020202020496E677265F0
:1004F00073652020202020202020000020202020A4
:10050000436F6E7472617365F1612020202020209A
:10051000000020202020434C4156453D2569256997
:10052000256925692020000020202020202020206F
:1005300020202020202020202020202000002020FB
:10054000202020436F6E7472617365F1612020205A
:1005500020200000202020202020436F727265633D
:100560007461202020202020000020202020202036
:1005700020202020202020202020202020200000BB
:10058000202020202020202020202020202020206B
:100590002020202000002020202020436F6E747235
:1005A000617365F1612020202020000020202020A0
:1005B00020496E636F727265637461202020202071
:1005C000000020202020202020202020202020206B
:1005D0002020202020200000202020496E67726506
:1005E0007365204E75657661202020200000202054
:1005F000202020436F6E7472617365F161202020AA
:100600002020000020202020434C4156453D2569F4
:100610002569256925692020000020202020202030
:10062000202020202020202020202020202000000A
:100630002020202020436F6E7472617365F1612069
:100640002020202000002020202020416C6D6163AC
:10065000656E616461202020202000002020202081
:10066000202020202020202020202020202020208A
:10067000000020204475726163696F6E20416374CD
:1006800075616C20202000002020205469656D7069
:100690006F3D202530354C752020200020524553D9
:1006A00045543D204F7072696D61205E2079203E77
:1006B0002000205265736574206465207469656D3F
:1006C000706F20002020202020457869746F736FA0
:1006D00020202020200020205A65726F20506F6952
:1006E0006E7420436F6E66696720000050726573F8
:1006F000696F6E3D2025332E326620696E48324F79
:100700002000202020204144433D25322E30660029
:10071000202020205A463D25322E30660000202021
:1007200020202020202020202020202020202020C9
:1007300020200000202020202020202041637469F8
:10074000766F202020202020000020202020202044
:100750002020416C61726D6120202020202000004B
:100760002020202020202020202020202020202089
:1007700020202020000020202020202020202020B9
:1007800020202020202020202020000020202020A9
:10079000202044657361637469766F2020202020D7
:1007A000000020202020202020416C61726D6120FB
:1007B0002020202020200000202020202020202079
:1007C00020202020202020202020202000005365F1
:1007D0006C656363696F6E652056656C6F636964F1
:1007E0006164000020202064656C2056656E746989
:1007F0006C61646F72202020000020202020205691
:10080000656C3A20253032752020202020202000E1
:1008100020202020202020202020202020202020D8
:100820002020202000002020202020202020202008
:1008300020202020202020202020000020202020F8
:100840002056656C6F63696461642020202020203D
:100850000000202020202020416C6D6163656E61C6
:100860006461202020200000202020202020202043
:100870002020202020202020202020200000215681
:10088000657269666971756520466C756A6F2120AD
:100890002000215665726966697175652046696C2C
:1008A00074726F2100004A5043522044503A25335D
:1008B0002E326620696E48324F20000054656D70FC
:1008C0006F3A253033753A253032750046696C74BD
:1008D000726F3A004D6F746F723A4F4E20004D6F39
:1008E000746F723A4F4646004C757A3A4F4E20006C
:1008F0004C757A3A4F46460055563A4F4E20000006
:1009000055563A4F46460000202054656D706F7270
:10091000697A61646F722020646520200000204C99
:10092000757A205556202046696E616C697A61643B
:100930006F200000202020202020202020202020A8
:1009400020202020202020200000202020202020E7
:1009500020202020202020202020202020200000D7
:10096000EA6AE50EE96EEF500EE0050E016E006AD0
:10097000002EFED7012EFBD72E0E006E002EFED7C6
:1009800000D0EF2EF2D7000CE639F00B006E0F0E00
:1009900083140010836E090E006E002EFED700D067
:1009A0008386490E006E002EFED78396000C83923C
:1009B000010EE56FD5DFE3A18392E3B18382090ED7
:1009C000006E002EFED700D08394090E006E002E1C
:1009D000FED700D08396E439E56F0F0EE517E5C02A
:1009E000E6F0D2DFE4510F0BE56FE66FCDDF000CD0
:1009F000000E956E8392839483960F0EE56FB0DFA1
:100A0000010ECE6FCE51030808E3030EE66FBCDF84
:100A1000050EE56FA5DFCE2BF5D7020EE66FB4DF2E
:100A2000CE6BCE51030812E3036ACE51F2CFCFF062
:100A3000F29CF29E53EC00F0CFBDF28CCFBFF28E51
:100A4000CF6FE36BE46FB3DFCE2BEBD7000CC80E98
:100A5000E56F86DFCDDFFF0E926E966EC00EF2124E
:100A6000850ECD6E9D80C150C00B0E09C16EC09029
:100A7000C082C094C08EC280C00EF2123EEF14F04D
:100A80008E0E006EE7C001F0E6C002F0036A01526C
:100A900009E102C001F0026A080E005E015202E1A3
:100AA000006A08D0D89001BE04D002360136000694
:100AB000F9D7019E000CF2CFCEF0F29CF29EA96A0B
:100AC000A69CA69EA680A850CEBDF28CCEBFF28E6C
:100AD0003D6E140EE56F44DFF2CFCEF0F29CF29E35
:100AE000010EA96EA69CA69EA680A850CEBDF28C33
:100AF000CEBFF28E3E6E140EE56F32DFF2CFCEF037
:100B0000F29CF29E020EA96EA69CA69EA680A850FC
:100B1000CEBDF28CCEBFF28E3F6E140EE56F20DF9D
:100B2000F2CFCEF0F29CF29E030EA96EA69CA69E7A
:100B3000A680A850CEBDF28CCEBFF28E406E140EB1
:100B4000E56F0EDFF2CFCEF0F29CF29E040EA96E9E
:100B5000A69CA69EA680A850CEBDF28CCEBFF28EDB
:100B6000016E189801B01888140EE56FF9DEF2CF07
:100B7000CEF0F29CF29E050EA96EA69CA69EA680C3
:100B8000A850CEBDF28CCEBFF28E286E140EE56F4B
:100B9000E7DEF2CFCEF0F29CF29E060EA96EA69C86
:100BA000A69EA680A850CEBDF28CCEBFF28E296E36
:100BB000140EE56FD5DEF2CFCEF0F29CF29E070E5A
:100BC000A96EA69CA69EA680A850CEBDF28CCEBFD4
:100BD000F28E226E140EE56FC3DEF2CFCEF0F29CE1
:100BE000F29E080EA96EA69CA69EA680A850CEBD19
:100BF000F28CCEBFF28E236E140EE56FB1DEF2CF13
:100C0000CEF0F29CF29E090EA96EA69CA69EA6802E
:100C1000A850CEBDF28CCEBFF28E246E140EE56FBE
:100C20009FDEF2CFCEF0F29CF29E0A0EA96EA69C39
:100C3000A69EA680A850CEBDF28CCEBFF28E256EA9
:100C4000140EE56F8DDEF2CFCEF0F29CF29E0B0E0D
:100C5000A96EA69CA69EA680A850CEBDF28CCEBF43
:100C6000F28E266E140EE56F7BDEF2CFCEF0F29C94
:100C7000F29E0C0EA96EA69CA69EA680A850CEBD84
:100C8000F28CCEBFF28E276E140EE56F69DEF2CFC6
:100C9000CEF0F29CF29E0D0EA96EA69CA69EA6809A
:100CA000A850CEBDF28CCEBFF28E456E140EE56F0D
:100CB00057DEF2CFCEF0F29CF29E0F0EA96EA69CEC
:100CC000A69EA680A850CEBDF28CCEBFF28E426EFC
:100CD000140EE56F45DEF2CFCEF0F29CF29E100EC0
:100CE000A96EA69CA69EA680A850CEBDF28CCEBFB3
:100CF000F28E436E140EE56F33DEF2CFCEF0F29C2F
:100D0000F29E110EA96EA69CA69EA680A850CEBDEE
:100D1000F28CCEBFF28E446E140EE56F21DE27C03A
:100D20004BF026C04AF04BC0E7F04AC0E6F0A8DE20
:100D300003C0AFF002C0AEF001C0ADF000C0ACF037
:100D4000F2CFCEF0F29CF29E130EA96EA69CA69E48
:100D5000A680A850CEBDF28CCEBFF28ECF6FF2CF60
:100D6000D0F0F29CF29E120EA96EA69CA69EA680C2
:100D7000A850D0BDF28CD0BFF28ED16FCFC0BEF0E4
:100D8000D1C0BDF0140EE56FEBDDF2CFCEF0F29CDA
:100D9000F29E150EA96EA69CA69EA680A850CEBD5A
:100DA000F28CCEBFF28ECF6FF2CFD0F0F29CF29EDB
:100DB000140EA96EA69CA69EA680A850D0BDF28C4B
:100DC000D0BFF28ED16FCFC0BCF0D1C0BBF0140E3B
:100DD000E56FC6DDF2CFCEF0F29CF29E160EA96E44
:100DE000A69CA69EA680A850CEBDF28CCEBFF28E49
:100DF000326E140EE56FB4DDF2CFCEF0F29CF29EAF
:100E0000170EA96EA69CA69EA680A850CEBDF28CF9
:100E1000CEBFF28E336E140EE56FA2DDF2CFCEF0B0
:100E2000F29CF29E180EA96EA69CA69EA680A850C3
:100E3000CEBDF28CCEBFF28E346E140EE56F90DD17
:100E400025C049F024C048F028C02AF029C02BF062
:100E500040EF14F0E3C0EAF0E751EA1BEAAF05D037
:100E6000D894D890E3BFD8802FD0E3C0EAF0E6C092
:100E7000EBF0E251EB5F06E0EAAF26D0D850010A72
:100E8000D86E22D0E7C0EBF0E351EB5F06E0EAAFAB
:100E90001BD0D850010AD86E17D0E8C0EBF0E4514F
:100EA000EB5F06E0EAAF10D0D850010AD86E0CD044
:100EB000E9C0EBF0E551EB5F06E0EAAF05D0D850B2
:100EC000010AD86E01D0D890000C3DBE03D03D5031
:100ED000090803E33DBE01D019D03D6AA96AA86A9A
:100EE000A69CA69EA684F250006EF29CF29E0F0174
:100EF000550EA76EAA0EA76EA682A6B2FED7A6941E
:100F00000050F212140E0001E56F2ADD3EBE03D040
:100F10003E50090803E33EBE01D01AD03E6A010EDE
:100F2000A96EA86AA69CA69EA684F250006EF29CAA
:100F3000F29E0F01550EA76EAA0EA76EA682A6B24C
:100F4000FED7A6940050F212140E0001E56F08DDE2
:100F50003FBE03D03F50090803E33FBE01D01AD083
:100F60003F6A020EA96EA86AA69CA69EA684F250AD
:100F7000006EF29CF29E0F01550EA76EAA0EA76E90
:100F8000A682A6B2FED7A6940050F212140E00015B
:100F9000E56FE6DC40BE03D04050090803E340BEE5
:100FA00001D01AD0406A030EA96EA86AA69CA69E1C
:100FB000A684F250006EF29CF29E0F01550EA76EB1
:100FC000AA0EA76EA682A6B2FED7A6940050F21271
:100FD000140E0001E56FC4DC000E18B8010E010804
:100FE0001BE21888040EA96E010EA86EA69CA69E90
:100FF000A684F250006EF29CF29E0F01550EA76E71
:10100000AA0EA76EA682A6B2FED7A6940050F21230
:10101000140E0001E56FA4DC2850C8081CE2140E71
:10102000286E050EA96E140EA86EA69CA69EA68418
:10103000F250006EF29CF29E0F01550EA76EAA0EA2
:10104000A76EA682A6B2FED7A6940050F212140E86
:101050000001E56F85DC29503B081AE2296A060E7B
:10106000A96EA86AA69CA69EA684F250006EF29C69
:10107000F29E0F01550EA76EAA0EA76EA682A6B20B
:10108000FED7A6940050F212140E0001E56F68DC42
:1010900022503C081AE2226A070EA96EA86AA69C92
:1010A000A69EA684F250006EF29CF29E0F01550E91
:1010B000A76EAA0EA76EA682A6B2FED7A69400506F
:1010C000F212140E0001E56F4BDC23503C081AE2CB
:1010D000236A080EA96EA86AA69CA69EA684F25052
:1010E000006EF29CF29E0F01550EA76EAA0EA76E1F
:1010F000A682A6B2FED7A6940050F212140E0001EA
:10110000E56F2EDC495026083BE2FF0A03E1485018
:10111000100836E2496A486A090EA96E0A0EA86EDE
:10112000A69CA69EA684F250006EF29CF29E0F0131
:10113000550EA76EAA0EA76EA682A6B2FED7A694DB
:101140000050F212140E0001E56F0ADC0A0EA96EBF
:10115000A86AA69CA69EA684F250006EF29CF29EFF
:101160000F01550EA76EAA0EA76EA682A6B2FED7D5
:10117000A6940050F212140E0001E56FB0EC04F0DA
:10118000AFC0E5F0AEC0E4F0ADC0E3F0ACC0E2F05B
:10119000E96BE86B160EE76F860EE66F5BDE10E21A
:1011A000E56BE46B160EE36F870EE26FAFC0E9F0FC
:1011B000AEC0E8F0ADC0E7F0ACC0E6F04BDE3BE31C
:1011C000AF6BAE6B5C0EAD6F860EAC6F0B0EA96E87
:1011D000DC0EA86EA69CA69EA684F250006EF29C21
:1011E000F29E0F01550EA76EAA0EA76EA682A6B29A
:1011F000FED7A6940050F212140E0001E56FB0EC79
:1012000004F00C0EA96EA86AA69CA69EA684F250B5
:10121000006EF29CF29E0F01550EA76EAA0EA76EED
:10122000A682A6B2FED7A6940050F212140E0001B8
:10123000E56FB0EC04F04550140802E345521DE19F
:101240000A0E456E0D0EA96E0A0EA86EA69CA69EED
:10125000A684F250006EF29CF29E0F01550EA76E0E
:10126000AA0EA76EA682A6B2FED7A6940050F212CE
:10127000140E0001E56FB0EC04F0BE51E9083BE24A
:10128000FF0A03E1BD51600836E2BE6BBD6B130E71
:10129000A96EA86AA69CA69EA684F250006EF29C37
:1012A000F29E0F01550EA76EAA0EA76EA682A6B2D9
:1012B000FED7A6940050F212140E0001E56FB0ECB8
:1012C00004F0120EA96EA86AA69CA69EA684F250EF
:1012D000006EF29CF29E0F01550EA76EAA0EA76E2D
:1012E000A682A6B2FED7A6940050F212140E0001F8
:1012F000E56FB0EC04F0BC510D083BE2FF0A03E1DE
:10130000BB51100836E2BC6BBB6B140EA96EA86A09
:10131000A69CA69EA684F250006EF29CF29E0F013F
:10132000550EA76EAA0EA76EA682A6B2FED7A694E9
:101330000050F212140E0001E56FB0EC04F0150E2F
:10134000A96EA86AA69CA69EA684F250006EF29C86
:10135000F29E0F01550EA76EAA0EA76EA682A6B228
:10136000FED7A6940050F212140E0001E56FB0EC07
:1013700004F0325001081DE2010E326E160EA96E05
:10138000010EA86EA69CA69EA684F250006EF29C4A
:10139000F29E0F01550EA76EAA0EA76EA682A6B2E8
:1013A000FED7A6940050F212140E0001E56FB0ECC7
:1013B00004F0335001081DE2010E336E170EA96EC2
:1013C000010EA86EA69CA69EA684F250006EF29C0A
:1013D000F29E0F01550EA76EAA0EA76EA682A6B2A8
:1013E000FED7A6940050F212140E0001E56FB0EC87
:1013F00004F034500F081DE20A0E346E180EA96E68
:101400000A0EA86EA69CA69EA684F250006EF29CC0
:10141000F29E0F01550EA76EAA0EA76EA682A6B267
:10142000FED7A6940050F212140E0001E56FB0EC46
:1014300004F042EF14F0010EE15DFC0F0FE2040F27
:1014400037EF0AF0800EE26F09D0C00EE26F06D0CF
:10145000940EE26F03D0D40EE26F00D0010EE05D77
:10146000E227E36BE2C0E4F0D7EC04F0000CF2CF2B
:101470000DF0F29CF29EE824F76AF736990FF66EAB
:10148000140EF7220A00F550FA6E0800F5500DBC54
:10149000F28C0DBEF28EF96E44144A145014561498
:1014A000DF51F10802E1EE0EDF6FDF51D10802E1FA
:1014B000FF0EDF6FDF510C0A05E0060A0FE0020A9B
:1014C00014E019D0E36B010EE46FD7EC04F0010EC9
:1014D000166E020EE56FB0EC04F014D0162A010E61
:1014E000E06F16C0E1F0A7DF0DD0E36B100EE46FE4
:1014F000D7EC04F007D0010EE36FDFC0E4F0D7ECC7
:1015000004F000D0000C0900F5520CE0F6CFD1F049
:10151000F7CFD2F0F5CFDFF0C3DFD1C0F6FFD2C0F6
:10152000F7FFF1D7000C010EE06FE16F84DF420E90
:10153000F66E010EF76EE7DF010EE06F020EE16F4F
:101540007ADF580EF66E010EF76EDDDF010EE06FEA
:10155000030EE16F70DF6E0EF66E010EF76ED3DFD5
:10156000010EE06F040EE16F66DF840EF66E010E71
:10157000F76EC9DF080ECE6FFA0EE56FB0EC04F01F
:10158000CE2FFAD70C0EDF6F8BDF47EF14F0090078
:10159000F6CFD3F0F7CFD4F0F5CFDFF081DFD3C0B3
:1015A000F6FFD4C0F7FFD22FF2D7000CD551016A55
:1015B000D45D03E2D4C000F00CD0006A080ED66FF0
:1015C000D4370036D551005CD8B0006E0136D62F26
:1015D000F7D7000C0150CEC0D4F0640ED56FE6DF13
:1015E00000C0CEF00150300E07E1CFA30CD0CFB732
:1015F0000AD0CFB9200E03D0CF97CF99CF81012643
:1016000001C0DFF04DDFCEC0D4F00A0ED56FCEDFC3
:1016100000C0CEF00150300E06E1CFB708D0CFA108
:1016200006D0CFB9200E012601C0DFF039DF300E21
:10163000CE27CEC0DFF034DF000CEACFD6F0E9CF02
:10164000D5F0CF39F009D16FD127E20FD26F320F29
:10165000D46FCF510F0BD227D227D427E90FD36FE6
:10166000D327D327CE390F0BD327D427D337D4375B
:10167000D41FD437CE510F0BD427D137070ED06FDC
:101680000A0ED307D427FDE3D207D327FDE3D10702
:10169000D227FDE3D007D127FDE3EA6AD00EE96E39
:1016A000070ED515D59DE926D40EE95CD8B4D58DA5
:1016B000EF50006E08E1D5BD06D0D5B913D0D5B72F
:1016C00002D0200E03D0D587D599300E0026EACF60
:1016D000CFF0E9CFCEF000C0DFF0E2DECFC0EAFF0E
:1016E000CEC0E9FFEE50D5ADDFD7000CBC510D08E0
:1016F000D8B084D0FF0A04E1BB510F08D8B07ED027
:10170000BC6BBB6BBBC0CEF0140EA96ECEC0A8FFE5
:10171000A69CA69EA684F250006EF29CF29E0F013B
:10172000550EA76EAA0EA76EA682A6B2FED7A694E5
:101730000050F212140E0001E56FB0EC04F0BCC0D2
:10174000CEF0150EA96ECEC0A8FFA69CA69EA684BC
:10175000F250006EF29CF29E0F01550EA76EAA0E7B
:10176000A76EA682A6B2FED7A6940050F212140E5F
:101770000001E56FB0EC04F0BD2BD8B4BE2BBDC0AA
:10178000CEF0120EA96ECEC0A8FFA69CA69EA6847F
:10179000F250006EF29CF29E0F01550EA76EAA0E3B
:1017A000A76EA682A6B2FED7A6940050F212140E1F
:1017B0000001E56FB0EC04F0BEC0CEF0130EA96ED0
:1017C000CEC0A8FFA69CA69EA684F250006EF29CF6
:1017D000F29E0F01550EA76EAA0EA76EA682A6B2A4
:1017E000FED7A6940050F212140E0001E56FB0EC83
:1017F00004F0140EE56FB0EC04F04CD0BB5184083B
:1018000003E1BC5103080CE0BB51080803E1BC51E3
:10181000070806E0BB518C083DE1BC510A083AE1DB
:10182000BBC0CEF0140EA96ECEC0A8FFA69CA69E8B
:10183000A684F250006EF29CF29E0F01550EA76E28
:10184000AA0EA76EA682A6B2FED7A6940050F212E8
:10185000140E0001E56FB0EC04F0BCC0CEF0150E24
:10186000A96ECEC0A8FFA69CA69EA684F250006ECC
:10187000F29CF29E0F01550EA76EAA0EA76EA682CD
:10188000A6B2FED7A6940050F212140E0001E56F26
:10189000B0EC04F007EF16F0200ECFA9300ED06F99
:1018A000CEC000F0CEAF07D0001E002A00C0CEF0A0
:1018B0002D0ED06FCF8F0150CEC0D4F0640ED56FF7
:1018C00075DE00C0CEF0300E0124D16FCEC0D4F052
:1018D0000A0ED56F6BDE300E0024D36F300E01245C
:1018E000D26FD0C000F0CFA702D0CFAFCF95CFB985
:1018F0000BD0CFAF22D0CFB520D000C0D1F0CFB326
:101900001CD000C0D2F019D0300ED15D16E100C05D
:10191000D1F0200ED06FCFA704D0CF95CF83CFAF1B
:10192000CF93300ED25D09E100C0D2F0200ED16F0E
:10193000CFA7F7D7CF93CFAFCF91CFA503D0D0C04C
:10194000DFF0AEDDCFA303D0D1C0DFF0A9DDCFA1A2
:1019500003D0D2C0DFF0A4DDD3C0DFF0A1DD000CE6
:10196000CF2D0AD0020EE06FD0C0E1F064DDCA0EC8
:10197000F66E000EF76EC7DDCF5102080AE1020EC7
:10198000E06FD0C0E1F057DDDE0EF66E000EF76EB0
:10199000BADDCF5103080AE1020EE06FD0C0E1F0DA
:1019A0004ADDF20EF66E000EF76EADDDCF51040883
:1019B0000AE1020EE06FD0C0E1F03DDD060EF66EEA
:1019C000010EF76EA0DDCF51050818E118B80AD056
:1019D000020EE06FD0C0E1F02EDD1A0EF66E010EA1
:1019E000F76E91DD18A80AD0020EE06FD0C0E1F0CA
:1019F00022DD2E0EF66E010EF76E85DD000CDF3552
:101A0000006E0036FC0E001600C001F0C250C30B81
:101A10000010C26E0A0EE56FB0EC04F0C282C2B2D2
:101A2000FED7C4CF03F0C3CFE6F0C4CFE7F040EC5D
:101A300005F003C0E3F002C0E2F001C0E1F000C035
:101A4000E0F0E0C000F0E1C001F0E2C002F0E3C06D
:101A500003F0000CE251D8B4A5D0EE6FE651D8B433
:101A6000A1D0EE5F05E37F0EEE27D8B09BD006D065
:101A7000810EEE5FD8A096D0D8B494D0EEC000F01E
:101A8000016A026A036AED6BE3C0ECF0EC8FE4C01C
:101A9000EBF0E5C0EAF0190EEE6FE951EA5F0DE2F6
:101AA000010EEB5F0AE2EC5F08E2ED5F06E2ED2B70
:101AB000EC2BEB2BE951EA2728D0E851EB5F12E23F
:101AC000010EEC5F0FE2ED5F0DE2ED2BEC2BE85128
:101AD000EB27E951EA2719E3EB2B17E1EC2B15E192
:101AE000ED2B13D0E7518009EC5F0EE2010EED5FA4
:101AF0000BE2ED2BE7518009EC27E851EB27E9E3F6
:101B0000EC2BE7E1ED2BE5D70380EE2F01D00BD0D6
:101B1000D890EA37EB37EC37ED37D89003360236FA
:101B20000136EF37BAD7EFA106D0D8900132023292
:101B30000332EF3302D0000635E0EFBF1ED0D8905D
:101B4000EA37EB37EC37ED37E951EA5F07E2010E90
:101B5000EB5F04E2EC5F02E2ED5F1AE3E851EB5F5A
:101B600005E2010EEC5F02E2ED5F12E3E75180094E
:101B7000EC5F03E2010EED5F0BE3032A09E1022AA9
:101B800007E1012A05E1002A0DE0013202320332A9
:101B9000E3C0EEF0E751EE1BEEAF02D0018E06D0AF
:101BA000019E04D0006A016A026A036A000C800E7A
:101BB000D8B2EB1BF06BF16BE7C0EFF0EB51EF1B12
:101BC000E651D8B4DCD0EE6F006EEA51D8B4E0D064
:101BD000EE5FD8B481D03DE3EBC0F4F0F48FECC0FD
:101BE000F3F0EDC0F2F0F16BD890F433F333F2334D
:101BF000F133EE2FF8D7EFAF03D0F081DDD0F091C5
:101C0000EE91F089EA6AE90EE96EE9D0F099EFBF4A
:101C10000AD0EEA113D0F433F333F233F133002AB8
:101C2000D8B4C5D00BD0F4BF0CD0D890F137F23770
:101C3000F337F4370006D8B4BAD0F5D7F08D6BD0AF
:101C4000F09DE7C0EFF0E7AF02D0F48FA9D0F49F8A
:101C5000A7D0EAC0EEF0EAC000F0E651EE5FE7C0C0
:101C6000F4F0F48FE8C0F3F0E9C0F2F0F16BD89033
:101C7000F433F333F233F133EE2FF8D7EFAF03D071
:101C8000F0839AD0F093EE91F08BEA6AED0EE96E54
:101C9000A6D0F09BEFBF0AD0EEA113D0F433F333FC
:101CA000F233F133002AD8B482D00BD0F4BF0CD079
:101CB000D890F137F237F337F4370006D8B477D03D
:101CC000F5D7F08F28D0F09FEBC0EFF0EBAF02D04C
:101CD000F48F66D0F49F64D0EBC0F4F0F48FECC0C6
:101CE000F3F0EDC0F2F0EFAF04D0F49FF08564D0D4
:101CF000F095F16BEE91EA6AE90EE96E70D0EFBFF4
:101D00001CD0E7C0EFF0EEA106D0F433F333F2338A
:101D1000F133002A4CE0F1AF0BD0F22B09E1F32BA9
:101D200007E1F42B05E1F433F333F233002A3FE00B
:101D3000F0BD86D7F0BFC7D71CD0800EF41BF4AF20
:101D400004D03AD0EBC0EFF00AD0E7C0EFF0F45384
:101D500006E1F35304E1F25302E1006A21D0F4BF3B
:101D600008D0D890F137F237F337F437002EF7D791
:101D70001ED0EFAF02D0F48F13D0F49F11D0EAC081
:101D800000F0EBC0F4F0ECC0F3F0EDC0F2F008D0DE
:101D9000E6C000F0E7C0F4F0E8C0F3F0E9C0F2F00C
:101DA000F4C001F0F3C002F0F2C003F034D0006AD6
:101DB000016A026A036A2FD0F16BF21FF31FF41F4E
:101DC000F11FF12B05E1F22B03E1F32B01E1F42BE1
:101DD000F0B115D7F0B356D7F0B58AD7B3D7EF50D7
:101DE000F22705E3F32B03E1F42BD8B4EE81ED5297
:101DF000EF50F32703E3F42BD8B4EE81ED52EF500C
:101E0000EFBE01D0800AF427D8B0EE81F0B9FED63B
:101E1000F0BB3FD774D7000CE251D8B471D0006E3C
:101E2000E651D8B46DD0002604E3810E002668E2A6
:101E300004D07F0E005E64E363E0E3C0EAF0E751A4
:101E4000EA1BE38FE78FE551E903F4CFECF0E451AF
:101E5000E803F4CF03F0F3CFEBF0E903F350EC2702
:101E6000F450EB23000E0322E551E803F350EC2776
:101E7000F450EB23000E026A03220222E351E9032D
:101E8000F350EB27F4500322000E0222E351E80343
:101E9000F3500326F4500222000E016A0122E5519C
:101EA000E703F350EB27F4500322000E0222012235
:101EB000E451E703F3500326F4500222000E0122FE
:101EC000E351E703F3500226F4500122002A01BE39
:101ED00005D0EB370336023601360006000EEBAFB5
:101EE0000AD0032A02220122015005E1025003E137
:101EF000035001E1002AEABF018EEAAF019E04D03F
:101F0000006A016A026A036A000CD26BD16BD06B63
:101F1000CF6BD66BD56BD46BD36BDA6BD96BD86BBD
:101F2000D76BDE6BDD6BDC6BDB6BDF6B68DD03C0FF
:101F30009FF002C09EF001C09DF000C09CF09FC0C9
:101F4000E5F09EC0E4F09DC0E3F09CC0E2F0AFC0BD
:101F5000E9F0AEC0E8F0ADC0E7F0ACC0E6F07ADD85
:101F600000C0DFF001C0E0F002C0E1F003C0E2F029
:101F7000D88203C0E9F002C0E8F001C0E7F000C079
:101F8000E6F0ED6BEC6BEB6B7F0EEA6F10DE03C0DF
:101F9000A3F002C0A2F001C0A1F000C0A0F0E56B68
:101FA000E46BE36BE26BA3C0E9F0A2C0E8F0A1C070
:101FB000E7F0A0C0E6F02AEC07F004E3A36BA26B05
:101FC000A16BA06BA3C0E5F0A2C0E4F0A1C0E3F058
:101FD000A0C0E2F0E96BE86BE76BE66B2AEC07F078
:101FE00017E3A3C0E5F0A2C0E4F0A1C0E3F0A0C0F5
:101FF000E2F0E96BE86B800EE76F7F0EE66F0CDFB7
:1020000003C0A3F002C0A2F001C0A1F000C0A0F084
:10201000010ECE5D2C5C02E001E32C6A2C50040D15
:10202000F350036A4C0FE96E000E0320EA6EA0C065
:10203000EFFFA1C0ECFFA2C0ECFFA3C0ECFF2C2A75
:102040002D6A010ECE5D2D5C01E035E22D50040DB0
:10205000F350036A4C0FE96E000E0320EA6EEFCFD7
:1020600000F0ECCF01F0ECCF02F0ECCF03F0EACFC0
:10207000E0F0E9CFDFF0D892D2C0E9F0D1C0E8F0CB
:10208000D0C0E7F0CFC0E6F003C0EDF002C0ECF046
:1020900001C0EBF000C0EAF08ADDE0C0EAFFDFC07B
:1020A000E9FF03C0D2F002C0D1F001C0D0F000C0FF
:1020B000CFF02D2AC6D7E76BCEC0E6F040EC05F096
:1020C000D2C0E5F0D1C0E4F0D0C0E3F0CFC0E2F080
:1020D00003C0E9F002C0E8F001C0E7F000C0E6F09C
:1020E000B9DC03C0D2F002C0D1F001C0D0F000C012
:1020F000CFF0CFC000F0D0C001F0D1C002F0D2C00C
:1021000003F0000CDF51B608DF6F036AE0C0E3F0B4
:10211000E08FD890E033E133E23303320232013210
:102120000032DF2FF6D7E3AF0BD0001E011E021ED8
:10213000031E002AD8B4012AD8B4022AD8B4032A2C
:1021400006EF11F0006A016A026A036AE76BE86B46
:10215000E96BEA6BE651E511E411E3112CE0200E86
:10216000EB6FD890DF37E037E137E237E737E83712
:10217000E937EA37E651EA5D08E1E551E95D05E155
:10218000E451E85D02E1E351E75D0FE3E351E75F0E
:10219000E451D8A0E43DE85FE551D8A0E53DE95F12
:1021A000E651D8A0E63DEA5FD88000360136023617
:1021B0000336EB2FD6D7EA6AE70EE96E000CE9503A
:1021C000D76FD651D96F19E0D5C0E5F0D4C0E4F08F
:1021D000D3C0E3F0D2C0E2F0E96BE86B200EE76F0A
:1021E000820EE66F19DE03C0D5F002C0D4F001C044
:1021F000D3F000C0D2F0D92FE7D7D5C0E2F0D4C0D9
:10220000E1F0D3C0E0F0D2C0DFF07CD703C0D5F05E
:1022100002C0D4F001C0D3F000C0D2F0D5AF0DD0D1
:10222000D707D78BD21FD31FD41FD51FD22BD8B41B
:10223000D32BD8B4D42BD8B4D52B3B0EDE6F9A0E4B
:10224000DD6FCA0EDC6FDB6B0A0ED96FD651D8B4C6
:10225000D72BD5C0E2F0D4C0E1F0D3C0E0F0D2C0BB
:10226000DFF0DEC0E6F0DDC0E5F0DCC0E4F0DBC0AE
:10227000E3F068DF0150EFCFD2F0ECCFD3F0ECCF3A
:10228000D4F0ECCFD5F000520FE1D629D95D0CE0A7
:10229000D7510CE00F0BD95D01E03BE2D7BF39D03D
:1022A000D7BD04D0200E30D0200ED717D7AB0DD01D
:1022B000D79BD651D8A4D7070050D76F2D0EDF6F0C
:1022C00050EC0AF0D751006ED76BD651D95D0BE1B7
:1022D0000050D76F2E0EDF6F50EC0AF0D751006E12
:1022E000200ED717000E300ED7AB0ED0D79BD6518D
:1022F000D8A4D7070050D76F2D0EDF6F50EC0AF02F
:10230000D751006ED76B300E002600C0DFF050ECC6
:102310000AF0DEC0E2F0DDC0E1F0DCC0E0F0DBC0DE
:10232000DFF0E66BE56BE46B0A0EE36F0BDF03C0D7
:10233000DEF002C0DDF001C0DCF000C0DBF0D92F20
:1023400088D7000C8E0E006EE251005EE3C002F0F2
:10235000E4C001F0028E005209E0D890025202E17E
:10236000015204E002320132002EF7D7E3AF05D06C
:10237000011E021E012AD8B4022A000CE191D5C028
:10238000DAF0D4C0D9F0D3C0D8F0D2C0D7F0D5C0DD
:10239000E5F0D4C0E4F0D3C0E3F0D2C0E2F0E96BE2
:1023A000E86BE76BE66B2AEC07F004E3E181D851B8
:1023B000800AD86FDAC0E5F0D9C0E4F0D8C0E3F005
:1023C000D7C0E2F0E96BE86BE76B8E0EE66F2AECA4
:1023D00007F001E218E1DAC0E5F0D9C0E4F0D8C0B6
:1023E000E3F0D7C0E2F0AEDF02C0E7F001C0E6F0F4
:1023F00040EC05F003C0DEF002C0DDF001C0DCF00F
:1024000000C0DBF0C5D0DAC0E5F0D9C0E4F0D8C038
:10241000E3F0D7C0E2F0800EE96F960EE86F180E79
:10242000E76F960EE66F2AEC07F0D8A0A9D0DAC0C5
:10243000E5F0D9C0E4F0D8C0E3F0D7C0E2F0E96B32
:10244000E86BE76B8E0EE66F2AEC0DF003C0E5F04B
:1024500002C0E4F001C0E3F000C0E2F073DF02C0AC
:10246000E0F001C0DFF0DAC0E5F0D9C0E4F0D8C098
:10247000E3F0D7C0E2F0E96BE86BE76B8E0EE66F36
:102480002AEC0DF000C0E2F001C0E3F002C0E4F07D
:1024900003C0E5F0E0C0E7F0DFC0E6F040EC05F097
:1024A000D882E5C0E9F0E4C0E8F0E3C0E7F0E2C0BC
:1024B000E6F003C0EDF002C0ECF001C0EBF000C0AC
:1024C000EAF0D7EC0DF0E56BE46BE36B8E0EE26F98
:1024D00003C0E9F002C0E8F001C0E7F000C0E6F098
:1024E0009BDC03C0DAF002C0D9F001C0D8F000C014
:1024F000D7F0E0C0E7F0DFC0E6F040EC05F0E56BB8
:10250000E46BE36B8E0EE26F03C0E9F002C0E8F00B
:1025100001C0E7F000C0E6F07FDC03C0DEF002C0DF
:10252000DDF001C0DCF000C0DBF0DAC0E5F0D9C0BE
:10253000E4F0D8C0E3F0D7C0E2F004DF02C0E7F077
:1025400001C0E6F040EC05F0D892DEC0E9F0DDC055
:10255000E8F0DCC0E7F0DBC0E6F003C0EDF002C05D
:10256000ECF001C0EBF000C0EAF0D7EC0DF003C0D6
:10257000DEF002C0DDF001C0DCF000C0DBF008D00E
:10258000DAC0DEF0D9C0DDF0D8C0DCF0D7C0DBF0B7
:10259000DAC0E5F0D9C0E4F0D8C0E3F0D7C0E2F08B
:1025A000D1DE02C0E7F001C0E6F040EC05F0D882D1
:1025B000DAC0E9F0D9C0E8F0D8C0E7F0D7C0E6F05B
:1025C00003C0EDF002C0ECF001C0EBF000C0EAF097
:1025D000D7EC0DF003C0DAF002C0D9F001C0D8F09A
:1025E00000C0D7F0E1A103D0DC51800ADC6FDAC073
:1025F000E5F0D9C0E4F0D8C0E3F0D7C0E2F0E96B71
:10260000E86BE76BE66B2AEC07F038E0E1A11AD043
:10261000D65318E1D882DEC0E9F0DDC0E8F0DCC0B6
:10262000E7F0DBC0E6F0ED6BEC6BEB6B7F0EEA6F77
:10263000D7EC0DF003C0DEF002C0DDF001C0DCF02D
:1026400000C0DBF0E1B11AD0D62D18D0D892DEC090
:10265000E9F0DDC0E8F0DCC0E7F0DBC0E6F0ED6BF0
:10266000EC6BEB6B7F0EEA6FD7EC0DF003C0DEF086
:1026700002C0DDF001C0DCF000C0DBF0D5C0E5F049
:10268000D4C0E4F0D3C0E3F0D2C0E2F0E96BE86B71
:10269000E76BE66B2AEC07F004E1DE6BDD6BDC6BCD
:1026A000DB6BDBC000F0DCC001F0DDC002F0DEC09F
:1026B00003F065EF13F0D1C0D5F0D0C0D4F0CFC097
:1026C000D3F0CEC0D2F0D66B59D6000CF86A9F90EA
:1026D000D08E078EEA6AE96A1790179217941796B8
:1026E0001798179A179C179E189018921894189676
:1026F0001898189A189C196A060E1A6E020E1B6E0C
:102700000B0E1C6E020E1D6E030E1E6E020E1F6E51
:10271000206E040E216E226A236A246A256A266AC4
:10272000276A286A296A2A6A2B6A2C6A2D6A2E6A05
:10273000010E2F6E306A316A326A336A0A0E346EC5
:10274000356A416A426A436A446A040E456E496AC0
:10275000486A4B6A4A6A9F6B9E6B9D6B9C6BA36B2E
:10276000A26BA16BA06BA76BA66BA56BA46BAB6BED
:10277000AA6BA96BA86BAF6BAE6BAD6B800EAC6F29
:10278000188EB091B26BB16BB46BB36BB66BB56BAB
:10279000B86BB76BBA6BB96BBC6BBB6BBE6BBD6B0D
:1027A000B093BF6BC96BC86BC150C00B0F09C16E32
:1027B000070EB46E3E0E366E200E376E5E0E386E0D
:1027C000396A3A6A3B6A3C6A3D6A3E6A3F6A406AD5
:1027D0004C6A4D6A4E6A4F6A506A516A526A536A2D
:1027E000546A556A566A576A586A596A5A6A5B6ADD
:1027F0005C6A5D6A5E6A5F6A606B616B626B636B89
:10280000646B656B666B676B686B696B6A6B6B6B34
:102810006C6B6D6B6E6B6F6B706B716B726B736BE4
:10282000746B756B766B776B786B796B7A6B7B6B94
:102830007C6B7D6B7E6B7F6B806B816B826B836B44
:10284000846B856B866B876B886B896B8A6B8B6BF4
:102850008C6B8D6B8E6B8F6B906B916B926B936BA4
:10286000946B956B966B976B986B996B9A6B9B6B54
:102870008B9494948B92949227EF05F05BEF05F084
:1028800065EF07F0322C01D003D093EF0AF009D0A6
:10289000332C01D01782335201E117921784320E84
:1028A000196E8B9494948B929492928A80BABDD034
:1028B000968084B0BAD0968284B2B7D034500F08D4
:1028C00002E20F0E346E345202E1010E346E010E3C
:1028D000E06FE16F1BEC0AF05C0EF66E020EF76E15
:1028E00083EC0AF0010EE06F020EE16F1BEC0AF0C0
:1028F000720EF66E020EF76E83EC0AF0010EE06FB8
:10290000030EE16F1BEC0AF0880EF66E020EF76EF6
:102910000A0ED26FC7EC0AF034C0CEF0010ECF6FB2
:10292000EAEC0AF0960EF66E020EF76E070ED26F04
:10293000C7EC0AF0010EE06F040EE16F1BEC0AF029
:102940009E0EF66E020EF76E83EC0AF0928A80BA43
:1029500005D0C80EE56FB0EC04F0342A968084B040
:1029600007D0455205E0C80EE56FB0EC04F0340620
:10297000968484B459D0180EA96E34C0A8FFA69CC2
:10298000A69EA684F250006EF29CF29E0F01550E98
:10299000A76EAA0EA76EA682A6B2FED7A694005076
:1029A000F212140E0001E56FB0EC04F0010EE06FBE
:1029B000E16F1BEC0AF0B40EF66E020EF76E83ECBC
:1029C0000AF0010EE06F020EE16F1BEC0AF0CA0E76
:1029D000F66E020EF76E83EC0AF0010EE06F030E46
:1029E000E16F1BEC0AF0E00EF66E020EF76E83EC60
:1029F0000AF0010EE06F040EE16F1BEC0AF0F60E18
:102A0000F66E020EF76E83EC0AF0040ECE6FFA0E2D
:102A1000E56FB0EC04F0CE2FFAD70C0EDF6F50EC60
:102A20000AF0F8EC04F0FF0049D7928A80BAEDD0A2
:102A3000968284B2EAD0010EE06FE16F1BEC0AF0DF
:102A40000C0EF66E030EF76E83EC0AF0010EE06FCB
:102A5000020EE16F1BEC0AF0220EF66E030EF76E0B
:102A60000B0ED26FC7EC0AF0080EE96E49C0CFF02A
:102A700048C0CEF01DEC0BF0200EDF6F50EC0AF0DA
:102A8000200EDF6F50EC0AF0200EDF6F50EC0AF0E2
:102A9000010EE06F040EE16F1BEC0AF0360EF66ECD
:102AA000030EF76E83EC0AF0968484B4ADD0640E06
:102AB000E56FB0EC04F0968484B4A6D0140EA96E31
:102AC000A86AA69CA69EA684F250006EF29CF29E76
:102AD0000F01550EA76EAA0EA76EA682A6B2FED74C
:102AE000A6940050F212140E0001E56FB0EC04F051
:102AF000150EA96EA86AA69CA69EA684F250006E2A
:102B0000F29CF29E0F01550EA76EAA0EA76EA6822A
:102B1000A6B2FED7A6940050F212140E0001E56F83
:102B2000B0EC04F0120EA96EA86AA69CA69EA6841C
:102B3000F250006EF29CF29E0F01550EA76EAA0E87
:102B4000A76EA682A6B2FED7A6940050F212140E6B
:102B50000001E56FB0EC04F0130EA96EA86AA69C04
:102B6000A69EA684F250006EF29CF29E0F01550EB6
:102B7000A76EAA0EA76EA682A6B2FED7A694005094
:102B8000F212140E0001E56FB0EC04F0010EE06FDC
:102B9000E16F1BEC0AF0480EF66E030EF76E83EC45
:102BA0000AF0010EE06F020EE16F1BEC0AF05E0E00
:102BB000F66E030EF76E83EC0AF0010EE06F030E63
:102BC000E16F1BEC0AF0740EF66E030EF76E83ECE9
:102BD0000AF0010EE06F040EE16F1BEC0AF08A0EA2
:102BE000F66E030EF76E83EC0AF0040ECE6FFA0E4B
:102BF000E56FB0EC04F0CE2FFAD70C0EDF6F50EC7F
:102C00000AF0F8EC04F0FF0016D776EF0BF019523B
:102C1000D8A405D2010EE06FE16F1BEC0AF0A00E04
:102C2000F66E030EF76E83EC0AF0010EE06F020EF3
:102C3000E16F1BEC0AF0B60EF66E030EF76E83EC36
:102C40000AF0010EE06F030EE16F1BEC0AF0CC0EF0
:102C5000F66E030EF76E0A0ED26FC7EC0AF039C09B
:102C6000CEF01F0ECF6F4CEC0CF03AC0CEF01F0E22
:102C7000CF6F4CEC0CF03BC0CEF01F0ECF6F4CEC86
:102C80000CF03CC0CEF01F0ECF6F4CEC0CF0200EC1
:102C9000DF6F50EC0AF0200EDF6F50EC0AF01CC022
:102CA000E0F0040EE16F1BEC0AF038C0DFF050ECEE
:102CB0000AF01C500B080FE21C500D080CE3010E2B
:102CC0001C5CCE6FE06F040EE16F1BEC0AF037C0A6
:102CD000DFF050EC0AF0189E928A80BA19D0140ED8
:102CE000E56FB0EC04F0928A80BA11D017B60FD01D
:102CF0000B0E1C5C036A390FE96E000E0320EA6EAE
:102D0000EF2A17861E0EE56FB0EC04F0188E01D086
:102D10001796968084B019D0140EE56FB0EC04F0CD
:102D2000968084B011D017BA0FD00B0E1C5C036ACA
:102D3000390FE96E000E0320EA6EEF06178A1E0EA9
:102D4000E56FB0EC04F0188E01D0179A968284B229
:102D500015D0140EE56FB0EC04F0968284B20DD05D
:102D600017B80BD017881C2A1E0EE56FB0EC04F0C4
:102D70000C0EDF6F50EC0AF0188E01D01798968475
:102D800084B415D0960EE56FB0EC04F0968484B44C
:102D90000DD017BC0BD0178C1C061E0EE56FB0ECC7
:102DA00004F00C0EDF6F50EC0AF0188E01D0179C67
:102DB0000B0E1C5C036A390FE96E000E0320EA6EED
:102DC000EFBE01D00AD00B0E1C5C036A390FE96E0E
:102DD000000E0320EA6E090EEF6E0B0E1C5C036AF8
:102DE000390FE96E000E0320EA6EEFBE0CD0EF50F3
:102DF000090809E20B0E1C5C036A390FE96E000E2C
:102E00000320EA6EEF6A1C500A0802E30B0E1C6EE8
:102E10001C500E08D8B003D13950030871E13A5064
:102E200008086EE13B5009086BE13C50020868E17C
:102E3000A96AA86AA69CA69EA684F250006EF29C7F
:102E4000F29E0F01550EA76EAA0EA76EA682A6B21D
:102E5000FED7A6940050F212140E0001E56FB0ECFC
:102E600004F0010EA96EA86AA69CA69EA684F25044
:102E7000006EF29CF29E0F01550EA76EAA0EA76E71
:102E8000A682A6B2FED7A6940050F212140E00013C
:102E9000E56FB0EC04F0020EA96EA86AA69CA69E8F
:102EA000A684F250006EF29CF29E0F01550EA76EA2
:102EB000AA0EA76EA682A6B2FED7A6940050F21262
:102EC000140E0001E56FB0EC04F0030EA96EA86AC1
:102ED000A69CA69EA684F250006EF29CF29E0F0164
:102EE000550EA76EAA0EA76EA682A6B2FED7A6940E
:102EF0000050F212140E0001E56FB0EC04F0FF0078
:102F00003D50395C4FE13E503A5C4CE13F503B5CF8
:102F100049E140503C5C46E1010EE06FE16F1BEC83
:102F20000AF0E20EF66E030EF76E83EC0AF0010E65
:102F3000E06F020EE16F1BEC0AF0F60EF66E030E68
:102F4000F76E83EC0AF0010EE06F030EE16F1BECED
:102F50000AF00A0EF66E040EF76E83EC0AF0010E0C
:102F6000E06F040EE16F1BEC0AF01E0EF66E040E0D
:102F7000F76E83EC0AF0040ECE6FFA0EE56FB0EC3C
:102F800004F0CE2FFAD7320E196E0B0E1C6E0C0EFB
:102F9000DF6F50EC0AF0188E396A3A6A3B6A3C6A75
:102FA000188E3DD0010EE06FE16F1BEC0AF0010EB0
:102FB000E06F020EE16F1BEC0AF0320EF66E040EAB
:102FC000F76E83EC0AF0010EE06F030EE16F1BEC6D
:102FD0000AF0460EF66E040EF76E83EC0AF0010E50
:102FE000E06F040EE16F1BEC0AF05A0EF66E040E51
:102FF000F76E83EC0AF0040ECE6FFA0EE56FB0ECBC
:1030000004F0CE2FFAD70B0E1C6E0C0EDF6F50ECB7
:103010000AF0188E396A3A6A3B6A3C6A188E192C93
:103020001BD102EC00F0010EE06FE16F1BEC0AF027
:103030006E0EF66E040EF76E83EC0AF0010E352468
:10304000CE6FCF6F020ED06FB0EC0CF0020E3524B5
:10305000CE6FCF6F030ED06FB0EC0CF0030E3524A3
:10306000CE6FCF6F040ED06FB0EC0CF0010EE06F9E
:103070001DC0E1F01BEC0AF036C0DFF050EC0AF0A6
:103080001D50020814E1010EE06F040EE16F1BEC0D
:103090000AF037C0DFF050EC0AF0010EE06F030ECB
:1030A000E16F1BEC0AF037C0DFF050EC0AF01D5066
:1030B000040814E1010EE06F020EE16F1BEC0AF050
:1030C00037C0DFF050EC0AF0010EE06F030EE16F45
:1030D0001BEC0AF037C0DFF050EC0AF01D5003087B
:1030E00014E1010EE06F040EE16F1BEC0AF037C033
:1030F000DFF050EC0AF0010EE06F020EE16F1BEC06
:103100000AF037C0DFF050EC0AF0189E928A80BABD
:1031100015D0140EE56FB0EC04F0928A80BA0DD091
:1031200017B60BD01F061D06010E1D241E6E178636
:103130001E0EE56FB0EC04F0188E01D01796968045
:1031400084B015D0140EE56FB0EC04F0968084B016
:103150000DD017BA0BD01F2A1D2A010E1D5C1E6E42
:10316000178A1E0EE56FB0EC04F0188E01D0179A86
:103170001F50215C08E2352A1FC021F0020E215C9D
:10318000206E040E1D6E20501F5C08E235061FC025
:1031900020F0020E2024216E020E1D6E1F501A5CBC
:1031A00009E21BC01FF0020E1D6E356A1FC020F021
:1031B0002024216E1B501F5C0BE21AC01FF0040E6E
:1031C0001D6E1A5C356E1FC021F0020E215C206E50
:1031D00035BE01D001D0356A968284B223D0140E58
:1031E000E56FB0EC04F0968284B21AD017B818D00C
:1031F00017881FC019F0030E1D6E020ECE6F960EBB
:10320000E56FB0EC04F0CE2FFAD70C0EDF6F50EC68
:103210000AF01950060804E1396A3A6A3B6A3C6AC6
:10322000188E01D01798968484B416D0140EE56FCA
:10323000B0EC04F0968484B40FD0020ECE6FFA0E78
:10324000E56FB0EC04F0CE2FFAD7320E196E0C0EEB
:10325000DF6F50EC0AF0188E19500208D8A42CD158
:1032600002EC00F0010EE06FE16F1BEC0AF0840E3F
:10327000F66E040EF76E83EC0AF0010EE06F020E9C
:10328000E16F1BEC0AF09A0EF66E040EF76E83ECFB
:103290000AF0060EE06F030EE16F1BEC0AF02AC085
:1032A000CEF0030ECF6FEAEC0AF03A0EDF6F50EC6F
:1032B0000AF02BC0CEF0010ECF6FEAEC0AF0B90E87
:1032C000F66E040EF76E080ED26FC7EC0AF0060E0B
:1032D0002F24CE6FE06F040EE16F1BEC0AF038C0B4
:1032E000DFF050EC0AF0189E928A80BA26D0140EB5
:1032F000E56FB0EC04F0928A80BA1FD02F2C0DD06D
:103300002A50EF080AE3050E2A26020ECE6F960E0B
:10331000E56FB0EC04F0CE2FFAD72F5004080CE183
:103320002B503A0809E32B2A020ECE6F960EE56F5A
:10333000B0EC04F0CE2FFAD7188E968084B024D04B
:10334000140EE56FB0EC04F0968084B01DD02F2CE5
:103350000CD02A520AE0050E2A5E020ECE6F960E9F
:10336000E56FB0EC04F0CE2FFAD72F5004080BE134
:103370002B5209E02B06020ECE6F960EE56FB0ECD5
:1033800004F0CE2FFAD7188E968284B21ED0140E77
:10339000E56FB0EC04F0968284B217D02F2C03D0E6
:1033A000040E2F6E05D02F50040802E1010E2F6E7F
:1033B000020ECE6FFA0EE56FB0EC04F0CE2FFAD706
:1033C0000C0EDF6F50EC0AF0188E968484B474D023
:1033D000968484B471D0C80EE56FB0EC04F00C0E86
:1033E000DF6F50EC0AF0010EE06F020EE16F1BEC94
:1033F0000AF0C20EF66E040EF76E83EC0AF0010EB0
:10340000E06F030EE16F1BEC0AF0D40EF66E040EB3
:10341000F76E83EC0AF0050EA96E2AC0A8FFA69CE1
:10342000A69EA684F250006EF29CF29E0F01550EED
:10343000A76EAA0EA76EA682A6B2FED7A6940050CB
:10344000F212140E0001E56FB0EC04F0060EA96E46
:103450002BC0A8FFA69CA69EA684F250006EF29CEC
:10346000F29E0F01550EA76EAA0EA76EA682A6B2F7
:10347000FED7A6940050F212140E0001E56FB0ECD6
:1034800004F02AC028F02BC029F0040ECE6FAF0E36
:10349000E56FB0EC04F0CE2FFAD71E0EE56FB0EC5E
:1034A00004F0010E196E356A020E1D6E1F6E0C0EB1
:1034B000DF6F50EC0AF0188E19500308D8A4A5D17C
:1034C00002EC00F0010EE06FE16F1BEC0AF0E60E7B
:1034D000F66E040EF76E83EC0AF0010EE06F020E3A
:1034E000E16F1BEC0AF0FC0EF66E040EF76E83EC37
:1034F0000AF0010EE06F030EE16F1BEC0AF0120EF2
:10350000F66E050EF76E0A0ED26FC7EC0AF039C0E0
:10351000CEF01F0ECF6F4CEC0CF03AC0CEF01F0E69
:10352000CF6F4CEC0CF03BC0CEF01F0ECF6F4CECCD
:103530000CF03CC0CEF01F0ECF6F4CEC0CF0200E08
:10354000DF6F50EC0AF0200EDF6F50EC0AF01CC069
:10355000E0F0040EE16F1BEC0AF038C0DFF050EC35
:103560000AF01C500B080FE21C500D080CE3010E72
:103570001C5CCE6FE06F040EE16F1BEC0AF037C0ED
:10358000DFF050EC0AF0189E928A80BA19D0140E1F
:10359000E56FB0EC04F0928A80BA11D017B60FD064
:1035A0000B0E1C5C036A390FE96E000E0320EA6EF5
:1035B000EF2A17861E0EE56FB0EC04F0188E01D0CE
:1035C0001796968084B019D0140EE56FB0EC04F015
:1035D000968084B011D017BA0FD00B0E1C5C036A12
:1035E000390FE96E000E0320EA6EEF06178A1E0EF1
:1035F000E56FB0EC04F0188E01D0179A968284B271
:1036000015D0140EE56FB0EC04F0968284B20DD0A4
:1036100017B80BD017881C2A1E0EE56FB0EC04F00B
:103620000C0EDF6F50EC0AF0188E01D017989684BC
:1036300084B415D0960EE56FB0EC04F0968484B493
:103640000DD017BC0BD0178C1C061E0EE56FB0EC0E
:1036500004F00C0EDF6F50EC0AF0188E01D0179CAE
:103660000B0E1C5C036A390FE96E000E0320EA6E34
:10367000EFBE01D00AD00B0E1C5C036A390FE96E55
:10368000000E0320EA6E090EEF6E0B0E1C5C036A3F
:10369000390FE96E000E0320EA6EEFBE0CD0EF503A
:1036A000090809E20B0E1C5C036A390FE96E000E73
:1036B0000320EA6EEF6A1C500A0810E30B0E1C6E22
:1036C000010E196E356A396A3A6A3B6A3C6A188E8D
:1036D0000B0E1C6E0C0EDF6F50EC0AF01C500E0827
:1036E000D8B093D03D50395C4EE13E503A5C4BE14E
:1036F0003F503B5C48E140503C5C45E1010EE06FCF
:10370000E16F1BEC0AF0280EF66E050EF76E83ECE7
:103710000AF0010EE06F020EE16F1BEC0AF03E0EA4
:10372000F66E050EF76E83EC0AF0010EE06F030EE5
:10373000E16F1BEC0AF0540EF66E050EF76E83EC8B
:103740000AF0010EE06F040EE16F1BEC0AF06A0E46
:10375000F66E050EF76E83EC0AF0020ECE6FFA0ECF
:10376000E56FB0EC04F0CE2FFAD73D0E196E0B0EBC
:103770001C6E0C0EDF6F50EC0AF0396A3A6A3B6A35
:103780003C6A188E42D0010EE06FE16F1BEC0AF02C
:10379000800EF66E050EF76E83EC0AF0010EE06FF8
:1037A000020EE16F1BEC0AF0960EF66E050EF76E38
:1037B00083EC0AF0010EE06F030EE16F1BEC0AF0E0
:1037C000AC0EF66E050EF76E83EC0AF0010EE06F9C
:1037D000040EE16F1BEC0AF0C20EF66E050EF76EDA
:1037E00083EC0AF0020ECE6FFA0EE56FB0EC04F037
:1037F000CE2FFAD70B0E1C6E0C0EDF6F50EC0AF0BA
:10380000188E396A3A6A3B6A3C6A19503D08D8A456
:10381000C8D102EC00F0010EE06FE16F1BEC0AF082
:10382000D80EF66E050EF76E83EC0AF0010EE06F0F
:10383000020EE16F1BEC0AF0EE0EF66E050EF76E4F
:1038400083EC0AF0010EE06F030EE16F1BEC0AF04F
:10385000040EF66E060EF76E0A0ED26FC7EC0AF073
:1038600039C0CEF01F0ECF6F4CEC0CF03AC0CEF04A
:103870001F0ECF6F4CEC0CF03BC0CEF01F0ECF6F85
:103880004CEC0CF03CC0CEF01F0ECF6F4CEC0CF0AB
:10389000200EDF6F50EC0AF0200EDF6F50EC0AF0C4
:1038A0001CC0E0F0040EE16F1BEC0AF038C0DFF042
:1038B00050EC0AF01C500B080FE21C500D080CE3F2
:1038C000010E1C5CCE6FE06F040EE16F1BEC0AF082
:1038D00037C0DFF050EC0AF0189E928A80BA19D0F7
:1038E000140EE56FB0EC04F0928A80BA11D017B6CE
:1038F0000FD00B0E1C5C036A390FE96E000E03201B
:10390000EA6EEF2A17861E0EE56FB0EC04F0188EF3
:1039100001D01796968084B019D0140EE56FB0ECE4
:1039200004F0968084B011D017BA0FD00B0E1C5C37
:10393000036A390FE96E000E0320EA6EEF06178A5C
:103940001E0EE56FB0EC04F0188E01D0179A968227
:1039500084B211D0968284B20DD017B80BD01788DC
:103960001C2A1E0EE56FB0EC04F00C0EDF6F50EC5D
:103970000AF0188E01D01798968484B415D0960E4C
:10398000E56FB0EC04F0968484B40DD017BC0BD076
:10399000178C1C061E0EE56FB0EC04F00C0EDF6FEA
:1039A00050EC0AF0188E01D0179C0B0E1C5C036AB9
:1039B000390FE96E000E0320EA6EEFBE01D00AD087
:1039C0000B0E1C5C036A390FE96E000E0320EA6ED1
:1039D000090EEF6E0B0E1C5C036A390FE96E000EC8
:1039E0000320EA6EEFBE0CD0EF50090809E20B0E7F
:1039F0001C5C036A390FE96E000E0320EA6EEF6A61
:103A00001C500A080FE30B0E1C6E010E196E396A6A
:103A10003A6A3B6A3C6A188E0B0E1C6E0C0EDF6F06
:103A200050EC0AF01C500E08D8B0BBD0010EE06F6D
:103A3000E16F1BEC0AF01A0EF66E060EF76E83ECC1
:103A40000AF0010EE06F020EE16F1BEC0AF0300E7F
:103A5000F66E060EF76E83EC0AF0010EE06F030EB1
:103A6000E16F1BEC0AF0460EF66E060EF76E83EC65
:103A70000AF0010EE06F040EE16F1BEC0AF05C0E21
:103A8000F66E060EF76E83EC0AF0A96A39C0A8FF3D
:103A9000A69CA69EA684F250006EF29CF29E0F0198
:103AA000550EA76EAA0EA76EA682A6B2FED7A69442
:103AB0000050F212140E0001E56FB0EC04F0010E9C
:103AC000A96E3AC0A8FFA69CA69EA684F250006EDE
:103AD000F29CF29E0F01550EA76EAA0EA76EA6824B
:103AE000A6B2FED7A6940050F212140E0001E56FA4
:103AF000B0EC04F0020EA96E3BC0A8FFA69CA69EE7
:103B0000A684F250006EF29CF29E0F01550EA76E35
:103B1000AA0EA76EA682A6B2FED7A6940050F212F5
:103B2000140E0001E56FB0EC04F0030EA96E3CC06A
:103B3000A8FFA69CA69EA684F250006EF29CF29E60
:103B40000F01550EA76EAA0EA76EA682A6B2FED7CB
:103B5000A6940050F212140E0001E56FB0EC04F0D0
:103B6000020ECE6FFA0EE56FB0EC04F0CE2FFAD74E
:103B7000010E196E356A020E1D6E1F6E39C03DF0C2
:103B80003AC03EF03BC03FF03CC040F0396A3A6A70
:103B90003B6A3C6A188E0B0E1C6E0C0EDF6F50ECED
:103BA0000AF019500408D8A40DD102EC00F0010E5F
:103BB000E06FE16F1BEC0AF0720EF66E060EF76E08
:103BC00083EC0AF0010EE06F020EE16F1BEC0AF0CD
:103BD000880EF66E060EF76E0B0ED26FC7EC0AF06B
:103BE000080EE96E49C0CFF048C0CEF01DEC0BF0D6
:103BF000200EDF6F50EC0AF0200EDF6F50EC0AF061
:103C0000200EDF6F50EC0AF0010EE06F040EE16F42
:103C10001BEC0AF09C0EF66E060EF76E83EC0AF0B3
:103C2000189E928A80BAACD0968284B2A9D0140E23
:103C3000E56FB0EC04F0928A80BAA2D0968284B28A
:103C40009FD0C80EE56FB0EC04F00C0EDF6F50ECA7
:103C50000AF0010EE06F020EE16F1BEC0AF0B20EEB
:103C6000F66E060EF76E83EC0AF0010EE06F030E9F
:103C7000E16F1BEC0AF0C40EF66E060EF76E83ECD5
:103C80000AF0070EA96EA86AA69CA69EA684F2500A
:103C9000006EF29CF29E0F01550EA76EAA0EA76E43
:103CA000A682A6B2FED7A6940050F212140E00010E
:103CB000E56FB0EC04F0080EA96EA86AA69CA69E5B
:103CC000A684F250006EF29CF29E0F01550EA76E74
:103CD000AA0EA76EA682A6B2FED7A6940050F21234
:103CE000140E0001E56FB0EC04F0090EA96EA86A8D
:103CF000A69CA69EA684F250006EF29CF29E0F0136
:103D0000550EA76EAA0EA76EA682A6B2FED7A694DF
:103D10000050F212140E0001E56FB0EC04F00A0E30
:103D2000A96EA86AA69CA69EA684F250006EF29C7C
:103D3000F29E0F01550EA76EAA0EA76EA682A6B21E
:103D4000FED7A6940050F212040E0001CE6FAF0E03
:103D5000E56FB0EC04F0CE2FFAD7226A236A496AE5
:103D6000486A1E0EE56FB0EC04F0010E196E356A5C
:103D7000020E1D6E1F6E0C0EDF6F50EC0AF0188ED7
:103D8000968484B41ED0140EE56FB0EC04F09684D3
:103D900084B416D017BC14D0178C020ECE6FFA0E56
:103DA000E56FB0EC04F0CE2FFAD7010E196E356A2C
:103DB000020E1D6E1F6E0C0EDF6F50EC0AF0188E97
:103DC00001D0179C19500508D8A42CD102EC00F0A2
:103DD000010EE06FE16F1BEC0AF0D60EF66E060ED8
:103DE000F76E83EC0AF0010EE06F020EE16F1BEC40
:103DF0000AF0050ECE6F85EC0FF000C0CEF001C0CA
:103E0000CFF002C0D0F003C0D1F003C0E5F002C093
:103E1000E4F001C0E3F000C0E2F0D70EE96FA30EBA
:103E2000E86FE76B810EE66F0CEC0FF000C0CEF090
:103E300001C0CFF002C0D0F003C0D1F0EC0EF66E9E
:103E4000060EF76E090ED26FC7EC0AF0020EE96E8D
:103E5000D1C0D5F0D0C0D4F0CFC0D3F0CEC0D2F016
:103E6000D66FDFEC10F0FA0EF66E060EF76E070E48
:103E7000D26FC7EC0AF0010EE06F030EE16F1BEC8E
:103E80000AF0DF6BFFEC0CF000C0CEF001C0CFF009
:103E900002C0D0F003C0D1F0020EF66E070EF76E2E
:103EA000080ED26FC7EC0AF0010EE96ED1C0D5F052
:103EB000D0C0D4F0CFC0D3F0CEC0D2F0D66BDFEC00
:103EC00010F0010EE06F040EE16F1BEC0AF0100E13
:103ED000F66E070EF76E070ED26FC7EC0AF0010EF2
:103EE000E96EAFC0D5F0AEC0D4F0ADC0D3F0ACC079
:103EF000D2F0D66BDFEC10F0189E968284B272D0AE
:103F0000140EE56FB0EC04F0968284B26AD017B854
:103F100068D0010E196E356A020E1D6E1F6E0B0EF3
:103F20001C6E020ECE6FFA0EE56FB0EC04F0CE2FD1
:103F3000FAD70C0EDF6F50EC0AF0DF6BFFEC0CF0E1
:103F400003C0AFF002C0AEF001C0ADF000C0ACF0F5
:103F5000AFC0E5F0AEC0E4F0ADC0E3F0ACC0E2F05D
:103F6000A2EC11F002C04BF001C04AF04AC026F0AA
:103F70004BC027F00B0EA96E26C0A8FFA69CA69EDC
:103F8000A684F250006EF29CF29E0F01550EA76EB1
:103F9000AA0EA76EA682A6B2FED7A6940050F21271
:103FA000140E0001E56FB0EC04F00C0EA96E27C0F2
:103FB000A8FFA69CA69EA684F250006EF29CF29EDC
:103FC0000F01550EA76EAA0EA76EA682A6B2FED747
:103FD000A6940050F212140E0001E56FB0EC04F04C
:103FE000188E01D01798968484B41BD0140EE56FF8
:103FF000B0EC04F0968484B413D017BC11D0010E39
:10400000196E356A020E1D6E1F6E0B0E1C6E1E0E93
:10401000E56FB0EC04F00C0EDF6F50EC0AF0188E78
:1040200001D0179C19500608D8A494D01878178886
:10403000010E196E356A18A830D01888010EE06F8D
:10404000E16F1BEC0AF01E0EF66E070EF76E83ECA6
:104050000AF0010EE06F020EE16F1BEC0AF0340E65
:10406000F66E070EF76E83EC0AF0010EE06F030E9A
:10407000E16F1BEC0AF04A0EF66E070EF76E83EC4A
:104080000AF0010EE06F040EE16F1BEC0AF0600E07
:10409000F66E070EF76E83EC0AF018B830D0189859
:1040A000010EE06FE16F1BEC0AF0760EF66E070E64
:1040B000F76E83EC0AF0010EE06F020EE16F1BEC6D
:1040C0000AF08C0EF66E070EF76E83EC0AF0010E06
:1040D000E06F030EE16F1BEC0AF0A20EF66E070E06
:1040E000F76E83EC0AF0010EE06F040EE16F1BEC3B
:1040F0000AF0B80EF66E070EF76E83EC0AF0000EAB
:1041000018B8010ECE6F040EA96ECEC0A8FFA69CF3
:10411000A69EA684F250006EF29CF29E0F01550EF0
:10412000A76EAA0EA76EA682A6B2FED7A6940050CE
:10413000F212040E0001CE6FFA0EE56FB0EC04F03F
:10414000CE2FFAD7020E1D6E1F6E0C0EDF6F50ECD5
:104150000AF0188E19500708D8A4CBD0455014087F
:1041600002E2140E456E455202E1010E456E010E4B
:10417000E06FE16F1BEC0AF0CE0EF66E070EF76EE5
:1041800083EC0AF0010EE06F020EE16F1BEC0AF007
:10419000E40EF66E070EF76E83EC0AF0010EE06F88
:1041A000030EE16F1BEC0AF0FA0EF66E070EF76EC7
:1041B0000A0ED26FC7EC0AF045C0CEF0010ECF6FE9
:1041C000EAEC0AF0080EF66E080EF76E070ED26FD4
:1041D000C7EC0AF0010EE06F040EE16F1BEC0AF071
:1041E000100EF66E080EF76E83EC0AF0928A80BA13
:1041F00008D04550130805E3C80EE56FB0EC04F095
:10420000452A968084B007D0455205E0C80EE56F78
:10421000B0EC04F04506968284B202D045C0BFF0EF
:10422000968484B466D0640EE56FB0EC04F0020EA0
:104230001D6E1F6E0C0EDF6F50EC0AF00D0EA96E96
:1042400045C0A8FFA69CA69EA684F250006EF29CD4
:10425000F29E0F01550EA76EAA0EA76EA682A6B2F9
:10426000FED7A6940050F212140E0001E56FB0ECD8
:1042700004F0010EE06FE16F1BEC0AF0260EF66E03
:10428000080EF76E83EC0AF0010EE06F020EE16F8C
:104290001BEC0AF03C0EF66E080EF76E83EC0AF08B
:1042A000010EE06F030EE16F1BEC0AF0520EF66E8A
:1042B000080EF76E83EC0AF0010EE06F040EE16F5A
:1042C0001BEC0AF0680EF66E080EF76E83EC0AF02F
:1042D000040ECE6FFA0EE56FB0EC04F0CE2FFAD7D5
:1042E0000C0EDF6F50EC0AF0F8EC04F0010E196EC2
:1042F000356A19503208D8A439EF25F018A099D1A1
:104300001890080ECE6F85EC0FF003C0ABF002C022
:10431000AAF001C0A9F000C0A8F0ABC0E5F0AAC0A7
:10432000E4F0A9C0E3F0A8C0E2F0D70EE96FA30E55
:10433000E86FE76B810EE66F0CEC0FF003C0ABF09B
:1043400002C0AAF001C0A9F000C0A8F0ABC0E5F01F
:10435000AAC0E4F0A9C0E3F0A8C0E2F0CD0EE96F76
:10436000CC0EE86F4C0EE76F7B0EE66F2AEC07F081
:1043700010E317A40ED0010EE06FE16F1BEC0AF002
:104380007E0EF66E080EF76E83EC0AF0010E416E9B
:1043900044D0E56BE46BE36B7F0EE26FABC0E9F0FA
:1043A000AAC0E8F0A9C0E7F0A8C0E6F02AEC07F040
:1043B00001E20EE1010EE06FE16F1BEC0AF0920EDC
:1043C000F66E080EF76E83EC0AF0010E416E25D0F2
:1043D000010EE06FE16F1BEC0AF0A60EF66E080E00
:1043E000F76E080ED26FC7EC0AF0020EE96EABC092
:1043F000D5F0AAC0D4F0A9C0D3F0A8C0D2F0D66F2F
:10440000DFEC10F0B30EF66E080EF76E070ED26FEB
:10441000C7EC0AF08B909490416AABC0E5F0AAC05B
:10442000E4F0A9C0E3F0A8C0E2F0E96BE86BE76B49
:104430007F0EE66F2AEC0DF000C0CEF001C0CFF089
:1044400002C0D0F003C0D1F003C0E5F002C0E4F038
:1044500001C0E3F000C0E2F0E96BE86B300EE76FFB
:10446000820EE66F0CEC0FF003C0A7F002C0A6F0BE
:1044700001C0A5F000C0A4F02E6AA7C0D1F0A6C06C
:10448000D0F0A5C0CFF0A4C0CEF05BEC13F000C01C
:10449000CEF001C0CFF002C0D0F003C0D1F0E76B86
:1044A0002EC0E6F040EC05F003C0E5F002C0E4F0F9
:1044B00001C0E3F000C0E2F0D1C0E9F0D0C0E8F004
:1044C000CFC0E7F0CEC0E6F02AEC07F00EE3080E0E
:1044D0002E24CE6FE06F020EE16F1BEC0AF0D10EBE
:1044E000DF6F50EC0AF02E2AC8D7A7C0D1F0A6C0C3
:1044F000D0F0A5C0CFF0A4C0CEF05BEC13F003C0A9
:10450000E5F002C0E4F001C0E3F000C0E2F0A2EC8C
:1045100011F001C02EF02E500A080EE3080E2E24D2
:10452000CE6FE06F020EE16F1BEC0AF0200EDF6F22
:1045300050EC0AF02E2AEFD7090EE06F030EE16F60
:104540001BEC0AF0BC0EF66E080EF76E060ED26F6C
:10455000C7EC0AF028C0CEF0030ECF6FEAEC0AF0E9
:104560003A0EDF6F50EC0AF029C0CEF0010ECF6F8B
:10457000EAEC0AF002EC00F0010EE06F020EE16FCF
:104580001BEC0AF0CC0EF66E080EF76E83EC0AF008
:1045900017A40DD0010EE06F040EE16F1BEC0AF0C2
:1045A000D40EF66E080EF76E83EC0AF00CD0010EF6
:1045B000E06F040EE16F1BEC0AF0DE0EF66E080EE3
:1045C000F76E83EC0AF017A20DD0010EE06F030E18
:1045D000E16F1BEC0AF0E80EF66E080EF76E83EC46
:1045E0000AF00CD0010EE06F030EE16F1BEC0AF035
:1045F000F00EF66E080EF76E83EC0AF017A00DD0E1
:104600000D0EE06F040EE16F1BEC0AF0F80EF66E73
:10461000080EF76E83EC0AF00CD00D0EE06F040E5E
:10462000E16F1BEC0AF0000EF66E090EF76E83ECDC
:104630000AF017AE4CD018A845D00C0EDF6F50EC26
:104640000AF0010EE06F020EE16F1BEC0AF0080E9B
:10465000F66E090EF76E83EC0AF0010EE06F030EA2
:10466000E16F1BEC0AF01E0EF66E090EF76E83EC7E
:104670000AF0010EE06F040EE16F1BEC0AF0340E3D
:10468000F66E090EF76E83EC0AF0010EE06FE16F33
:104690001BEC0AF04A0EF66E090EF76E83EC0AF078
:1046A0002E6A2E5004080EE38B809490C80EE56F9E
:1046B000B0EC04F08B909490C80EE56FB0EC04F071
:1046C0002E2AEFD7179E0C0EDF6F50EC0AF017A2C0
:1046D0000FD08A98939818B40AD0F8EC04F0C80E5A
:1046E000E56FB0EC04F0F8EC04F01884188E0ED0EE
:1046F0008A88939818A40AD0F8EC04F0C80EE56FE5
:10470000B0EC04F0F8EC04F01894188E189E17A47E
:1047100017D0B0B110D0060EBF6FF8EC04F0C80E81
:10472000E56FB0EC04F0F8EC04F0B081188EC80E20
:10473000E56FB0EC04F08B8494948B82949210D04B
:104740008B9494948B929492B0A10AD0F8EC04F0DC
:10475000C80EE56FB0EC04F0F8EC04F0B091188EE0
:1047600017A20FD08A98939818B40AD0F8EC04F0E6
:10477000C80EE56FB0EC04F0F8EC04F01884188E65
:104780000ED08A88939818A40AD0F8EC04F0C80ECA
:10479000E56FB0EC04F0F8EC04F01894188E17A054
:1047A00055D08A969396179E1794BF6B17928A8856
:1047B000939818B24AD0F8EC04F0C80EE56FB0EC4C
:1047C00004F0F8EC04F01882010E316E188E000E21
:1047D00017B4010ECE6F160EA96ECEC0A8FFA69C10
:1047E000A69EA684F250006EF29CF29E0F01550E1A
:1047F000A76EAA0EA76EA682A6B2FED7A6940050F8
:10480000F212140E0001E56FB0EC04F0000E17B2C6
:10481000010ECE6F170EA96ECEC0A8FFA69CA69E55
:10482000A684F250006EF29CF29E0F01550EA76E08
:10483000AA0EA76EA682A6B2FED7A6940050F212C8
:10484000140E0001E56FB0EC04F011D017908A86C9
:10485000939618A20CD0F8EC04F0C80EE56FB0ECFB
:1048600004F0F8EC04F01892010E316E188EB65375
:1048700003E1B5513B0829E217B626D01772178617
:10488000000E17B2010ECE6F170EA96ECEC0A8FF94
:10489000A69CA69EA684F250006EF29CF29E0F018A
:1048A000550EA76EAA0EA76EA682A6B2FED7A69434
:1048B0000050F212020E0001CE6F960EE56FB0ECC2
:1048C00004F0CE2FFAD7188E01D01796B85303E113
:1048D000B7513B0829E217BA26D01774178A000E81
:1048E00017B4010ECE6F160EA96ECEC0A8FFA69CFF
:1048F000A69EA684F250006EF29CF29E0F01550E09
:10490000A76EAA0EA76EA682A6B2FED7A6940050E6
:10491000F212020E0001CE6F960EE56FB0EC04F0BD
:10492000CE2FFAD7188E01D0179ABA5303E1B95196
:104930003B080AE217BC07D0960EE56FB0EC04F016
:104940001770188E178C01D0179CB45303E1B35124
:104950003B081BE217B818D0C80EE56FB0EC04F0A6
:104960000C0EDF6F50EC0AF0020ECE6F960EE56F64
:10497000B0EC04F0CE2FFAD7010E196E356A020E94
:104980001D6E1F6E188E178801D01798312C65D0B8
:10499000070EA96E22C0A8FFA69CA69EA684F25070
:1049A000006EF29CF29E0F01550EA76EAA0EA76E26
:1049B000A682A6B2FED7A6940050F212080EA96EE7
:1049C00023C0A8FFA69CA69EA684F250006EF29C6F
:1049D000F29E550EA76EAA0EA76EA682A6B2FED7AD
:1049E000A6940050F21248C024F049C025F0090EE8
:1049F000A96E24C0A8FFA69CA69EA684F2CF00F0B4
:104A0000F29CF29E550EA76EAA0EA76EA682A6B2C3
:104A1000FED7A6940050F212140E0001E56FB0EC20
:104A200004F00A0EA96E25C0A8FFA69CA69EA68427
:104A3000F250006EF29CF29E0F01550EA76EAA0E68
:104A4000A76EA682A6B2FED7A6940050F212140E4C
:104A50000001E56FB0EC04F0316A22503B0802E23D
:104A6000226A232A23503C0804E1236A482AD8B446
:104A7000492A30503B080CE20C0EDF6F50EC0AF074
:104A8000F8EC04F0C80EE56FB0EC04F0306A188E54
:064A900005EF16F0030023
:020000040030CA
:0E0000003C0E391E000180000FC00FE00F40C3
:00000001FF
;PIC18F4550
;CRC=7C6F  CREATED="28-abr.-21 07:45"
