:040000005CEF01F0C0
:08000800046ED8CF05F0E0CF33
:1000100006F00001E9CF0CF0EACF07F0E1CF08F0DD
:10002000E2CF09F0D9CF0AF0DACF0BF0F3CF12F01C
:10003000F4CF13F0FACF14F000C00EF001C00FF0AF
:1000400002C010F003C011F09DA02AEF00F09EB096
:1000500096EF00F09DA630EF00F09EB65DEF00F049
:100060000EC000F00FC001F010C002F011C003F08C
:100070000CC0E9FF07C0EAFF078E08C0E1FF09C016
:10008000E2FF0AC0D9FF0BC0DAFF12C0F3FF13C0B2
:10009000F4FF14C0FAFF045006C0E0FF05C0D8FF0B
:1000A0001000C950EAC1C9FFC6889E96C7B0FED7E6
:1000B000016AC6B8012A77EF00F0C7BA04D001017F
:1000C000E36BC7B4E38F0101E351E32B166E1650C7
:1000D000800811E1036A1750280FE96E000E032013
:1000E000EA6EEFCFE9F1E9C1EAF10001DAD7939EB8
:1000F0008A7E19D00101C69C9EA6FED7C950C6882B
:10010000E86F162C03D0E8C117F00CD01650020887
:1001100009E1036A1750390FE96E000E0320EA6EF9
:10012000E8C1EFFF00019E9630EF00F0150ECF6E94
:10013000A00ECE6E4B2AD8B44C2A4D2AD8B44E2AE3
:100140004C5203E14B50130803E24A844C6A4B6A59
:100150009E9030EF00F0010EEA6EE70EE96EEF5070
:100160000EE00F0E016E006A002EFED7012EFBD7A7
:100170008F0E006E002EFED70000EF2EF2D7D1EFCB
:1001800000F00101E435006E0036FC0E001600C0E0
:1001900001F0C250C30B0010C26E0A0EE76F0001DF
:1001A000DAD7C282C2B2FED7C4CFE6F10101C3CF13
:1001B000E5F1E5C101F0E6C102F00001000C020E1C
:1001C0000101E46F0001DDDF02C0DEF101C0DDF1FD
:1001D000DDC1D3F1DEC1D4F1D3C12AF0D4C12BF0FB
:1001E00081EF03F0070E0101E46F0001CADF02C0D6
:1001F000E2F101C0E1F1E1C1D9F1E2C1DAF1D9C125
:1002000030F0DAC131F082EF03F0060E0101E46F45
:100210000001B7DF02C0E0F101C0DFF1DFC1D7F1BB
:10022000E0C1D8F1D7C12EF0D8C12FF083EF03F091
:100230000101E46B0001A5DF02C0DCF101C0DBF1CC
:10024000DBC1D1F1DCC1D2F1D1C128F0D2C129F09A
:1002500084EF03F0040E0101E46F000192DF02C09D
:10026000E5F101C0E4F101010250020807E303E1F6
:10027000E451B70803E3050E2C6E02D00A0E2C6E73
:10028000000185EF03F0050E0101E46F000179DF45
:1002900002C0E5F101C0E4F101010250030807E3E7
:1002A00003E1E451330803E3050E2D6E02D00A0E7C
:1002B0002D6E000186EF03F0F86AD09E078EEA6A81
:1002C000E96A93829380A00EC86E360EC66E4A927B
:1002D0004C6A4B6A4E6A4D6A4A944F6A506A516A38
:1002E000526A536A546A586A576A566A556A5C6A0F
:1002F0005B6A5A6A596A606B5F6A5E6A5D6A646BC0
:10030000636B626B616B686B676B666B656B6C6B69
:100310006B6B6A6B696B706BC00E6F6F410E6E6FAB
:100320008B0E6D6F786B776B766B756B7C6B7B6B05
:100330007A6B796B0101C06BBF6BBE6BBD6BC46B1D
:10034000C36BC26BC16BC86BC76BC66B880EC56FC6
:10035000CC6BCB6BCA6BC96BCE6BCD6BD06BCF6BE1
:10036000D16BD26BD36BD46BD56BD66BD76BD86B91
:10037000D96BDA6BDC6BDB6BDE6BDD6BE06BDF6B41
:10038000E26BE16BC150C00B0F09C16E070EB46E7A
:1003900000017D6B7E6B7F6B806B816B826B836BEF
:1003A000846B856B866B876B886B896B8A6B8B6BB9
:1003B0008C6B8D6B8E6B8F6B906B916B926B936B69
:1003C000946B956B966B976B986B996B9A6B9B6B19
:1003D0009C6B9D6B9E6B9F6BA06BA16BA26BA36BC9
:1003E000A46BA56BA66BA76BA86BA96BAA6BAB6B79
:1003F000AC6BAD6BAE6BAF6BB06BB16BB26BB36B29
:10040000B46BB56BB66BB76BB86BB96BBA6BBB6BD8
:10041000BC6BBD6BBE6BBF6BC06BC16BC26BC36B88
:10042000C46BC56BC66BC76BC86BC96BCA6BCB6B38
:10043000CC6BCD6BCE6BCF6BD06BD16BD26BD36BE8
:10044000D46BD56BD66BD76BD86BD96BDA6BDB6B98
:10045000DC6BDD6BDE6BDF6BE06BE16BE26BE36B48
:10046000E46BE56BE66BE76BE86BE96BEA6BEB6BF8
:10047000EC6BED6BEE6BEF6BF06BF16BF26BF36BA8
:10048000F46BF56BF66BF76BF86BF96BFA6BFB6B58
:10049000FC6BFD6BFE6BFF6B0101006B016B026B74
:1004A000036B046B056B066B076B086B096B0A6BC0
:1004B0000B6B0C6B0D6B0E6B0F6B106B116B126B70
:1004C000136B146B156B166B176B186B196B1A6B20
:1004D0001B6B1C6B1D6B1E6B1F6B206B216B226BD0
:1004E000236B246B256B266B276B286B296B2A6B80
:1004F0002B6B2C6B2D6B2E6B2F6B306B316B326B30
:10050000336B346B356B366B376B386B396B3A6BDF
:100510003B6B3C6B3D6B3E6B3F6B406B416B426B8F
:10052000436B446B456B466B476B486B496B4A6B3F
:100530004B6B4C6B4D6B4E6B4F6B506B516B526BEF
:10054000536B546B556B566B576B586B596B5A6B9F
:100550005B6B5C6B5D6B5E6B5F6B606B616B626B4F
:10056000636B646B656B666B676B686B696B6A6BFF
:100570006B6B6C6B6D6B6E6B6F6B706B716B726BAF
:10058000736B746B756B766B776B786B796B7A6B5F
:100590007B6B7C6B7D6B7E6B7F6B806B816B826B0F
:1005A000836B846B856B866B876B886B896B8A6BBF
:1005B0008B6B8C6B8D6B8E6B8F6B906B916B926B6F
:1005C000936B946B956B966B976B986B996B9A6B1F
:1005D0009B6B9C6B9D6B9E6B9F6BA06BA16BA26BCF
:1005E000A36BA46BA56BA66BA76BA86BA96BAA6B7F
:1005F000AB6BAC6BAD6BAE6BAF6BB06BB16BB26B2F
:10060000B36BB46BB56BB66BB76BB86BB96BBA6BDE
:10061000BB6BBC6B030EE36F166A176A17500F08AB
:100620001AE3036A1750180FE96E000E0320EA6EF2
:10063000EF6A036A1750280FE96E000E0320EA6E76
:10064000EF6A036A1750390FE96E000E0320EA6E55
:10065000EF6A172AE3D7A80ED56E850ECD6E000E71
:100660000509CA6EFF0ECB6E94948B94969C0C0E6B
:10067000BD6EB76AB66A9D809D86C150C00B0709E2
:10068000C16EC090C082C094C08EC280C00EF212F3
:10069000800EBE6E3950050802E18A849394395069
:1006A0000A0802E18A9493943A50050802E18A8686
:1006B00093963A500A0802E18A9693963B500508B1
:1006C00002E18A8893983B500A0802E18A9893983D
:1006D0003C50050802E18A8A939A3C500A0802E1DC
:1006E0008A9A939A3D50050802E18A8C939C3D506A
:1006F0000A0802E18A9C939C4AA409D04A9400010A
:100700005ED570D582D594D5A5D5BDD50101C2D70A
:020710000300E4
:020000040030CA
:0E00000020CE3E1E000781000FC00FE00F4013
:00000001FF
;PIC18F4550
;CRC=3489  CREATED="25-sept.-17 13:17"
