:04000000F7EF18F00E
:08000800046ED8CF05F0E0CF33
:1000100006F00001E9CF0CF0EACF07F0E1CF08F0DD
:10002000E2CF09F0D9CF0AF0DACF0BF0F3CF12F01C
:10003000F4CF13F0FACF14F000C00EF001C00FF0AF
:1000400002C010F003C011F09DA02AEF00F09EB096
:1000500077EF08F00EC000F00FC001F010C002F002
:1000600011C003F00CC0E9FF07C0EAFF078E08C00B
:10007000E1FF09C0E2FF0AC0D9FF0BC0DAFF12C0DE
:10008000F3FF13C0F4FF14C0FAFF045006C0E0FFF2
:1000900005C0D8FF1000F2CF0DF0F29EF76AB00F46
:1000A000F66E000EF7220900F5500DBEF28E12001A
:1000B000000000000000005F0000000300030014C7
:1000C0003E143E14242A7F2A1243330866613649BF
:1000D0005522500005030000001C2241000041226F
:1000E0001C0014083E081408083E080800503000A0
:1000F00000080808080800606000002010080402DA
:100100003E5149453E0004027F004261514946226A
:10011000414949361814127F1027454545393E4953
:100120004949320101710907364949493626494989
:10013000493E0036360000005636000008142241C1
:100140000014141414140041221408020151090669
:100150003E4159555E7E0909097E7F494949363E2F
:10016000414141227F4141413E7F494949417F0907
:100170000909013E4141493A7F0808087F00417F53
:100180004100304040403F7F081422417F404040C2
:10019000407F020C027F7F0204087F3E4141413EC6
:1001A0007F090909061E2121215E7F0909097600C0
:1001B000F2CF0DF0F29EF76ACA0FF66E010EF7222B
:1001C0000900F5500DBEF28E120026494949320150
:1001D000017F01013F4040403F1F2040201F7F2002
:1001E00010207F41221C22410708700807615149F5
:1001F0004543007F41000002040810200000417FB9
:10020000000402010204404040404000010204009A
:1002100020545454787F4444443838444444443847
:100220004444447F385454541804047E050508544B
:1002300054543C7F0804047800447D40002040442E
:100240003D007F1028440000417F40007C0478047A
:10025000787C0804047838444444387C1414140826
:10026000081414147C007C080404485454542004DA
:10027000043F44443C4040207C1C2040201C3C4027
:1002800030403C44281028440C5050503C446454A6
:100290004C44000836414100007F000041413608CF
:1002A000000201020402F2CF0DF0F29EBE0FF66EC4
:1002B000020EF7220900F5500DBEF28E120000006A
:1002C000000000000000000000000000000000002E
:1002D000000000000000000000000000000000001E
:1002E000000000000000000000000000000000000E
:1002F00000000000000000000000000000000000FE
:1003000000000000000000000000000000000000ED
:1003100000000000000000000000000000000000DD
:1003200000000000000000000000000000000000CD
:1003300000000000000000000000000000000000BD
:1003400000000000000000000000000000000000AD
:10035000000000000000000000000000000000009D
:10036000000000000000000000000000000000008D
:10037000000000000000000000000000000000007D
:10038000000000000000000000000000000000006D
:10039000000000000000000000000000000000005D
:1003A000000000000000000000000000000000004D
:1003B00000000000000000000000000800800000B5
:1003C0000000000000000000000000040100000028
:1003D0000000000000000000000000020200000019
:1003E0000000000000000000000000007800000095
:1003F0000000000000000000000000008400000079
:1004000000000000000000000000000102000000E9
:100410000000000000000000000000F902F80000E9
:1004200000000000000000000000000102000000C9
:1004300000000000000000000000000102000000B9
:1004400000000000000000000000000484800000A4
:1004500000000000000000000000000878400000DC
:100460000000000000000000000000104820000014
:100470000000000000000000000000204810000004
:1004800000000000000000000000000078000000F4
:10049000000000000000000000000000000000005C
:1004A000000000000000000000000000000000004C
:1004B000000000000000000000000000000000003C
:1004C000000000000000000000000000000000002C
:1006B0000000000000000000000000000000F2CF79
:1006C0000DF0F29ED60FF66E060EF7220900F550D9
:1006D0000DBEF28E120000000000000000000000BD
:1006E000000000000000000000000000000000000A
:1006F00000000000000000000000000000000000FA
:1007000000000000000000000000000000000000E9
:1007100000000000000000000000000000000000D9
:1007200000000000000000000000000000000000C9
:1007300000000000000000000000000000000000B9
:1007400000000000000000000000000000000000A9
:100750000000000000000000000000000000000099
:100760000000000000000000000000000000000089
:100770000000000000000000000000000000000079
:100780000000000000000000000000000000000069
:100790000000000000000000000000000000000059
:1007A0000000000000000000000000000000000049
:1007B0000000000000000000000000000000000039
:1007C0000000000000000000000000000000000029
:1007D0000000000000000000000000000000000019
:1007E0000000000000000000000000000000000009
:1007F00000000000000000000000000000000000F9
:1008000000000000000000000000000000000000E8
:1008100000000000000000000000000000000000D8
:1008200000000000000000000000000000000000C8
:1008300000000000000000000000000000000000B8
:1008400000000000000000000000000000000000A8
:100850000000000000000000000000000000000098
:100860000000000000000000000000000000000088
:100870000000000000000000000000000000000078
:100880000000000000000000000000000000000068
:100890000000000000000000000000000000000058
:1008A0000000000000000000000000000000000048
:1008B0000000000000000000000000000000000038
:1008C0000000007FFFF800000000000000000000B2
:1008D00000000040000800000000000000000000D0
:1008E0000000004703880000000000000000000036
:1008F0000000004502880000000000000000000029
:100900000000004502880000000000000000000018
:100910000000004502880000000000000000000008
:1009200000000045028800000000000000000000F8
:1009300000000047038800000000000000000000E5
:10094000000000400008000000000000000000005F
:1009500000000040FC080000000000000000000053
:1009600000000040840800000000000000000000BB
:1009700000000040840800000000000000000000AB
:1009800000000040FC080000000000000000000023
:10099000000000400008000000000000000000000F
:1009A0000000007FFFF800000000000000000000D1
:1009B0000000000000000000000000000000000037
:1009C0000000000000000000000000000000000027
:1009D0000000000000000000000000000000000017
:1009E0000000000000000000000000000000000007
:1009F00000000000000000000000000000000000F7
:100A000000000000000000000000000000000000E6
:100A100000000000000000000000000000000000D6
:100A200000000000000000000000000000000000C6
:100A300000000000000000000000000000000000B6
:100A400000000000000000000000000000000000A6
:100A50000000000000000000000000000000000096
:100A60000000000000000000000000000000000086
:100A70000000000000000000000000000000000076
:100A80000000000000000000000000000000000066
:100A90000000000000000000000000000000000056
:100AA0000000000000000000000000000000000046
:100AB0000000000000000000000000000000000036
:100AC0000000000000000000000000000000000026
:100AD000000000000000F2CF0DF0F29EEE0FF66E67
:100AE0000A0EF7220900F5500DBEF28E120000002A
:100AF00000000000000000000000000000000000F6
:100B000000000000000000000000000000000000E5
:100B100000000000000000000000000000000000D5
:100B200000000000000000000000000000000000C5
:100DD00000000000000000000000000060000000B3
:100DE000000000000000000000000000F000000013
:100DF000000000000000000000000001F8000000FA
:100E0000000000000000000000000001F8000000E9
:100E1000000000000000000000000001F8000000D9
:100E2000000000000000000000000000F0000000D2
:100E300000000000000000000000003871C0000049
:100E400000000000000000000000007C93E00000B3
:100E50000000000000000000000000FF0FF0000094
:100E60000000000000000000000000FF0FF0000084
:100E700000000000000000000000007D93E0000082
:100E800000000000000000000000003861C0000009
:100E9000000000000000000000000000F000000062
:100EA000000000000000000000000001F800000049
:100EB000000000000000000000000001F800000039
:100EC000000000000000000000000001F800000029
:100ED000000000000000000000000000F000000022
:100EE0000000000000000000000000006000F2CFE1
:100EF0000DF0F29EF76A080FF66E0F0EF72209004A
:100F0000F5500DBEF28E1200436C61766500F2CF93
:100F10000DF0F29EF76A280FF66E0F0EF722090009
:100F2000F5500DBEF28E1200436F727265637461EC
:100F30000000F2CF0DF0F29EF76A4C0FF66E0F0E26
:100F4000F7220900F5500DBEF28E1200496E636F54
:100F50007272656374610000F2CF0DF0F29EF76A61
:100F6000720FF66E0F0EF7220900F5500DBEF28ECD
:100F700012004D656E750000F2CF0DF0F29EF76A1B
:100F8000920FF66E0F0EF7220900F5500DBEF28E8D
:100F90001200416A757374657300F2CF0DF0F29E12
:100FA000F76AB40FF66E0F0EF7220900F5500DBE6A
:100FB000F28E12004D6F646F0000F2CF0DF0F29EC2
:100FC000F76AD40FF66E0F0EF7220900F5500DBE2A
:100FD000F28E12005469656D706F205075726761F2
:100FE0000000F2CF0DF0F29EF76AFC0FF66E0F0EC6
:100FF000F7220900F5500DBEF28E120054656D7097
:101000006F2055560000F2CF0DF0F29EF76A200FC8
:10101000F66E100EF7220900F5500DBEF28E12008A
:1010200053656E736F7220646520466C756A6F003D
:10103000F2CF0DF0F29EF76A4A0FF66E100EF7220D
:101040000900F5500DBEF28E120053656E736F727B
:101050002064652050726573696F6E00F2CF0DF0E9
:10106000F29EF76A760FF66E100EF7220900F55021
:101070000DBEF28E12004D616E74656E696D69650C
:101080006E746F00F2CF0DF0F29EF76A9E0FF66E4F
:10109000100EF7220900F5500DBEF28E1200542EEC
:1010A0002050757267610000F2CF0DF0F29EF76A72
:1010B000C20FF66E100EF7220900F5500DBEF28E2B
:1010C0001200542E20555600F2CF0DF0F29EF76A12
:1010D000E20FF66E100EF7220900F5500DBEF28EEB
:1010E0001200436C617665204E7565766100150EC1
:1010F000CF6EA00ECE6E0401362BD8B4372B4EA780
:1011000004D00501362BD8B4372B050137510A0816
:1011100007E2FF0A03E13651B70802E204014E85F7
:101120000401375304E13651C708D8B09AD0376B61
:10113000366B4C8F0501102B04014E8D0501152BCC
:1011400004014EA31ED00501462B46BF05D04651D3
:10115000090802E2466B472B47BF05D047510508F7
:1011600002E2476B482B48BF05D04851090802E20C
:10117000486B492B49BF04D04951050801E2496B2E
:1011800004014DAF47D00501382BD8B4392B395164
:101190000D0823E2FF0A03E138510F081EE2396B04
:1011A000386B4E2B4EBF05D04E51090802E24E6BF4
:1011B0004F2B4FBF05D04F51090802E24F6B502B08
:1011C00050BF05D05051090802E2506B512B51BF5E
:1011D00004D05151090801E2516B522B52BF05D086
:1011E0005251090802E2526B532B53BF05D05351A1
:1011F000050802E2536B542B54BF05D05451090823
:1012000002E2546B552B55BF04D05551050801E23D
:10121000556B04014DA305D005013A2BD8B43B2BE7
:1012200004014DAD1ED005013E2B3EBF05D03E5101
:10123000090802E23E6B3F2B3FBF05D03F51050836
:1012400002E23F6B402B40BF05D04051090802E24B
:10125000406B412B41BF04D04151050801E2416B75
:1012600004019E9000012AEF00F0060EEA6E310E96
:10127000E96EEF500EE00F0E016E006A002EFED7F1
:10128000012EFBD78F0E006E002EFED70000EF2E32
:10129000F2D7000C8E0E006E36C601F035C602F095
:1012A000036A015209E102C001F0026A080E005E01
:1012B000015202E1006A08D0D89001BE04D0023683
:1012C00001360006F9D7019E000C06013551D8B44D
:1012D000A5D0416F3951D8B4A1D0415F05E37F0E4D
:1012E0004127D8B09BD006D0810E415FD8A096D0C0
:1012F000D8B494D041C600F0016A026A036A406B18
:1013000036C63FF63F8F37C63EF638C63DF6190E55
:10131000416F3C513D5F0DE2010E3E5F0AE23F5FCF
:1013200008E2405F06E2402B3F2B3E2B3C513D271D
:1013300028D03B513E5F12E2010E3F5F0FE2405F5B
:101340000DE2402B3F2B3B513E273C513D2719E3FB
:101350003E2B17E13F2B15E1402B13D03A5180096A
:101360003F5F0EE2010E405F0BE2402B3A518009D5
:101370003F273B513E27E9E33F2BE7E1402BE5D7F1
:101380000380412F01D00BD0D8903D373E373F37F7
:101390004037D8900336023601364237BAD742A1D9
:1013A00006D0D890013202320332423302D0000616
:1013B00035E042BF1ED0D8903D373E373F374037EB
:1013C0003C513D5F07E2010E3E5F04E23F5F02E2F7
:1013D000405F1AE33B513E5F05E2010E3F5F02E2D0
:1013E000405F12E33A5180093F5F03E2010E405F24
:1013F0000BE3032A09E1022A07E1012A05E1002A99
:101400000DE001320232033236C641F63A51411B39
:1014100041AF02D0018E06D0019E04D0006A016A5D
:10142000026A036A0001000C800ED8A202D00601F5
:101430003E1B0601436B446B3AC642F63E51421BCB
:101440003951D8B4DFD0416F006E3D51D8B4E3D0EC
:10145000415FD8B483D03EE33EC647F6478F3FC6D0
:1014600046F640C645F6446BD8904733463345337D
:101470004433412FF8D742AF03D04381E0D04391AA
:1014800041914389060EEA6E3C0EE96EEBD043991A
:1014900042BF0AD041A113D04733463345334433CA
:1014A000002AD8B4C7D00BD047BF0CD0D89044374F
:1014B0004537463747370006D8B4BCD0F5D7438DFB
:1014C0006DD0439D3AC642F63AAF02D0478FABD0BB
:1014D000479FA9D03DC641F63DC600F03951415F56
:1014E0003AC647F6478F3BC646F63CC645F6446BC0
:1014F000D8904733463345334433412FF8D742AF72
:1015000003D043839CD043934191438B060EEA6EF4
:10151000400EE96EA7D0439B42BF0AD041A113D031
:101520004733463345334433002AD8B483D00BD0F5
:1015300047BF0CD0D8904437453746374737000669
:10154000D8B478D0F5D7438F29D0439F3EC642F612
:101550003EAF02D0478F67D0479F65D03EC647F663
:10156000478F3FC646F640C645F642AF04D0479F78
:10157000438565D04395446B4191060EEA6E3C0E5F
:10158000E96E70D042BF1CD03AC642F641A106D0E7
:101590004733463345334433002A4CE044AF0BD045
:1015A000452B09E1462B07E1472B05E1473346333D
:1015B0004533002A3FE043BD84D743BFC6D71CD084
:1015C000800E471B47AF04D03AD03EC642F60AD041
:1015D0003AC642F6475306E1465304E1455302E159
:1015E000006A21D047BF08D0D890443745374637E6
:1015F0004737002EF7D71ED042AF02D0478F13D007
:10160000479F11D03DC600F03EC647F63FC646F69E
:1016100040C645F608D039C600F03AC647F63BC684
:1016200046F63CC645F647C601F046C602F045C63A
:1016300003F034D0006A016A026A036A2FD0446B57
:10164000451F461F471F441F442B05E1452B03E15F
:10165000462B01E1472B43B112D743B354D743B5CF
:1016600089D7B3D7EF50452705E3462B03E1472B36
:10167000D8B44181ED52EF50462703E3472BD8B44D
:101680004181ED52EF50EFBE01D0800A4727D8B01C
:10169000418143B9FCD643BB3ED774D70001000C4F
:1016A0008E0E006E06013051005E31C602F032C669
:1016B00001F0028E005209E0D890025202E101527C
:1016C00004E002320132002EF7D731AF05D0011EFF
:1016D000021E012AD8B4022A0001000C0601525150
:1016E000D8B471D0006E5651D8B46DD0002604E342
:1016F000810E002668E204D07F0E005E64E363E0A2
:1017000053C65AF657515A1B538F578F5551590389
:10171000F4CF5CF654515803F4CF03F0F3CF5BF6EB
:101720005903F3505C27F4505B23000E03225551FC
:101730005803F3505C27F4505B23000E026A032227
:10174000022253515903F3505B27F4500322000E39
:10175000022253515803F3500326F4500222000E84
:10176000016A012255515703F3505B27F4500322BD
:10177000000E0222012254515703F3500326F45065
:101780000222000E012253515703F3500226F45057
:101790000122002A01BE05D05B370336023601362E
:1017A0000006000E5BAF0AD0032A0222012201507C
:1017B00005E1025003E1035001E1002A5ABF018E06
:1017C0005AAF019E04D0006A016A026A036A0001EE
:1017D000000C1CC539F41DC53AF41EC53BF420C5E8
:1017E0003CF41FC53DF469C533F668C532F667C5DC
:1017F00031F666C530F654DF01C03EF469C533F6F4
:1018000068C532F667C531F666C530F649DF0601B0
:10181000366B01C035F600013DDDD88269C53CF666
:1018200068C53BF667C53AF666C539F603C040F6AB
:1018300002C03FF601C03EF600C03DF6F5DD0601F0
:10184000556B546B480E536F850E526F03C059F69B
:1018500002C058F601C057F600C056F600013EDF40
:1018600003C089F502C088F501C087F500C086F580
:1018700089C533F688C532F687C531F686C530F698
:101880000FDF01C03FF4AEEF0CF0080E016E020E48
:10189000006E002EFED78A929392020E006E002EEA
:1018A000FED7060134378A90D8B09380D8A09390A1
:1018B000938281A2FED7012E01D002D00001E7D78A
:1018C000020E006E002EFED78A9293920000938043
:1018D000020E006E002EFED7020E006E002EFED706
:1018E000938281A2FED7016A020E006E002EFED7FF
:1018F00081B001808A9293928A9093900001000CAB
:101900009380020E006E002EFED79382020E006EB0
:10191000002EFED78A909390020E006E002EFED706
:101920008A92939231C634F6B0DF32C634F6ADDF18
:1019300033C634F6AADF93900000938281A2FED7CB
:10194000020E006E002EFED700D000009380020E23
:10195000006E002EFED7C6EF0CF03BD70401386BAB
:101960003851060816E3A00E4A6F036A3851390F42
:10197000E96E040E0320EA6EEFCF30F64AC431F66A
:1019800038C432F630C633F60001BAD70401382B1A
:10199000E7D70001000C0601385303E093988A88CA
:1019A00002D093968A86939C8A9C956A39C68CFF4E
:1019B000100E006E002EFED70000939E8A8E530EEE
:1019C000006E002EFED7939E8A9E93968A969398D9
:1019D0008A980001000C0601346B160E336F020E5C
:1019E000366F160E356F316B315107084EE3939AFF
:1019F0008A9A386B400E396F0001CDDF010E060167
:101A0000386F400E396F0001C6DF06013151B80949
:101A1000376F386B396F0001BEDF06013151B809ED
:101A2000376F010E386F37C639F60001B4DF939A6D
:101A30008A8A0601326B32513F0825E334C603F02F
:101A40003351332BD8B4342BE96E03C0EAFFEFCF08
:101A500037F6386B37C639F600019DDF060136C60A
:101A600003F03551352BD8B4362BE96E03C0EAFFAD
:101A7000EFCF37F6010E386F37C639F600018BDF2E
:101A80000601322BD8D7312BAFD70001000C06014D
:101A9000686B6331676F673367331F0E671767378C
:101AA0006837673768376737683767376837673742
:101AB000683767376837C00E671762516727000EAF
:101AC000682362513F080DE2160E6725696F020E0A
:101AD00068216A6F400E695D656F000E6A59666F16
:101AE00006D0160E6725656F000E6821666F645379
:101AF00015E066C603F065C6E9FF66C6EAFF6351F6
:101B0000070B696F010E006E6951016E04E0D890F9
:101B10000036012EFCD70050EF1215D066C603F038
:101B200065C6E9FF66C6EAFF6351070B696F010EE0
:101B3000006E6951016E04E0D8900036012EFCD78A
:101B40000050FF0AEF160001000C010E06015B6F4A
:101B50005C6F616B5251545D626F625162AF03D032
:101B6000000ED8806255036A596F03C05AF653516C
:101B7000555D626F625162AF03D0000ED88062552E
:101B8000036A576F03C058F65251545D02E2FF0ECC
:101B90005B6F5351555D02E2FF0E5C6F58515A5D09
:101BA0003BE303E15751595D37E3D8905737583736
:101BB0005951575D006E5A51585900C05DF65E6F1D
:101BC00059515D5D5F6F5A515E59606F5A5303E121
:101BD0006151595D20E352C662F653C663F656C69C
:101BE00064F6000154DF06015EBF01D008D05751F2
:101BF0005D2758515E235B515225526F0AD05F51C9
:101C00005D2760515E235B515225526F5C51532515
:101C1000536F612BDBD736D0D89059375A3757518D
:101C2000595D006E58515A5900C05DF65E6F5751AC
:101C30005D5D5F6F58515E59606F585303E16151AC
:101C4000575D20E352C662F653C663F656C664F685
:101C500000011DDF06015EBF01D008D059515D278C
:101C60005A515E235C515325536F0AD05F515D2753
:101C700060515E235B515225526F5C515325536F67
:101C8000612BDBD70001000C06014B532EE04951BC
:101C9000475D05E247C64EF649C64FF604D049C631
:101CA0004EF647C64FF64A51485D05E248C650F623
:101CB0004AC651F604D04AC650F648C651F64E51AF
:101CC0004F5D12E350C64DF64D51515D0BE34EC6CC
:101CD00062F64DC663F64CC664F60001D8DE060116
:101CE0004D2BF2D74E2BEBD72ED047C652F648C617
:101CF00053F649C654F648C655F64CC656F600018A
:101D000024DF47C652F64AC653F649C654F64AC6B9
:101D100055F64CC656F619DF47C652F648C653F676
:101D200047C654F64AC655F64CC656F60EDF49C6A7
:101D300052F648C653F649C654F64AC655F64CC63E
:101D400056F603DF06010001000C4AC603F0060147
:101D500049C6E9FF4AC6EAFFEF52D8B4D0D04AC616
:101D600003F049C6E9FF4AC6EAFFEF50520827E3ED
:101D70004AC603F049C6E9FF4AC6EAFF200EEF5CF7
:101D8000050DF350036A566F060EEA6E510EE96EAA
:101D90005A6B56C659F6F2CF57F6F29E050E016EF3
:101DA000F76A565100014BEC00F00A000900F5CF2C
:101DB000EEFF012EFBD7060157BFF28E35D04AC683
:101DC00003F049C6E9FF4AC6EAFFEF507E0827E361
:101DD0004AC603F049C6E9FF4AC6EAFF530EEF5C64
:101DE000050DF350036A566F060EEA6E510EE96E4A
:101DF0005A6B56C659F6F2CF57F6F29E050E016E93
:101E0000F76A56510001D8EC00F00A000900F5CF3E
:101E1000EEFF012EFBD7060157BFF28E05D0516BA6
:101E2000526B536B546B556B4AC603F04951E96EC4
:101E300003C0EAFFEF500A0A000103E0070A09E0C5
:101E40000BD006014B51070DF350010F482750D01E
:101E500000010601476B4CD006014B51050DF350B4
:101E600047257F0806E2476B4B51070DF350010FE2
:101E700048274D6B4D5104083BE34E6B4E5106080D
:101E800033E3036A4D51510FE96E060E0320EA6EEB
:101E9000EFCF56F656C600F04E51016E04E0D890D2
:101EA0000032012EFCD700A01DD04F6B4B514F5D6F
:101EB00019E2506B4B51505D13E250514725566F5C
:101EC0004E514B03F35048254F25576F56C662F6C7
:101ED000636F4CC664F60001DADD0601502BEAD7C9
:101EE0004F2BE4D74E2BCAD74D2B4B514727C2D788
:101EF000492BD8B44A2B472B000127D706010001F4
:101F0000000C06014651016A455D03E245C600F03A
:101F10000CD0006A080E476F453700364651005C0A
:101F2000D8B0006E0136472FF7D70001000C2FC63E
:101F3000EAFF2EC6E9FF060152C6EFFFE92AD8B430
:101F4000EA2AEF6A2E2BD8B42F2B0001000C200EAA
:101F5000060140A9300E416F3FC600F03FAF07D0E9
:101F6000001E002A00C03FF62D0E416F408F015029
:101F70003FC645F6640E466F0001C3DF00C03FF662
:101F8000300E01240601426F3FC645F60A0E466F29
:101F90000001B7DF300E00240601446F300E01242B
:101FA000436F41C600F040A702D040AF409540B912
:101FB0000BD040AF22D040B520D000C042F640B395
:101FC0001CD000C043F619D0300E425D16E100C0AF
:101FD00042F6200E416F40A704D04095408340AFA9
:101FE0004093300E435D09E100C043F6200E426F7E
:101FF00040A7F7D7409340AF409140A505D041C6D8
:1020000052F6000194DF060140A305D042C652F605
:1020100000018DDF060140A104D043C652F6000145
:1020200086DF44C652F6000182DF000C060E060170
:102030002F6F360E2E6F32C63FF61F0E406F000117
:1020400086DF0601352D27D0120E33253F6F180E7F
:102050003425406F33C647F634C648F63FC649F6C6
:102060004A6F010E4B6F4C6F00010EDE020E06012F
:1020700033253F6F010E3425406F3FC647F6486F4A
:10208000060E4A6F360E496F020E4B6F4C6B000105
:102090005CDE26D00601120E33253F6F180E342564
:1020A000406F33C647F634C648F63FC649F64A6F16
:1020B0004B6B4C6B0001E8DD020E060133253F6FD0
:1020C000010E3425406F3FC647F6486F060E4A6F33
:1020D000360E496F020E4B6F010E4C6F000135DE5C
:1020E000000C0601346B160E336F020E366F160E9F
:1020F000356F3151FF0DF3CF32F6386B376B3851F6
:1021000001081AE334C603F03351332BD8B4342B0F
:10211000E96E03C0EAFF32C6EFFF36C603F0355161
:10212000352BD8B4362BE96E03C0EAFF32C6EFFF79
:10213000372BD8B4382BE3D70001000C060130C68A
:1021400001F031C603F030C636F631C637F6060E5A
:10215000EA6E1A0EE96E31C6E2FF30C6E1FFE752C1
:10216000E6CFEEFFFCE1342D25D03551080DF350BC
:102170003325366F476B33C648F67F0E496F36C638
:102180004AF6010E4B6F4C6F00017EDD010E060119
:102190003225366F010E3325376F36C647F6486F46
:1021A000060E4A6F1A0E496F35C64BF64C6B00018E
:1021B000CCDD0601345326E13551080DF3503325AB
:1021C000366F476B33C648F67F0E496F36C64AF600
:1021D000010E4B6F4C6B000157DD010E06013225DD
:1021E000366F010E3325376F36C647F6486F060E39
:1021F0004A6F1A0E496F35C64BF6010E4C6F00013F
:10220000A4DD06010001000C060E06012F6F350E3D
:102210002E6F30C63FF61F0E406F000198DE06019C
:10222000332D2AD03451060DF35031253E6F3451F1
:10223000080DF35032253F6F31C647F632C648F6D7
:102240003EC649F64A6F010E4B6F4C6F00011CDD14
:10225000020E060131253E6F010E32253F6F3EC64C
:1022600047F6486F060E4A6F350E496F34C64BF677
:102270004C6B00016ADD060133532BE13451060D2E
:10228000F35031253E6F3451080DF35032253F6F26
:1022900031C647F632C648F63EC649F64A6F010EC9
:1022A0004B6F4C6B0001F0DC020E060131253E6FD6
:1022B000010E32253F6F3EC647F6486F060E4A6F45
:1022C000350E496F34C64BF6010E4C6F00013DDDF3
:1022D00006010001000C080E0601346F00C035F63F
:1022E0009380020E006E002EFED7938281A2FED74D
:1022F00081B0D88081A0D8900136020E006E002EE9
:10230000FED793928A92342FEBD79380020E006E01
:10231000002EFED78A903551D8A493900000938266
:1023200081A2FED7020E006E002EFED78A929392F3
:10233000020E006E002EFED78A909390000125EFCA
:1023400015F016C422F517C423F518C425F519C4D1
:1023500024F51AC426F51BC427F51EC428F51FC48E
:1023600029F51CC42AF51DC42BF523C52DF522C55E
:102370002CF524C52FF525C52EF529C531F528C521
:1023800030F52BC533F52AC532F545EF15F036C6C5
:102390003DF606013A513D1B3DAF05D0D894D8908B
:1023A00036BFD8802FD036C63DF639C63EF63551F9
:1023B0003E5F06E03DAF26D0D850010AD86E22D04D
:1023C0003AC63EF636513E5F06E03DAF1BD0D850D0
:1023D000010AD86E17D03BC63EF637513E5F06E085
:1023E0003DAF10D0D850010AD86E0CD03CC63EF696
:1023F00038513E5F06E03DAF05D0D850010AD86E97
:1024000001D0D8900001000C050111510A0823E108
:102410002DC536F62CC535F600014AEC09F0D892E8
:1024200003C03CF602C03BF601C03AF600C039F6E4
:1024300075C540F674C53FF673C53EF672C53DF6E8
:1024400014EC0AF003C091F502C090F501C08FF5BD
:1024500000C08EF505011151140822E12DC536F694
:102460002CC535F600014AEC09F0D88203C03CF6D1
:1024700002C03BF601C03AF600C039F675C540F619
:1024800074C53FF673C53EF672C53DF614EC0AF00E
:1024900003C091F502C090F501C08FF500C08EF524
:1024A00091C555F690C554F68FC553F68EC552F6B4
:1024B00091C559F690C558F68FC557F68EC556F694
:1024C00000016EEC0BF003C095F502C094F501C05D
:1024D00093F500C092F591C555F690C554F68FC599
:1024E00053F68EC552F695C559F694C558F693C560
:1024F00057F692C556F66EEC0BF003C099F502C084
:1025000098F501C097F500C096F599C555F698C5A0
:1025100054F697C553F696C552F6B1C559F6B0C5EF
:1025200058F6AFC557F6AEC556F66EEC0BF000C0C8
:1025300031F601C032F602C033F603C034F695C559
:1025400055F694C554F693C553F692C552F6B5C5E3
:1025500059F6B4C558F6B3C557F6B2C556F66EEC83
:102560000BF0D89234C63CF633C63BF632C63AF688
:1025700031C639F603C040F602C03FF601C03EF650
:1025800000C03DF614EC0AF000C031F601C032F68E
:1025900002C033F603C034F691C555F690C554F623
:1025A0008FC553F68EC552F6B9C559F6B8C558F65B
:1025B000B7C557F6B6C556F66EEC0BF0D89234C6D2
:1025C0003CF633C63BF632C63AF631C639F603C09E
:1025D00040F602C03FF601C03EF600C03DF614ECE6
:1025E0000AF000C031F601C032F602C033F603C073
:1025F00034F6D89203C03CF602C03BF601C03AF66E
:1026000000C039F6BDC540F6BCC53FF6BBC53EF6B9
:10261000BAC53DF614EC0AF003C08DF502C08CF586
:1026200001C08BF500C08AF5D8828DC53CF68CC5FB
:102630003BF68BC53AF68AC539F60A0E0601406F9D
:10264000D70E3F6F230E3E6F7B0E3D6F000114ECE3
:102650000AF003C08DF502C08CF501C08BF500C0F7
:102660008AF58DC538F68CC537F68BC536F68AC522
:1026700035F606013C6B3B6B3A6B396B000187DE2C
:1026800005E305018D6B8C6B8B6B8A6B06013051FA
:102690000501185D01E3186B1851040DF350036A2E
:1026A000BE0FE96E050E0320EA6E8AC5EFFF8BC5EB
:1026B000ECFF8CC5ECFF8DC5ECFF182B0601016B00
:1026C000006B0501FF6BFE6B196B010E0601305D9F
:1026D0000501195D01E038E21951040DF350036A58
:1026E000BE0FE96E050E0320EA6EEFCF00F0ECCFCF
:1026F00001F0ECCF02F0ECCF03F0EACF32F6E9CFF5
:1027000031F6D89201C63CF600C63BF6FFC53AF654
:10271000FEC539F603C040F602C03FF601C03EF6E2
:1027200000C03DF6000114EC0AF032C6EAFF31C6E3
:10273000E9FF03C001F602C000F601C0FFF500C0CA
:10274000FEF50501192BC1D70601366B30C635F6EB
:1027500000014AEC09F001C638F600C637F6FFC59D
:1027600036F6FEC535F603C03CF602C03BF601C0A6
:102770003AF600C039F665EC09F000C031F601C048
:1027800032F602C033F603C034F603C055F602C079
:1027900054F601C053F600C052F69DC559F69CC5CB
:1027A00058F69BC557F69AC556F66EEC0BF003C06B
:1027B00001F602C000F601C0FFF500C0FEF5FEC53F
:1027C00000F0FFC501F000C602F001C603F048EFBB
:1027D00015F00601346B336B326B316B33C536F653
:1027E00032C535F600014AEC09F003C00DF602C00F
:1027F0000CF601C00BF600C00AF60DC638F60CC682
:1028000037F60BC636F60AC635F615C63CF614C6BC
:102810003BF613C63AF612C639F665EC09F000C06D
:1028200035F601C036F602C037F603C038F6D88256
:1028300003C03CF602C03BF601C03AF600C039F6D0
:102840000601406B3F6B3E6B7F0E3D6F000114EC49
:102850000AF003C011F602C010F601C00FF600C066
:102860000EF611C638F610C637F60FC636F60EC687
:1028700035F606013C6B3B6B3A6B396B000187DD2B
:1028800005E30601116B106B0F6B0E6B010E060159
:10289000305D0501175D02E001E3176B1751040D70
:1028A000F350036ADE0FE96E050E0320EA6E11C6CF
:1028B00055F610C654F60FC653F60EC652F6D70E8E
:1028C0000601596FA30E586F576B810E566F0001AA
:1028D0006EEC0BF000C0EFFF01C0ECFF02C0ECFF9C
:1028E00003C0ECFF0501172B166B010E0601305DCE
:1028F0000501165D01E038E21651040DF350036A3C
:10290000DE0FE96E050E0320EA6EEFCF00F0ECCF8C
:1029100001F0ECCF02F0ECCF03F0EACF36F6E9CFCE
:1029200035F6D89234C63CF633C63BF632C63AF694
:1029300031C639F603C040F602C03FF601C03EF68C
:1029400000C03DF6000114EC0AF036C6EAFF35C6B9
:10295000E9FF03C034F602C033F601C032F600C00E
:1029600031F60501162BC1D70601366B30C635F698
:1029700000014AEC09F034C638F633C637F632C6E1
:1029800036F631C635F603C03CF602C03BF601C050
:102990003AF600C039F665EC09F003C034F602C01F
:1029A00033F601C032F600C031F631C600F032C64F
:1029B00001F033C602F034C603F053EF15F0040102
:1029C000386B385109085FE3A00E4A6F38C44BF4E6
:1029D0004AC430F64BC431F69380020E006E002ECE
:1029E000FED79382020E006E002EFED78A9093903F
:1029F000020E006E002EFED78A92939230C634F6F5
:102A0000000145EC0CF031C634F645EC0CF0938037
:102A1000020E006E002EFED79382020E006E002E74
:102A2000FED781A2FED78A909390020E006E002EF0
:102A3000FED78A929392010E06013025326F346FD1
:102A4000000145EC0CF0006A46D401C049F49390B3
:102A50000000938281A2FED7020E006E002EFED7E8
:102A600000D000009380020E006E002EFED7036A95
:102A700004013851160FE96E040E0320EA6E49C4B2
:102A8000EFFF382B9ED700015CD412C530F6BCD4C2
:102A900003C069F502C068F501C067F500C066F5BE
:102AA00012C530F696D603C071F502C070F501C0AC
:102AB0006FF500C06EF5000C006A016A0601315125
:102AC000D89032B100260032013232B300260032F3
:102AD000013232B500260032013232B70026003210
:102AE000013232B900260032013232BB00260032F8
:102AF000013232BD00260032013232BF00260032E0
:102B000001320001000C060134513619800B386F78
:102B100034AF05D0331F341F332BD8B4342B36AF2A
:102B200005D0351F361F352BD8B4362B335135031E
:102B3000F3CF01F0F4CF00F03603F3500026345108
:102B40003503F3500020026E38AF05D0011E021E7F
:102B5000012AD8B4022A000130EF24F08E0E006E54
:102B600031C601F030C602F0036A01AE05D0011E85
:102B7000021E022A01E1012A015209E102C001F00C
:102B8000026A080E005E015202E1006A0DD0D89080
:102B900001BE04D0023601360006F9D7060131AF76
:102BA00002D0000101D0019E00013FEF24F0060198
:102BB0005251B608526F036A53C656F6538FD890D7
:102BC0005333543355330332023201320032522F21
:102BD000F6D756AF0BD0001E011E021E031E002AA0
:102BE000D8B4012AD8B4022AD8B4032A000165EF68
:102BF00016F0006A016A026A036A06015A6B5B6B8F
:102C00005C6B5D6B59515811571156112CE0200E19
:102C10005E6FD89052375337543755375A375B3732
:102C20005C375D3759515D5D08E158515C5D05E1E8
:102C300057515B5D02E156515A5D0FE356515A5FA1
:102C40005751D8A0573D5B5F5851D8A0583D5C5FA5
:102C50005951D8A0593D5D5FD88000360136023603
:102C600003365E2FD6D7060EEA6E5A0EE96E0001C5
:102C7000000CE95006014A6F49514C6F1CE048C6F0
:102C800055F647C654F646C653F645C652F6596B36
:102C9000586B200E576F820E566F00016EEC0BF0D2
:102CA00003C048F602C047F601C046F600C045F62C
:102CB00006014C2FE4D748C655F647C654F646C61B
:102CC00053F645C652F6000172D703C048F602C05B
:102CD00047F601C046F600C045F6060148AF0DD0E4
:102CE0004A074A8B451F461F471F481F452BD8B42C
:102CF000462BD8B4472BD8B4482B3B0E516F9A0EB5
:102D0000506FCA0E4F6F4E6B0A0E4C6F4951D8B4BC
:102D10004A2B48C655F647C654F646C653F645C62E
:102D200052F651C659F650C658F64FC657F64EC61B
:102D300056F600015EDF0150EFCF45F6ECCF46F6C8
:102D4000ECCF47F6ECCF48F6005213E106014929D3
:102D50004C5DD8A402D000010CD04A510DE00F0BFD
:102D60004C5D01E044E24ABF42D04ABD05D0200E8E
:102D700037D0200E06014A174AAB0FD04A9B495163
:102D8000D8A44A0700504A6F2D0E526F000197ECED
:102D90000FF006014A51006E4A6B49514C5D0DE13E
:102DA00000504A6F2E0E526F000197EC0FF0060193
:102DB0004A51006E200E4A17000E300E4AAB10D05A
:102DC0004A9B4951D8A44A0700504A6F2D0E526FB2
:102DD000000197EC0FF006014A51006E4A6B300E6D
:102DE000002600C052F6000197EC0FF0060151C614
:102DF00055F650C654F64FC653F64EC652F6596BAA
:102E0000586B576B0A0E566F0001F3DE03C051F684
:102E100002C050F601C04FF600C04EF606014C2F1E
:102E200078D7000127EF17F0060E06012F6F3C0E32
:102E30002E6F890EE96E37C648F636C647F635C698
:102E400046F634C645F6020E496F000112D7060158
:102E50003A2D2CD03B51300DF3503825456F3B5166
:102E6000080DF3503925466F38C647F639C648F67F
:102E700045C649F64A6F010E4B6F4C6F000144EC9A
:102E80000EF0020E06013825456F010E3925466FFA
:102E900045C647F6486F060E4A6F3C0E496F3BC663
:102EA0004BF64C6B0001A5EC0EF006013A532DE1F8
:102EB0003B51300DF3503825456F3B51080DF35011
:102EC0003925466F38C647F639C648F645C649F62D
:102ED0004A6F010E4B6F4C6B000144EC0EF0020E7A
:102EE00006013825456F010E3925466F45C647F660
:102EF000486F060E4A6F3C0E496F3BC64BF6010EFB
:102F00004C6F0001A5EC0EF006010001000C06015B
:102F100034513603F3CF01F0F4CF00F03703F35010
:102F2000002635513603F3500020026E0001000CDC
:102F300006013051030851E1316B31513F084DE337
:102F4000326B32510F0847E3070E336F3351800A5B
:102F50007F083FE2356B31C634F6376B100E366FA3
:102F60000001D5DF02C035F601C034F6060132514A
:102F70000124016E000E0220036E0150F2CF34F6E0
:102F8000F29E03C0F7FF000153EC01F0060134BFCD
:102F9000F28E346F070ED8803355356F34C600F08B
:102FA0003551016E04E0D8900032012EFCD700A00C
:102FB0000ED03251080DF3503325346F626F31C695
:102FC00063F6010E646F000147EC0DF00601330754
:102FD000BDD7322BB6D7312BB0D73051040851E1D1
:102FE000316B31513F084DE3326B32510F0847E3EB
:102FF000070E336F3351800A7F083FE2356B31C6CD
:1030000034F6376B100E366F000181DF02C035F6E3
:1030100001C034F6060132510124016E000E022077
:10302000036E0150F2CF34F6F29E03C0F7FF0001A9
:103030005FEC03F0060134BFF28E346F070ED880C8
:103040003355356F34C600F03551016E04E0D89029
:103050000032012EFCD700A00ED03251080DF350E3
:103060003325346F626F31C663F6010E646F000161
:1030700047EC0DF006013307BDD7322BB6D7312B05
:10308000B0D73051050851E1316B31513F084DE364
:10309000326B32510F0847E3070E336F3351800A0A
:1030A0007F083FE2356B31C634F6376B100E366F52
:1030B00000012DDF02C035F601C034F606013251A1
:1030C0000124016E000E0220036E0150F2CF34F68F
:1030D000F29E03C0F7FF00016BEC05F0060134BF60
:1030E000F28E346F070ED8803355356F34C600F03A
:1030F0003551016E04E0D8900032012EFCD700A0BB
:103100000ED03251080DF3503325346F626F31C643
:1031100063F6010E646F000147EC0DF00601330702
:10312000BDD7322BB6D7312BB0D70001000C93940A
:103130008A84939E8A9E93968A9693988A98939A65
:103140008A9A0601386BC00E396F0001CBEC0CF087
:10315000010E0601386FC00E396F0001CBEC0CF088
:103160000601386B400E396F0001CBEC0CF0010EFC
:103170000601386F400E396F0001CBEC0CF00601F0
:10318000386BB80E396F0001CBEC0CF0010E060164
:10319000386FB80E396F0001CBEC0CF00601302D02
:1031A00010D0386B3F0E396F0001CBEC0CF0010EE4
:1031B0000601386F3F0E396F0001CBEC0CF00FD0D9
:1031C0000601386B3E0E396F0001CBEC0CF0010E9E
:1031D0000601386F3E0E396F0001CBEC0CF0060192
:1031E000316B000171EC10F0EBEC0CF0000CF86AA4
:1031F000D09E078EEA6AE96A0401376B366B386B3A
:10320000496B4A6B4B6B4C914C934C954C974C993A
:103210004C9B4C9D4C9F4D914D934D954D974D9989
:103220004D9B4D9D4D9F4E914E934E954E974E9971
:103230004E9B4E9D4E9FC80E05010D6F010E0E6FE9
:103240000F6F106B0A0E116F050E126F136B146B5C
:10325000156B166B176B186B196B1A6B1B6B0A0EC1
:103260001C6F1D6F1E6F1F6F206F216B226B236BF6
:10327000246B256B266B276B286B296B2A6B2B6BBA
:103280002D6B2C6B2F6B2E6B316B306B336B326B6A
:10329000356B346B376B366B396B386B3B6B3A6B1A
:1032A0003D6B3C6B696B686B676B666B6D6B6C6BD6
:1032B0006B6B6A6B716B706B6F6B6E6B756B746B3A
:1032C000736B726B796B786B776B766B7D6B7C6BEA
:1032D0007B6B7A6B816B806B7F6B7E6B856B846B9A
:1032E000836B826B896B886B876B866B8D6B8C6B4A
:1032F0008B6B8A6B916B906B8F6B8E6B956B946BFA
:10330000936B926B996B986B976B966B9D6B9C6BA9
:103310009B6B9A6BA16BA06B9F6B9E6BA56BA46B59
:10332000A36BA26BA96BA86BA76BA66BAD6BAC6B09
:10333000AB6BAA6B190EB16F530EB06F180EAF6F57
:10334000680EAE6FE90EB56FBD0EB46FC60EB36FEB
:10335000710EB26FBE0EB96F960EB86F240EB76FB6
:103360007A0EB66FF30EBD6F5A0EBC6FAB0EBB6F0D
:10337000810EBA6F0601016B006B0501FF6BFE6BDE
:103380000601056B046B4B0E036F860E026F096B13
:10339000086B076B066B0D6B0C6B0B6B0A6B116B81
:1033A000106B0F6B0E6B156B146B136B800E126F23
:1033B000196B186B176B166BC150C00B0F09C16EE0
:1033C000070EB46E4A0E04014F6F500E506F200E60
:1033D000516F490E526F6E0E536F670E546F6C0E25
:1033E000556F6F0E566F620E576F610E586F6C0EF1
:1033F000596F5A6B430E5B6F610E5C6F620E5D6FAF
:10340000690E5E6F6E0E5F6F610E606F200E616FF2
:10341000460E626F6C0E636F750E646F6A0E656F99
:103420006F0E666F200E676F4C0E686F610E696FCE
:103430006D0E6A6F690E6B6F6E0E6C6F610E6D6F45
:10344000720E6E6F6F6B540E706F200E716F650E83
:10345000726F730E736F740E746F3D0E756F766BB3
:103460003A0E776F786B480E796F6F0E7A6F720E27
:103470007B6F690E7C6F7A0E7D6F6F0E7E6F6E0EA6
:103480007F6F740E806F610E816F6C0E826F836B25
:10349000540E846F690E856F650E866F6D0E876F93
:1034A000700E886F6F0E896F200E8A6F640E8B6F9F
:1034B000650E8C6F200E8D6F500E8E6F750E8F6F98
:1034C000720E906F670E916F610E926F936B550E37
:1034D000946F560E956F966B210E976F986F550EE1
:1034E000996F620E9A6F690E9B6F710E9C6F750ECD
:1034F0009D6F650E9E6F200E9F6F560EA06F690E1A
:10350000A16F640EA26F720EA36F690EA46F6F0E8F
:10351000A56F210EA66FA76FA86B4A0EA96F500E5C
:10352000AA6F200EAB6F430EAC6F460EAD6F4C0E04
:10353000AE6F480EAF6F310EB06F380EB16F300EF8
:10354000B26FB36B440EB46F6E0EB56F660EB66F8E
:103550006C0EB76F6F0EB86F770EB96F280EBA6F1B
:103560006D0EBB6F2F0EBC6F730EBD6F290EBE6F3D
:103570003A0EBF6FC06B460EC16F610EC26F620E16
:10358000C36F720EC46F690EC56F630EC66F610E96
:10359000C76F3A0EC86F320EC96F300ECA6F330E46
:1035A000CB6F2E0ECC6F300ECD6FCE6B410ECF6F2A
:1035B000630ED06F740ED16F750ED26F610ED36F24
:1035C0006C0ED46F3A0ED56FD66B410ED76F6A0E64
:1035D000D86F750ED96F730EDA6F740EDB6F650ED0
:1035E000DC6F3A0EDD6FDE6B550EDF6F560EE06F4F
:1035F0004C0EE16F690EE26F660EE36F650EE46FCD
:103600003A0EE56FE66B460EE76F690EE86F6C0EDB
:10361000E96F740EEA6F650EEB6F720EEC6F3A0E87
:10362000ED6FEE6B460EEF6F610EF06F620EF16F95
:10363000720EF26F690EF36F630EF46F610EF56F29
:103640003A0EF66F320EF76F330EF86F350EF96FD4
:103650002E0EFA6F300EFB6FFC6B210EFD6F500EBD
:10366000FE6F650EFF6F720E0501006F640E016F35
:10367000690E026F640E036F610E046F200E056FFA
:10368000460E066F6C0E076F750E086F6A0E096F97
:103690006F0E0A6F210E0B6F0C6B3E6B3F6B406B16
:1036A000416B090E426F436B446B456B466B476B36
:1036B000486B496B4A6F4B6B4C6B4D6B4E6B4F6B52
:1036C000506B516B526B536B546B556B566B576B06
:1036D000586B596B5A6B5B6B5C6B5D6B5E6B5F6BB6
:1036E000606B616B626B636B646B656BBE6BBF6BB6
:1036F000C06BC16BC26BC36BC46BC56BC66BC76B56
:10370000C86BC96BCA6BCB6BCC6BCD6BCE6BCF6B05
:10371000D06BD16BD26BD36BD46BD56BD66BD76BB5
:10372000D86BD96BDA6BDB6BDC6BDD6BDE6BDF6B65
:10373000E06BE16BE26BE36BE46BE56BE66BE76B15
:10374000E86BE96BEA6BEB6BEC6BED6BEE6BEF6BC5
:10375000F06BF16BF26BF36BF46BF56BF66BF76B75
:10376000F86BF96BFA6BFB6BFC6BFD6B06012E6B58
:103770002F6B04014B6B4B510F080AE3036A4B514B
:10378000390FE96E040E0320EA6EEF6A4B2BF3D774
:10379000850ECD6E9D80C00EF212F2CF30F6F29EF5
:1037A000A96AA69CA69EA680A850060130BFF28EEC
:1037B0000501626F0A0E0601316F000135EC09F058
:1037C000F2CF30F6F29E010EA96EA69CA69EA680B0
:1037D000A850060130BFF28E0501636F0A0E060184
:1037E000316F000135EC09F0F2CF30F6F29E020E97
:1037F000A96EA69CA69EA680A850060130BFF28E98
:103800000501646F0A0E0601316F000135EC09F005
:10381000F2CF30F6F29E030EA96EA69CA69EA6805D
:10382000A850060130BFF28E0501656F0A0E060131
:10383000316F000135EC09F0F2CF30F6F29E040E44
:10384000A96EA69CA69EA680A850060130BFF28E47
:103850000501426F0A0E0601316F000135EC09F0D7
:10386000F2CF30F6F29E050EA96EA69CA69EA6800B
:10387000A850060130BFF28E0501436F0A0E060103
:10388000316F000135EC09F0F2CF30F6F29E060EF2
:10389000A96EA69CA69EA680A850060130BFF28EF7
:1038A0000501446F0A0E0601316F000135EC09F085
:1038B000F2CF30F6F29E070EA96EA69CA69EA680B9
:1038C000A850060130BFF28E0501456F0A0E0601B1
:1038D000316F000135EC09F0F2CF30F6F29E080EA0
:1038E000A96EA69CA69EA680A850060130BFF28EA7
:1038F00005014A6F0A0E0601316F000135EC09F02F
:10390000F2CF30F6F29E090EA96EA69CA69EA68066
:10391000A850060130BFF28E05014B6F0A0E06015A
:10392000316F000135EC09F0F2CF30F6F29E0A0E4D
:10393000A96EA69CA69EA680A850060130BFF28E56
:1039400005014C6F0A0E0601316F000135EC09F0DC
:10395000F2CF30F6F29E0B0EA96EA69CA69EA68014
:10396000A850060130BFF28E05014D6F0A0E060108
:10397000316F000135EC09F0F2CF30F6F29E0C0EFB
:10398000A96EA69CA69EA680A850060130BFF28E06
:1039900005014E6F0A0E0601316F000135EC09F08A
:1039A000F2CF30F6F29E0D0EA96EA69CA69EA680C2
:1039B000A850060130BFF28E05014F6F0A0E0601B6
:1039C000316F000135EC09F0F2CF30F6F29E0E0EA9
:1039D000A96EA69CA69EA680A850060130BFF28EB6
:1039E0000501506F0A0E0601316F000135EC09F038
:1039F000F2CF30F6F29E0F0EA96EA69CA69EA68070
:103A0000A850060130BFF28E0501516F0A0E060163
:103A1000316F000135EC09F0F2CF30F6F29E100E56
:103A2000A96EA69CA69EA680A850060130BFF28E65
:103A300005015A6F0A0E0601316F000135EC09F0DD
:103A4000F2CF30F6F29E110EA96EA69CA69EA6801D
:103A5000A850060130BFF28E05015B6F0A0E060109
:103A6000316F000135EC09F0F2CF30F6F29E120E04
:103A7000A96EA69CA69EA680A850060130BFF28E15
:103A800005015C6F0A0E0601316F000135EC09F08B
:103A9000F2CF30F6F29E130EA96EA69CA69EA680CB
:103AA000A850060130BFF28E05015D6F0A0E0601B7
:103AB000316F000135EC09F0F2CF30F6F29E140EB2
:103AC000A96EA69CA69EA680A850060130BFF28EC5
:103AD000016E04014D9901B04D890A0E0601316F46
:103AE000000135EC09F0F2CF30F6F29E150EA96E0A
:103AF000A69CA69EA680A850060130BFF28E0501A6
:103B0000566F0A0E0601316F000135EC09F0F2CF55
:103B100030F6F29E160EA96EA69CA69EA680A85010
:103B2000060130BFF28E0501576F0A0E0601316F94
:103B3000000135EC09F0F2CF30F6F29E170EA96EB7
:103B4000A69CA69EA680A850060130BFF28E050155
:103B5000586F0A0E0601316F000135EC09F0F2CF03
:103B600030F6F29E180EA96EA69CA69EA680A850BE
:103B7000060130BFF28E0501596FF2CF30F6F29E8A
:103B8000190EA96EA69CA69EA680A850060130BF5D
:103B9000F28E05011A6F0A0E0601316F000135EC35
:103BA00009F0F2CF30F6F29E1A0EA96EA69CA69EE0
:103BB000A680A850060130BFF28E366B356F00012B
:103BC0004AEC09F003C0A9F502C0A8F501C0A7F5A9
:103BD00000C0A6F50A0E0601316F000135EC09F0B0
:103BE000A9C538F6A8C537F6A7C536F6A6C535F671
:103BF00006013C6B3B6B480E3A6F850E396F000136
:103C000065EC09F003C0A9F502C0A8F501C0A7F54D
:103C100000C0A6F50601366B1AC535F600014AEC60
:103C200009F0D89203C03CF602C03BF601C03AF658
:103C300000C039F6A9C540F6A8C53FF6A7C53EF6AF
:103C4000A6C53DF614EC0AF003C09DF502C09CF534
:103C500001C09BF500C09AF5F2CF30F6F29E1B0E24
:103C6000A96EA69CA69EA680A850060130BFF28E23
:103C700005011A6F0A0E0601316F000135EC09F0DB
:103C8000F2CF30F6F29E1C0EA96EA69CA69EA680D0
:103C9000A850060130BFF28E366B356F00014AEC3A
:103CA00009F003C0A9F502C0A8F501C0A7F500C03E
:103CB000A6F50A0E0601316F000135EC09F0A9C521
:103CC00038F6A8C537F6A7C536F6A6C535F60601F7
:103CD0003C6B3B6B480E3A6F850E396F000165EC0B
:103CE00009F003C0A9F502C0A8F501C0A7F500C0FE
:103CF000A6F50601366B1AC535F600014AEC09F047
:103D0000D89203C03CF602C03BF601C03AF600C0B0
:103D100039F6A9C540F6A8C53FF6A7C53EF6A6C523
:103D20003DF614EC0AF003C0A1F502C0A0F501C0F5
:103D30009FF500C09EF5F2CF30F6F29E1D0EA96EE3
:103D4000A69CA69EA680A850060130BFF28E050153
:103D50001A6F0A0E0601316F000135EC09F0F2CF3F
:103D600030F6F29E1E0EA96EA69CA69EA680A850B6
:103D7000060130BFF28E366B356F00014AEC09F058
:103D800003C0A9F502C0A8F501C0A7F500C0A6F5BB
:103D90000A0E0601316F000135EC09F0A9C538F6AD
:103DA000A8C537F6A7C536F6A6C535F606013C6B9D
:103DB0003B6B480E3A6F850E396F000165EC09F0D8
:103DC00003C0A9F502C0A8F501C0A7F500C0A6F57B
:103DD0000601366B1AC535F600014AEC09F003C03E
:103DE00009F602C008F601C007F600C006F6F2CFD9
:103DF00030F6F29E3D0EA96EA69CA69EA680A85007
:103E0000060130BFF28E316FF2CF32F6F29E3C0ED9
:103E1000A96EA69CA69EA680A85032BFF28E336FD4
:103E200031C603F03351356F03C036F600014AEC5A
:103E300009F003C075F502C074F501C073F500C048
:103E400072F50A0E0601316F000135EC09F0F2CF70
:103E500030F6F29E3F0EA96EA69CA69EA680A850A4
:103E6000060130BFF28E316FF2CF32F6F29E3E0E77
:103E7000A96EA69CA69EA680A85032BFF28E336F74
:103E800031C603F03351356F03C036F600014AECFA
:103E900009F003C015F602C014F601C013F600C005
:103EA00012F60A0E0601316F000135EC09F0F2CF6F
:103EB00030F6F29E320EA96EA69CA69EA680A85051
:103EC000060130BFF28E0501116F0001ADEC0CF060
:103ED000EBEC0CF005013B510D0823E2FF0A03E176
:103EE0003A510F081EE23B6B3A6B5A2B5ABF05D072
:103EF0005A51090802E25A6B5B2B5BBF05D05B513C
:103F0000090802E25B6B5C2B5CBF05D05C510908C1
:103F100002E25C6B5D2B5DBF04D05D51090801E2DC
:103F20005D6B0D51020802E00A0E1F6F0D53D8A4FD
:103F300071D30601476B486B7F0E496F190E4A6FAC
:103F4000010E4B6F4C6F000144EC0EF0060EEA6E52
:103F50001A0EE96EF2CF30F6F29E000E77EC07F003
:103F60000A000900F550EE6E0009FBE1060130BFC2
:103F7000F28E190E476F010E486F060E4A6F1A0E29
:103F8000496F030E4B6F4C6B0001A5EC0EF0040162
:103F90004E87928080A072D04E970501376B366BAA
:103FA00004014CB16AD04C811E0E0601316F000134
:103FB00035EC09F0010E0401386F385104085DE357
:103FC000385105010E5D3CE1010E0401385D036AC4
:103FD0005E0FE96E050E0320EA6EEF2A010E385DD2
:103FE000036A5E0FE96E050E0320EA6EEFBE0CD089
:103FF000EF50090809E2010E385D036A5E0FE96EB1
:10400000050E0320EA6EEF6A010E385D036A5E0F4B
:10401000E96E050E0320EA6EEFCF30F63851140D2D
:10402000F3CF31F6060130C632F631C633F61E0E36
:10403000346F010E356F000116EC10F01BD0050136
:10404000010E0401385D036A5E0FE96E050E032060
:10405000EA6EEFCF30F63851140DF3CF31F606018A
:1040600030C632F631C633F61E0E346F356B0001A2
:1040700016EC10F00401382BA0D701D04C9192829D
:1040800080A271D04E970501376B366B04014CB599
:1040900069D04C851E0E0601316F000135EC09F028
:1040A000010E0401386F385104085CE338510501F2
:1040B0000E5D3BE1010E0401385D036A5E0FE96E9F
:1040C000050E0320EA6EEF06010E385D036A5E0FEF
:1040D000E96E050E0320EA6EEFBE01D00AD0010E94
:1040E000385D036A5E0FE96E050E0320EA6E090E65
:1040F000EF6E010E385D036A5E0FE96E050E032058
:10410000EA6EEFCF30F63851140DF3CF31F60601D9
:1041100030C632F631C633F61E0E346F010E356FDF
:10412000000116EC10F01BD00501010E0401385DF2
:10413000036A5E0FE96E050E0320EA6EEFCF30F6DC
:104140003851140DF3CF31F6060130C632F631C6C0
:1041500033F61E0E346F356B000116EC10F00401BF
:10416000382BA1D701D04C95928480A455D04E977E
:104170000501376B366B04014CB34DD04C831E0EDA
:104180000601316F000135EC09F005010E2B010E1F
:104190000401386F385104083EE3385105010E5DC3
:1041A0001DE1010E0401385D036A5E0FE96E050E24
:1041B0000320EA6EEFCF30F63851140DF3CF31F60D
:1041C000060130C632F631C633F61E0E346F010ECC
:1041D000356F000116EC10F01BD00501010E040133
:1041E000385D036A5E0FE96E050E0320EA6EEFCFBD
:1041F00030F63851140DF3CF31F6060130C632F6E1
:1042000031C633F61E0E346F356B000116EC10F01C
:104210000401382BBFD701D04C9305010E5104087F
:10422000D8B0F8D10601316B000171EC10F0040E2A
:1042300005010E6F04014E970501376B366B5E5119
:10424000030872E15F5108086FE1605109086CE1F1
:104250006151020869E1A96AA86AA69CA69EA68483
:10426000F250006EF29E0F01550EA76EAA0EA76EB9
:10427000A682A6B2FED7A6940050F212140E060132
:10428000316F000135EC09F0010EA96EA86AA69CF9
:10429000A69EA684F250006EF29E0F01550EA76EE8
:1042A000AA0EA76EA682A6B2FED7A6940050F2125E
:1042B000140E0601316F000135EC09F0020EA96EF3
:1042C000A86AA69CA69EA684F250006EF29E0F01DC
:1042D000550EA76EAA0EA76EA682A6B2FED7A6940A
:1042E0000050F212140E0601316F000135EC09F096
:1042F000030EA96EA86AA69CA69EA684F250006E24
:10430000F29E0F01550EA76EAA0EA76EA682A6B248
:10431000FED7A6940050F212140E0601316F000170
:1043200035EC09F0FF00050162515E5DD8A4B5D0FF
:1043300063515F5DD8A4B1D06451605DD8A4ADD0A5
:104340006551615DD8A4A9D00601316B000171EC03
:1043500010F0060EEA6E1A0EE96EF2CF30F6F29EFB
:10436000000E77EC07F00A000900F550EE6E000928
:10437000FBE1060130BFF28E060E316F1A0E306F70
:104380001E0E326F336B346B020E356F00019EECE4
:1043900010F0060EEA6E1A0EE96EF2CF30F6F29EBB
:1043A000000E87EC07F00A000900F550EE6E0009D8
:1043B000FBE1060130BFF28E060E316F1A0E306F30
:1043C0000F0E326F1E0E336F346B020E356F00010D
:1043D0009EEC10F0010E05010D6F0001EBEC0CF0EE
:1043E000040E0601306FFA0E316F000135EC09F052
:1043F0000601302FF8D7316B000171EC10F0050188
:104400005E6B5F6B606B616B41C530F6140E06012D
:10441000316F326F336B020E346F000104EC11F018
:1044200040C530F6280E0601316F140E326F336B23
:10443000020E346F000104EC11F03C0E0601476FD0
:10444000160E486F040E4A6F770E496F020E4B6FBF
:10445000010E4C6F0001A5EC0EF03FC530F6460E84
:104460000601316F140E326F336B020E346F000190
:1044700004EC11F03EC530F65A0E0601316F140EF1
:10448000326F336B020E346F000104EC11F0C00E7A
:10449000F21204014D8DBDD005010601316B000102
:1044A00071EC10F0060EEA6E1A0EE96EF2CF30F6DD
:1044B000F29E000E77EC07F00A000900F550EE6E50
:1044C0000009FBE1060130BFF28E060E316F1A0EB5
:1044D000306F1E0E326F336B346B020E356F00017E
:1044E0009EEC10F0060EEA6E1A0EE96EF2CF30F670
:1044F000F29E000E99EC07F00A000900F550EE6EEE
:104500000009FBE1060130BFF28E060E316F1A0E74
:10451000306F326B1E0E336F346B020E356F00013D
:104520009EEC10F0010E05010E6F0001EBEC0CF09B
:10453000040E0601306FFA0E316F000135EC09F000
:104540000601302FF8D705015E6B5F6B606B616B06
:104550000601316B000171EC10F00601476B486BEE
:104560007F0E496F190E4A6F010E4B6F4C6F0001A1
:1045700044EC0EF0060EEA6E1A0EE96EF2CF30F63B
:10458000F29E000E77EC07F00A000900F550EE6E7F
:104590000009FBE1060130BFF28E190E476F010ED4
:1045A000486F060E4A6F1A0E496F030E4B6F4C6B25
:1045B0000001A5EC0EF05EC532F6140E0601336F55
:1045C0001E0E346F010E356F000116EC10F05FC542
:1045D00032F6280E0601336F1E0E346F356B000164
:1045E00016EC10F060C532F63C0E0601336F1E0E5D
:1045F000346F356B000116EC10F05EC532F6500ECC
:104600000601336F1E0E346F356B000116EC10F08F
:10461000040105010D2DBAD00F0E0601476F010EE2
:10462000486F040E4A6F840E496F010E4B6F4C6F3A
:104630000001A5EC0EF0DFEC14F004014D8D0A0E24
:1046400005011C6F1D6F050E206F0A0E1F6F050EF2
:104650001E6F090E0601476F360E486F780E496FC0
:10466000400E4A6F010E4B6F4C6B000144EC0EF094
:1046700041C530F6140E0601316F326F336B020EF6
:10468000346F000104EC11F040C530F6280E06012D
:10469000316F140E326F336B020E346F000104EC75
:1046A00011F03C0E0601476F160E486F040E4A6F5C
:1046B000770E496F020E4B6F010E4C6F0001A5EC97
:1046C0000EF03FC530F6460E0601316F140E326F04
:1046D000336B020E346F000104EC11F03EC530F66E
:1046E0005A0E0601316F140E326F336B020E346FA7
:1046F000000104EC11F0928480A418D0040E06018D
:10470000306FFA0E316F000135EC09F00601302FE1
:10471000F8D7928480A40BD004014D9D020E0501B0
:104720000D6F0601316B000171EC10F006010501FF
:104730004251800A006E3E51800A005C01E026E290
:104740004351800A006E3F51800A005C01E01EE286
:104750004451800A006E4051800A005C01E016E27C
:104760004551800A006E4151800A005C01E00EE272
:1047700004014D9D020E05010D6F0601316B000114
:1047800071EC10F004014D774D8305010D510208C5
:10479000D8A424EF29F004014D9B0601476B010EBC
:1047A000486F040E4A6FA90E496F010E4B6F4C6F94
:1047B0000001A5EC0EF00601476B0F0E486F040ECA
:1047C0004A6FB40E496F010E4B6F4C6F0001A5ECA0
:1047D0000EF00601476B1D0E486F040E4A6FE70E80
:1047E000496F010E4B6F4C6F0001A5EC0EF00601F6
:1047F000476B2B0E486F040E4A6FDF0E496F010E98
:104800004B6F4C6F0001A5EC0EF04FC531F60A0E50
:104810000601326F00015CEC15F0015005014E25D8
:104820000601306F50C531F6640E326F00015CEC4A
:1048300015F0015006013027036A05015151006E41
:10484000E8BE03060601316F03C032F603C034F63A
:10485000336F030E366FE80E356F000183EF15F0EE
:1048600002C003F0015006013025016E000E032244
:1048700001C030F603C031F60001AEEF15F003C001
:1048800019F602C018F601C017F600C016F60401AA
:104890004CAF20D00001DFEC14F069C56DF568C5A0
:1048A0006CF567C56BF566C56AF56DC537F66CC501
:1048B00036F66BC535F66AC534F6460E0601386F16
:1048C0000F0E396F3A6B010E3B6F000114EC17F0BD
:1048D00004014C9F4DA377D0050E0601306F0001F7
:1048E00098EC17F004014E81050E05011E6F206F34
:1048F00004014EAB67D04E9B1E0EA96E3AC5A8FFB1
:10490000A69CA69EA684F250006EF29E0F01550E44
:10491000A76EAA0EA76EA682A6B2FED7A6940050D6
:10492000F212100EA96E5AC5A8FFA69CA69EA684D8
:10493000F2CF00F0F29E550EA76EAA0EA76EA682C9
:10494000A6B2FED7A6940050F212110EA96E5BC556
:10495000A8FFA69CA69EA684F2CF00F0F29E550E5C
:10496000A76EAA0EA76EA682A6B2FED7A694005086
:10497000F212120EA96E5CC5A8FFA69CA69EA68484
:10498000F2CF00F0F29E550EA76EAA0EA76EA68279
:10499000A6B2FED7A6940050F212130EA96E5DC502
:1049A000A8FFA69CA69EA684F2CF00F0F29E550E0C
:1049B000A76EAA0EA76EA682A6B2FED7A694005036
:1049C000F212040184D00501716B706B6F6B6E6B1A
:1049D000660E0601476F2D0E486F7F0E496F400E21
:1049E0004A6F010E4B6F4C6B000144EC0EF004015A
:1049F0004E910A0E05011E6F206F04014EBB67D059
:104A00004E8B1E0EA96E3AC5A8FFA69CA69EA68434
:104A1000F250006EF29E0F01550EA76EAA0EA76E01
:104A2000A682A6B2FED7A6940050F212100EA96E6E
:104A30005AC5A8FFA69CA69EA684F2CF00F0F29EBF
:104A4000550EA76EAA0EA76EA682A6B2FED7A69492
:104A50000050F212110EA96E5BC5A8FFA69CA69E7F
:104A6000A684F2CF00F0F29E550EA76EAA0EA76E96
:104A7000A682A6B2FED7A6940050F212120EA96E1C
:104A80005CC5A8FFA69CA69EA684F2CF00F0F29E6D
:104A9000550EA76EAA0EA76EA682A6B2FED7A69442
:104AA0000050F212130EA96E5DC5A8FFA69CA69E2B
:104AB000A684F2CF00F0F29E550EA76EAA0EA76E46
:104AC000A682A6B2FED7A6940050F212040171C5C8
:104AD00038F670C537F66FC536F66EC535F6060181
:104AE0003C6B3B6B3A6B800E396F000165EC09F053
:104AF0000601556B546B480E536F850E526F03C001
:104B000059F602C058F601C057F600C056F600012B
:104B10006EEC0BF003C079F502C078F501C077F5B3
:104B200000C076F50601386B376B480E366F850E80
:104B3000356F79C53CF678C53BF677C53AF676C54C
:104B400039F60001C7EC11F007E30501796B786BCA
:104B5000480E776F850E766F79C538F678C537F6CB
:104B600077C536F676C535F606013C6B3B6B3A6B7E
:104B7000800E396F000165EC09F003C079F502C0C1
:104B800078F501C077F500C076F57DC533F67CC5B4
:104B900032F67BC531F67AC530F650EC0BF02A0EB2
:104BA00001240601306F2A0E476F1C0E486F30C675
:104BB00049F6230E4A6F010E4B6F4C6B000144EC1B
:104BC0000EF079C533F678C532F677C531F676C57D
:104BD00030F650EC0BF02A0E01240601306F2A0E3D
:104BE000476F1C0E486F30C649F6230E4A6F010E00
:104BF0004B6F4C6F000144EC0EF0280E0601476F1E
:104C00001A0E486F5E0E496F250E4A6F4B6B010EF0
:104C10004C6F000144EC0EF079C57DF578C57CF54C
:104C200077C57BF576C57AF519C638F618C637F616
:104C300017C636F616C635F606013C6B3B6B7A0E88
:104C40003A6F880E396F000165EC09F00601556B6B
:104C5000546B480E536F850E526F03C059F602C055
:104C600058F601C057F600C056F600016EEC0BF086
:104C700003C081F502C080F501C07FF500C07EF55C
:104C80000601386B376B480E366F850E356F81C560
:104C90003CF680C53BF67FC53AF67EC539F6000185
:104CA000C7EC11F007E30501816B806B480E7F6F45
:104CB000850E7E6F81C538F680C537F67FC536F61E
:104CC0007EC535F606013C6B3B6B3A6B800E396F47
:104CD000000165EC09F003C081F502C080F501C058
:104CE0007FF500C07EF585C533F684C532F683C5F1
:104CF00031F682C530F650EC0BF02A0E0124060185
:104D0000306F2A0E476F486F30C649F6310E4A6F32
:104D1000010E4B6F4C6B000144EC0EF081C533F675
:104D200080C532F67FC531F67EC530F650EC0BF00B
:104D30002A0E01240601306F2A0E476F486F30C6D5
:104D400049F6310E4A6F010E4B6F4C6F000144EC77
:104D50000EF0280E0601476F486F5E0E496F330E46
:104D60004A6F4B6B010E4C6F000144EC0EF081C595
:104D700085F580C584F57FC583F57EC582F56DC553
:104D800038F66CC537F66BC536F66AC535F6EC0EE7
:104D900006013C6F510E3B6F380E3A6F7D0E396F36
:104DA0000001C7EC11F020E304014E874EA51AD094
:104DB0006DC538F66CC537F66BC536F66AC535F67F
:104DC000EC0E06013C6F510E3B6F380E3A6F7D0EB4
:104DD000396F0001C7EC11F004E3050E05011F6FE8
:104DE000000104011AD0000104014E950501376B42
:104DF000366B04014E970601476B360E486F680EFE
:104E0000496F400E4A6F010E4B6F4C6B000144EC32
:104E10000EF00A0E05011F6F04014DA70BD0030E03
:104E20000601306F000198EC17F0050E05011C6FAC
:104E300013D00401660E0601476F0E0E486F7F0EF9
:104E4000496F1C0E4A6F010E4B6F4C6B000144EC16
:104E50000EF00A0E05011C6F21510A08D8A488D053
:104E600004014D970A0E05011C6F206F1E6F04018F
:104E70004D934D8F050E05011D6F690E0601476F9D
:104E8000486B040E4A6F940E496F020E4B6F010E71
:104E90004C6F0001A5EC0EF004014EA967D04E99AD
:104EA0001F0EA96E38C5A8FFA69CA69EA684F25028
:104EB000006EF29E0F01550EA76EAA0EA76EA68277
:104EC000A6B2FED7A6940050F2120C0EA96E4EC5E3
:104ED000A8FFA69CA69EA684F2CF00F0F29E550ED7
:104EE000A76EAA0EA76EA682A6B2FED7A694005001
:104EF000F2120D0EA96E4FC5A8FFA69CA69EA68411
:104F0000F2CF00F0F29E550EA76EAA0EA76EA682F3
:104F1000A6B2FED7A6940050F2120E0EA96E50C58E
:104F2000A8FFA69CA69EA684F2CF00F0F29E550E86
:104F3000A76EAA0EA76EA682A6B2FED7A6940050B0
:104F4000F2120F0EA96E51C5A8FFA69CA69EA684BC
:104F5000F2CF00F0F29E550EA76EAA0EA76EA682A3
:104F6000A6B2FED7A6940050F21204017DD005012E
:104F70000A0E1D6F04014D9F660E0601476F486BB8
:104F80007F0E496F0E0E4A6F010E4B6F4C6B000186
:104F900044EC0EF004014EB967D04E891F0EA96E85
:104FA00038C5A8FFA69CA69EA684F250006EF29E6D
:104FB0000F01550EA76EAA0EA76EA682A6B2FED747
:104FC000A6940050F2120C0EA96E4EC5A8FFA69C26
:104FD000A69EA684F2CF00F0F29E550EA76EAA0EF2
:104FE000A76EA682A6B2FED7A6940050F2120D0EAE
:104FF000A96E4FC5A8FFA69CA69EA684F2CF00F07E
:10500000F29E550EA76EAA0EA76EA682A6B2FED776
:10501000A6940050F2120E0EA96E50C5A8FFA69CD1
:10502000A69EA684F2CF00F0F29E550EA76EAA0EA1
:10503000A76EA682A6B2FED7A6940050F2120F0E5B
:10504000A96E51C5A8FFA69CA69EA684F2CF00F02B
:10505000F29E550EA76EAA0EA76EA682A6B2FED726
:10506000A6940050F212040105011F5105081EE12B
:105070000601476B370E486F640E496F3F0E4A6F4B
:10508000010E4B6F4C6B000144EC0EF00601476BB8
:10509000370E486F040E4A6FFD0E496F010E4B6FBD
:1050A0004C6F0001A5EC0EF00FD005010601476B17
:1050B000370E486F640E496F3F0E4A6F010E4B6FFB
:1050C0004C6B000144EC0EF0928480A40ED00401DD
:1050D0004CB709D04C871E0E0601316F000135EC2C
:1050E00009F004014D7303D0000104014C9792862E
:1050F00080A614D04CB911D04C891E0E0601316F18
:10510000000135EC09F004014D710501215303E163
:105110000A0E216F01D0216B040101D04C999282BB
:1051200080A20CD04CBB09D04C8B1E0E0601316FF7
:10513000000135EC09F004014D7701D04C9B9280C1
:1051400080A038D0020E0601306FFA0E316F0001D8
:1051500035EC09F00601302FF8D7928080A01BD0E3
:105160001E0E316F000135EC09F0030E05010D6FC5
:10517000010E0601306F000197EC18F00601316B4B
:10518000000171EC10F0EBEC0CF00A0E05011C6F45
:105190001D6F0ED0060104014CBD09D04C8D1E0EB2
:1051A0000601316F000135EC09F004014D75050170
:1051B00003D004014C9D05015651800A006E5251E6
:1051C000800A005C01E03CE25751800A006E5351B6
:1051D000800A005C01E034E25851800A006E5451AC
:1051E000800A005C01E02CE25951800A006E5551A2
:1051F000800A005C01E024E2565307E1575305E1C1
:10520000585303E1595301E11BD004014D9F0A0E8D
:1052100005011D6F04014D71660E0601476F486B55
:105220007F0E496F0E0E4A6F010E4B6F4C6B0001E3
:1052300044EC0EF00501526B536B546B556B216BB4
:105240000001ADEC0CF005010D510308D8A46FD19D
:10525000060EEA6E1A0EE96EF2CF30F6F29E000EDE
:105260000001ACEC07F00A000900F550EE6E0009F1
:10527000FBE1060130BFF28E060E316F1A0E306F61
:10528000280E326F336B010E346F020E356F000142
:105290009EEC10F005010F2D23D0060EEA6E1A0EBB
:1052A000E96EF2CF30F6F29E000E0001BCEC07F082
:1052B0000A000900F550EE6E0009FBE1060130BF5F
:1052C000F28E060E316F1A0E306F326B130E336F83
:1052D000010E346F356F00019EEC10F022D00501F5
:1052E000060EEA6E1A0EE96EF2CF30F6F29E000E4E
:1052F0000001BCEC07F00A000900F550EE6E000951
:10530000FBE1060130BFF28E060E316F1A0E306FD0
:10531000326B130E336F346B010E356F00019EEC50
:1053200010F005010F51020823E1060EEA6E1A0E75
:10533000E96EF2CF30F6F29E000E000177EC07F036
:105340000A000900F550EE6E0009FBE1060130BFCE
:10535000F28E060E316F1A0E306F326B230E336FE2
:10536000010E346F356F00019EEC10F022D0050164
:10537000060EEA6E1A0EE96EF2CF30F6F29E000EBD
:10538000000177EC07F00A000900F550EE6E000905
:10539000FBE1060130BFF28E060E316F1A0E306F40
:1053A000326B230E336F346B010E356F00019EECB0
:1053B00010F005010F51030823E1060EEA6E1A0EE4
:1053C000E96EF2CF30F6F29E000E0001CDEC07F050
:1053D0000A000900F550EE6E0009FBE1060130BF3E
:1053E000F28E060E316F1A0E306F326B330E336F42
:1053F000010E346F356F00019EEC10F022D00501D4
:10540000060EEA6E1A0EE96EF2CF30F6F29E000E2C
:105410000001CDEC07F00A000900F550EE6E00091E
:10542000FBE1060130BFF28E060E316F1A0E306FAF
:10543000326B330E336F346B010E356F00019EEC0F
:1054400010F0EBEC0CF004014DBB0DD0020E060188
:10545000306FFA0E316F000135EC09F00601302F84
:10546000F8D704014D8B928080A00DD04CB10AD0AA
:105470004C811E0E0601316F000135EC09F005016B
:105480000F07040101D04C91928280A20DD04CB53F
:105490000AD04C851E0E0601316F000135EC09F073
:1054A00005010F2B040101D04C95928480A41ED0DD
:1054B0004CB31BD04C83020E0601306FFA0E316FD5
:1054C000000135EC09F00601302FF8D7030E050175
:1054D0000F250D6F010E0F6F0601316B000171EC8E
:1054E00010F0010E05010E6F040101D04C9392865D
:1054F00080A613D0040E0601306FAF0E316F00018D
:1055000035EC09F00601302FF8D7020E05010D6FBA
:105510000601316B000171EC10F005010F51030819
:1055200002E2010E0F6F0F5302E1030E0F6F0D51D8
:105530000408D8A47FD10F2D23D0060EEA6E1A0ED0
:10554000E96EF2CF30F6F29E000E0001DDEC07F0BE
:105550000A000900F550EE6E0009FBE1060130BFBC
:10556000F28E060E316F1A0E306F326B040E336FEF
:10557000010E346F356F00019EEC10F022D0050152
:10558000060EEA6E1A0EE96EF2CF30F6F29E000EAB
:105590000001DDEC07F00A000900F550EE6E00098D
:1055A000FBE1060130BFF28E060E316F1A0E306F2E
:1055B000326B040E336F346B010E356F00019EECBD
:1055C00010F005010F51020823E1060EEA6E1A0ED3
:1055D000E96EF2CF30F6F29E000E0001F1EC07F01A
:1055E0000A000900F550EE6E0009FBE1060130BF2C
:1055F000F28E060E316F1A0E306F326B1C0E336F47
:10560000010E346F356F00019EEC10F022D00501C1
:10561000060EEA6E1A0EE96EF2CF30F6F29E000E1A
:105620000001F1EC07F00A000900F550EE6E0009E8
:10563000FBE1060130BFF28E060E316F1A0E306F9D
:10564000326B1C0E336F346B010E356F00019EEC14
:1056500010F005010F51030823E1060EEA6E1A0E41
:10566000E96EF2CF30F6F29E000E000103EC08F076
:105670000A000900F550EE6E0009FBE1060130BF9B
:10568000F28E060E316F1A0E306F326B280E336FAA
:10569000010E346F356F00019EEC10F022D0050131
:1056A000060EEA6E1A0EE96EF2CF30F6F29E000E8A
:1056B000000103EC08F00A000900F550EE6E000945
:1056C000FBE1060130BFF28E060E316F1A0E306F0D
:1056D000326B280E336F346B010E356F00019EEC78
:1056E00010F005010F51040823E1060EEA6E1A0EB0
:1056F000E96EF2CF30F6F29E000E000118EC08F0D1
:105700000A000900F550EE6E0009FBE1060130BF0A
:10571000F28E060E316F1A0E306F326B340E336F0D
:10572000010E346F356F00019EEC10F022D00501A0
:10573000060EEA6E1A0EE96EF2CF30F6F29E000EF9
:10574000000118EC08F00A000900F550EE6E00099F
:10575000FBE1060130BFF28E060E316F1A0E306F7C
:10576000326B340E336F346B010E356F00019EECDB
:1057700010F0928080A00ED004014CB10AD04C8170
:105780001E0E0601316F000135EC09F005010F070F
:10579000040102D004014C91928280A20DD04CB53C
:1057A0000AD04C851E0E0601316F000135EC09F060
:1057B00005010F2B040101D04C95928480A419D0CF
:1057C0004CB316D04C83020E0601306FFA0E316FC7
:1057D000000135EC09F00601302FF8D70A0E05015B
:1057E0000F250D6F0601316B000171EC10F0040103
:1057F00001D04C93928680A613D0040E0601306F20
:10580000AF0E316F000135EC09F00601302FF8D7EB
:10581000030E05010D6F0601316B000171EC10F0F4
:1058200005010F51040802E2010E0F6F0F5302E150
:10583000040E0F6F0D510608D8A4ABD00F2D23D046
:10584000060EEA6E1A0EE96EF2CF30F6F29E000EE8
:1058500000012EEC08F00A000900F550EE6E000978
:10586000FBE1060130BFF28E060E316F1A0E306F6B
:10587000326B0A0E336F010E346F356F00019EECF0
:1058800010F022D00501060EEA6E1A0EE96EF2CF74
:1058900030F6F29E000E00012EEC08F00A0009001E
:1058A000F550EE6E0009FBE1060130BFF28E060EE8
:1058B000316F1A0E306F326B0A0E336F346B010E7C
:1058C000356F00019EEC10F0928080A00ED0040194
:1058D0004CB10AD04C811E0E0601316F000135EC2F
:1058E00009F005010F07040102D004014C919282D6
:1058F00080A20DD04CB50AD04C851E0E0601316F2A
:10590000000135EC09F005010F2B040101D04C9585
:10591000928480A41DD04CB31AD04C83020E060191
:10592000306FFA0E316F000135EC09F00601302FAF
:10593000F8D71E0E05010F250D6F0601316B000112
:1059400071EC10F0010E05010F6F0E6F040101D014
:105950004C93928680A613D0040E0601306FAF0ED2
:10596000316F000135EC09F00601302FF8D7030E36
:1059700005010D6F0601316B000171EC10F005019E
:105980000F51010802E2010E0F6F0F5302E1010EE9
:105990000F6F0D510B08D8A4C4D1060EEA6E1A0E73
:1059A000E96EF2CF30F6F29E000E000142EC08F0F4
:1059B0000A000900F550EE6E0009FBE1060130BF58
:1059C000F28E060E316F1A0E306F0A0E326F336B85
:1059D000010E346F020E356F00019EEC10F00501D0
:1059E0000E5104080FE145C530F6140E0601316F63
:1059F000280E326F010E336F020E346F000104EC7B
:105A000011F00DD045C530F6140E0601316F280E89
:105A1000326F336B020E346F000104EC11F005019C
:105A20000E5103080EE144C530F6280E0601316F11
:105A3000326F010E336F020E346F000104EC11F06F
:105A40000CD044C530F6280E0601316F326F336B2F
:105A5000020E346F000104EC11F005010E51020832
:105A60000FE143C530F6460E0601316F280E326F46
:105A7000010E336F020E346F000104EC11F00DD0F3
:105A800043C530F6460E0601316F280E326F336B78
:105A9000020E346F000104EC11F005010E2D0FD041
:105AA00042C530F65A0E0601316F280E326F010ED4
:105AB000336F020E346F000104EC11F00DD042C5BB
:105AC00030F65A0E0601316F280E326F336B020E1C
:105AD000346F000104EC11F03C0E0601476F2A0EF2
:105AE000486F040E4A6F770E496F020E4B6F010E1E
:105AF0004C6F0001A5EC0EF0928080A016D004013E
:105B00004CB112D04C811E0E0601316F000135ECF4
:105B100009F0010E05010E5D036A420FE96E050EE4
:105B20000320EA6EEF2A040102D004014C91928214
:105B300080A215D04CB512D04C851E0E0601316FD7
:105B4000000135EC09F0010E05010E5D036A420FFC
:105B5000E96E050E0320EA6EEF06040101D04C95B4
:105B6000928480A40DD04CB30AD04C831E0E060143
:105B7000316F000135EC09F005010E07040101D079
:105B80004C93928680A668D0040E0601306FAF0E4B
:105B9000316F000135EC09F00601302FF8D7030E04
:105BA00005010D6F0601316B000171EC10F0010E63
:105BB00005010F6F040EA96E42C5A8FFA69CA69E04
:105BC000A684F250006EF29E0F01550EA76EAA0E2B
:105BD000A76EA682A6B2FED7A6940050F212050EBA
:105BE000A96E43C5A8FFA69CA69EA684F250006E8F
:105BF000F29E550EA76EAA0EA76EA682A6B2FED77B
:105C0000A6940050F212060EA96E44C5A8FFA69CE9
:105C1000A69EA684F250006EF29E550EA76EAA0EA6
:105C2000A76EA682A6B2FED7A6940050F212070E67
:105C3000A96E45C5A8FFA69CA69EA684F250006E3C
:105C4000F29E550EA76EAA0EA76EA682A6B2FED72A
:105C5000A6940050F2120401386B3851030829E36E
:105C6000036A3851420FE96E050E0320EA6EEFBE5B
:105C70000BD0EF50090808E2036A3851420FE96E71
:105C8000050E0320EA6EEF6A036A3851420FE96E8F
:105C9000050E0320EA6EEFBE01D009D0036A385129
:105CA000420FE96E050E0320EA6E090EEF6E382BE7
:105CB000D4D7010E386F385103082AE3036A3851EC
:105CC000420FE96E050E0320EA6EEFBE0BD0EF50D7
:105CD000050808E2036A3851420FE96E050E0320F9
:105CE000EA6EEF6A036A3851420FE96E050E03202F
:105CF000EA6EEFBE01D009D0036A3851420FE96E57
:105D0000050E0320EA6E050EEF6E382B382BD3D725
:105D100005010E5302E1040E0E6F0F5302E1040E53
:105D20000F6F0D510C08D8A4CAD1060EEA6E1A0ED8
:105D3000E96EF2CF30F6F29E000E000154EC08F04E
:105D40000A000900F550EE6E0009FBE1060130BFC4
:105D5000F28E060E316F1A0E306F1E0E326F336BDD
:105D6000010E346F020E356F00019EEC10F005013C
:105D70000E5104080FE159C530F6140E0601316FBB
:105D8000280E326F010E336F020E346F000104ECE7
:105D900011F00DD059C530F6140E0601316F280EE2
:105DA000326F336B020E346F000104EC11F0050109
:105DB0000E5103080EE158C530F6280E0601316F6A
:105DC000326F010E336F020E346F000104EC11F0DC
:105DD0000CD058C530F6280E0601316F326F336B88
:105DE000020E346F000104EC11F005010E5102089F
:105DF0000FE157C530F6460E0601316F280E326F9F
:105E0000010E336F020E346F000104EC11F00DD05F
:105E100057C530F6460E0601316F280E326F336BD0
:105E2000020E346F000104EC11F005010E2D0FD0AD
:105E300056C530F65A0E0601316F280E326F010E2C
:105E4000336F020E346F000104EC11F00DD056C513
:105E500030F65A0E0601316F280E326F336B020E88
:105E6000346F000104EC11F03C0E0601476F2A0E5E
:105E7000486F040E4A6F770E496F020E4B6F010E8A
:105E80004C6F0001A5EC0EF0928080A016D00401AA
:105E90004CB112D04C811E0E0601316F000135EC61
:105EA00009F0010E05010E5D036A560FE96E050E3D
:105EB0000320EA6EEF2A040102D004014C91928281
:105EC00080A215D04CB512D04C851E0E0601316F44
:105ED000000135EC09F0010E05010E5D036A560F55
:105EE000E96E050E0320EA6EEF06040101D04C9521
:105EF000928480A40DD04CB30AD04C831E0E0601B0
:105F0000316F000135EC09F005010E07040101D0E5
:105F10004C93928680A66DD0040E0601306FAF0EB2
:105F2000316F000135EC09F00601302FF8D7030E70
:105F300005010D6F0601316B000171EC10F0010ECF
:105F400005010F6F150EA96E56C5A8FFA69CA69E4B
:105F5000A684F250006EF29E0F01550EA76EAA0E97
