:06000000A2EF0CF0000C61
:08000800046ED8CF05F0E0CF33
:1000100006F00001E9CF0CF0EACF07F0E1CF08F0DD
:10002000E2CF09F0D9CF0AF0DACF0BF0F3CF12F01C
:10003000F4CF13F0FACF14F000C00EF001C00FF0AF
:1000400002C010F003C011F09DA02AEF00F09EB096
:100050005AEF00F00EC000F00FC001F010C002F027
:1000600011C003F00CC0E9FF07C0EAFF078E08C00B
:10007000E1FF09C0E2FF0AC0D9FF0BC0DAFF12C0DE
:10008000F3FF13C0F4FF14C0FAFF045006C0E0FFF2
:1000900005C0D8FF1000F2CF0DF0F29EF76AB00F46
:1000A000F66E000EF7220900F5500DBEF28E12001A
:1000B000280C0106150ECF6EA00ECE6E3E2AD8B4C7
:1000C0003F2AAAA103D0442AD8B4452A3F5203E1CB
:1000D0003E50C70827E23F6A3E6A2F2A17803D2C10
:1000E0000AD017B603D08C90959004D017A802D0F0
:1000F0008C809590177616A015D0212A16BE12D0A6
:10010000285202E028060ED0275204E027063B0EB4
:10011000286E08D0168E16908C92959229C027F0E2
:100120002AC028F09E902AEF00F054656D706F721F
:10013000697A61646F722055562020202000436147
:100140006D62696F20436F6E7472617365F1612037
:1001500020005469656D706F2054726162616A6F2E
:1001600020555620200050756E746F204365726FC5
:1001700020202020202020202000416C61726D6111
:10018000202020202020202020204F464600416CA7
:1001900061726D6120202020202020202020204F0F
:1001A0004E0020434142494E41202044452020201A
:1001B000464C554A4F200000204C414D494E41527B
:1001C00020484F52495A4F4E54414C2000002020A5
:1001D00020204A5020494E474C4F42414C2020207D
:1001E000202000002020205245463A20204A50433B
:1001F000464C483630202020000020202020204976
:100200006E6772657365202020202020202000006A
:1002100020202020436F6E7472617365F16120208D
:1002200020202020000020202020434C4156453D26
:1002300025692569256925692020000020202020C6
:1002400020202020202020202020202020202000CE
:100250002020202020436F6E7472617365F161204D
:1002600020202000202020202020436F7272656310
:100270007461202020202000202020202020202009
:10028000202020202020202020202000202020208E
:1002900020436F6E7472617365F16120202020002D
:1002A0002020202020496E636F7272656374612084
:1002B000202020002020202020202020202020205E
:1002C00020202020202020002D2D2D4D454E552072
:1002D0005052494E434950414C2D2D2D00002020B5
:1002E000202054656D706F72697A61646F7220208E
:1002F00020202000202020202020204C757A20550E
:1003000056202020202020202000253033753A253B
:1003100030327520284D3A53292020005469656DEC
:10032000706F20416C6D6163656E61646F002020A9
:10033000436F7272656374616D656E746520200031
:100340002020202020496E677265736520202020C0
:1003500020202020000020202020436F6E74726136
:100360007365F16120202020202000002020202023
:10037000434C4156453D256925692569256920205D
:1003800000002020202020202020202020202020AD
:1003900020202020202000002020202020436F6EDD
:1003A0007472617365F161202020202000002020FC
:1003B00020202020436F727265637461202020200A
:1003C000202000002020202020202020202020206D
:1003D000202020202020202000002020202020205D
:1003E000202020202020202020202020202000004D
:1003F0002020202020436F6E7472617365F16120AC
:100400002020202000002020202020496E636F72D1
:1004100072656374612020202020000020202020AD
:1004200020202020202020202020202020202020CC
:1004300000002020202020496E677265736520200F
:10044000202020202020000020202020436F6E74D8
:1004500072617365F161202020202020000020209F
:100460002020434C4156453D25692569256925696C
:1004700020200000202020202020202020202020BC
:100480002020202020202020000020202020204389
:100490006F6E7472617365F161202020202000006E
:1004A0002020202020416C6D6163656E61646120B5
:1004B000202020200000202020202020202020207C
:1004C00020202020202020202020000020204475F3
:1004D000726163696F6E2041637475616C202020C6
:1004E00000002020205469656D706F3D2025303557
:1004F0004C75202020002052455345543D204F701C
:1005000072696D61205E2079203E20002052657363
:100510006574206465207469656D706F200020200B
:10052000202020457869746F736F202020202000E0
:1005300020205A65726F20506F696E7420436F6E71
:1005400066696720000050726573696F6E3D2025F3
:10055000332E326620696E48324F20002020202042
:100560004144433D25322E306600202020205A464B
:100570003D25322E30660000202020202020202023
:1005800020202020202020202020202000002020AB
:1005900020202020202041637469766F20202020B5
:1005A000202000002020202020202020416C61728B
:1005B0006D612020202020200000202020202020ED
:1005C000202020202020202020202020202000006B
:1005D000202020202020202020202020202020201B
:1005E000202020200000202020202020446573614E
:1005F000637469766F2020202020000020202020B6
:10060000202020416C61726D61202020202020205C
:10061000000020202020202020202020202020201A
:1006200020202020202000004A5043522044503AED
:1006300025332E326620696E48324F200000546503
:100640006D706F3A253033753A25303275002020B1
:1006500054656D706F72697A61646F722020646591
:1006600020200000204C757A205556202046696EC7
:10067000616C697A61646F200000202020202020B6
:1006800020202020202020202020202020200000AA
:10069000202020202020202020202020202020205A
:1006A00020202020000046696C74726F3A004D6F64
:1006B000746F723A4F4E20004D6F746F723A4F460E
:1006C000460055563A4F4E20000055563A4F464682
:1006D00000004C757A3A4F4E20004C757A3A4F46DE
:1006E0004600EA6AC60EE96EEF500EE00F0E016E8C
:1006F000006A002EFED7012EFBD78F0E006E002E53
:10070000FED70000EF2EF2D7000CC739F00B006EB9
:100710000F0E81140010816E090E006E002EFED7A0
:1007200000D08186DB0E006E002EFED700D08196B1
:10073000000C8192010EC66FD4DFC4A18192C4B1B6
:100740008182090E006E002EFED700D08194090E22
:10075000006E002EFED700D08196C539C66F0F0EF1
:10076000C617C6C0C7F0D1DFC5510F0BC66FC76F24
:10077000CCDF000C000E936E8192819481960F0E57
:10078000C66FAFDF010EAF6FAF51030808E3030E72
:10079000C76FBBDF050EC66FA4DFAF2BF5D7020E08
:1007A000C76FB3DFAF6BAF5103080EE3036AAF51FE
:1007B000F2CFB0F0F29E6FDCB0BFF28EB06FC46BC0
:1007C000C56FB7DFAF2BEFD7000C8E0E006EC8C021
:1007D00001F0C7C002F0036A015209E102C001F052
:1007E000026A080E005E015202E1006A08D0D89049
:1007F00001BE04D0023601360006F9D7019E000C76
:10080000B435006E0036FC0E001600C001F0C25078
:10081000C30B0010C26E0A0EC66F63DFC282C2B283
:10082000FED7C4CF03F0C3CFC7F0C4CFC8F0CDDF2D
:1008300003C0B8F002C0B7F001C0B6F000C0B5F018
:10084000B5C000F0B6C001F0B7C002F0B8C003F008
:10085000000C010EC25DFC0F0FE2040F44EF04F028
:10086000800EC36F09D0C00EC36F06D0940EC36F45
:1008700003D0D40EC36F00D0010EC15DC327C46B7B
:10088000C3C0C5F056DF000CF2CF0DF0F29EE82495
:10089000F76AF736AD0FF66E080EF7220A00F5502C
:1008A000FA6E0800F5500DBEF28EF96E600866080B
:1008B0006C087208C051F10802E1EE0EC06FC05121
:1008C000D10802E1FF0EC06FC0510C0A05E0060A14
:1008D0000DE0020A12E016D0C46B010EC56F29DFCD
:1008E000010EAE6F020EC66FFCDE12D0AE2B010EF3
:1008F000C16FAEC0C2F0ADDF0BD0C46B100EC56FC0
:1009000018DF06D0010EC46FC0C0C5F012DF00D0E2
:10091000000C0900F5520CE0F6CFB2F0F7CFB3F0BF
:10092000F5CFC0F0C7DFB2C0F6FFB3C0F7FFF1D715
:10093000000CC4C0CBF0C851CB1BCBAF05D0D894B2
:10094000D890C4BFD8802FD0C4C0CBF0C7C0CCF0E3
:10095000C351CC5F06E0CBAF26D0D850010AD86E89
:1009600022D0C8C0CCF0C451CC5F06E0CBAF1BD0C6
:10097000D850010AD86E17D0C9C0CCF0C551CC5F91
:1009800006E0CBAF10D0D850010AD86E0CD0CAC048
:10099000CCF0C651CC5F06E0CBAF05D0D850010AF1
:1009A000D86E01D0D890000C39BE03D03950090858
:1009B00002E339AE01D0396A3ABE03D03A50090891
:1009C00002E33AAE01D03A6A3BBE03D03B5009087D
:1009D00002E33BAE01D03B6A3CBE03D03C50090869
:1009E00002E33CAE01D03C6A27503C0802E2140E00
:1009F000276E2852D8A4286A21503C08D8A0216A22
:100A000022503C08D8A0226A4150260807E2FF0A7B
:100A100003E14050100802E2416A406AC66BC56BB0
:100A20007A0EC46F880EC36FA9C0CAF0A8C0C9F0FF
:100A3000A7C0C8F0A6C0C7F07CDF06E3A96BA86B0F
:100A4000700EA76F860EA66F000E17B8010E0A086B
:100A5000D8A017889DEF0EF00900F6CFB4F0F7CFBD
:100A6000B5F0F5CFC0F026DFB4C0F6FFB5C0F7FF94
:100A7000B32FF2D7000CB651016AB55D03E2B5C0E1
:100A800000F00CD0006A080EB76FB5370036B651CB
:100A9000005CD8B0006E0136B72FF7D7000C200EDF
:100AA000B0A9300EB16FAFC000F0AFAF07D0001EDD
:100AB000002A00C0AFF02D0EB16FB08F0150AFC053
:100AC000B5F0640EB66FD7DF00C0AFF0300E012472
:100AD000B26FAFC0B5F00A0EB66FCDDF300E002496
:100AE000B46F300E0124B36FB1C000F0B0A702D0D4
:100AF000B0AFB095B0B90BD0B0AF22D0B0B520D068
:100B000000C0B2F0B0B31CD000C0B3F019D0300EAA
:100B1000B25D16E100C0B2F0200EB16FB0A704D0F4
:100B2000B095B083B0AFB093300EB35D09E100C0B3
:100B3000B3F0200EB26FB0A7F7D7B093B0AFB091BB
:100B4000B0A503D0B1C0C0F0B5DEB0A303D0B2C031
:100B5000C0F0B0DEB0A103D0B3C0C0F0ABDEB4C013
:100B6000C0F0A8DE000CB02D0AD0020EC16FB1C0DB
:100B7000C2F06FDE2A0EF66E010EF76ECADEB051BD
:100B800002080AE1020EC16FB1C0C2F062DE3E0E81
:100B9000F66E010EF76EBDDEB05103080AE1020EDB
:100BA000C16FB1C0C2F055DE520EF66E010EF76E87
:100BB000B0DEB05104080AE1020EC16FB1C0C2F04C
:100BC00048DE660EF66E010EF76EA3DEB051050824
:100BD00018E117B80AD0020EC16FB1C0C2F039DEF9
:100BE0007A0EF66E010EF76E94DE17A80AD0020E8A
:100BF000C16FB1C0C2F02DDE8E0EF66E010EF76E23
:100C000088DE000C0150AFC0B5F0640EB66F33DF64
:100C100000C0AFF00150300E07E1B0A30CD0B0B768
:100C20000AD0B0B9200E03D0B097B099B081012698
:100C300001C0C0F03FDEAFC0B5F00A0EB66F1BDFDB
:100C400000C0AFF00150300E06E1B0B708D0B0A13F
:100C500006D0B0B9200E012601C0C0F02BDE300E48
:100C6000AF27AFC0C0F026DE000CEACFB7F0E9CF67
:100C7000B6F0B039F009B26FB227E20FB36F320F9E
:100C8000B56FB0510F0BB327B327B527E90FB46F7A
:100C9000B427B427AF390F0BB427B527B437B5370E
:100CA000B51FB537AF510F0BB527B237070EB16F70
:100CB0000A0EB407B527FDE3B307B427FDE3B20777
:100CC000B327FDE3B107B227FDE3EA6AB10EE96E8F
:100CD000070EB615B69DE926B50EE95CD8B4B68DFB
:100CE000EF50006E08E1B6BD06D0B6B913D0B6B766
:100CF00002D0200E03D0B687B699300E0026EACF78
:100D0000B0F0E9CFAFF000C0C0F0D4DDB0C0EAFF72
:100D1000AFC0E9FFEE50B6ADDFD77AEF16F0C351A2
:100D2000D8B4A5D0CF6FC751D8B4A1D0CF5F05E359
:100D30007F0ECF27D8B09BD006D0810ECF5FD8A032
:100D400096D0D8B494D0CFC000F0016A026A036A8A
:100D5000CE6BC4C0CDF0CD8FC5C0CCF0C6C0CBF03B
:100D6000190ECF6FCA51CB5F0DE2010ECC5F0AE2C4
:100D7000CD5F08E2CE5F06E2CE2BCD2BCC2BCA5145
:100D8000CB2728D0C951CC5F12E2010ECD5F0FE214
:100D9000CE5F0DE2CE2BCD2BC951CC27CA51CB272C
:100DA00019E3CC2B17E1CD2B15E1CE2B13D0C85175
:100DB0008009CD5F0EE2010ECE5F0BE2CE2BC85153
:100DC0008009CD27C951CC27E9E3CD2BE7E1CE2B14
:100DD000E5D70380CF2F01D00BD0D890CB37CC37BD
:100DE000CD37CE37D890033602360136D037BAD752
:100DF000D0A106D0D890013202320332D03302D0D3
:100E0000000635E0D0BF1ED0D890CB37CC37CD37D9
:100E1000CE37CA51CB5F07E2010ECC5F04E2CD5F53
:100E200002E2CE5F1AE3C951CC5F05E2010ECD5F4D
:100E300002E2CE5F12E3C8518009CD5F03E2010EEA
:100E4000CE5F0BE3032A09E1022A07E1012A05E14B
:100E5000002A0DE0013202320332C4C0CFF0C85183
:100E6000CF1BCFAF02D0018E06D0019E04D0006A06
:100E7000016A026A036A000C800ED8B2CC1BD16BE7
:100E8000D26BC8C0D0F0CC51D01BC751D8B4DCD085
:100E9000CF6F006ECB51D8B4E0D0CF5FD8B481D043
:100EA0003DE3CCC0D5F0D58FCDC0D4F0CEC0D3F0CB
:100EB000D26BD890D533D433D333D233CF2FF8D7A6
:100EC000D0AF03D0D181DDD0D191CF91D189EA6A61
:100ED000CA0EE96EE9D0D199D0BF0AD0CFA113D004
:100EE000D533D433D333D233002AD8B4C5D00BD0C2
:100EF000D5BF0CD0D890D237D337D437D5370006EA
:100F0000D8B4BAD0F5D7D18D6BD0D19DC8C0D0F0B0
:100F1000C8AF02D0D58FA9D0D59FA7D0CBC0CFF076
:100F2000CBC000F0C751CF5FC8C0D5F0D58FC9C0C6
:100F3000D4F0CAC0D3F0D26BD890D533D433D333E6
:100F4000D233CF2FF8D7D0AF03D0D1839AD0D1935B
:100F5000CF91D18BEA6ACE0EE96EA6D0D19BD0BFDD
:100F60000AD0CFA113D0D533D433D333D233002A10
:100F7000D8B482D00BD0D5BF0CD0D890D237D337CD
:100F8000D437D5370006D8B477D0F5D7D18F28D04D
:100F9000D19FCCC0D0F0CCAF02D0D58F66D0D59F3A
:100FA00064D0CCC0D5F0D58FCDC0D4F0CEC0D3F0B6
:100FB000D0AF04D0D59FD18564D0D195D26BCF91DD
:100FC000EA6ACA0EE96E70D0D0BF1CD0C8C0D0F09B
:100FD000CFA106D0D533D433D333D233002A4CE05B
:100FE000D2AF0BD0D32B09E1D42B07E1D52B05E1F0
:100FF000D533D433D333002A3FE0D1BD86D7D1BF18
:10100000C7D71CD0800ED51BD5AF04D03AD0CCC0EA
:10101000D0F00AD0C8C0D0F0D55306E1D45304E1D3
:10102000D35302E1006A21D0D5BF08D0D890D2377F
:10103000D337D437D537002EF7D71ED0D0AF02D054
:10104000D58F13D0D59F11D0CBC000F0CCC0D5F038
:10105000CDC0D4F0CEC0D3F008D0C7C000F0C8C017
:10106000D5F0C9C0D4F0CAC0D3F0D5C001F0D4C007
:1010700002F0D3C003F034D0006A016A026A036A46
:101080002FD0D26BD31FD41FD51FD21FD22B05E177
:10109000D32B03E1D42B01E1D52BD1B115D7D1B39B
:1010A00056D7D1B58AD7B3D7EF50D32705E3D42B82
:1010B00003E1D52BD8B4CF81ED52EF50D42703E311
:1010C000D52BD8B4CF81ED52EF50EFBE01D0800ABE
:1010D000D527D8B0CF81D1B9FED6D1BB3FD774D7F1
:1010E000000CB36BB26BB16BB06BB46B00EC04F083
:1010F00003C099F002C098F001C097F000C096F0CC
:1011000099C0C6F098C0C5F097C0C4F096C0C3F0AF
:10111000A9C0CAF0A8C0C9F0A7C0C8F0A6C0C7F04F
:10112000FEDD00C0B4F001C0B5F002C0B6F003C0EF
:10113000B7F0D88203C0CAF002C0C9F001C0C8F03D
:1011400000C0C7F0CE6BCD6BCC6B7F0ECB6F94DE47
:1011500003C09DF002C09CF001C09BF000C09AF05B
:101160009DC0C6F09CC0C5F09BC0C4F09AC0C3F03F
:10117000CA6BC96BC86BC76B99EC04F004E39D6B39
:101180009C6B9B6B9A6B010EAF5D2B5C02E001E3E5
:101190002B6A2B50040DF350036A460FE96E000EC4
:1011A0000320EA6E9AC0EFFF9BC0ECFF9CC0ECFFEF
:1011B0009DC0ECFF2B2A2C6A010EAF5D2C5C01E078
:1011C00035E22C50040DF350036A460FE96E000E11
:1011D0000320EA6EEFCF00F0ECCF01F0ECCF02F08D
:1011E000ECCF03F0EACFB5F0E9CFB4F0D892B3C0BA
:1011F000CAF0B2C0C9F0B1C0C8F0B0C0C7F003C0F7
:10120000CEF002C0CDF001C0CCF000C0CBF034DE97
:10121000B5C0EAFFB4C0E9FF03C0B3F002C0B2F04A
:1012200001C0B1F000C0B0F02C2AC6D7C86BAFC067
:10123000C7F0E5EC03F0B3C0C6F0B2C0C5F0B1C072
:10124000C4F0B0C0C3F003C0CAF002C0C9F001C00E
:10125000C8F000C0C7F063DD03C0B3F002C0B2F055
:1012600001C0B1F000C0B0F0B0C000F0B1C001F0FA
:10127000B2C002F0B3C003F0000CC351D8B471D0B7
:10128000006EC751D8B46DD0002604E3810E00264D
:1012900068E204D07F0E005E64E363E0C4C0CBF07C
:1012A000C851CB1BC48FC88FC651CA03F4CFCDF031
:1012B000C551C903F4CF03F0F3CFCCF0CA03F35008
:1012C000CD27F450CC23000E0322C651C903F3509E
:1012D000CD27F450CC23000E026A03220222C4510F
:1012E000CA03F350CC27F4500322000E0222C4514B
:1012F000C903F3500326F4500222000E016A0122B2
:10130000C651C803F350CC27F4500322000E02222A
:101310000122C551C803F3500326F4500222000EE7
:101320000122C451C803F3500226F4500122002ABE
:1013300001BE05D0CC370336023601360006000E5A
:10134000CCAF0AD0032A02220122015005E102504B
:1013500003E1035001E1002ACBBF018ECBAF019E18
:1013600004D0006A016A026A036A000CC051B60820
:10137000C06F036AC1C0C4F0C18FD890C133C233FB
:10138000C3330332023201320032C02FF6D7C4AF6A
:101390000BD0001E011E021E031E002AD8B4012A13
:1013A000D8B4022AD8B4032A3AEF0AF0006A016AD4
:1013B000026A036AC86BC96BCA6BCB6BC751C61193
:1013C000C511C4112CE0200ECC6FD890C037C137A6
:1013D000C237C337C837C937CA37CB37C751CB5DD8
:1013E00008E1C651CA5D05E1C551C95D02E1C451BC
:1013F000C85D0FE3C451C85FC551D8A0C53DC95FE2
:10140000C651D8A0C63DCA5FC751D8A0C73DCB5F63
:10141000D8800036013602360336CC2FD6D7EA6A9A
:10142000C80EE96E000CE950B86FB751BA6F19E0F9
:10143000B6C0C6F0B5C0C5F0B4C0C4F0B3C0C3F008
:10144000CA6BC96B200EC86F820EC76F16DF03C050
:10145000B6F002C0B5F001C0B4F000C0B3F0BA2FCE
:10146000E7D7B6C0C3F0B5C0C2F0B4C0C1F0B3C0D6
:10147000C0F07CD703C0B6F002C0B5F001C0B4F034
:1014800000C0B3F0B6AF0DD0B807B88BB31FB41F10
:10149000B51FB61FB32BD8B4B42BD8B4B52BD8B462
:1014A000B62B3B0EBF6F9A0EBE6FCA0EBD6FBC6BE4
:1014B0000A0EBA6FB751D8B4B82BB6C0C3F0B5C0D6
:1014C000C2F0B4C0C1F0B3C0C0F0BFC0C7F0BEC06E
:1014D000C6F0BDC0C5F0BCC0C4F068DF0150EFCF9E
:1014E000B3F0ECCFB4F0ECCFB5F0ECCFB6F00052E7
:1014F0000FE1B729BA5D0CE0B8510CE00F0BBA5DF3
:1015000001E03BE2B8BF39D0B8BD04D0200E30D0E6
:10151000200EB817B8AB0DD0B89BB751D8A4B807F8
:101520000050B86F2D0EC06F5AEC04F0B851006E29
:10153000B86BB751BA5D0BE10050B86F2E0EC06F9B
:101540005AEC04F0B851006E200EB817000E300EA1
:10155000B8AB0ED0B89BB751D8A4B8070050B86F3D
:101560002D0EC06F5AEC04F0B851006EB86B300EFF
:10157000002600C0C0F05AEC04F0BFC0C3F0BEC0EB
:10158000C2F0BDC0C1F0BCC0C0F0C76BC66BC56BBC
:101590000A0EC46F0BDF03C0BFF002C0BEF001C073
:1015A000BDF000C0BCF0BA2F88D7000C8E0E006EC4
:1015B000C351005EC4C002F0C5C001F0028E0052EB
:1015C00009E0D890025202E1015204E002320132F5
:1015D000002EF7D7C4AF05D0011E021E012AD8B4D1
:1015E000022A000CC291B6C0BBF0B5C0BAF0B4C0BC
:1015F000B9F0B3C0B8F0B6C0C6F0B5C0C5F0B4C05D
:10160000C4F0B3C0C3F0CA6BC96BC86BC76B99ECAD
:1016100004F004E3C281B951800AB96FBBC0C6F0BF
:10162000BAC0C5F0B9C0C4F0B8C0C3F0CA6BC96BCA
:10163000C86B8E0EC76F99EC04F001E218E1BBC0D5
:10164000C6F0BAC0C5F0B9C0C4F0B8C0C3F0AEDFD0
:1016500002C0C8F001C0C7F0E5EC03F003C0BFF062
:1016600002C0BEF001C0BDF000C0BCF0C5D0BBC020
:10167000C6F0BAC0C5F0B9C0C4F0B8C0C3F0800E9F
:10168000CA6F960EC96F180EC86F960EC76F99EC89
:1016900004F0D8A0A9D0BBC0C6F0BAC0C5F0B9C08C
:1016A000C4F0B8C0C3F0CA6BC96BC86B8E0EC76FED
:1016B0008FEC06F003C0C6F002C0C5F001C0C4F054
:1016C00000C0C3F073DF02C0C1F001C0C0F0BBC0F6
:1016D000C6F0BAC0C5F0B9C0C4F0B8C0C3F0CA6B98
:1016E000C96BC86B8E0EC76F8FEC06F000C0C3F0DD
:1016F00001C0C4F002C0C5F003C0C6F0C1C0C8F04C
:10170000C0C0C7F0E5EC03F0D882C6C0CAF0C5C0BF
:10171000C9F0C4C0C8F0C3C0C7F003C0CEF002C057
:10172000CDF001C0CCF000C0CBF03CEC07F0C66BB4
:10173000C56BC46B8E0EC36F03C0CAF002C0C9F084
:1017400001C0C8F000C0C7F098DD03C0BBF002C004
:10175000BAF001C0B9F000C0B8F0C1C0C8F0C0C054
:10176000C7F0E5EC03F0C66BC56BC46B8E0EC36FA0
:1017700003C0CAF002C0C9F001C0C8F000C0C7F081
:101780007CDD03C0BFF002C0BEF001C0BDF000C0F0
:10179000BCF0BBC0C6F0BAC0C5F0B9C0C4F0B8C098
:1017A000C3F004DF02C0C8F001C0C7F0E5EC03F0ED
:1017B000D892BFC0CAF0BEC0C9F0BDC0C8F0BCC09E
:1017C000C7F003C0CEF002C0CDF001C0CCF000C025
:1017D000CBF03CEC07F003C0BFF002C0BEF001C08C
:1017E000BDF000C0BCF008D0BBC0BFF0BAC0BEF0B6
:1017F000B9C0BDF0B8C0BCF0BBC0C6F0BAC0C5F03F
:10180000B9C0C4F0B8C0C3F0D1DE02C0C8F001C096
:10181000C7F0E5EC03F0D882BBC0CAF0BAC0C9F08B
:10182000B9C0C8F0B8C0C7F003C0CEF002C0CDF058
:1018300001C0CCF000C0CBF03CEC07F003C0BBF023
:1018400002C0BAF001C0B9F000C0B8F0C2A103D024
:10185000BD51800ABD6FBBC0C6F0BAC0C5F0B9C0EB
:10186000C4F0B8C0C3F0CA6BC96BC86BC76B99EC46
:1018700004F038E0C2A11AD0B75318E1D882BFC033
:10188000CAF0BEC0C9F0BDC0C8F0BCC0C7F0CE6BC6
:10189000CD6BCC6B7F0ECB6F3CEC07F003C0BFF081
:1018A00002C0BEF001C0BDF000C0BCF0C2B11AD091
:1018B000B72D18D0D892BFC0CAF0BEC0C9F0BDC005
:1018C000C8F0BCC0C7F0CE6BCD6BCC6B7F0ECB6FBE
:1018D0003CEC07F003C0BFF002C0BEF001C0BDF099
:1018E00000C0BCF0B6C0C6F0B5C0C5F0B4C0C4F00E
:1018F000B3C0C3F0CA6BC96BC86BC76B99EC04F07B
:1019000004E1BF6BBE6BBD6BBC6BBCC000F0BDC067
:1019100001F0BEC002F0BFC003F099EF0CF0B2C0FE
:10192000B6F0B1C0B5F0B0C0B4F0AFC0B3F0B76BB3
:1019300059D6000CAF5303E18C96959602D08C8655
:101940009596000CF86AD09E078EEA6AE96A1690AE
:101950001692169416961698169A169C169E17901E
:101960001792179417961798186A060E196E020E9A
:101970001A6E0B0E1B6E020E1C6E030E1D6E020EF7
:101980001E6E1F6E040E206E216A226A236A246A6C
:10199000256A266A276A286A296A2A6A2B6A2C6AB3
:1019A0002D6A010E2E6E2F6A306A316A3D6A416AD5
:1019B000406A436A426A456A446A996B986B976BBE
:1019C000966B9D6B9C6B9B6B9A6BA16BA06B9F6BDB
:1019D0009E6BA56BA46BA36BA26BA96BA86BA76B8B
:1019E000800EA66F178A179C179EAA91C150C00B34
:1019F0000F09C16E070EB46E3E0E326E200E336EAE
:101A00005E0E346E356A366A376A386A396A3A6AFF
:101A10003B6A3C6A466A476A486A496A4A6A4B6A4C
:101A20004C6A4D6A4E6A4F6A506A516A526A536AEA
:101A3000546A556A566A576A586A596A5A6A5B6A9A
:101A40005C6A5D6A5E6A5F6A606B616B626B636B46
:101A5000646B656B666B676B686B696B6A6B6B6BF2
:101A60006C6B6D6B6E6B6F6B706B716B726B736BA2
:101A7000746B756B766B776B786B796B7A6B7B6B52
:101A80007C6B7D6B7E6B7F6B806B816B826B836B02
:101A9000846B856B866B876B886B896B8A6B8B6BB2
:101AA0008C6B8D6B8E6B8F6B906B916B926B936B62
:101AB000946B956BBAEC03F0FF0E926E966E000E6F
:101AC000956E956A8C6A850ECD6E9D80C150C00B57
:101AD0000E09C16EC090C082C094C08EC280C00E7C
:101AE000F212B46B00EC04F0010EC16FC26F29EC6E
:101AF00004F0A20EF66E010EF76E89EC04F0010EF2
:101B0000C16F020EC26F29EC04F0B80EF66E010E22
:101B1000F76E89EC04F0010EC16F030EC26F29EC61
:101B200004F0CE0EF66E010EF76E89EC04F0010E95
:101B3000C16F040EC26F29EC04F0E40EF66E010EC4
:101B4000F76E89EC04F0080EAF6FFA0EC66F71ECF9
:101B500003F0AF2FFAD70C0EC06F5AEC04F0F2CF9F
:101B6000AFF0F29EA96AA69CA69EA680A850AFBF21
:101B7000F28E396E140EC66F71EC03F0F2CFAFF037
:101B8000F29E010EA96EA69CA69EA680A850AFBF8D
:101B9000F28E3A6E140EC66F71EC03F0F2CFAFF016
:101BA000F29E020EA96EA69CA69EA680A850AFBF6C
:101BB000F28E3B6E140EC66F71EC03F0F2CFAFF0F5
:101BC000F29E030EA96EA69CA69EA680A850AFBF4B
:101BD000F28E3C6E140EC66F71EC03F0F2CFAFF0D4
:101BE000F29E050EA96EA69CA69EA680A850AFBF29
:101BF000F28E016E179801B01788140EC66F71EC43
:101C000003F0F2CFAFF0F29E140EA96EA69CA69E32
:101C1000A680A850AFBFF28E276E140EC66F71EC6F
:101C200003F0F2CFAFF0F29E1E0EA96EA69CA69E08
:101C3000A680A850AFBFF28E286E140EC66F71EC4E
:101C400003F0F2CFAFF0F29E320EA96EA69CA69ED4
:101C5000A680A850AFBFF28E216E140EC66F71EC35
:101C600003F0F2CFAFF0F29E330EA96EA69CA69EB3
:101C7000A680A850AFBFF28E226E140EC66F71EC14
:101C800003F0F2CFAFF0F29E340EA96EA69CA69E92
:101C9000A680A850AFBFF28E236E140EC66F71ECF3
:101CA00003F0F2CFAFF0F29E350EA96EA69CA69E71
:101CB000A680A850AFBFF28E246E140EC66F71ECD2
:101CC00003F0F2CFAFF0F29E3C0EA96EA69CA69E4A
:101CD000A680A850AFBFF28E256E140EC66F71ECB1
:101CE00003F0F2CFAFF0F29E3D0EA96EA69CA69E29
:101CF000A680A850AFBFF28E266E140EC66F71EC90
:101D000003F026C043F025C042F043C0C8F042C0F3
:101D1000C7F0E5EC03F003C0A9F002C0A8F001C0D1
:101D2000A7F000C0A6F024C041F023C040F027C0B7
:101D300029F028C02AF0D4EF04F01852D8A4F7D123
:101D4000010EC16FC26F29EC04F0FA0EF66E010E9F
:101D5000F76E89EC04F0010EC16F020EC26F29EC20
:101D600004F0100EF66E020EF76E89EC04F0010E10
:101D7000C16F030EC26F29EC04F0260EF66E020E40
:101D8000F76E0A0EB36F2CEC05F035C0AFF01F0EE6
:101D9000B06F4FEC05F036C0AFF01F0EB06F4FECD8
:101DA00005F037C0AFF01F0EB06F4FEC05F038C034
:101DB000AFF01F0EB06F4FEC05F0200EC06F5AEC65
:101DC00004F0200EC06F5AEC04F01BC0C1F0040EEA
:101DD000C26F29EC04F034C0C0F05AEC04F01B5080
:101DE0000B080FE21B500D080CE3010E1B5CAF6FDC
:101DF000C16F040EC26F29EC04F033C0C0F05AEC7E
:101E000004F0179A928A80AA19D0140EC66F71EC4A
:101E100003F0928A80AA11D016B60FD00B0E1B5C6D
:101E2000036A350FE96E000E0320EA6EEF2A16866C
:101E30001E0EC66F71EC03F0178A01D016969680BD
:101E400084A019D0140EC66F71EC03F0968084A0A4
:101E500011D016BA0FD00B0E1B5C036A350FE96E5A
:101E6000000E0320EA6EEF06168A1E0EC66F71EC96
:101E700003F0178A01D0169A968284A215D0140E08
:101E8000C66F71EC03F0968284A20DD016B80BD009
:101E900016881B2A1E0EC66F71EC03F00C0EC06F65
:101EA0005AEC04F0178A01D01698968484A415D0B1
:101EB000960EC66F71EC03F0968484A40DD016BC08
:101EC0000BD0168C1B061E0EC66F71EC03F00C0EA9
:101ED000C06F5AEC04F0178A01D0169C0B0E1B5CE5
:101EE000036A350FE96E000E0320EA6EEFBE01D0E3
:101EF0000AD00B0E1B5C036A350FE96E000E03203F
:101F0000EA6E090EEF6E0B0E1B5C036A350FE96E6D
:101F1000000E0320EA6EEFBE0CD0EF50090809E274
:101F20000B0E1B5C036A350FE96E000E0320EA6E90
:101F3000EF6A1B500A0802E30B0E1B6E1B500E08C3
:101F4000D8B0F5D0355003086DE1365008086AE185
:101F50003750090867E13850020864E1A96AA86AA5
:101F6000A69CA69EA684F250006EF29E0F01550E0E
:101F7000A76EAA0EA76EA682A6B2FED7A6940050A0
:101F8000F212140E0001C66F71EC03F0010EA96E7F
:101F9000A86AA69CA69EA684F250006EF29E0F012F
:101FA000550EA76EAA0EA76EA682A6B2FED7A6945D
:101FB0000050F212140E0001C66F71EC03F0020E15
:101FC000A96EA86AA69CA69EA684F250006EF29EF8
:101FD0000F01550EA76EAA0EA76EA682A6B2FED757
:101FE000A6940050F212140E0001C66F71EC03F0BB
:101FF000030EA96EA86AA69CA69EA684F250006E47
:10200000F29E0F01550EA76EAA0EA76EA682A6B26B
:10201000FED7A6940050F212140E0001C66F71ECA8
:1020200003F0FF003950355C4AE13A50365C47E135
:102030003B50375C44E13C50385C41E1010EC16FDC
:10204000C26F29EC04F03C0EF66E020EF76E89ECBE
:1020500004F0010EC16F020EC26F29EC04F0500EA5
:10206000F66E020EF76E89EC04F0010EC16F030EDE
:10207000C26F29EC04F0640EF66E020EF76E89EC66
:1020800004F0010EC16F040EC26F29EC04F0780E4B
:10209000F66E020EF76E89EC04F0040EAF6FFA0EC6
:1020A000C66F71EC03F0AF2FFAD7320E186E0B0E1D
:1020B0001B6E0C0EC06F5AEC04F0178A38D0010E5C
:1020C000C16FC26F29EC04F0010EC16F020EC26F26
:1020D00029EC04F08C0EF66E020EF76E89EC04F01B
:1020E000010EC16F030EC26F29EC04F0A00EF66E54
:1020F000020EF76E89EC04F0010EC16F040EC26F80
:1021000029EC04F0B40EF66E020EF76E89EC04F0C2
:10211000040EAF6FFA0EC66F71EC03F0AF2FFAD753
:102120000B0E1B6E0C0EC06F5AEC04F0178A182CA5
:102130001BD102EC00F0010EC16FC26F29EC04F05C
:10214000C80EF66E020EF76E89EC04F0010E312413
:10215000AF6FB06F020EB16FB3EC05F0020E312419
:10216000AF6FB06F030EB16FB3EC05F0030E312407
:10217000AF6FB06F040EB16FB3EC05F0010EC16F1D
:102180001CC0C2F029EC04F032C0C0F05AEC04F0DC
:102190001C50020814E1010EC16F040EC26F29EC3D
:1021A00004F033C0C0F05AEC04F0010EC16F030E0E
:1021B000C26F29EC04F033C0C0F05AEC04F01C509C
:1021C000040814E1010EC16F020EC26F29EC04F085
:1021D00033C0C0F05AEC04F0010EC16F030EC26FA1
:1021E00029EC04F033C0C0F05AEC04F01C50030892
:1021F00014E1010EC16F040EC26F29EC04F033C06C
:10220000C0F05AEC04F0010EC16F020EC26F29EC4F
:1022100004F033C0C0F05AEC04F0179A928A80AAF6
:1022200015D0140EC66F71EC03F0928A80AA0DD0FF
:1022300016B60BD01E061C06010E1C241D6E16863B
:102240001E0EC66F71EC03F0178A01D016969680A9
:1022500084A015D0140EC66F71EC03F0968084A094
:102260000DD016BA0BD01E2A1C2A010E1C5C1D6E46
:10227000168A1E0EC66F71EC03F0178A01D0169AEB
:102280001E50205C08E2312A1EC020F0020E205CA5
:102290001F6E040E1C6E1F501E5C08E231061EC02D
:1022A0001FF0020E1F24206E020E1C6E1E50195CC1
:1022B00009E21AC01EF0020E1C6E316A1EC01FF029
:1022C0001F24206E1A501E5C0BE219C01EF0040E73
:1022D0001C6E195C316E1EC020F0020E205C1F6E59
:1022E00031BE01D001D0316A968284A223D0140E6F
:1022F000C66F71EC03F0968284A21AD016B818D07B
:1023000016881EC018F0030E1C6E020EAF6F960EDC
:10231000C66F71EC03F0AF2FFAD70C0EC06F5AECFA
:1023200004F01850060804E1356A366A376A386ADC
:10233000178A01D01698968484A416D0140EC66FFE
:1023400071EC03F0968484A40FD0020EAF6FFA0EE6
:10235000C66F71EC03F0AF2FFAD7320E186E0C0E69
:10236000C06F5AEC04F0178A18500208D8A42AD17A
:1023700002EC00F0010EC16FC26F29EC04F0DE0E1A
:10238000F66E020EF76E89EC04F0010EC16F020EBC
:10239000C26F29EC04F0F40EF66E020EF76E89ECB3
:1023A00004F0060EC16F030EC26F29EC04F029C0C1
:1023B000AFF0030EB06F02EC06F03A0EC06F5AECAD
:1023C00004F02AC0AFF0010EB06F02EC06F0130E5D
:1023D000F66E030EF76E080EB36F2CEC05F0060ECA
:1023E0002E24AF6FC16F040EC26F29EC04F034C00D
:1023F000C0F05AEC04F0179A928A80AA26D0140EE4
:10240000C66F71EC03F0928A80AA1FD02E2C0DD0DB
:102410002950EF080AE3050E2926020EAF6F960E2B
:10242000C66F71EC03F0AF2FFAD72E5004080CE101
:102430002A503A0809E32A2A020EAF6F960EC66F99
:1024400071EC03F0AF2FFAD7178A968084A024D0BE
:10245000140EC66F71EC03F0968084A01DD02E2C54
:102460000CD029520AE0050E295E020EAF6F960EBF
:10247000C66F71EC03F0AF2FFAD72E5004080BE1B2
:102480002A5209E02A06020EAF6F960EC66F71EC53
:1024900003F0AF2FFAD7178A968284A21ED0140EAB
:1024A000C66F71EC03F0968284A217D02E2C03D055
:1024B000040E2E6E05D02E50040802E1010E2E6E81
:1024C000020EAF6FFA0EC66F71EC03F0AF2FFAD7A2
:1024D0000C0EC06F5AEC04F0178A968484A472D054
:1024E000968484A46FD0C80EC66F71EC03F00C0EF6
:1024F000C06F5AEC04F0010EC16F020EC26F29ECDE
:1025000004F01C0EF66E030EF76E89EC04F0010E5B
:10251000C16F030EC26F29EC04F02E0EF66E030E8F
:10252000F76E89EC04F0140EA96E29C0A8FFA69CD2
:10253000A69EA684F250006EF29E0F01550EA76E65
:10254000AA0EA76EA682A6B2FED7A6940050F212DB
:10255000140E0001C66F71EC03F01E0EA96E2AC0A6
:10256000A8FFA69CA69EA684F250006EF29E0F01C4
:10257000550EA76EAA0EA76EA682A6B2FED7A69487
:102580000050F212140E0001C66F71EC03F029C066
:1025900027F02AC028F0040EAF6FAF0EC66F71ECA3
:1025A00003F0AF2FFAD71E0EC66F71EC03F0010EC9
:1025B000186E316A020E1C6E1E6E0C0EC06F5AEC45
:1025C00004F0178A18500308D8A4A5D102EC00F033
:1025D000010EC16FC26F29EC04F0400EF66E030EBF
:1025E000F76E89EC04F0010EC16F020EC26F29EC88
:1025F00004F0560EF66E030EF76E89EC04F0010E31
:10260000C16F030EC26F29EC04F06C0EF66E030E60
:10261000F76E0A0EB36F2CEC05F035C0AFF01F0E4D
:10262000B06F4FEC05F036C0AFF01F0EB06F4FEC3F
:1026300005F037C0AFF01F0EB06F4FEC05F038C09B
:10264000AFF01F0EB06F4FEC05F0200EC06F5AECCC
:1026500004F0200EC06F5AEC04F01BC0C1F0040E51
:10266000C26F29EC04F034C0C0F05AEC04F01B50E7
:102670000B080FE21B500D080CE3010E1B5CAF6F43
:10268000C16F040EC26F29EC04F033C0C0F05AECE5
:1026900004F0179A928A80AA19D0140EC66F71ECB2
:1026A00003F0928A80AA11D016B60FD00B0E1B5CD5
:1026B000036A350FE96E000E0320EA6EEF2A1686D4
:1026C0001E0EC66F71EC03F0178A01D01696968025
:1026D00084A019D0140EC66F71EC03F0968084A00C
:1026E00011D016BA0FD00B0E1B5C036A350FE96EC2
:1026F000000E0320EA6EEF06168A1E0EC66F71ECFE
:1027000003F0178A01D0169A968284A215D0140E6F
:10271000C66F71EC03F0968284A20DD016B80BD070
:1027200016881B2A1E0EC66F71EC03F00C0EC06FCC
:102730005AEC04F0178A01D01698968484A415D018
:10274000960EC66F71EC03F0968484A40DD016BC6F
:102750000BD0168C1B061E0EC66F71EC03F00C0E10
:10276000C06F5AEC04F0178A01D0169C0B0E1B5C4C
:10277000036A350FE96E000E0320EA6EEFBE01D04A
:102780000AD00B0E1B5C036A350FE96E000E0320A6
:10279000EA6E090EEF6E0B0E1B5C036A350FE96ED5
:1027A000000E0320EA6EEFBE0CD0EF50090809E2DC
:1027B0000B0E1B5C036A350FE96E000E0320EA6EF8
:1027C000EF6A1B500A0810E30B0E1B6E010E186E09
:1027D000316A356A366A376A386A178A0B0E1B6E99
:1027E0000C0EC06F5AEC04F01B500E08D8B093D0FA
:1027F0003950355C4EE13A50365C4BE13B50375C2A
:1028000048E13C50385C45E1010EC16FC26F29ECD4
:1028100004F0820EF66E030EF76E89EC04F0010EE2
:10282000C16F020EC26F29EC04F0980EF66E030E13
:10283000F76E89EC04F0010EC16F030EC26F29EC34
:1028400004F0AE0EF66E030EF76E89EC04F0010E86
:10285000C16F040EC26F29EC04F0C40EF66E030EB5
:10286000F76E89EC04F0020EAF6FFA0EC66F71ECD2
:1028700003F0AF2FFAD73D0E186E0B0E1B6E0C0E29
:10288000C06F5AEC04F0356A366A376A386A178ABC
:1028900042D0010EC16FC26F29EC04F0DA0EF66E61
:1028A000030EF76E89EC04F0010EC16F020EC26FC9
:1028B00029EC04F0F00EF66E030EF76E89EC04F0CE
:1028C000010EC16F030EC26F29EC04F0060EF66E06
:1028D000040EF76E89EC04F0010EC16F040EC26F96
:1028E00029EC04F01C0EF66E040EF76E89EC04F071
:1028F000020EAF6FFA0EC66F71EC03F0AF2FFAD76E
:102900000B0E1B6E0C0EC06F5AEC04F0178A356A62
:10291000366A376A386A18503D08D8A4C4D102EC28
:1029200000F0010EC16FC26F29EC04F0320EF66E9A
:10293000040EF76E89EC04F0010EC16F020EC26F37
:1029400029EC04F0480EF66E040EF76E89EC04F0E4
:10295000010EC16F030EC26F29EC04F05E0EF66E1D
:10296000040EF76E0A0EB36F2CEC05F035C0AFF015
:102970001F0EB06F4FEC05F036C0AFF01F0EB06FFA
:102980004FEC05F037C0AFF01F0EB06F4FEC05F005
:1029900038C0AFF01F0EB06F4FEC05F0200EC06FC7
:1029A0005AEC04F0200EC06F5AEC04F01BC0C1F0CA
:1029B000040EC26F29EC04F034C0C0F05AEC04F0ED
:1029C0001B500B080FE21B500D080CE3010E1B5CA3
:1029D000AF6FC16F040EC26F29EC04F033C0C0F0BA
:1029E0005AEC04F0179A928A80AA19D0140EC66F76
:1029F00071EC03F0928A80AA11D016B60FD00B0E9C
:102A00001B5C036A350FE96E000E0320EA6EEF2AA5
:102A100016861E0EC66F71EC03F0178A01D016964B
:102A2000968084A019D0140EC66F71EC03F09680C6
:102A300084A011D016BA0FD00B0E1B5C036A350FA1
:102A4000E96E000E0320EA6EEF06168A1E0EC66FB0
:102A500071EC03F0178A01D0169A968284A211D0E5
:102A6000968284A20DD016B80BD016881B2A1E0E93
:102A7000C66F71EC03F00C0EC06F5AEC04F0178AAD
:102A800001D01698968484A415D0960EC66F71EC6A
:102A900003F0968484A40DD016BC0BD0168C1B06B4
:102AA0001E0EC66F71EC03F00C0EC06F5AEC04F0F2
:102AB000178A01D0169C0B0E1B5C036A350FE96E5A
:102AC000000E0320EA6EEFBE01D00AD00B0E1B5C95
:102AD000036A350FE96E000E0320EA6E090EEF6EF1
:102AE0000B0E1B5C036A350FE96E000E0320EA6EC5
:102AF000EFBE0CD0EF50090809E20B0E1B5C036A15
:102B0000350FE96E000E0320EA6EEF6A1B500A08CB
:102B10000FE30B0E1B6E010E186E356A366A376AAC
:102B2000386A178A0B0E1B6E0C0EC06F5AEC04F03D
:102B30001B500E08D8B0B7D0010EC16FC26F29EC80
:102B400004F0740EF66E040EF76E89EC04F0010EBC
:102B5000C16F020EC26F29EC04F08A0EF66E040EED
:102B6000F76E89EC04F0010EC16F030EC26F29EC01
:102B700004F0A00EF66E040EF76E89EC04F0010E60
:102B8000C16F040EC26F29EC04F0B60EF66E040E8F
:102B9000F76E89EC04F0A96A35C0A8FFA69CA69E32
:102BA000A684F250006EF29E0F01550EA76EAA0E7B
:102BB000A76EA682A6B2FED7A6940050F212140EFB
:102BC0000001C66F71EC03F0010EA96E36C0A8FFBC
:102BD000A69CA69EA684F250006EF29E0F01550E92
:102BE000A76EAA0EA76EA682A6B2FED7A694005024
:102BF000F212140E0001C66F71EC03F0020EA96E02
:102C000037C0A8FFA69CA69EA684F250006EF29E36
:102C10000F01550EA76EAA0EA76EA682A6B2FED70A
:102C2000A6940050F212140E0001C66F71EC03F06E
:102C3000030EA96E38C0A8FFA69CA69EA684F250DB
:102C4000006EF29E0F01550EA76EAA0EA76EA68209
:102C5000A6B2FED7A6940050F212140E0001C66F61
:102C600071EC03F0020EAF6FFA0EC66F71EC03F059
:102C7000AF2FFAD7010E186E316A020E1C6E1E6E4F
:102C800035C039F036C03AF037C03BF038C03CF0C0
:102C9000356A366A376A386A178A0B0E1B6E0C0E55
:102CA000C06F5AEC04F018500408D8A4F0D002EC1D
:102CB00000F0010EC16FC26F29EC04F0CC0EF66E6D
:102CC000040EF76E89EC04F0010EC16F020EC26FA4
:102CD00029EC04F0E20EF66E040EF76E0B0EB36FE5
:102CE0002CEC05F0080EE96E41C0B0F040C0AFF02A
:102CF00035EF06F0200EC06F5AEC04F0200EC06FC6
:102D00005AEC04F0200EC06F5AEC04F0010EC16FB3
:102D1000040EC26F29EC04F0F60EF66E040EF76E88
:102D200089EC04F0179A928A80AA8FD0968284A2A6
:102D30008CD0140EC66F71EC03F0928A80AA85D0F5
:102D4000968284A282D0C80EC66F71EC03F00C0E7E
:102D5000C06F5AEC04F0010EC16F020EC26F29EC75
:102D600004F00C0EF66E050EF76E89EC04F0010E01
:102D7000C16F030EC26F29EC04F01E0EF66E050E35
:102D8000F76E89EC04F0320EA96EA86AA69CA69E86
:102D9000A684F250006EF29E0F01550EA76EAA0E89
:102DA000A76EA682A6B2FED7A6940050F212140E09
:102DB0000001C66F71EC03F0330EA96EA86AA69CE1
:102DC000A69EA684F250006EF29E0F01550EA76ECD
:102DD000AA0EA76EA682A6B2FED7A6940050F21243
:102DE000140E0001C66F71EC03F0340EA96EA86AD0
:102DF000A69CA69EA684F250006EF29E0F01550E70
:102E0000A76EAA0EA76EA682A6B2FED7A694005001
:102E1000F212040E0001AF6FAF0EC66F71EC03F03B
:102E2000AF2FFAD7216A226A416A406A1E0EC66F26
:102E300071EC03F0010E186E316A020E1C6E1E6EEC
:102E40000C0EC06F5AEC04F0178A968484A41ED02E
:102E5000140EC66F71EC03F0968484A416D016BCD1
:102E600014D0168C020EAF6FFA0EC66F71EC03F021
:102E7000AF2FFAD7010E186E316A020E1C6E1E6E4D
:102E80000C0EC06F5AEC04F0178A01D0169C185033
:102E90000508D8A42AD102EC00F0010EC16FC26F60
:102EA00029EC04F0300EF66E050EF76E89EC04F096
:102EB000010EC16F020EC26F29EC04F0050EAF6F58
:102EC00071EC08F000C0AFF001C0B0F002C0B1F08A
:102ED00003C0B2F003C0C6F002C0C5F001C0C4F028
:102EE00000C0C3F0D70ECA6FA30EC96FC86B810EA6
:102EF000C76F3DEC09F000C0AFF001C0B0F002C0F8
:102F0000B1F003C0B2F0460EF66E050EF76E090E74
:102F1000B36F2CEC05F0020EE96EB2C0B6F0B1C092
:102F2000B5F0B0C0B4F0AFC0B3F0B76F13EC0AF0B7
:102F3000540EF66E050EF76E070EB36F2CEC05F00F
:102F4000010EC16F030EC26F29EC04F0B46B00ECEC
:102F500004F000C0AFF001C0B0F002C0B1F003C097
:102F6000B2F05C0EF66E050EF76E080EB36F2CEC29
:102F700005F0010EE96EB2C0B6F0B1C0B5F0B0C058
:102F8000B4F0AFC0B3F0B76B13EC0AF0010EC16F31
:102F9000040EC26F29EC04F06A0EF66E050EF76E91
:102FA000070EB36F2CEC05F0010EE96EA9C0B6F068
:102FB000A8C0B5F0A7C0B4F0A6C0B3F0B76B13ECCF
:102FC0000AF0179A968284A270D0140EC66F71EC24
:102FD00003F0968284A268D016B866D0010E186EEF
:102FE000316A020E1C6E1E6E0B0E1B6E020EAF6F50
:102FF000FA0EC66F71EC03F0AF2FFAD70C0EC06F4C
:103000005AEC04F0B46B00EC04F003C0A9F002C069
:10301000A8F001C0A7F000C0A6F0A9C0C6F0A8C0E3
:10302000C5F0A7C0C4F0A6C0C3F0D6EC0AF002C039
:1030300043F001C042F042C025F043C026F03C0EF0
:10304000A96E25C0A8FFA69CA69EA684F250006E7D
:10305000F29E0F01550EA76EAA0EA76EA682A6B20B
:10306000FED7A6940050F212140E0001C66F71EC48
:1030700003F03D0EA96E26C0A8FFA69CA69EA684BE
:10308000F250006EF29E0F01550EA76EAA0EA76EAB
:10309000A682A6B2FED7A6940050F212140E00012A
:1030A000C66F71EC03F0178A01D01698968484A439
:1030B0001BD0140EC66F71EC03F0968484A413D059
:1030C00016BC11D0010E186E316A020E1C6E1E6EF7
:1030D0000B0E1B6E1E0EC66F71EC03F00C0EC06F54
:1030E0005AEC04F0178A01D0169C18500608D8A490
:1030F00093D017781688010E186E316A17A830D051
:103100001788010EC16FC26F29EC04F0780EF66EBD
:10311000050EF76E89EC04F0010EC16F020EC26F4E
:1031200029EC04F08E0EF66E050EF76E89EC04F0B5
:10313000010EC16F030EC26F29EC04F0A40EF66EEF
:10314000050EF76E89EC04F0010EC16F040EC26F1C
:1031500029EC04F0BA0EF66E050EF76E89EC04F059
:1031600017B830D01798010EC16FC26F29EC04F068
:10317000D00EF66E050EF76E89EC04F0010EC16FED
:10318000020EC26F29EC04F0E60EF66E050EF76E25
:1031900089EC04F0010EC16F030EC26F29EC04F03C
:1031A000FC0EF66E050EF76E89EC04F0010EC16F91
:1031B000040EC26F29EC04F0120EF66E060EF76EC6
:1031C00089EC04F0000E17B8010EAF6F050EA96E62
:1031D000AFC0A8FFA69CA69EA684F250006EF29EE9
:1031E0000F01550EA76EAA0EA76EA682A6B2FED735
:1031F000A6940050F212040E0001AF6FFA0EC66FD3
:1032000071EC03F0AF2FFAD7020E1C6E1E6E0C0E7F
:10321000C06F5AEC04F0178A18503208D8A418D39B
:1032200017A011D11790050EAF6F71EC08F003C015
:10323000A5F002C0A4F001C0A3F000C0A2F0010EEE
:10324000C16FC26F29EC04F0A5C0C6F0A4C0C5F0E0
:10325000A3C0C4F0A2C0C3F0D70ECA6FA30EC96F3B
:10326000C86B810EC76F3DEC09F000C0AFF001C024
:10327000B0F002C0B1F003C0B2F0280EF66E060E38
:10328000F76E080EB36F2CEC05F0020EE96EB2C0BB
:10329000B6F0B1C0B5F0B0C0B4F0AFC0B3F0B76F26
:1032A00013EC0AF0350EF66E060EF76E070EB36FCE
:1032B0002CEC05F0A5C0C6F0A4C0C5F0A3C0C4F0B6
:1032C000A2C0C3F0A40ECA6F700EC96F3D0EC86FC6
:1032D0007D0EC76F8FEC06F000C0AFF001C0B0F0FC
:1032E00002C0B1F003C0B2F003C0C6F002C0C5F026
:1032F00001C0C4F000C0C3F0CA6BC96B300EC86F08
:10330000820EC76F3DEC09F003C0A1F002C0A0F02F
:1033100001C09FF000C09EF0C66BC56B300EC46F3D
:10332000820EC36FA1C0CAF0A0C0C9F09FC0C8F090
:103330009EC0C7F099EC04F006E3A16BA06B300EC1
:103340009F6F820E9E6F2D6AA1C0B2F0A0C0B1F037
:103350009FC0B0F09EC0AFF08FEC0CF000C0AFF09B
:1033600001C0B0F002C0B1F003C0B2F0C86B2DC014
:10337000C7F0E5EC03F003C0C6F002C0C5F001C021
:10338000C4F000C0C3F0B2C0CAF0B1C0C9F0B0C050
:10339000C8F0AFC0C7F099EC04F00EE3080E2D247E
:1033A000AF6FC16F020EC26F29EC04F0D10EC06F77
:1033B0005AEC04F02D2AC8D7A1C0B2F0A0C0B1F0D9
:1033C0009FC0B0F09EC0AFF08FEC0CF003C0C6F011
:1033D00002C0C5F001C0C4F000C0C3F0D6EC0AF0D2
:1033E00001C02DF02D500A080EE3080E2D24AF6FFA
:1033F000C16F020EC26F29EC04F0200EC06F5AECB0
:1034000004F02D2AEFD7090EC16F030EC26F29EC0D
:1034100004F03E0EF66E060EF76E060EB36F2CEC41
:1034200005F027C0AFF0030EB06F02EC06F03A0EC5
:10343000C06F5AEC04F028C0AFF0010EB06F02EC80
:1034400006F002EC00F016AE4CD017A845D00C0EDA
:10345000C06F5AEC04F0010EC16F020EC26F29EC6E
:1034600004F04E0EF66E060EF76E89EC04F0010EB7
:10347000C16F030EC26F29EC04F0640EF66E060EE7
:10348000F76E89EC04F0010EC16F040EC26F29ECD7
:1034900004F07A0EF66E060EF76E89EC04F0010E5B
:1034A000C16FC26F29EC04F0900EF66E060EF76E37
:1034B00089EC04F02D6A2D5004080EE38C80959061
:1034C000C80EC66F71EC03F08C909590C80EC66F55
:1034D00071EC03F02D2AEFD7169E0C0EC06F5AEC3C
:1034E00004F0A40EC66F700EC56F3D0EC46F7D0E46
:1034F000C36FA5C0CAF0A4C0C9F0A3C0C8F0A2C0E1
:10350000C7F099EC04F001E203E1010E3D6E03D037
:103510003D6A8C909590010EC16F020EC26F29EC2E
:1035200004F0A60EF66E060EF76E89EC04F016A4F3
:103530000DD0010EC16F040EC26F29EC04F0AE0E67
:10354000F66E060EF76E89EC04F00CD0010EC16F1A
:10355000040EC26F29EC04F0B80EF66E060EF76E7C
:1035600089EC04F016A00DD00D0EC16F040EC26FD1
:1035700029EC04F0C20EF66E060EF76E89EC04F02C
:103580000CD00D0EC16F040EC26F29EC04F0CA0EF0
:10359000F66E060EF76E89EC04F016A20DD0010E41
:1035A000C16F030EC26F29EC04F0D20EF66E060E48
:1035B000F76E89EC04F00CD0010EC16F030EC26FE0
:1035C00029EC04F0DA0EF66E060EF76E89EC04F0C4
:1035D000179A16A411D0010EAF6F9AEC0CF017BC1D
:1035E0000AD0BAEC03F0C80EC66F71EC03F0BAEC67
:1035F00003F0178C178A0FD0AF6B9AEC0CF017AC56
:103600000AD0BAEC03F0C80EC66F71EC03F0BAEC46
:1036100003F0179C178A16A019D01694AF6B9AEC7A
:103620000CF016928C9495948C829592169E17B2FB
:103630000CD0BAEC03F0C80EC66F71EC03F0BAEC14
:1036400003F01782010E306E178A11D016908C92FB
:10365000959217A20CD0BAEC03F0C80EC66F71ECAD
:1036600003F0BAEC03F01792010E306E178A16A21F
:103670000FD08C84959417B40AD0BAEC03F0C80E1E
:10368000C66F71EC03F0BAEC03F01784178A0ED002
:103690008C94959417A40AD0BAEC03F0C80EC66FA8
:1036A00071EC03F0BAEC03F01794178A968084A0AB
:1036B00015D0140EC66F71EC03F0968084A00DD067
:1036C00016B60BD016721686020EAF6F960EC66F28
:1036D00071EC03F0AF2FFAD7178A01D016969682B5
:1036E00084A215D0140EC66F71EC03F0968284A2EA
:1036F0000DD016B80BD016741688020EAF6F960E4A
:10370000C66F71EC03F0AF2FFAD7178A01D0169865
:10371000968484A40DD0140EC66F71EC03F09684C9
:1037200084A406D0960EC66F71EC03F01670178A4B
:10373000928A80AA1ED0140EC66F71EC03F0928A92
:1037400080AA17D0C80EC66F71EC03F00C0EC06FC4
:103750005AEC04F0020EAF6F960EC66F71EC03F0D8
:10376000AF2FFAD7010E186E316A020E1C6E1E6E54
:10377000178A302C61D0320EA96E21C0A8FFA69CFA
:10378000A69EA684F250006EF29E0F01550EA76E03
:10379000AA0EA76EA682A6B2FED7A6940050F21279
:1037A000330EA96E22C0A8FFA69CA69EA684F25046
:1037B000006EF29E550EA76EAA0EA76EA682A6B246
:1037C000FED7A6940050F21240C023F041C024F06E
:1037D000340EA96E23C0A8FFA69CA69EA684F2CF95
:1037E00000F0F29E550EA76EAA0EA76EA682A6B294
:1037F000FED7A6940050F212140E0001C66F71ECB1
:1038000003F0350EA96E24C0A8FFA69CA69EA68430
:10381000F250006EF29E0F01550EA76EAA0EA76E13
:10382000A682A6B2FED7A6940050F212140E000192
:10383000C66F71EC03F0306A21503B0802E2216A46
:10384000222A22503C0804E1226A402AD8B4412AA4
:103850002F503B080AE2BAEC03F0C80EC66F71ECB9
:1038600003F0BAEC03F02F6A178A9DEF0EF0030005
:020000040030CA
:0E00000020CE1F1E000781000FC00FE00F4032
:00000001FF
;PIC18F4550
;CRC=EC4C  CREATED="10-oct.-18 10:27"
