:04000000BCEF0FF052
:08000800046ED8CF05F0E0CF33
:1000100006F00001E9CF0CF0EACF07F0E1CF08F0DD
:10002000E2CF09F0D9CF0AF0DACF0BF0F3CF12F01C
:10003000F4CF13F0FACF14F000C00EF001C00FF0AF
:1000400002C010F003C011F09DA02AEF00F09EB096
:100050005AEF00F00EC000F00FC001F010C002F027
:1000600011C003F00CC0E9FF07C0EAFF078E08C00B
:10007000E1FF09C0E2FF0AC0D9FF0BC0DAFF12C0DE
:10008000F3FF13C0F4FF14C0FAFF045006C0E0FFF2
:1000900005C0D8FF1000F2CF0DF0F29EF76AB00F46
:1000A000F66E000EF7220900F5500DBEF28E12001A
:1000B000280C0106150ECF6EA00ECE6E402AD8B4C5
:1000C000412A415203E14050C70827E2416A406A91
:1000D000302A18803F2C0AD018B603D08C90959007
:1000E00004D018A802D08C809590187617A015D04F
:1000F000222A17BE12D0295202E029060ED0285219
:1001000004E028063B0E296E08D0178E17908C92BB
:1001100095922AC028F02BC029F09E902AEF00F07B
:1001200054656D706F72697A61646F7220555620E4
:100130002020200043616D62696F20436F6E7472EE
:10014000617365F1612020005469656D706F205402
:10015000726162616A6F20555620200053656E738C
:100160006F722050726573696F6E2020202020000E
:10017000416C61726D6120202020202020202020F1
:100180004F464600416C61726D6120202020202086
:1001900020202020204F4E0053656E736F72204642
:1001A0006C756A6F202020202020200056656C6F1F
:1001B000636964616420202020202020202020000A
:1001C00020434142494E4120204445202020464CB6
:1001D000554A4F200000204C414D494E4152204885
:1001E0004F52495A4F4E54414C20000020202020AD
:1001F0004A5020494E474C4F42414C20202020205D
:1002000000002020205245463A20204A5043464CC8
:1002100048313230202000002020202020496E6705
:1002200072657365202020202020202000002020DF
:100230002020436F6E7472617365F161202020206D
:100240002020000020202020434C4156453D2569B8
:1002500025692569256920200000202020202020F4
:1002600020202020202020202020202020002020AE
:10027000202020436F6E7472617365F1612020202D
:100280002000202020202020436F7272656374615B
:10029000202020202000202020202020202020207E
:1002A000202020202020202020002020202020206E
:1002B000202020202020202020202020200020205E
:1002C000202020436F6E7472617365F161202020DD
:1002D00020002020202020496E636F7272656374B5
:1002E00061202020200020202020202020202020ED
:1002F000202020202020202020002D2D2D4D454E77
:1003000055205052494E434950414C2D2D2D00004F
:100310002020202054656D706F72697A61646F725D
:10032000202020202000202020202020204C757A12
:1003300020555620202020202020200025303375F5
:100340003A2530327520284D3A532920200054692F
:10035000656D706F20416C6D6163656E61646F00E7
:100360002020436F7272656374616D656E746520E1
:100370002000202020202020496E677265736520B0
:10038000202020202020000020436F6E74726173B3
:1003900065F1612041637475616C202000002020AC
:1003A0002020434C4156453D25692569256925692D
:1003B000202000002020202020202020202020207D
:1003C000202020202020202000002020202020434A
:1003D0006F6E7472617365F161202020202000002F
:1003E000202020202020436F7272656374612020DA
:1003F000202020200000202020202020202020203D
:10040000202020202020202020200000202020202C
:1004100020202020202020202020202020202020DC
:1004200000002020202020436F6E7472617365F1FC
:1004300061202020202000002020202020496E6301
:100440006F727265637461202020202000002020DC
:10045000202020202020202020202020202020209C
:10046000202000002020202020496E6772657365DF
:10047000202020202020202000002020436F6E74A8
:1004800072617365F161204E756576612020000010
:1004900020202020434C4156453D2569256925698A
:1004A000256920200000202020202020202020203E
:1004B000202020202020202020200000202020207C
:1004C00020436F6E7472617365F1612020202020DB
:1004D00000002020202020416C6D6163656E616406
:1004E000612020202020000020202020202020200B
:1004F000202020202020202020202020000020203C
:100500004475726163696F6E2041637475616C201C
:10051000202000002020205469656D706F3D20254B
:1005200030354C75202020002052455345543D2045
:100530004F7072696D61205E2079203E200020524C
:1005400065736574206465207469656D706F200043
:100550002020202020457869746F736F2020202090
:1005600020002050756E746F204365726F205072AA
:100570006573696F6E20000050726573696F6E3D20
:100580002025332E326620696E48324F200020200D
:1005900020204144433D25322E306600202020207B
:1005A0005A463D25322E3066000020202020202093
:1005B000202020202020202020202020202000007B
:1005C000202020202020202041637469766F202085
:1005D0002020202000002020202020202020416CEE
:1005E00061726D612020202020200000202020202A
:1005F00020202020202020202020202020202020FB
:10060000000020202020202020202020202020202A
:1006100020202020202000002020202020204465B1
:100620007361637469766F202020202000002020F1
:100630002020202020416C61726D6120202020202C
:1006400020200000202020202020202020202020EA
:1006500020202020202020200000202050756E74B3
:100660006F206365726F20466C756A6F2000416A67
:10067000757374653D2025332E326620202020209E
:1006800020200000202020204144433D25322E30F0
:100690006600202020205A463D25322E306600007C
:1006A000202020202053656C656363696F6E652090
:1006B000202020200000202020202056656C6F6321
:1006C0006964616420202020202000002020202058
:1006D00020202020202564202020202020202020D1
:1006E000000020202020202020202020202020204A
:1006F000202020202020000020202020202020203A
:100700002020202020202020202020200000202029
:100710002020202056616C6F722020202020202075
:100720002020000020202020416C6D6163656E61F7
:10073000646F202020202020000020202020202066
:1007400020202020202020202020202020200000E9
:1007500054656D706F3A253033753A253032750027
:10076000503A25312E3166696E48324F20463A257F
:10077000312E32666D2F7300202054656D706F72BC
:10078000697A61646F722020646520200000204C2B
:10079000757A205556202046696E616C697A6164CD
:1007A0006F2000002020202020202020202020203A
:1007B0002020202020202020000020202020202079
:1007C0002020202020202020202020202020000069
:1007D00046696C74726F3A004D6F746F723A4F4E87
:1007E00020004D6F746F723A4F46460055563A4F8F
:1007F0004E20000055563A4F464600004C757A3A56
:100800004F4E20004C757A3A4F464600010EEA6E74
:100810002C0EE96EEF500EE00F0E016E006A002EF6
:10082000FED7012EFBD78F0E006E002EFED70000E4
:10083000EF2EF2D7000C01012D39F00B006E0F0ED8
:1008400081140010816E090E006E002EFED700D0BC
:100850008186DB0E006E002EFED700D0819600014F
:10086000000C8192010E01012C6F0001CFDF01010C
:100870002AA181922AB18182090E006E002EFED734
:1008800000D08194090E006E002EFED700D0819614
:100890002B392C6F0F0E2C172CC12DF10001CBDF43
:1008A00001012B510F0B2C6F2D6F0001C4DF000CC9
:1008B000000E936E8192819481960F0E01012C6F30
:1008C0000001A4DF010E0101156F155103080CE3AF
:1008D000030E2D6F0001AFDF050E01012C6F00012B
:1008E00095DF0101152BF1D7020E2D6F0001A3DF5B
:1008F0000101156B1551030813E3036A1551F2CF7B
:1009000016F1F29E00014BEC00F0010116BFF28ED1
:10091000166F2A6B2B6F0001A4DF0101152BEAD79C
:100920000001000C8E0E006E2EC101F02DC102F0F0
:10093000036A015209E102C001F0026A080E005E7A
:10094000015202E1006A08D0D89001BE04D00236FC
:1009500001360006F9D7019E000C01011A35006E20
:100960000036FC0E001600C001F0C250C30B001090
:10097000C26E0A0E2C6F000149DFC282C2B2FED7DE
:10098000C4CF2EF1C3CF2DF10001CCDF03C01EF187
:1009900002C01DF101C01CF100C01BF11BC100F021
:1009A0001CC101F01DC102F01EC103F0000C010EBC
:1009B0000101285DFC0F15E2040F0001FAEF04F0BD
:1009C000800E0101296F0DD0C00E0101296F09D0E1
:1009D000940E0101296F05D0D40E0101296F01D0B9
:1009E0000101010E275D29272A6B29C12BF1000186
:1009F00038DF000CF2CF0DF0F29EE824F76AF736EC
:100A0000190FF66E0A0EF7220A00F550FA6E08006A
:100A1000F5500DBEF28EF96EC009C809D009D8098B
:100A200001012651F10802E1EE0E266F2651D10890
:100A300002E1FF0E266F26510C0A000105E0060AAE
:100A400011E0020A18E01ED001012A6B010E2B6F83
:100A5000000107DF010E166E020E01012C6F00016E
:100A6000D5DE18D0162A010E0101276F16C028F115
:100A700000019DDF0FD001012A6B100E2B6F0001CA
:100A8000F0DE08D0010E01012A6F26C12BF1000112
:100A9000E8DE00D0000C0900F5520CE0F6CF18F1AA
:100AA000F7CF19F1F5CF26F1BBDF18C1F6FF19C159
:100AB000F7FFF1D7000C01012951D8B4A5D0356F4B
:100AC0002D51D8B4A1D0355F05E37F0E3527D8B0BE
:100AD0009BD006D0810E355FD8A096D0D8B494D0E4
:100AE00035C100F0016A026A036A346B2AC133F12E
:100AF000338F2BC132F12CC131F1190E356F3051CA
:100B0000315F0DE2010E325F0AE2335F08E2345FCB
:100B100006E2342B332B322B3051312728D02F5182
:100B2000325F12E2010E335F0FE2345F0DE2342BCD
:100B3000332B2F5132273051312719E3322B17E154
:100B4000332B15E1342B13D02E518009335F0EE285
:100B5000010E345F0BE2342B2E51800933272F51C5
:100B60003227E9E3332BE7E1342BE5D70380352F38
:100B700001D00BD0D8903137323733373437D89053
:100B80000336023601363637BAD736A106D0D890AA
:100B9000013202320332363302D0000635E036BF6E
:100BA0001ED0D89031373237333734373051315F38
:100BB00007E2010E325F04E2335F02E2345F1AE3C0
:100BC0002F51325F05E2010E335F02E2345F12E320
:100BD0002E518009335F03E2010E345F0BE3032AD9
:100BE00009E1022A07E1012A05E1002A0DE00132AC
:100BF000023203322AC135F12E51351B35AF02D0F6
:100C0000018E06D0019E04D0006A016A026A036A5E
:100C10000001000C800ED8A202D00101321B01019C
:100C2000376B386B2EC136F13251361B2D51D8B48B
:100C3000DFD0356F006E3151D8B4E3D0355FD8B412
:100C400083D03EE332C13BF13B8F33C13AF134C133
:100C500039F1386BD8903B333A3339333833352F49
:100C6000F8D736AF03D03781E0D037913591378947
:100C7000010EEA6E300EE96EEBD0379936BF0AD01E
:100C800035A113D03B333A3339333833002AD8B443
:100C9000C7D00BD03BBF0CD0D890383739373A3754
:100CA0003B370006D8B4BCD0F5D7378D6DD0379D13
:100CB0002EC136F12EAF02D03B8FABD03B9FA9D0D7
:100CC00031C135F131C100F02D51355F2EC13BF1FD
:100CD0003B8F2FC13AF130C139F1386BD8903B339B
:100CE0003A3339333833352FF8D736AF03D037831B
:100CF0009CD037933591378B010EEA6E340EE96E36
:100D0000A7D0379B36BF0AD035A113D03B333A3337
:100D100039333833002AD8B483D00BD03BBF0CD042
:100D2000D890383739373A373B370006D8B478D0BF
:100D3000F5D7378F29D0379F32C136F132AF02D085
:100D40003B8F67D03B9F65D032C13BF13B8F33C1B6
:100D50003AF134C139F136AF04D03B9F378565D0C5
:100D60003795386B3591010EEA6E300EE96E70D012
:100D700036BF1CD02EC136F135A106D03B333A33F5
:100D800039333833002A4CE038AF0BD0392B09E126
:100D90003A2B07E13B2B05E13B333A333933002A49
:100DA0003FE037BD84D737BFC6D71CD0800E3B1B72
:100DB0003BAF04D03AD032C136F10AD02EC136F161
:100DC0003B5306E13A5304E1395302E1006A21D072
:100DD0003BBF08D0D890383739373A373B37002EE9
:100DE000F7D71ED036AF02D03B8F13D03B9F11D028
:100DF00031C100F032C13BF133C13AF134C139F1B4
:100E000008D02DC100F02EC13BF12FC13AF130C105
:100E100039F13BC101F03AC102F039C103F034D0DD
:100E2000006A016A026A036A2FD0386B391F3A1FC1
:100E30003B1F381F382B05E1392B03E13A2B01E129
:100E40003B2B37B112D737B354D737B589D7B3D780
:100E5000EF50392705E33A2B03E13B2BD8B435811A
:100E6000ED52EF503A2703E33B2BD8B43581ED52D6
:100E7000EF50EFBE01D0800A3B27D8B0358137B99B
:100E8000FCD637BB3ED774D70001000C3B50090895
:100E900001E23B6A3C50090801E23C6A3D50090806
:100EA00001E23D6A3E50090801E23E6A71EF13F02B
:100EB0000900F6CF1AF1F7CF1BF1F5CF26F1B0DD1F
:100EC0001AC1F6FF1BC1F7FF0101192F01D002D093
:100ED0000001EED70001000C01011C51016A1B5DED
:100EE00003E21BC100F00CD0006A080E1D6F1B3717
:100EF00000361C51005CD8B0006E01361D2FF7D7AC
:100F00000001000C200E010116A9300E176F15C14B
:100F100000F015AF07D0001E002A00C015F12D0EFD
:100F2000176F168F015015C11BF1640E1C6F000165
:100F3000D3DF00C015F1300E01240101186F15C177
:100F40001BF10A0E1C6F0001C7DF300E00240101E7
:100F50001A6F300E0124196F17C100F016A702D0C6
:100F600016AF169516B90BD016AF22D016B520D0F5
:100F700000C018F116B31CD000C019F119D0300E02
:100F8000185D16E100C018F1200E176F16A704D0E7
:100F90001695168316AF1693300E195D09E100C041
:100FA00019F1200E186F16A7F7D7169316AF1691E2
:100FB00016A505D017C126F1000132DD010116A3E7
:100FC00005D018C126F100012BDD010116A104D0C6
:100FD00019C126F1000124DD1AC126F1000120DD2E
:100FE000000C0101162D0CD0020E276F17C128F13D
:100FF0000001DDDC200EF66E010EF76E4CDD010106
:10100000165102080CE1020E276F17C128F10001EA
:10101000CEDC340EF66E010EF76E3DDD0101165189
:1010200003080CE1020E276F17C128F10001BFDC95
:10103000480EF66E010EF76E2EDD01011651040802
:101040000CE1020E276F17C128F10001B0DC5C0E25
:10105000F66E010EF76E1FDD0101165105081CE149
:1010600018B80CD0020E276F17C128F100019FDCC1
:10107000700EF66E010EF76E0EDD010118A80CD091
:10108000020E276F17C128F1000191DC840EF66E65
:10109000010EF76E00DD0101165106080CE1020E8B
:1010A000276F17C128F1000182DC980EF66E010E41
:1010B000F76EF1DC0101165107080CE1020E276FF3
:1010C00017C128F1000173DCAC0EF66E010EF76E4D
:1010D000E2DC01010001000C015015C11BF1640E9E
:1010E00001011C6F0001F8DE00C015F10150300E47
:1010F00008E1010116A30FD016B70DD016B9200EC6
:1011000004D00101169716991681012601C026F117
:10111000000186DC010115C11BF10A0E1C6F0001E4
:10112000DBDE00C015F10150300E08E1010116B7F9
:101130000AD016A108D016B9200E0001012601C060
:1011400026F16EDC0101300E152715C126F10001D4
:1011500067DC000CEACF1DF1E9CF1CF10101163963
:10116000F009186F1827E20F196F320F1B6F165115
:101170000F0B192719271B27E90F1A6F1A271A2790
:1011800015390F0B1A271B271A371B371B1F1B3745
:1011900015510F0B1B271837070E176F0A0E1A076A
:1011A0001B27FDE319071A27FDE318071927FDE39D
:1011B00017071827FDE3010EEA6E170EE96E070EFA
:1011C0001C151C9DE9261B0EE95CD8B41C8DEF5044
:1011D000006E08E11CBD06D01CB915D01CB702D0AA
:1011E000200E03D01C871C99300E0026EACF16F182
:1011F000E9CF15F100C026F1000112DC16C1EAFFAB
:1012000015C1E9FF0101EE501CADDDD7000194EFDF
:101210001CF02AC131F101012E51311B31AF05D033
:10122000D894D8902ABFD8802FD02AC131F12DC1AF
:1012300032F12951325F06E031AF26D0D850010A91
:10124000D86E22D02EC132F12A51325F06E031AF82
:101250001BD0D850010AD86E17D02FC132F12B51B4
:10126000325F06E031AF10D0D850010AD86E0CD0F2
:1012700030C132F12C51325F06E031AF05D0D85089
:10128000010AD86E01D0D8900001000C0101196B41
:10129000186B176B166B1A6B0001ADEC04F003C0F2
:1012A00099F002C098F001C097F000C096F099C084
:1012B0002CF198C02BF197C02AF196C029F1A9C052
:1012C00030F1A8C02FF1A7C02EF1A6C02DF15BEC24
:1012D00005F000C01AF101C01BF102C01CF103C0EF
:1012E0001DF1D88203C030F102C02FF101C02EF1F0
:1012F00000C02DF10101346B336B326B7F0E316F07
:10130000000188DC03C09DF002C09CF001C09BF08E
:1013100000C09AF09DC02CF19CC02BF19BC02AF11B
:101320009AC029F10101306B2F6B2E6B2D6B0001E0
:1013300070DF04E39D6B9C6B9B6B9A6B010E01014C
:10134000155D2C5C02E001E32C6A2C50040DF35077
:10135000036A460FE96E000E0320EA6E9AC0EFFFA3
:101360009BC0ECFF9CC0ECFF9DC0ECFF2C2A2D6ABB
:10137000010E155D2D5C01E037E22D50040DF35098
:10138000036A460FE96E000E0320EA6EEFCF00F00D
:10139000ECCF01F0ECCF02F0ECCF03F0EACF1BF181
:1013A000E9CF1AF1D89219C130F118C12FF117C144
:1013B0002EF116C12DF103C034F102C033F101C08A
:1013C00032F100C031F1000125DC1BC1EAFF1AC176
:1013D000E9FF03C019F102C018F101C017F100C004
:1013E00016F12D2A0101C4D72E6B15C12DF1000174
:1013F00092EC04F019C12CF118C12BF117C12AF19C
:1014000016C129F103C030F102C02FF101C02EF145
:1014100000C02DF15BEC05F003C019F102C018F11A
:1014200001C017F100C016F116C100F017C101F09C
:1014300018C102F019C103F0000C01012951D8B400
:1014400071D0006E2D51D8B46DD0002604E3810E0A
:10145000002668E204D07F0E005E64E363E02AC1E8
:1014600031F12E51311B2A8F2E8F2C513003F4CFA6
:1014700033F12B512F03F4CF03F0F3CF32F13003CC
:10148000F3503327F4503223000E03222C512F0344
:10149000F3503327F4503223000E026A0322022253
:1014A0002A513003F3503227F4500322000E022257
:1014B0002A512F03F3500326F4500222000E016A32
:1014C00001222C512E03F3503227F4500322000E38
:1014D000022201222B512E03F3500326F450022244
:1014E000000E01222A512E03F3500226F45001224D
:1014F000002A01BE05D03237033602360136000617
:10150000000E32AF0AD0032A02220122015005E167
:10151000025003E1035001E1002A31BF018E31AFD7
:10152000019E04D0006A016A026A036A0001000C8D
:1015300001012651B608266F036A27C12AF1278FB9
:10154000D890273328332933033202320132003254
:10155000262FF6D72AAF0BD0001E011E021E031E37
:10156000002AD8B4012AD8B4022AD8B4032A000128
:1015700025EF0BF0006A016A026A036A01012E6B13
:101580002F6B306B316B2D512C112B112A112CE04C
:10159000200E326FD89026372737283729372E3735
:1015A0002F37303731372D51315D08E12C51305D07
:1015B00005E12B512F5D02E12A512E5D0FE32A51E7
:1015C0002E5F2B51D8A02B3D2F5F2C51D8A02C3D46
:1015D000305F2D51D8A02D3D315FD88000360136C7
:1015E00002360336322FD6D7010EEA6E2E0EE96E82
:1015F0000001000CE95001011E6F1D51206F1BE01E
:101600001CC12CF11BC12BF11AC12AF119C129F1FE
:10161000306B2F6B200E2E6F820E2D6F00010DDFB1
:1016200003C01CF102C01BF101C01AF100C019F186
:101630000101202FE5D71CC129F11BC128F11AC1D6
:1016400027F119C126F1000173D703C01CF102C0B4
:101650001BF101C01AF100C019F101011CAF0DD03E
:101660001E071E8B191F1A1F1B1F1C1F192BD8B4F6
:101670001A2BD8B41B2BD8B41C2B3B0E256F9A0EFB
:10168000246FCA0E236F226B0A0E206F1D51D8B42F
:101690001E2B1CC129F11BC128F11AC127F119C148
:1016A00026F125C12DF124C12CF123C12BF122C13A
:1016B0002AF100015FDF0150EFCF19F1ECCF1AF1F1
:1016C000ECCF1BF1ECCF1CF1005213E101011D29FD
:1016D000205DD8A402D000010CD01E510DE00F0BEC
:1016E000205D01E044E21EBF42D01EBD05D0200EA9
:1016F00037D0200E01011E171EAB0FD01E9B1D51AF
:10170000D8A41E0700501E6F2D0E266F000110EC8E
:1017100005F001011E51006E1E6B1D51205D0DE193
:1017200000501E6F2E0E266F000110EC05F0010117
:101730001E51006E200E1E17000E300E1EAB10D074
:101740001E9B1D51D8A41E0700501E6F2D0E266F24
:10175000000110EC05F001011E51006E1E6B300EF1
:10176000002600C026F1000110EC05F0010125C1A2
:1017700029F124C128F123C127F122C126F12D6BC3
:101780002C6B2B6B0A0E2A6F0001F4DE03C025F1CF
:1017900002C024F101C023F100C022F10101202F79
:1017A00078D70001000C8E0E006E01012951005EF9
:1017B0002AC102F02BC101F0028E005209E0D8903C
:1017C000025202E1015204E002320132002EF7D748
:1017D0002AAF05D0011E021E012AD8B4022A000138
:1017E000000C010E01011A6F0001ADEC04F003C002
:1017F0002CF102C02BF101C02AF100C029F1D3DF86
:1018000002C0ABF001C0AAF0010110510A0823E1A7
:10181000ABC02EF1AAC02DF1000192EC04F0D892D9
:1018200003C030F102C02FF101C02EF100C02DF134
:10183000B1C034F1B0C033F1AFC032F1AEC031F15C
:101840000AEC06F003C0B9F002C0B8F001C0B7F06E
:1018500000C0B6F001011051140822E1ABC02EF116
:10186000AAC02DF1000192EC04F0D88203C030F13F
:1018700002C02FF101C02EF100C02DF1B1C034F132
:10188000B0C033F1AFC032F1AEC031F10AEC06F0B6
:1018900003C0B9F002C0B8F001C0B7F000C0B6F0A4
:1018A000B9C02CF1B8C02BF1B7C02AF1B6C029F1EC
:1018B000B9C030F1B8C02FF1B7C02EF1B6C02DF1CC
:1018C0000001BBDD03C0BDF002C0BCF001C0BBF035
:1018D00000C0BAF0B9C02CF1B8C02BF1B7C02AF1E2
:1018E000B6C029F1BDC030F1BCC02FF1BBC02EF194
:1018F000BAC02DF1A2DD03C0C1F002C0C0F001C02A
:10190000BFF000C0BEF0C1C02CF1C0C02BF1BFC001
:101910002AF1BEC029F1D1C030F1D0C02FF1CFC023
:101920002EF1CEC02DF189DD00C016F101C017F1F6
:1019300002C018F103C019F1BDC02CF1BCC02BF1DD
:10194000BBC02AF1BAC029F1D5C030F1D4C02FF103
:10195000D3C02EF1D2C02DF170DDD89219C130F173
:1019600018C12FF117C12EF116C12DF103C034F1AA
:1019700002C033F101C032F100C031F10AEC06F0CF
:1019800000C016F101C017F102C018F103C019F12F
:10199000B9C02CF1B8C02BF1B7C02AF1B6C029F1FB
:1019A000D9C030F1D8C02FF1D7C02EF1D6C02DF15B
:1019B00044DDD89219C130F118C12FF117C12EF1B1
:1019C00016C12DF103C034F102C033F101C032F170
:1019D00000C031F10AEC06F000C016F101C017F1A9
:1019E00002C018F103C019F1D89203C030F102C04F
:1019F0002FF101C02EF100C02DF1DDC034F1DCC0AB
:101A000033F1DBC032F1DAC031F10AEC06F003C089
:101A1000B5F002C0B4F001C0B3F000C0B2F0D8829B
:101A2000B5C030F1B4C02FF1B3C02EF1B2C02DF16A
:101A30000A0E0101346FD70E336F230E326F7B0E07
:101A4000316F00010AEC06F003C0B5F002C0B4F03B
:101A500001C0B3F000C0B2F0B5C02CF1B4C02BF19E
:101A6000B3C02AF1B2C029F10101306B2F6B2E6B8C
:101A70002D6B000109EC09F004E3B56BB46BB36B9B
:101A8000B26B01011551115D01E3116B1151040D90
:101A9000F350036ADE0FE96E000E0320EA6EB2C057
:101AA000EFFFB3C0ECFFB4C0ECFFB5C0ECFF112BEF
:101AB000016B006B0001FF6BFE6B0101126B010EED
:101AC000155D125D01E038E21251040DF350036A16
:101AD000DE0FE96E000E0320EA6EEFCF00F0ECCFD0
:101AE00001F0ECCF02F0ECCF03F0EACF17F1E9CF31
:101AF00016F1D89201C130F100C12FF1FFC02EF1D3
:101B0000FEC02DF103C034F102C033F101C032F147
:101B100000C031F100010AEC06F017C1EAFF16C15E
:101B2000E9FF03C001F102C000F101C0FFF000C0F5
:101B3000FEF00101122BC3D72E6B15C12DF1000150
:101B400092EC04F001C12CF100C12BF1FFC02AF18D
:101B5000FEC029F103C030F102C02FF101C02EF107
:101B600000C02DF15BEC05F000C016F101C017F1CB
:101B700002C018F103C019F103C02CF102C02BF10F
:101B800001C02AF100C029F1C5C030F1C4C02FF155
:101B9000C3C02EF1C2C02DF150DC03C001F102C060
:101BA00000F101C0FFF000C0FEF0FEC000F0FFC079
:101BB00001F000C102F001C103F00EEF24F00101B9
:101BC00028911CC121F11BC120F11AC11FF119C1BB
:101BD0001EF11CC12CF11BC12BF11AC12AF119C134
:101BE00029F1306B2F6B2E6B2D6B000109EC09F086
:101BF00005E3010128811F51800A1F6F21C12CF1CB
:101C000020C12BF11FC12AF11EC129F10101306B46
:101C10002F6B2E6B8E0E2D6F000109EC09F001E287
:101C200018E121C12CF120C12BF11FC12AF11EC1E5
:101C300029F1B9DD02C02EF101C02DF192EC04F0C2
:101C400003C025F102C024F101C023F100C022F13C
:101C5000D1D021C12CF120C12BF11FC12AF11EC10D
:101C600029F1800E0101306F960E2F6F180E2E6F26
:101C7000960E2D6F000109EC09F0D8A0B3D021C158
:101C80002CF120C12BF11FC12AF11EC129F1010144
:101C9000306B2F6B2E6B8E0E2D6F00015BEC05F001
:101CA00003C02CF102C02BF101C02AF100C029F1C0
:101CB0007ADD02C027F101C026F121C12CF120C13B
:101CC0002BF11FC12AF11EC129F10101306B2F6BCD
:101CD0002E6B8E0E2D6F00015BEC05F000C029F11C
:101CE00001C02AF102C02BF103C02CF127C12EF153
:101CF00026C12DF192EC04F0D8822CC130F12BC119
:101D00002FF12AC12EF129C12DF103C034F102C0F7
:101D100033F101C032F100C031F10AEC06F00101EB
:101D20002C6B2B6B2A6B8E0E296F03C030F102C017
:101D30002FF101C02EF100C02DF100011DEC0AF0C1
:101D400003C021F102C020F101C01FF100C01EF14B
:101D500027C12EF126C12DF192EC04F001012C6B6C
:101D60002B6B2A6B8E0E296F03C030F102C02FF14E
:101D700001C02EF100C02DF100011DEC0AF003C0DE
:101D800025F102C024F101C023F100C022F121C1DC
:101D90002CF120C12BF11FC12AF11EC129F103DD55
:101DA00002C02EF101C02DF192EC04F0D89225C1B1
:101DB00030F124C12FF123C12EF122C12DF103C036
:101DC00034F102C033F101C032F100C031F10AEC4C
:101DD00006F003C025F102C024F101C023F100C0C8
:101DE00022F108D021C125F120C124F11FC123F126
:101DF0001EC122F121C12CF120C12BF11FC12AF1FA
:101E00001EC129F1D0DC02C02EF101C02DF192ECEF
:101E100004F0D88221C130F120C12FF11FC12EF171
:101E20001EC12DF103C034F102C033F101C032F103
:101E300000C031F10AEC06F003C021F102C020F12C
:101E400001C01FF100C01EF1010128A103D02351E0
:101E5000800A236F21C12CF120C12BF11FC12AF16F
:101E60001EC129F1306B2F6B2E6B2D6B000109EC1D
:101E700009F03CE0010128A11CD01D531AE1D882D1
:101E800025C130F124C12FF123C12EF122C12DF142
:101E9000346B336B326B7F0E316F00010AEC06F04E
:101EA00003C025F102C024F101C023F100C022F1DA
:101EB000010128B11CD01D2D1AD0D89225C130F1B6
:101EC00024C12FF123C12EF122C12DF1346B336BCC
:101ED000326B7F0E316F00010AEC06F003C025F172
:101EE00002C024F101C023F100C022F101011CC194
:101EF0002CF11BC12BF11AC12AF119C129F1306B48
:101F00002F6B2E6B2D6B000109EC09F006E101012E
:101F1000256B246B236B226B000122C100F023C1CF
:101F200001F024C102F025C103F0A3EF0FF018C1A6
:101F30001CF117C11BF116C11AF115C119F10101EC
:101F40001D6B00013CD6000C0101155305E18C9678
:101F500095968B9C949C0ED0152D05D08C869596CD
:101F60008B9C949C07D01551020804E18C969596A1
:101F70008B8C949C0001000CF86AD09E078EEA6A54
:101F8000E96A17901792179417961798179A179C43
:101F9000179E18901892189418961898189A196AFB
:101FA000080E1A6E020E1B6E0B0E1C6E020E1D6EBC
:101FB000030E1E6E020E1F6E206E040E216E226A2C
:101FC000236A246A256A266A276A286A296A2A6A8D
:101FD0002B6A2C6A2D6A2E6A010E2F6E306A316AC6
:101FE000326A3F6A436A426A456A446A996B986BEF
:101FF000976B966B9D6B9C6B9B6B9A6BA16BA06BAD
:102000009F6B9E6BA56BA46BA36BA26BA96BA86B5C
:10201000A76B800EA66F189CAB6B010EAA6FAD6B01
:10202000AC6BB16BB06BAF6BAE6BB56BB46BB36BD2
:10203000B26BB96BB86BB76BB66BBD6BBC6BBB6B84
:10204000BA6BC16BC06BBF6BBE6BC56BC46BC36B34
:10205000C26BC96BC86BC76BC66BCD6BCC6BCB6BE4
:10206000CA6B190ED16F530ED06F180ECF6F680E5A
:10207000CE6FE90ED56FBD0ED46FC60ED36F710E45
:10208000D26FBE0ED96F960ED86F240ED76F7A0E10
:10209000D66FF30EDD6F5A0EDC6FAB0EDB6F810E69
:1020A000DA6F0101016B006B0001FF6BFE6B010138
:1020B000056B046B4B0E036F860E026F096B086B8A
:1020C000076B066B010E0A6F0B6B0F6B0E6B0D6BC4
:1020D0000C6B0A0E106F116B126B136B146BC150EB
:1020E000C00B0F09C16E070EB46E3E0E336E200E8C
:1020F000346E5E0E356E376A386A396A3A6A3B6A00
:102100003C6A3D6A3E6A466A476A486A496A4A6A60
:102110004B6A4C6A4D6A4E6A4F6A506A516A526AFB
:10212000536A546A556A566A576A586A596A5A6AAB
:102130005B6A5C6A5D6A5E6A5F6A0001606B616B24
:10214000626B636B646B656B666B676B686B696B0B
:102150006A6B6B6B6C6B6D6B6E6B6F6B706B716BBB
:10216000726B736B746B756B766B776B786B796B6B
:102170007A6B7B6B7C6B7D6B7E6B7F6B806B816B1B
:10218000826B836B846B856B866B876B886B896BCB
:102190008A6B8B6B8C6B8D6B8E6B8F6B906B916B7B
:1021A000926B936B946B956BDE6BDF6BE06BE16B0B
:1021B000E26BE36BE46BE56BE66BE76BE86BE96B9B
:1021C000EA6BEB6BEC6BED6BEE6BEF6BF06BF16B4B
:1021D000F26BF36BF46BF56BF66BF76BF86BF96BFB
:1021E000FA6BFB6BFC6BFD6B58EC04F0850ECD6E4F
:1021F0009D80C150C00B0D09C16EC090C082C094BB
:10220000C08EC280C00EF21201011A6B0001ADEC4B
:1022100004F0010E0101276F286F0001D7EC04F0D4
:10222000C00EF66E010EF76E4BEC05F0010E0101CB
:10223000276F020E286F0001D7EC04F0D60EF66E61
:10224000010EF76E4BEC05F0010E0101276F030E36
:10225000286F0001D7EC04F0EC0EF66E010EF76E5D
:102260004BEC05F0010E0101276F040E286F0001F1
:10227000D7EC04F0020EF66E020EF76E4BEC05F092
:10228000080E0101156FFA0E2C6F000106EC04F028
:102290000101152FF8D70C0E266F000110EC05F088
:1022A000F2CF15F1F29EA96AA69CA69EA680A85020
:1022B000010115BFF28E3B6E140E2C6F000106EC6F
:1022C00004F0F2CF15F1F29E010EA96EA69CA69E17
:1022D000A680A850010115BFF28E3C6E140E2C6F23
:1022E000000106EC04F0F2CF15F1F29E020EA96E89
:1022F000A69CA69EA680A850010115BFF28E3D6E39
:10230000140E2C6F000106EC04F0F2CF15F1F29ED2
:10231000030EA96EA69CA69EA680A850010115BF1B
:10232000F28E3E6E140E2C6F000106EC04F0F2CF1C
:1023300015F1F29E050EA96EA69CA69EA680A85039
:10234000010115BFF28E016E189801B01888140EA5
:102350002C6F000106EC04F0F2CF15F1F29E140E82
:10236000A96EA69CA69EA680A850010115BFF28E5C
:10237000286E140E2C6F000106EC04F0F2CF15F15C
:10238000F29E1E0EA96EA69CA69EA680A8500101D4
:1023900015BFF28E296E140E2C6F000106EC04F0AE
:1023A000F2CF15F1F29E320EA96EA69CA69EA680D3
:1023B000A850010115BFF28E226E140E2C6F000181
:1023C00006EC04F0F2CF15F1F29E330EA96EA69C36
:1023D000A69EA680A850010115BFF28E236E140E92
:1023E0002C6F000106EC04F0F2CF15F1F29E340ED2
:1023F000A96EA69CA69EA680A850010115BFF28ECC
:10240000246E140E2C6F000106EC04F0F2CF15F1CF
:10241000F29E350EA96EA69CA69EA680A85001012C
:1024200015BFF28E256E140E2C6F000106EC04F021
:10243000F2CF15F1F29E3C0EA96EA69CA69EA68038
:10244000A850010115BFF28E266E140E2C6F0001EC
:1024500006EC04F0F2CF15F1F29E3D0EA96EA69C9B
:10246000A69EA680A850010115BFF28E276E140EFD
:102470002C6F000106EC04F027C045F026C044F0A4
:1024800045C02EF144C02DF192EC04F003C0A9F038
:1024900002C0A8F001C0A7F000C0A6F0F2CF15F16D
:1024A000F29E460EA96EA69CA69EA680A85001018B
:1024B00015BFF28E0A6F140E2C6F000106EC04F0AB
:1024C0000A0E01012C6F000106EC04F0F2CF15F1A9
:1024D000F29E190EA96EA69CA69EA680A850010188
:1024E00015BFF28E136F0A0E2C6F000106EC04F07C
:1024F000F2CF15F1F29E1A0EA96EA69CA69EA6809A
:10250000A850010115BFF28E2E6B2D6F000192ECC9
:1025100004F003C0C9F002C0C8F001C0C7F000C099
:10252000C6F00A0E01012C6F000106EC04F0C9C0D0
:102530002CF1C8C02BF1C7C02AF1C6C029F1010196
:10254000306B2F6B480E2E6F850E2D6F00015BECEC
:1025500005F003C0C9F002C0C8F001C0C7F000C058
:10256000C6F001012E6B13C12DF1000192EC04F0B5
:10257000D89203C030F102C02FF101C02EF100C08B
:102580002DF1C9C034F1C8C033F1C7C032F1C6C0A3
:1025900031F10AEC06F003C0C5F002C0C4F001C07E
:1025A000C3F000C0C2F0F2CF15F1F29E1D0EA96E6D
:1025B000A69CA69EA680A850010115BFF28E136F9F
:1025C0000A0E2C6F000106EC04F0F2CF15F1F29E1A
:1025D000550EA96EA69CA69EA680A850010115BF07
:1025E000F28E2E6B2D6F000192EC04F003C0C9F047
:1025F00002C0C8F001C0C7F000C0C6F00A0E010159
:102600002C6F000106EC04F0C9C02CF1C8C02BF1FE
:10261000C7C02AF1C6C029F10101306B2F6B480EEB
:102620002E6F850E2D6F00015BEC05F003C0C9F025
:1026300002C0C8F001C0C7F000C0C6F001012E6B97
:1026400013C12DF1000192EC04F003C009F102C0A6
:1026500008F101C007F100C006F1F2CF15F1F29EBA
:10266000530EA96EA69CA69EA680A850010115BF78
:10267000F28E166FF2CF17F1F29E520EA96EA69C43
:10268000A69EA680A85017BFF28E186F16C103F041
:1026900018512D6F03C02EF1000192EC04F003C01D
:1026A000B1F002C0B0F001C0AFF000C0AEF00A0E51
:1026B00001012C6F000106EC04F0F2CF15F1F29E3F
:1026C000500EA96EA69CA69EA680A850010115BF1B
:1026D000F28E106F0A0E2C6F000106EC04F046EF2C
:1026E00007F025C043F024C042F028C02AF029C0DA
:1026F0002BF0188C1952D8A450D218AC9DD1189C2C
:10270000010E0101276F286F0001D7EC04F0180EAD
:10271000F66E020EF76E4BEC05F0010E0101276F0D
:10272000020E286F0001D7EC04F02E0EF66E020E9A
:10273000F76E4BEC05F0010E0101276F030E286FB9
:102740000001D7EC04F0440EF66E020EF76E0A0E8E
:102750000101196F000158EC07F037C015F11F0E89
:102760000101166F000182EC07F038C015F11F0E51
:102770000101166F000182EC07F039C015F11F0E40
:102780000101166F000182EC07F03AC015F11F0E2F
:102790000101166F000182EC07F0200E0101266F87
:1027A000000110EC05F0200E0101266F000110EC75
:1027B00005F01CC027F1040E0101286F0001D7ECC1
:1027C00004F035C026F110EC05F01C500E08D8B00E
:1027D0001FD13750030871E1385008086EE13950B5
:1027E00009086BE13A50020868E1A96AA86AA69C48
:1027F000A69EA684F250006EF29E0F01550EA76EA3
:10280000AA0EA76EA682A6B2FED7A6940050F21218
:10281000140E01012C6F000106EC04F0010EA96EEC
:10282000A86AA69CA69EA684F250006EF29E0F0196
:10283000550EA76EAA0EA76EA682A6B2FED7A694C4
:102840000050F212140E01012C6F000106EC04F08E
:10285000020EA96EA86AA69CA69EA684F250006EDF
:10286000F29E0F01550EA76EAA0EA76EA682A6B203
:10287000FED7A6940050F212140E01012C6F000135
:1028800006EC04F0030EA96EA86AA69CA69EA68478
:10289000F250006EF29E0F01550EA76EAA0EA76EA3
:1028A000A682A6B2FED7A6940050F212140E010121
:1028B0002C6F000106EC04F0FF003B50375C5AE13E
:1028C0003C50385C57E13D50395C54E13E503A5C35
:1028D00051E1010E0101276F286F0001D7EC04F0D0
:1028E0005A0EF66E020EF76E4BEC05F0010E01016A
:1028F000276F020E286F0001D7EC04F06E0EF66E03
:10290000020EF76E4BEC05F0010E0101276F030E6E
:10291000286F0001D7EC04F0820EF66E020EF76EFF
:102920004BEC05F0010E0101276F040E286F00012A
:10293000D7EC04F0960EF66E020EF76E4BEC05F037
:10294000040E0101156FFA0E2C6F000106EC04F065
:102950000101152FF8D7320E196E0B0E1C6E0C0EDE
:10296000266F000110EC05F0188C376A386A396A56
:102970003A6A4ED0010E0101276F286F0001D7EC93
:1029800004F0AA0EF66E020EF76E4BEC05F0010E87
:102990000101276F020E286F0001D7EC04F0BE0E74
:1029A000F66E020EF76E4BEC05F0010E0101276F7B
:1029B000030E286F0001D7EC04F0D20EF66E020E63
:1029C000F76E4BEC05F0010E0101276F040E286F26
:1029D0000001D7EC04F0E60EF66E020EF76E4BEC3B
:1029E00005F0040E0101156FFA0E2C6F000106ECC4
:1029F00004F00101152FF8D70B0E1C6E0C0E266F7C
:102A0000000110EC05F0188C376A386A396A3A6AA6
:102A10001C500B0811E21C500D080EE3010E1C5C4B
:102A20000101156F276F040E286F0001D7EC04F029
:102A300034C026F110EC05F0928A80AA1DD0140E45
:102A400001012C6F000106EC04F0928A80AA13D0D9
:102A500017B611D00B0E1C5C036A370FE96E000E1F
:102A60000320EA6EEF2A17861E0E01012C6F00016B
:102A700006EC04F0188C01D01796968084A01DD027
:102A8000140E01012C6F000106EC04F0968084A066
:102A900013D017BA11D00B0E1C5C036A370FE96E06
:102AA000000E0320EA6EEF06178A1E0E01012C6F3E
:102AB000000106EC04F0188C01D0179A968284A2CB
:102AC0001BD0140E01012C6F000106EC04F096825D
:102AD00084A211D017B80FD017881C2A1E0E01012E
:102AE0002C6F000106EC04F00C0E0101266F0001B2
:102AF00010EC05F0188C01D01798968484A41BD094
:102B0000960E01012C6F000106EC04F0968484A45B
:102B100011D017BC0FD0178C1C061E0E01012C6F94
:102B2000000106EC04F00C0E0101266F000110EC10
:102B300005F0188C01D0179C0B0E1C5C036A370F34
:102B4000E96E000E0320EA6EEFBE01D00AD00B0E34
:102B50001C5C036A370FE96E000E0320EA6E090E53
:102B6000EF6E0B0E1C5C036A370FE96E000E03203C
:102B7000EA6EEFBE0CD0EF50090809E20B0E1C5CA8
:102B8000036A370FE96E000E0320EA6EEF6A1C50ED
:102B90000A0802E30B0E1C6EADD5192C46D11F504E
:102BA000215C08E2322A1FC021F0020E215C206E57
:102BB000040E1D6E20501F5C08E232061FC020F07C
:102BC000020E2024216E020E1D6E1F501A5C09E2B7
:102BD0001BC01FF0020E1D6E326A1FC020F02024A1
:102BE000216E1B501F5C0BE21AC01FF0040E1D6EFD
:102BF0001A5C326E1FC021F0020E215C206E32BEC4
:102C000001D001D0326A18AC89D0010E0101276FC2
:102C1000286F0001D7EC04F0FA0EF66E020EF76E84
:102C20004BEC05F0010E32240101156F166F020EF8
:102C3000176F0001F1EC07F0020E32240101156F4D
:102C4000166F030E176F0001F1EC07F0030E32242C
:102C50000101156F166F040E176F0001F1EC07F0FC
:102C6000010E0101276F1DC028F10001D7EC04F00F
:102C700033C026F110EC05F01D50020818E1010EDA
:102C80000101276F040E286F0001D7EC04F034C057
:102C900026F110EC05F0010E0101276F030E286FDD
:102CA0000001D7EC04F034C026F110EC05F01D5003
:102CB000040818E1010E0101276F020E286F0001C0
:102CC000D7EC04F034C026F110EC05F0010E010140
:102CD000276F030E286F0001D7EC04F034C026F1F3
:102CE00010EC05F01D50030818E1010E0101276FDB
:102CF000040E286F0001D7EC04F034C026F110EC6C
:102D000005F0010E0101276F020E286F0001D7ECBC
:102D100004F034C026F110EC05F0189C928A80AAC9
:102D200019D0140E01012C6F000106EC04F0928AF8
:102D300080AA0FD017B60DD01F061D06010E1D2448
:102D40001E6E17861E0E01012C6F000106EC04F0AA
:102D5000188C01D01796968084A019D0140E01010A
:102D60002C6F000106EC04F0968084A00FD017BAF7
:102D70000DD01F2A1D2A010E1D5C1E6E178A1E0E05
:102D800001012C6F000106EC04F0188C01D0179A99
:102D9000968284A229D0140E01012C6F000106EC4A
:102DA00004F0968284A21FD017B81DD017881FC0C8
:102DB00019F0030E1D6E020E0101156F960E2C6F99
:102DC000000106EC04F00101152FF8D70C0E266F58
:102DD000000110EC05F0188C1950060804E1376A60
:102DE000386A396A3A6A01D01798968484A41CD04C
:102DF000140E01012C6F000106EC04F0968484A4EB
:102E000013D0020E0101156FFA0E2C6F000106ECB3
:102E100004F00101152FF8D7320E196E0C0E266F33
:102E2000000110EC05F0188CB8D619500208D8A48F
:102E300065D118AC52D0010E0101276F286F000137
:102E4000D7EC04F0100EF66E030EF76E4BEC05F0A7
:102E5000010E0101276F020E286F0001D7EC04F06C
:102E6000260EF66E030EF76E4BEC05F0060E010112
:102E7000276F030E286F0001D7EC04F02AC015F16C
:102E8000030E0101166F00016CEC08F03A0E01010F
:102E9000266F000110EC05F02BC015F1010E0101A9
:102EA000166F00016CEC08F0450EF66E030EF76E1F
:102EB000080E0101196F000158EC07F0060E2F24CF
:102EC0000101156F276F040E286F0001D7EC04F085
:102ED00035C026F110EC05F0189C928A80AA30D0FB
:102EE000140E01012C6F000106EC04F0928A80AAF6
:102EF00027D02F2C11D02A50EF080EE3050E2A26DA
:102F0000020E0101156F960E2C6F000106EC04F005
:102F10000101152FF8D700012F50040810E12B50A4
:102F20003A080DE32B2A020E0101156F960E2C6F45
:102F3000000106EC04F00101152FF8D70001188CF0
:102F4000968084A02ED0140E01012C6F000106EC97
:102F500004F0968084A025D02F2C10D02A520EE0A9
:102F6000050E2A5E020E0101156F960E2C6F0001F0
:102F700006EC04F00101152FF8D700012F500408CA
:102F80000FE12B520DE02B06020E0101156F960E7C
:102F90002C6F000106EC04F00101152FF8D7000199
:102FA000188C968284A224D0140E01012C6F00018B
:102FB00006EC04F0968284A21BD02F2C03D0040EC2
:102FC0002F6E05D02F50040802E1010E2F6E020E65
:102FD0000101156FFA0E2C6F000106EC04F00101DF
:102FE000152FF8D70C0E266F000110EC05F0188C89
:102FF000968484A482D0140E01012C6F000106EC8B
:1030000004F0968484A479D0C80E01012C6F0001CD
:1030100006EC04F00C0E0101266F000110EC05F027
:10302000010E0101276F020E286F0001D7EC04F09A
:103030004E0EF66E030EF76E4BEC05F0010E01011D
:10304000276F030E286F0001D7EC04F0600EF66EB8
:10305000030EF76E4BEC05F0140EA96E2AC0A8FF04
:10306000A69CA69EA684F250006EF29E0F01550EFD
:10307000A76EAA0EA76EA682A6B2FED7A69400508F
:10308000F2121E0E01012C6F000106EC04F01E0E60
:10309000A96E2BC0A8FFA69CA69EA684F250006E27
:1030A000F29E0F01550EA76EAA0EA76EA682A6B2BB
:1030B000FED7A6940050F2122AC028F02BC029F0A7
:1030C000040E0101156FAF0E2C6F000106EC04F029
:1030D0000101152FF8D71E0E2C6F000106EC04F02D
:1030E000010E196E326A020E1D6E1F6E0C0E01016A
:1030F000266F000110EC05F0188C97D619500308C4
:10310000D8A4EAD118AC67D1189C0B0E1C5C036ADA
:10311000370FE96E000E0320EA6EEFBE01D00AD031
:103120000B0E1C5C036A370FE96E000E0320EA6E7B
:10313000090EEF6E0B0E1C5C036A370FE96E000E72
:103140000320EA6EEFBE0CD0EF50090809E20B0E27
:103150001C5C036A370FE96E000E0320EA6EEF6A0B
:10316000010E0101276F286F0001D7EC04F0720EE9
:10317000F66E030EF76E4BEC05F0010E0101276FA2
:10318000020E286F0001D7EC04F0880EF66E030ED5
:10319000F76E4BEC05F0010E0101276F030E286F4F
:1031A0000001D7EC04F09E0EF66E030EF76E0A0EC9
:1031B0000101196F000158EC07F037C015F11F0E1F
:1031C0000101166F000182EC07F038C015F11F0EE7
:1031D0000101166F000182EC07F039C015F11F0ED6
:1031E0000101166F000182EC07F03AC015F11F0EC5
:1031F0000101166F000182EC07F0200E0101266F1D
:10320000000110EC05F0200E0101266F000110EC0A
:1032100005F01C500A0814E3010E196E326A020E02
:103220001D6E1F6E0B0E1C6E020E0101156FFA0E45
:103230002C6F000106EC04F00101152FF8D7188C53
:103240001CC027F1040E0101286F0001D7EC04F027
:1032500035C026F110EC05F01C500E08D8B0A7D0F0
:103260003B50375C5AE13C50385C57E13D50395C8B
:1032700054E13E503A5C51E1010E0101276F286F85
:103280000001D7EC04F0B40EF66E030EF76E4BECB3
:1032900005F0010E0101276F020E286F0001D7EC27
:1032A00004F0CA0EF66E030EF76E4BEC05F0010E3D
:1032B0000101276F030E286F0001D7EC04F0E00E28
:1032C000F66E030EF76E4BEC05F0010E0101276F51
:1032D000040E286F0001D7EC04F0F60EF66E030E14
:1032E000F76E4BEC05F0020E0101156FFA0E2C6F14
:1032F000000106EC04F00101152FF8D73D0E196E00
:103300000B0E1C6E0C0E266F000110EC05F0188CD5
:10331000376A386A396A3A6A49D0010E0101276F63
:10332000286F0001D7EC04F00C0EF66E040EF76E59
:103330004BEC05F0010E0101276F020E286F000112
:10334000D7EC04F0220EF66E040EF76E4BEC05F08F
:10335000010E0101276F030E286F0001D7EC04F066
:10336000380EF66E040EF76E4BEC05F0010E0101FF
:10337000276F040E286F0001D7EC04F04E0EF66E96
:10338000040EF76E4BEC05F0020E0101156FFA0EFC
:103390002C6F000106EC04F00101152FF8D70B0E7D
:1033A0001C6E0C0E266F000110EC05F0188C1C50E2
:1033B0000B0811E21C500D080EE3010E1C5C01010C
:1033C000156F276F040E286F0001D7EC04F034C08E
:1033D00026F110EC05F0928A80AA1DD0140E01018E
:1033E0002C6F000106EC04F0928A80AA13D017B665
:1033F00011D00B0E1C5C036A370FE96E000E032020
:10340000EA6EEF2A17861E0E01012C6F000106ECF2
:1034100004F0188C01D01796968084A01DD0140E4D
:1034200001012C6F000106EC04F0968084A013D0FB
:1034300017BA11D00B0E1C5C036A370FE96E000E31
:103440000320EA6EEF06178A1E0E01012C6F0001A1
:1034500006EC04F0188C01D0179A968284A21BD037
:10346000140E01012C6F000106EC04F0968284A278
:1034700011D017B80FD017881C2A1E0E01012C6F0F
:10348000000106EC04F00C0E0101266F000110ECA7
:1034900005F0188C01D01798968484A41BD0140EC4
:1034A00001012C6F000106EC04F0968484A411D075
:1034B00017BC0FD0178C1C061E0E01012C6F0001CB
:1034C00006EC04F00C0E0101266F000110EC05F073
:1034D000188C01D0179C12D619503D08D8A4F7D1EA
:1034E00018AC74D1189C0B0E1C5C036A370FE96E84
:1034F000000E0320EA6EEFBE01D00AD00B0E1C5C5A
:10350000036A370FE96E000E0320EA6E090EEF6EB4
:103510000B0E1C5C036A370FE96E000E0320EA6E87
:10352000EFBE0CD0EF50090809E20B0E1C5C036AD9
:10353000370FE96E000E0320EA6EEF6A010E0101FB
:10354000276F286F0001D7EC04F0640EF66E040EAE
:10355000F76E4BEC05F0010E0101276F020E286F8C
:103560000001D7EC04F07A0EF66E040EF76E4BEC09
:1035700005F0010E0101276F030E286F0001D7EC43
:1035800004F0900EF66E040EF76E0A0E0101196F2C
:10359000000158EC07F037C015F11F0E0101166F3E
:1035A000000182EC07F038C015F11F0E0101166F03
:1035B000000182EC07F039C015F11F0E0101166FF2
:1035C000000182EC07F03AC015F11F0E0101166FE1
:1035D000000182EC07F0200E0101266F000110ECC3
:1035E00005F0200E0101266F000110EC05F01C50C3
:1035F0000A0805E3010E196E0B0E1C6E188C1CC018
:1036000027F1040E0101286F0001D7EC04F035C04A
:1036100026F110EC05F01C500E08D8B0C3D0010EF6
:103620000101276F286F0001D7EC04F0A60EF66E9B
:10363000040EF76E4BEC05F0010E0101276F020E30
:10364000286F0001D7EC04F0BC0EF66E040EF76E86
:103650004BEC05F0010E0101276F030E286F0001EE
:10366000D7EC04F0D20EF66E040EF76E4BEC05F0BC
:10367000010E0101276F040E286F0001D7EC04F042
:10368000E80EF66E040EF76E4BEC05F0A96A37C033
:10369000A8FFA69CA69EA684F250006EF29E0F0183
:1036A000550EA76EAA0EA76EA682A6B2FED7A69446
:1036B0000050F212140E01012C6F000106EC04F010
:1036C000010EA96E38C0A8FFA69CA69EA684F25043
:1036D000006EF29E0F01550EA76EAA0EA76EA6826F
:1036E000A6B2FED7A6940050F212140E01012C6F60
:1036F000000106EC04F0020EA96E39C0A8FFA69CDA
:10370000A69EA684F250006EF29E0F01550EA76E83
:10371000AA0EA76EA682A6B2FED7A6940050F212F9
:10372000140E01012C6F000106EC04F0030EA96ECB
:103730003AC0A8FFA69CA69EA684F250006EF29EF8
:103740000F01550EA76EAA0EA76EA682A6B2FED7CF
:10375000A6940050F212140E01012C6F000106EC29
:1037600004F0020E0101156FFA0E2C6F000106EC39
:1037700004F00101152FF8D7010E196E326A020EFE
:103780001D6E1F6E188C0B0E1C6E37C03BF038C0C0
:103790003CF039C03DF03AC03EF0376A386A396AC9
:1037A0003A6A00011C500B0811E21C500D080EE390
:1037B000010E1C5C0101156F276F040E286F0001BC
:1037C000D7EC04F034C026F110EC05F0928A80AA00
:1037D0001DD0140E01012C6F000106EC04F0928A3A
:1037E00080AA13D017B611D00B0E1C5C036A370FDA
:1037F000E96E000E0320EA6EEF2A17861E0E010105
:103800002C6F000106EC04F0188C01D017969680FE
:1038100084A01DD0140E01012C6F000106EC04F0F1
:10382000968084A013D017BA11D00B0E1C5C036ACB
:10383000370FE96E000E0320EA6EEF06178A1E0EA0
:1038400001012C6F000106EC04F0188C01D0179ACE
:10385000968284A21BD0140E01012C6F000106EC8D
:1038600004F0968284A211D017B80FD017881C2AB2
:103870001E0E01012C6F000106EC04F00C0E01017C
:10388000266F000110EC05F0188C01D01798968473
:1038900084A41BD0140E01012C6F000106EC04F06F
:1038A000968484A411D017BC0FD0178C1C061E0E52
:1038B00001012C6F000106EC04F00C0E0101266FD3
:1038C000000110EC05F0188C01D0179C05D619509A
:1038D0000408D8A42AD118AC48D0010E0101276FE2
:1038E000286F0001D7EC04F0FE0EF66E040EF76EA2
:1038F0004BEC05F0010E0101276F020E286F00014D
:10390000D7EC04F0140EF66E050EF76E0B0E0101E7
:10391000196F000158EC07F0080EE96E43C016F16C
:1039200042C015F1AAEF08F0200E0101266F000138
:1039300010EC05F0200E0101266F000110EC05F0DF
:10394000200E0101266F000110EC05F0010E0101AF
:10395000276F040E286F0001D7EC04F0280EF66ED6
:10396000050EF76E4BEC05F0189C928A80AAB4D035
:10397000968284A2B1D0C80E01012C6F000106EC22
:1039800004F0928A80AAA8D0968284A2A5D00C0EB8
:103990000101266F000110EC05F0010E0101276FF7
:1039A000020E286F0001D7EC04F03E0EF66E050EF5
:1039B000F76E4BEC05F0010E0101276F030E286F27
:1039C0000001D7EC04F0500EF66E050EF76E4BECCE
:1039D00005F0320EA96EA86AA69CA69EA684F25097
:1039E000006EF29E0F01550EA76EAA0EA76EA6825C
:1039F000A6B2FED7A6940050F212140E01012C6F4D
:103A0000000106EC04F0330EA96EA86AA69CA69EDF
:103A1000A684F250006EF29E0F01550EA76EAA0EFC
:103A2000A76EA682A6B2FED7A6940050F212140E7C
:103A300001012C6F000106EC04F0340EA96EA86A97
:103A4000A69CA69EA684F250006EF29E0F01550E13
:103A5000A76EAA0EA76EA682A6B2FED7A6940050A5
:103A6000F212140E01012C6F000106EC04F0350E69
:103A7000A96EA86AA69CA69EA684F250006EF29E2D
:103A80000F01550EA76EAA0EA76EA682A6B2FED78C
:103A9000A6940050F212040E0101156FAF0E2C6FA8
:103AA000000106EC04F00101152FF8D7226A236A01
:103AB000436A426A1E0E2C6F000106EC04F0010EF0
:103AC000196E326A020E1D6E1F6E0C0E0101266FFA
:103AD000000110EC05F0188C968484A424D0140EF8
:103AE00001012C6F000106EC04F0968484A41AD026
:103AF00017BC18D0178C020E0101156FFA0E2C6F2F
:103B0000000106EC04F00101152FF8D7010E196E23
:103B1000326A020E1D6E1F6E0C0E266F000110EC35
:103B200005F0188C01D0179CD2D619500508D8A4DE
:103B300056D118ACB1D0010E0101276F286F0001DA
:103B4000D7EC04F0620EF66E050EF76E4BEC05F046
:103B5000010E0101276F020E286F0001D7EC04F05F
:103B6000050E0101156F000146EC09F000C015F1CA
:103B700001C016F102C017F103C018F103C02CF107
:103B800002C02BF101C02AF100C029F1D70E0101BA
:103B9000306FA30E2F6F2E6B810E2D6F00011DEC69
:103BA0000AF000C015F101C016F102C017F103C000
:103BB00018F1780EF66E050EF76E090E0101196FF9
:103BC000000158EC07F0020EE96E18C11CF117C194
:103BD0001BF116C11AF115C119F101011D6F000188
:103BE000FAEC0AF0860EF66E050EF76E070E01016E
:103BF000196F000158EC07F0010E0101276F030E49
:103C0000286F0001D7EC04F001011A6B0001ADEC44
:103C100004F000C015F101C016F102C017F103C095
:103C200018F18E0EF66E050EF76E080E0101196F73
:103C3000000158EC07F0010EE96E18C11CF117C124
:103C40001BF116C11AF115C119F101011D6B00011B
:103C5000FAEC0AF0010E0101276F040E286F000133
:103C6000D7EC04F09C0EF66E050EF76E070E010100
:103C7000196F000158EC07F0010EE96EA9C01CF1A4
:103C8000A8C01BF1A7C01AF1A6C019F101011D6B54
:103C90000001FAEC0AF0189C968284A243D0140E1C
:103CA00001012C6F000106EC04F0968284A239D049
:103CB00017B837D01788326A020E1D6E1F6E0B0EB2
:103CC0001C6E020E0101156FFA0E2C6F000106EC3E
:103CD00004F00101152FF8D70C0E266F000110EC2F
:103CE00005F001011A6B0001ADEC04F003C0A9F06E
:103CF00002C0A8F001C0A7F000C0A6F0A9C02CF136
:103D0000A8C02BF1A7C02AF1A6C029F1D3EC0BF073
:103D100002C045F001C044F044C026F045C027F081
:103D2000188C01D01798968484A457D0140E0101E2
:103D30002C6F000106EC04F0968484A44DD017BCCF
:103D40004BD0010E196E326A020E1D6E1F6E0B0EE5
:103D50001C6E640E01012C6F000106EC04F00C0EC9
:103D60000101266F000110EC05F0188C3C0EA96EC5
:103D700026C0A8FFA69CA69EA684F250006EF29EC6
:103D80000F01550EA76EAA0EA76EA682A6B2FED789
:103D9000A6940050F212140E01012C6F000106ECE3
:103DA00004F03D0EA96E27C0A8FFA69CA69EA6847F
:103DB000F250006EF29E0F01550EA76EAA0EA76E6E
:103DC000A682A6B2FED7A6940050F212140E0101EC
:103DD0002C6F000106EC04F001D0179CA6D61950F8
:103DE0000608D8A4A8D018781788010E196E326A70
:103DF00018A839D01888010E0101276F286F00011B
:103E0000D7EC04F0AA0EF66E050EF76E4BEC05F03B
:103E1000010E0101276F020E286F0001D7EC04F09C
:103E2000C00EF66E050EF76E4BEC05F0010E0101AB
:103E3000276F030E286F0001D7EC04F0D60EF66E44
:103E4000050EF76E4BEC05F0010E0101276F040E15
:103E5000286F0001D7EC04F0EC0EF66E050EF76E3D
:103E60004BEC05F0188C18B839D01898010E0101E8
:103E7000276F286F0001D7EC04F0020EF66E060ED5
:103E8000F76E4BEC05F0010E0101276F020E286F53
:103E90000001D7EC04F0180EF66E060EF76E4BEC30
:103EA00005F0010E0101276F030E286F0001D7EC0A
:103EB00004F02E0EF66E060EF76E4BEC05F0010EBA
:103EC0000101276F040E286F0001D7EC04F0440EA7
:103ED000F66E060EF76E4BEC05F0188C000E18B857
:103EE000010E0101156F050EA96E15C1A8FFA69C54
:103EF000A69EA684F250006EF29E0F01550EA76E8C
:103F0000AA0EA76EA682A6B2FED7A6940050F21201
:103F1000040E0101156FFA0E2C6F000106EC04F07F
:103F20000101152FF8D7020E1D6E1F6E0C0E266FA5
:103F3000000110EC05F019500708D8A454D318ACB0
:103F400089D0010E0101276F286F0001D7EC04F022
:103F50005A0EF66E060EF76E4BEC05F0010E0101DF
:103F6000276F020E286F0001D7EC04F06E0EF66E7C
:103F7000060EF76E080E0101196F000158EC07F0EC
:103F8000020EE96EC5C01CF1C4C01BF1C3C01AF11A
:103F9000C2C019F101011D6F0001FAEC0AF07B0E9D
:103FA000F66E060EF76E070E0101196F000158EC50
:103FB00007F0010E0101276F030E286F0001D7ECF7
:103FC00004F0010E01011A6F0001ADEC04F000C015
:103FD00015F101C016F102C017F103C018F1840EEB
:103FE000F66E060EF76E080E0101196F000158EC0F
:103FF00007F0010EE96E18C11CF117C11BF116C1C3
:104000001AF115C119F101011D6B0001FAEC0AF05A
:10401000010E0101276F040E286F0001D7EC04F098
:10402000920EF66E060EF76E070E0101196F000173
:1040300058EC07F0010EE96E09C11CF108C11BF133
:1040400007C11AF106C119F101011D6B0001FAEC5B
:104050000AF0189C01012C6B2B6B200E2A6F820E2C
:10406000296FC5C030F1C4C02FF1C3C02EF1C2C04A
:104070002DF1000109EC09F004E3C56BC46BC36BBF
:10408000C26B928A80AA2DD0140E01012C6F000100
:1040900006EC04F0928A80AA24D01E0E01012C6F37
:1040A000000106EC04F0D892C5C030F1C4C02FF175
:1040B000C3C02EF1C2C02DF10A0E0101346FD70E1C
:1040C000336F230E326F780E316F00010AEC06F069
:1040D00003C0C5F002C0C4F001C0C3F000C0C2F00C
:1040E000188C968084A02DD0140E01012C6F000135
:1040F00006EC04F0968084A024D01E0E01012C6FE3
:10410000000106EC04F0D882C5C030F1C4C02FF124
:10411000C3C02EF1C2C02DF10A0E0101346FD70EBB
:10412000336F230E326F780E316F00010AEC06F008
:1041300003C0C5F002C0C4F001C0C3F000C0C2F0AB
:10414000188C968284A297D1140E01012C6F000165
:1041500006EC04F0968284A28ED1188C010E010127
:104160001A6F0001ADEC04F003C02CF102C02BF17A
:1041700001C02AF100C029F1D3EC0BF002C0ABF072
:1041800001C0AAF0ABC02EF1AAC02DF192EC04F050
:1041900003C009F102C008F101C007F100C006F137
:1041A000ABC02EF1AAC02DF192EC04F0D88205C16B
:1041B00030F104C12FF103C12EF102C12DF103C072
:1041C00034F102C033F101C032F100C031F10AEC28
:1041D00006F003C0B1F002C0B0F001C0AFF000C003
:1041E000AEF001012C6B2B6B2A6B296BB1C030F147
:1041F000B0C02FF1AFC02EF1AEC02DF1000109EC1F
:1042000009F001E21EE10A0E0101106F500EA96EC5
:1042100010C1A8FFA69CA69EA684F250006EF29E36
:104220000F01550EA76EAA0EA76EA682A6B2FED7E4
:10423000A6940050F212140E01012C6F000106EC3E
:1042400004F0B1C02CF1B0C02BF1AFC02AF1AEC068
:1042500029F10101306B2F6B2E6B2D6B000109ECE6
:1042600009F01EE3140E0101106F500EA96E10C16B
:10427000A8FFA69CA69EA684F250006EF29E0F0197
:10428000550EA76EAA0EA76EA682A6B2FED7A6945A
:104290000050F212140E01012C6F000106EC04F024
:1042A000AEC000F0AFC001F0B0C002F0B1C003F08A
:1042B000019EB1C0B1F0B0C0B0F001C0AFF0AEC06F
:1042C000AEF0B1C02CF1B0C02BF1AFC02AF1AEC03E
:1042D00029F1D3EC0BF002C0ADF001C0ACF0ACC0E2
:1042E00015F1520EA96E15C1A8FFA69CA69EA68424
:1042F000F250006EF29E0F01550EA76EAA0EA76E29
:10430000A682A6B2FED7A6940050F212140E0101A6
:104310002C6F000106EC04F0ADC015F1530EA96E30
:1043200015C1A8FFA69CA69EA684F250006EF29E20
:104330000F01550EA76EAA0EA76EA682A6B2FED7D3
:10434000A6940050F212140E01012C6F000106EC2D
:1043500004F009C1C9F008C1C8F007C1C7F006C11F
:10436000C6F009C12CF108C12BF107C12AF106C121
:1043700029F1D3EC0BF001C013F101012E6B13C135
:104380002DF1000192EC04F0D882C9C030F1C8C010
:104390002FF1C7C02EF1C6C02DF103C034F102C009
:1043A00033F101C032F100C031F10AEC06F003C074
:1043B000C9F002C0C8F001C0C7F000C0C6F0C9C053
:1043C0002CF1C8C02BF1C7C02AF1C6C029F10101E8
:1043D000306B2F6B480E2E6F850E2D6F00011DEC7C
:1043E0000AF003C0CDF002C0CCF001C0CBF000C099
:1043F000CAF0CDC02CF1CCC02BF1CBC02AF1CAC081
:1044000029F1D3EC0BF001C014F11D0EA96E13C1FC
:10441000A8FFA69CA69EA684F250006EF29E0F01F5
:10442000550EA76EAA0EA76EA682A6B2FED7A694B8
:104430000050F212140E01012C6F000106EC04F082
:10444000550EA96E14C1A8FFA69CA69EA684F25084
:10445000006EF29E0F01550EA76EAA0EA76EA682E1
:10446000A6B2FED7A6940050F212140E01012C6FD2
:10447000000106EC04F0968484A4B4D0140E01016B
:104480002C6F000106EC04F0968484A4ABD0040EDB
:104490000101156FAF0E2C6F000106EC04F0010155
:1044A000152FF8D7C5C0C9F0C4C0C8F0C3C0C7F045
:1044B000C2C0C6F0C5C02CF1C4C02BF1C3C02AF1E4
:1044C000C2C029F10001D3EC0BF001C013F10101CE
:1044D0002E6B13C12DF1000192EC04F0D882C9C0FB
:1044E00030F1C8C02FF1C7C02EF1C6C02DF103C0F6
:1044F00034F102C033F101C032F100C031F10AECF5
:1045000006F003C0C9F002C0C8F001C0C7F000C087
:10451000C6F0C9C02CF1C8C02BF1C7C02AF1C6C073
:1045200029F10101306B2F6B480E2E6F850E2D6F18
:1045300000011DEC0AF003C0CDF002C0CCF001C0B8
:10454000CBF000C0CAF0CDC02CF1CCC02BF1CBC059
:104550002AF1CAC029F1D3EC0BF001C014F1190EF5
:10456000A96E13C1A8FFA69CA69EA684F250006E59
:10457000F29E0F01550EA76EAA0EA76EA682A6B2D6
:10458000FED7A6940050F212140E01012C6F000108
:1045900006EC04F01A0EA96E14C1A8FFA69CA69EF4
:1045A000A684F250006EF29E0F01550EA76EAA0E61
:1045B000A76EA682A6B2FED7A6940050F212140EE1
:1045C00001012C6F000106EC04F0010E196E326A35
:1045D000020E1D6E1F6E0C0E0101266F000110EC05
:1045E00005F0188CA8D419500808D8A4FBD018AC32
:1045F00057D001010A51020802E2020E0A6F0A5363
:1046000002E1010E0A6F010E276F286F0001D7EC3F
:1046100004F0A00EF66E060EF76E4BEC05F0010EE0
:104620000101276F020E286F0001D7EC04F0B60ECF
:10463000F66E060EF76E4BEC05F0010E0101276FCA
:10464000030E286F0001D7EC04F0CC0EF66E060EB8
:10465000F76E090E0101196F000158EC07F00AC14D
:1046600015F11F0E0101166F000182EC07F0D70E45
:10467000F66E060EF76E090E0101196F000158EC77
:1046800007F0010E0101276F040E286F0001D7EC1F
:1046900004F0E20EF66E060EF76E4BEC05F0189C79
:1046A000928A80AA13D0140E01012C6F000106EC2F
:1046B00004F0928A80AA0AD0C80E01012C6F000172
:1046C00006EC04F001010A2B188C0001968084A0EE
:1046D00013D0140E01012C6F000106EC04F096803B
:1046E00084A00AD0C80E01012C6F000106EC04F072
:1046F00001010A07188C0001968484A472D0140E5C
:1047000001012C6F000106EC04F0968484A469D0AA
:10471000460EA96E0AC1A8FFA69CA69EA684F250CA
:10472000006EF29E0F01550EA76EAA0EA76EA6820E
:10473000A6B2FED7A6940050F212140E01012C6FFF
:10474000000106EC04F0010E0101276F286F000143
:10475000D7EC04F0F80EF66E060EF76E4BEC05F093
:10476000010E0101276F020E286F0001D7EC04F043
:104770000E0EF66E070EF76E4BEC05F0010E010102
:10478000276F030E286F0001D7EC04F0240EF66E9D
:10479000070EF76E4BEC05F0010E0101276F040EBA
:1047A000286F0001D7EC04F03A0EF66E070EF76E94
:1047B0004BEC05F0040E0101156FFA0E2C6F000191
:1047C00006EC04F00101152FF8D7010E196E326ABC
:1047D000020E1D6E1F6E0C0E266F000110EC05F010
:1047E000188C01D719503208D8A4CDEF27F018A0A3
:1047F00068D11890050E0101156F000146EC09F013
:1048000003C0A5F002C0A4F001C0A3F000C0A2F054
:10481000050E0101156F0001F1EF0BF003C00FF160
:1048200002C00EF101C00DF100C00CF1A5C02CF1C9
:10483000A4C02BF1A3C02AF1A2C029F1A40E01014A
:10484000306F700E2F6F3D0E2E6F7D0E2D6F00019D
:104850005BEC05F000C015F101C016F102C017F1C4
:1048600003C018F103C02CF102C02BF101C02AF1E2
:1048700000C029F10101306B2F6B300E2E6F820EBC
:104880002D6F00011DEC0AF003C0A1F002C0A0F0E2
:1048900001C09FF000C09EF001012C6B2B6B300E0D
:1048A0002A6F820E296FA1C030F1A0C02FF19FC0E6
:1048B0002EF19EC02DF1000109EC09F006E3A16B79
:1048C000A06B300E9F6F820E9E6F090E0101276F45
:1048D000030E286F0001D7EC04F0500EF66E070EA1
:1048E000F76E060E0101196F000158EC07F028C0A1
:1048F00015F1030E0101166F00016CEC08F03A0E81
:104900000101266F000110EC05F029C015F1010E20
:104910000101166F00016CEC08F0010E0101276F18
:10492000286F0001D7EC04F0A5C02CF1A4C02BF136
:10493000A3C02AF1A2C029F1D70E0101306FA30E46
:104940002F6F2E6B810E2D6F00011DEC0AF000C041
:1049500015F101C016F102C017F103C018F1500E95
:104960000101266F000110EC05F03A0E0101266FDF
:10497000000110EC05F0890EE96E18C11CF117C199
:104980001BF116C11AF115C119F1010E01011D6FBC
:104990000001FAEC0AF0670EF66E070EF76E080ECD
:1049A0000101196F000158EC07F0890EE96E0FC183
:1049B0001CF10EC11BF10DC11AF10CC119F1020E4F
:1049C00001011D6F0001FAEC0AF06D0E0101266F66
:1049D000000110EC05F02F0E0101266F000110EC14
:1049E00005F0730E0101266F000110EC05F02E6A30
:1049F000A1C018F1A0C017F19FC016F19EC015F11B
:104A000097EC0FF000C015F101C016F102C017F1CC
:104A100003C018F101012E6B2EC02DF1000192ECA4
:104A200004F003C02CF102C02BF101C02AF100C038
:104A300029F118C130F117C12FF116C12EF115C19E
:104A40002DF109EC09F012E3080E2E240101156F77
:104A5000276F020E286F0001D7EC04F0D10E010180
:104A6000266F000110EC05F02E2AC2D7A1C018F164
:104A7000A0C017F19FC016F19EC015F197EC0FF082
:104A800003C02CF102C02BF101C02AF100C029F1B2
:104A9000D3EC0BF001C02EF02E500A0812E3080EE2
:104AA0002E240101156F276F020E286F0001D7EC2D
:104AB00004F0200E0101266F000110EC05F02E2AF3
:104AC000EBD717AE5DD018A853D00C0E0101266F9E
:104AD000000110EC05F0010E0101276F020E286F96
:104AE0000001D7EC04F0780EF66E070EF76E4BEC73
:104AF00005F0010E0101276F030E286F0001D7ECAE
:104B000004F08E0EF66E070EF76E4BEC05F0010EFC
:104B10000101276F040E286F0001D7EC04F0A40EEA
:104B2000F66E070EF76E4BEC05F0010E0101276FD4
:104B3000286F0001D7EC04F0BA0EF66E070EF76E80
:104B40004BEC05F02E6A2E50040812E38C809590F1
:104B5000C80E01012C6F000106EC04F08C909590BA
:104B6000C80E01012C6F000106EC04F02E2AEBD7D1
:104B7000179E0C0E0101266F000110EC05F0188C39
:104B8000A40E01012C6F700E2B6F3D0E2A6F7D0E4F
:104B9000296FA5C030F1A4C02FF1A3C02EF1A2C08F
:104BA0002DF1000109EC09F02DE22CE00FC12CF1F0
:104BB0000EC12BF10DC12AF10CC129F19A0E010190
:104BC000306F990E2F6F190E2E6F7D0E2D6F000115
:104BD00009EC09F015E2CD0E01012C6FCC0E2B6F04
:104BE0000C0E2A6F7E0E296F0FC130F10EC12FF10E
:104BF0000DC12EF10CC12DF1000109EC09F005E306
:104C000017A403D0010E3F6E03D03F6A8C9095909D
:104C100018ACE0D0189C010E0101276F020E286F1E
:104C20000001D7EC04F0D00EF66E070EF76E4BECD9
:104C300005F017A421D0010E0101276F040E286F83
:104C40000001D7EC04F0D80EF66E070EF76E4BECB1
:104C500005F00AC115F1A4EC0FF018BA0CD058EC0D
:104C600004F0C80E01012C6F000106EC04F058ECB2
:104C700004F0188A188C21D0010E0101276F040E50
:104C8000286F0001D7EC04F0E20EF66E070EF76E07
:104C90004BEC05F00101156B0001A4EC0FF018AA14
:104CA0000CD058EC04F0C80E01012C6F000106EC8A
:104CB00004F058EC04F0189A188C17A02BD00D0EA5
:104CC0000101276F040E286F0001D7EC04F0EC0EF1
:104CD000F66E070EF76E4BEC05F017940101156B9D
:104CE0000001A4EC0FF017928C9495948C8295920D
:104CF000179E18B20ED058EC04F0C80E01012C6FAC
:104D0000000106EC04F058EC04F01882010E316E3C
:104D1000188C21D017900D0E0101276F040E286FFB
:104D20000001D7EC04F0F40EF66E070EF76E4BECB4
:104D300005F08C92959218A20ED058EC04F0C80E93
:104D400001012C6F000106EC04F058EC04F01892FD
:104D5000010E316E188C17A21FD0010E0101276FB2
:104D6000030E286F0001D7EC04F0FC0EF66E070E60
:104D7000F76E4BEC05F08C84959418B40CD058EC7D
:104D800004F0C80E01012C6F000106EC04F058EC91
:104D900004F01884188C1ED0010E0101276F030E39
:104DA000286F0001D7EC04F0040EF66E080EF76EC3
:104DB0004BEC05F08C94959418A40CD058EC04F0AE
:104DC000C80E01012C6F000106EC04F058EC04F051
:104DD0001894188C968084A01BD0140E01012C6F9F
:104DE000000106EC04F0968084A011D017B60FD015
:104DF00017721786020E0101156F960E2C6F0001B7
:104E000006EC04F00101152FF8D7188C000101D031
:104E10001796968284A21BD0140E01012C6F0001FC
:104E200006EC04F0968284A211D017B80FD0177444
:104E30001788020E0101156F960E2C6F000106EC0B
:104E400004F00101152FF8D7188C000101D0179834
:104E5000968484A411D0140E01012C6F000106EC7D
:104E600004F0968484A408D0960E01012C6F0001F2
:104E700006EC04F01770188C928A80AA28D0140EC1
:104E800001012C6F000106EC04F0928A80AA1FD069
:104E9000C80E01012C6F000106EC04F00C0E01019C
:104EA000266F000110EC05F0020E0101156F960E41
:104EB0002C6F000106EC04F00101152FF8D7010E4C
:104EC000196E326A020E1D6E1F6E188C0001312C95
:104ED00057D0320EA96E22C0A8FFA69CA69EA6841B
:104EE000F250006EF29E0F01550EA76EAA0EA76E2D
:104EF000A682A6B2FED7A6940050F212330EA96E77
:104F000023C0A8FFA69CA69EA684F250006EF29E27
:104F1000550EA76EAA0EA76EA682A6B2FED7A694BD
:104F20000050F21242C024F04350256E340EA96E98
:104F300024C0A8FFA69CA69EA684F2CF00F0F29EF5
:104F4000550EA76EAA0EA76EA682A6B2FED7A6948D
:104F50000050F212350EA96E25C0A8FFA69CA69E91
:104F6000A684F2CF00F0F29E550EA76EAA0EA76E91
:104F7000A682A6B2FED7A6940050F212316A0001B2
:104F800022503B0802E2226A232A23503C0804E113
:104F9000236A422AD8B4432A25D47AEF13F00300B7
:020000040030CA
:0E00000020C21F1E000781000FC00FE00F403E
:00000001FF
;PIC18F4550
;CRC=942E  CREATED="01-ago.-18 14:26"
