:0600000045EF10F0000CBA
:08000800046ED8CF05F0E0CF33
:1000100006F00001E9CF0CF0EACF07F0E1CF08F0DD
:10002000E2CF09F0D9CF0AF0DACF0BF0F3CF12F01C
:10003000F4CF13F0FACF14F000C00EF001C00FF0AF
:1000400002C010F003C011F0F2A82AEF00F0F2B2E3
:10005000D9EF00F00EC000F00FC001F010C002F0A8
:1000600011C003F00CC0E9FF07C0EAFF078E08C00B
:10007000E1FF09C0E2FF0AC0D9FF0BC0DAFF12C0DE
:10008000F3FF13C0F4FF14C0FAFF045006C0E0FFF2
:1000900005C0D8FF1000F2CF0DF0F29EF76AB00F46
:1000A000F66E000EF7220900F5500DBEF28E12001A
:1000B000280C010654656D706F72697A61646F7205
:1000C000205556202020200043616D62696F204337
:1000D0006F6E7472617365F1612020005469656D03
:1000E000706F2054726162616A6F20555620200043
:1000F00050756E746F204365726F20202020202081
:1001000020202000416C61726D6120202020202081
:10011000202020204F464600416C61726D612020F6
:100120002020202020202020204F4E0056656C6F7C
:10013000636964616420202020202020202020008A
:10014000434142494E4120464C554A4F204C414D77
:10015000494E415200002020202020484F52495A49
:100160004F4E54414C2020202020000020202020F1
:100170004A502020494E474C4F42414C20202020DD
:10018000000020202020205245463A4A504348345F
:100190003820202020200000040EEB5F09E3EA6AEB
:1001A000EB0EE96EEF5004E001D00000EF2EFDD71A
:1001B000000CA82BD8B4A92B928A80BA04D0AC2BFF
:1001C000D8B4AD2B02D0AD6BAC6B968084B004D0AC
:1001D000AE2BD8B4AF2B02D0AF6BAE6B968284B28D
:1001E00004D0B02BD8B4B12B02D0B16BB06B9684D5
:1001F00084B404D0B22BD8B4B32B02D0B36BB26B9F
:10020000A95303E1A851770829E2A96BA86B3F6ABB
:100210003E6A2F2A17803D2C0AD017B603D08B9048
:10022000949004D017A802D08B809490177616A0D3
:1002300015D0212A16BE12D0285202E028060ED070
:10024000275204E027063B0E286E08D0168E169023
:100250008A86939629C027F02AC028F0B66BB56B22
:10026000178EB851050816E3B85314E0B751630868
:1002700011E3ABC0EAF0EA2BEA07D8B404D0FF0ED2
:10028000EB6F8ADFF9D7AAC0EBF086DF8B849494FA
:100290008B829492F2922AEF00F0202020202049B5
:1002A0006E677265736520202020202020200000CA
:1002B00020202020436F6E7472617365F1612020ED
:1002C00020202020000020202020434C4156453D86
:1002D0002569256925692569202000002020202026
:1002E000202020202020202020202020202020002E
:1002F0002020202020436F6E7472617365F16120AD
:1003000020202000202020202020436F727265636F
:100310007461202020202000202020202020202068
:1003200020202020202020202020200020202020ED
:1003300020436F6E7472617365F16120202020008C
:100340002020202020496E636F72726563746120E3
:1003500020202000202020202020202020202020BD
:1003600020202020202020002D2D2D4D454E5520D1
:100370005052494E434950414C2D2D2D0000202014
:10038000202054656D706F72697A61646F722020ED
:1003900020202000202020202020204C757A20556D
:1003A00056202020202020202000253033753A259B
:1003B00030327520284D3A53292020005469656D4C
:1003C000706F20416C6D6163656E61646F00202009
:1003D000436F7272656374616D656E746520200091
:1003E0002020202020496E67726573652020202020
:1003F00020202020000020202020436F6E74726196
:100400007365F16120202020202000002020202082
:10041000434C4156453D25692569256925692020BC
:10042000000020202020202020202020202020200C
:1004300020202020202000002020202020436F6E3C
:100440007472617365F1612020202020000020205B
:1004500020202020436F7272656374612020202069
:1004600020200000202020202020202020202020CC
:1004700020202020202020200000202020202020BC
:1004800020202020202020202020202020200000AC
:100490002020202020436F6E7472617365F161200B
:1004A0002020202000002020202020496E636F7231
:1004B000726563746120202020200000202020200D
:1004C000202020202020202020202020202020202C
:1004D0000000202020496E6772657365204E7565A7
:1004E00076612020202000002020202020436F6EF5
:1004F0007472617365F161202020202000002020AB
:100500002020434C4156453D2569256925692569CB
:10051000202000002020202020202020202020201B
:1005200020202020202020200000202020202043E8
:100530006F6E7472617365F16120202020200000CD
:100540002020202020416C6D6163656E6164612014
:1005500020202020000020202020202020202020DB
:100560002020202020202020202000002020447552
:10057000726163696F6E2041637475616C20202025
:1005800000002020205469656D706F3D20253035B6
:100590004C75202020002052455345543D204F707B
:1005A00072696D61205E2079203E200020526573C3
:1005B0006574206465207469656D706F200020206B
:1005C000202020457869746F736F20202020200040
:1005D00020205A65726F20506F696E7420436F6ED1
:1005E00066696720000050726573696F6E3D202553
:1005F000332E326620696E48324F200020202020A2
:100600004144433D25322E306600202020205A46AA
:100610003D25322E30660000202020202020202082
:10062000202020202020202020202020000020200A
:1006300020202020202041637469766F2020202014
:10064000202000002020202020202020416C6172EA
:100650006D6120202020202000002020202020204C
:1006600020202020202020202020202020200000CA
:10067000202020202020202020202020202020207A
:1006800020202020000020202020202044657361AD
:10069000637469766F202020202000002020202015
:1006A000202020416C61726D6120202020202020BC
:1006B000000020202020202020202020202020207A
:1006C000202020202020000053656C656363696F43
:1006D0006E652056656C6F6369646164000020205C
:1006E0002064656C2056656E74696C61646F72205D
:1006F00020200000202020202056656C3A202575FF
:100700002020202020202000202020202020202009
:100710002020202020202020202020200000202019
:1007200020202020202020202020202020202020C9
:1007300020200000202020202056656C6F63696413
:100740006164202020202020000020202020202064
:10075000416C6D6163656E61646120202020000042
:100760002020202020202020202020202020202089
:100770002020202000004A5043522044503A253384
:100780002E326620696E48324F20000054656D702D
:100790006F3A253033753A25303275002020546584
:1007A0006D706F72697A61646F72202064652020B9
:1007B0000000204C757A205556202046696E616CE9
:1007C000697A61646F2000002020202020202020F2
:1007D0002020202020202020202020200000202059
:1007E0002020202020202020202020202020202009
:1007F0002020000046696C74726F3A004D6F746F70
:10080000723A4F4E20004D6F746F723A4F46460059
:1008100055563A4F4E20000055563A4F4646000076
:100820004C757A3A4F4E20004C757A3A4F46460046
:10083000C251060805E18B8494948B82949239D03E
:10084000C251050807E10F0EB76F070EAB6FD00E50
:10085000AA6F2FD0C251040807E1190EB76F0B0E13
:10086000AB6FB80EAA6F25D0C251030807E1230E63
:10087000B76F0E0EAB6F100EAA6F1BD0C2510208DD
:1008800007E12D0EB76F100EAB6FCC0EAA6F11D013
:10089000C22D07D0320EB76F130EAB6F880EAA6F42
:1008A00008D0C25306E1640EB76F8B9494948B9278
:1008B0009492000CEA6AD90EE96EEF500EE0050E34
:1008C000016E006A002EFED7012EFBD72E0E006EA1
:1008D000002EFED700D0EF2EF2D7000CDA39F00B45
:1008E000006E0F0E83140010836E090E006E002E32
:1008F000FED700D08386490E006E002EFED7839669
:10090000000C8392010ED96FD5DFD7A18392D7B1A6
:100910008382090E006E002EFED700D08394090E4C
:10092000006E002EFED700D08396D839D96F0F0EF7
:10093000D917D9C0DAF0D2DFD8510F0BD96FDA6FDF
:10094000CDDF000C000E956E8392839483960F0E7C
:10095000D96FB0DF010EC26FC251030808E3030E66
:10096000DA6FBCDF050ED96FA5DFC22BF5D7020EFB
:10097000DA6FB4DFC26BC25103080FE3036AC251DE
:10098000F2CFC3F0F29E4BEC00F0C3BFF28EC36F08
:10099000D76BD86FB6DFC22BEED7000CD3DFF2884F
:1009A000F18CC150C00B0E09C16EC090C082C094C2
:1009B000C08EC280C00EF2121CEF11F0010ED55D88
:1009C000FC0F0FE2040FF9EF04F0800ED66F09D090
:1009D000C00ED66F06D0940ED66F03D0D40ED66F4D
:1009E00000D0010ED45DD627D76BD6C0D8F089DFF2
:1009F000000CF2CF0DF0F29EE824F76AF736170FDD
:100A0000F66E0A0EF7220A00F550FA6E0800F5504D
:100A10000DBEF28EF96ECA09D009D609DC09D35190
:100A2000F10802E1EE0ED36FD351D10802E1FF0EBF
:100A3000D36FD3510C0A05E0060A0DE0020A12E05A
:100A400016D0D76B010ED86F5CDF010EC16F020E9E
:100A5000D96F30DF12D0C12B010ED46FC1C0D5F0D9
:100A6000ADDF0BD0D76B100ED86F4BDF06D0010E69
:100A7000D76FD3C0D8F045DF00D0000C0900F55285
:100A80000CE0F6CFC5F0F7CFC6F0F5CFD3F0C7DF57
:100A9000C5C0F6FFC6C0F7FFF1D7000C010ED46F3A
:100AA000D56F8CDF400EF66E010EF76EE7DF010E9C
:100AB000D46F020ED56F82DF560EF66E010EF76E02
:100AC000DDDF010ED46F030ED56F78DF6C0EF66E8E
:100AD000010EF76ED3DF010ED46F040ED56F6EDFFB
:100AE000820EF66E010EF76EC9DF080EC26FFA0EA7
:100AF000D96FE0DEC22FFBD70C0ED36F90DF1EEF55
:100B000011F08E0E006EDBC001F0DAC002F0036A55
:100B1000015209E102C001F0026A080E005E0152B2
:100B200002E1006A08D0D89001BE04D00236013636
:100B30000006F9D7019E000CF2CFC2F0F29EA96A1E
:100B4000A69CA69EA680A850C2BFF28E396E140E37
:100B5000D96FB0DEF2CFC2F0F29E010EA96EA69C54
:100B6000A69EA680A850C2BFF28E3A6E140ED96F10
:100B7000A1DEF2CFC2F0F29E020EA96EA69CA69E46
:100B8000A680A850C2BFF28E3B6E140ED96F92DEC3
:100B9000F2CFC2F0F29E030EA96EA69CA69EA6807E
:100BA000A850C2BFF28E3C6E140ED96F83DEF2CF16
:100BB000C2F0F29E040EA96EA69CA69EA680A85026
:100BC000C2BFF28E016E179801B01788140ED96F4C
:100BD00071DEF2CFC2F0F29E050EA96EA69CA69E13
:100BE000A680A850C2BFF28E276E140ED96F62DEA7
:100BF000F2CFC2F0F29E060EA96EA69CA69EA6801B
:100C0000A850C2BFF28E286E140ED96F53DEF2CFF9
:100C1000C2F0F29E070EA96EA69CA69EA680A850C2
:100C2000C2BFF28E216E140ED96F44DEF2CFC2F035
:100C3000F29E080EA96EA69CA69EA680A850C2BFD2
:100C4000F28E226E140ED96F35DEF2CFC2F0F29E14
:100C5000090EA96EA69CA69EA680A850C2BFF28EC1
:100C6000236E140ED96F26DEF2CFC2F0F29E0A0E6A
:100C7000A96EA69CA69EA680A850C2BFF28E246E26
:100C8000140ED96F17DEF2CFC2F0F29E0B0EA96ED2
:100C9000A69CA69EA680A850C2BFF28E256E140EFA
:100CA000D96F08DEF2CFC2F0F29E0C0EA96EA69CA0
:100CB000A69EA680A850C2BFF28E266E140ED96FD3
:100CC000F9DDF2CFC2F0F29E0D0EA96EA69CA69E93
:100CD000A680A850C2BFF28EB86F140ED96FEADD9D
:100CE00026C043F025C042F043C0DBF042C0DAF03A
:100CF00008DF03C0A7F002C0A6F001C0A5F000C045
:100D0000A4F024C041F023C040F027C029F028C03F
:100D10002AF020EF11F0D7C0DEF0DB51DE1BDEAF92
:100D200005D0D894D890D7BFD8802FD0D7C0DEF0C8
:100D3000DAC0DFF0D651DF5F06E0DEAF26D0D85054
:100D4000010AD86E22D0DBC0DFF0D751DF5F06E0AA
:100D5000DEAF1BD0D850010AD86E17D0DCC0DFF050
:100D6000D851DF5F06E0DEAF10D0D850010AD86E50
:100D70000CD0DDC0DFF0D951DF5F06E0DEAF05D07B
:100D8000D850010AD86E01D0D890000C39BE03D0DB
:100D90003950090803E339BE01D018D0396AA96A6D
:100DA000A86AA69CA69EA684F250006EF29E0F0131
:100DB000550EA76EAA0EA76EA682A6B2FED7A6945F
:100DC0000050F212140E0001D96F74DD3ABE03D048
:100DD0003A50090803E33ABE01D019D03A6A010E2D
:100DE000A96EA86AA69CA69EA684F250006EF29EEA
:100DF0000F01550EA76EAA0EA76EA682A6B2FED749
:100E0000A6940050F212140E0001D96F53DD3BBEC0
:100E100003D03B50090803E33BBE01D019D03B6A25
:100E2000020EA96EA86AA69CA69EA684F250006E29
:100E3000F29E0F01550EA76EAA0EA76EA682A6B24D
:100E4000FED7A6940050F212140E0001D96F32DDC5
:100E50003CBE03D03C50090803E33CBE01D019D08E
:100E60003C6A030EA96EA86AA69CA69EA684F250B0
:100E7000006EF29E0F01550EA76EAA0EA76EA682F7
:100E8000A6B2FED7A6940050F212140E0001D96F3C
:100E900011DD000E17B8010E01081AE21788040EC2
:100EA000A96E010EA86EA69CA69EA684F250006EA6
:100EB000F29E0F01550EA76EAA0EA76EA682A6B2CD
:100EC000FED7A6940050F212140E0001D96FF2DC86
:100ED0002750C8081BE2140E276E050EA96E140ECB
:100EE000A86EA69CA69EA684F250006EF29E0F01EC
:100EF000550EA76EAA0EA76EA682A6B2FED7A6941E
:100F00000050F212140E0001D96FD4DC28503B08B7
:100F100019E2286A060EA96EA86AA69CA69EA68457
:100F2000F250006EF29E0F01550EA76EAA0EA76E2C
:100F3000A682A6B2FED7A6940050F212140E0001AB
:100F4000D96FB8DC21503C0819E2216A070EA96E5E
:100F5000A86AA69CA69EA684F250006EF29E0F017F
:100F6000550EA76EAA0EA76EA682A6B2FED7A694AD
:100F70000050F212140E0001D96F9CDC22503C0884
:100F800019E2226A080EA96EA86AA69CA69EA684EB
:100F9000F250006EF29E0F01550EA76EAA0EA76EBC
:100FA000A682A6B2FED7A6940050F212140E00013B
:100FB000D96F80DC4150260838E2FF0A03E1405037
:100FC000100833E2416A406A090EA96E0A0EA86E43
:100FD000A69CA69EA684F250006EF29E0F01550EAE
:100FE000A76EAA0EA76EA682A6B2FED7A694005040
:100FF000F212140E0001D96F5DDC0A0EA96EA86A08
:10100000A69CA69EA684F250006EF29E0F01550E7D
:10101000A76EAA0EA76EA682A6B2FED7A69400500F
:10102000F212140E0001D96F45DCD96BD86B160E85
:10103000D76F870ED66FA7C0DDF0A6C0DCF0A5C0C5
:10104000DBF0A4C0DAF067DE10E2A7C0D9F0A6C0DA
:10105000D8F0A5C0D7F0A4C0D6F0DD6BDC6B480E8D
:10106000DB6F860EDA6F57DE38E3A76BA66B700E68
:10107000A56F860EA46F0B0EA96EF00EA86EA69C2F
:10108000A69EA684F250006EF29E0F01550EA76E2A
:10109000AA0EA76EA682A6B2FED7A6940050F212A0
:1010A000140E0001D96F06DC0C0EA96EA86AA69C6E
:1010B000A69EA684F250006EF29E0F01550EA76EFA
:1010C000AA0EA76EA682A6B2FED7A6940050F21270
:1010D000140E0001D96F5AEC04F0B85106081CE256
:1010E000040EB86F0D0EA96E040EA86EA69CA69EE7
:1010F000A684F250006EF29E0F01550EA76EAA0E46
:10110000A76EA682A6B2FED7A6940050F212140EC5
:101110000001D96F5AEC04F022EF11F00900F6CF6C
:10112000C7F0F7CFC8F0F5CFD3F079DCC7C0F6FF32
:10113000C8C0F7FFC62FF2D7000CC951016AC85DBD
:1011400003E2C8C000F00CD0006A080ECA6FC837AE
:101150000036C951005CD8B0006E0136CA2FF7D7EF
:10116000000C200EC3A9300EC46FC2C000F0C2AF85
:1011700007D0001E002A00C0C2F02D0EC46FC38F1E
:101180000150C2C0C8F0640EC96FD7DF00C0C2F002
:10119000300E0124C56FC2C0C8F00A0EC96FCDDF82
:1011A000300E0024C76F300E0124C66FC4C000F09B
:1011B000C3A702D0C3AFC395C3B90BD0C3AF22D06E
:1011C000C3B520D000C0C5F0C3B31CD000C0C6F06A
:1011D00019D0300EC55D16E100C0C5F0200EC46FF9
:1011E000C3A704D0C395C383C3AFC393300EC65DFA
:1011F00009E100C0C6F0200EC56FC3A7F7D7C3939F
:10120000C3AFC391C3A503D0C4C0D3F008DCC3A34C
:1012100003D0C5C0D3F003DCC3A104D0C6C0D3F053
:101220000FEC05F0C7C0D3F00FEC05F0000CC32D98
:101230000BD0020ED46FC4C0D5F0DEEC04F0B40EB7
:10124000F66E000EF76E1ADCC35102080BE1020EB7
:10125000D46FC4C0D5F0DEEC04F0C80EF66E000EFC
:10126000F76E0CDCC35103080CE1020ED46FC4C04E
:10127000D5F0DEEC04F0DC0EF66E000EF76E3EEC00
:1012800005F0C35104080CE1020ED46FC4C0D5F0C0
:10129000DEEC04F0F00EF66E000EF76E3EEC05F09C
:1012A000C35105081CE117B80CD0020ED46FC4C09E
:1012B000D5F0DEEC04F0040EF66E010EF76E3EEC97
:1012C00005F017A80CD0020ED46FC4C0D5F0DEEC28
:1012D00004F0180EF66E010EF76E3EEC05F0C351E9
:1012E00006080CE1020ED46FC4C0D5F0DEEC04F0A9
:1012F0002C0EF66E010EF76E3EEC05F0000C015060
:10130000C2C0C8F0640EC96F18DF00C0C2F001503F
:10131000300E07E1C3A30DD0C3B70BD0C3B9200E65
:1013200003D0C397C399C381012601C0D3F00FEC4A
:1013300005F0C2C0C8F00A0EC96FFFDE00C0C2F0DF
:101340000150300E06E1C3B709D0C3A107D0C3B91D
:10135000200E012601C0D3F00FEC05F0300EC2279D
:10136000C2C0D3F00FEC05F0000CEACFCAF0E9CF11
:10137000C9F0C339F009C56FC527E20FC66F320F38
:10138000C86FC3510F0BC627C627C827E90FC76F01
:10139000C727C727C2390F0BC727C827C737C83782
:1013A000C81FC837C2510F0BC827C537070EC46FF7
:1013B0000A0EC707C827FDE3C607C727FDE3C50711
:1013C000C627FDE3C407C527FDE3EA6AC40EE96E3C
:1013D000070EC915C99DE926C80EE95CD8B4C98DA8
:1013E000EF50006E08E1C9BD06D0C9B914D0C9B725
:1013F00002D0200E03D0C987C999300E0026EACF4B
:10140000C3F0E9CFC2F000C0D3F00FEC05F0C3C0C9
:10141000EAFFC2C0E9FFEE50C9ADDED71DEF19F0FB
:10142000C735006E0036FC0E001600C001F0C25039
:10143000C30B0010C26E0A0ED96F5AEC04F0C282C0
:10144000C2B2FED7C4CF03F0C3CFDAF0C4CFDBF013
:1014500081EC05F003C0CBF002C0CAF001C0C9F0B6
:1014600000C0C8F0C8C000F0C9C001F0CAC002F096
:10147000CBC003F0000CD651D8B4A5D0E26FDA513E
:10148000D8B4A1D0E25F05E37F0EE227D8B09BD0AD
:1014900006D0810EE25FD8A096D0D8B494D0E2C036
:1014A00000F0016A026A036AE16BD7C0E0F0E08FE6
:1014B000D8C0DFF0D9C0DEF0190EE26FDD51DE5F7B
:1014C0000DE2010EDF5F0AE2E05F08E2E15F06E2A3
:1014D000E12BE02BDF2BDD51DE2728D0DC51DF5F55
:1014E00012E2010EE05F0FE2E15F0DE2E12BE02B83
:1014F000DC51DF27DD51DE2719E3DF2B17E1E02B7D
:1015000015E1E12B13D0DB518009E05F0EE2010E03
:10151000E15F0BE2E12BDB518009E027DC51DF27A3
:10152000E9E3E02BE7E1E12BE5D70380E22F01D0EF
:101530000BD0D890DE37DF37E037E137D89003366D
:1015400002360136E337BAD7E3A106D0D89001328C
:1015500002320332E33302D0000635E0E3BF1ED08F
:10156000D890DE37DF37E037E137DD51DE5F07E265
:10157000010EDF5F04E2E05F02E2E15F1AE3DC51AB
:10158000DF5F05E2010EE05F02E2E15F12E3DB51A3
:101590008009E05F03E2010EE15F0BE3032A09E14A
:1015A000022A07E1012A05E1002A0DE00132023298
:1015B0000332D7C0E2F0DB51E21BE2AF02D0018E72
:1015C00006D0019E04D0006A016A026A036A000C18
:1015D000800ED8B2DF1BE46BE56BDBC0E3F0DF51BC
:1015E000E31BDA51D8B4DCD0E26F006EDE51D8B420
:1015F000E0D0E25FD8B481D03DE3DFC0E8F0E88F0F
:10160000E0C0E7F0E1C0E6F0E56BD890E833E733FF
:10161000E633E533E22FF8D7E3AF03D0E481DDD042
:10162000E491E291E489EA6ADD0EE96EE9D0E49999
:10163000E3BF0AD0E2A113D0E833E733E633E53362
:10164000002AD8B4C5D00BD0E8BF0CD0D890E5376D
:10165000E637E737E8370006D8B4BAD0F5D7E48DD7
:101660006BD0E49DDBC0E3F0DBAF02D0E88FA9D004
:10167000E89FA7D0DEC0E2F0DEC000F0DA51E25F02
:10168000DBC0E8F0E88FDCC0E7F0DDC0E6F0E56B3A
:10169000D890E833E733E633E533E22FF8D7E3AF0A
:1016A00003D0E4839AD0E493E291E48BEA6AE10EFA
:1016B000E96EA6D0E49BE3BF0AD0E2A113D0E833E1
:1016C000E733E633E533002AD8B482D00BD0E8BF45
:1016D0000CD0D890E537E637E737E8370006D8B4BE
:1016E00077D0F5D7E48F28D0E49FDFC0E3F0DFAFF9
:1016F00002D0E88F66D0E89F64D0DFC0E8F0E88FC2
:10170000E0C0E7F0E1C0E6F0E3AF04D0E89FE48595
:1017100064D0E495E56BE291EA6ADD0EE96E70D083
:10172000E3BF1CD0DBC0E3F0E2A106D0E833E7332F
:10173000E633E533002A4CE0E5AF0BD0E62B09E1B8
:10174000E72B07E1E82B05E1E833E733E633002A2E
:101750003FE0E4BD86D7E4BFC7D71CD0800EE81BAE
:10176000E8AF04D03AD0DFC0E3F00AD0DBC0E3F04A
:10177000E85306E1E75304E1E65302E1006A21D0B1
:10178000E8BF08D0D890E537E637E737E837002ECE
:10179000F7D71ED0E3AF02D0E88F13D0E89F11D067
:1017A000DEC000F0DFC0E8F0E0C0E7F0E1C0E6F046
:1017B00008D0DAC000F0DBC0E8F0DCC0E7F0DDC044
:1017C000E6F0E8C001F0E7C002F0E6C003F034D074
:1017D000006A016A026A036A2FD0E56BE61FE71F01
:1017E000E81FE51FE52B05E1E62B03E1E72B01E10F
:1017F000E82BE4B115D7E4B356D7E4B58AD7B3D70D
:10180000EF50E62705E3E72B03E1E82BD8B4E281AC
:10181000ED52EF50E72703E3E82BD8B4E281ED5215
:10182000EF50EFBE01D0800AE827D8B0E281E4B9DA
:10183000FED6E4BB3FD774D7000CC66BC56BC46B38
:10184000C36BC76BEDDD03C097F002C096F001C01B
:1018500095F000C094F097C0D9F096C0D8F095C02C
:10186000D7F094C0D6F0A7C0DDF0A6C0DCF0A5C0CC
:10187000DBF0A4C0DAF0FFDD00C0C7F001C0C8F0A3
:1018800002C0C9F003C0CAF0D88203C0DDF002C0B4
:10189000DCF001C0DBF000C0DAF0E16BE06BDF6B85
:1018A0007F0EDE6F95DE03C09BF002C09AF001C090
:1018B00099F000C098F09BC0D9F09AC0D8F099C0B8
:1018C000D7F098C0D6F0DD6BDC6BDB6BDA6B8BECA2
:1018D00006F004E39B6B9A6B996B986B010EC25DEB
:1018E0002B5C02E001E32B6A2B50040DF350036ADA
:1018F000440FE96E000E0320EA6E98C0EFFF99C016
:10190000ECFF9AC0ECFF9BC0ECFF2B2A2C6A010E67
:10191000C25D2C5C01E035E22C50040DF350036AEB
:10192000440FE96E000E0320EA6EEFCF00F0ECCF1B
:1019300001F0ECCF02F0ECCF03F0EACFC8F0E9CF32
:10194000C7F0D892C6C0DDF0C5C0DCF0C4C0DBF083
:10195000C3C0DAF003C0E1F002C0E0F001C0DFF084
:1019600000C0DEF035DEC8C0EAFFC7C0E9FF03C033
:10197000C6F002C0C5F001C0C4F000C0C3F02C2AFC
:10198000C6D7DB6BC2C0DAF081EC05F0C6C0D9F077
:10199000C5C0D8F0C4C0D7F0C3C0D6F003C0DDF0D6
:1019A00002C0DCF001C0DBF000C0DAF064DD03C08F
:1019B000C6F002C0C5F001C0C4F000C0C3F0C3C08F
:1019C00000F0C4C001F0C5C002F0C6C003F0000CB6
:1019D000D651D8B471D0006EDA51D8B46DD000268B
:1019E00004E3810E002668E204D07F0E005E64E30B
:1019F00063E0D7C0DEF0DB51DE1BD78FDB8FD95120
:101A0000DD03F4CFE0F0D851DC03F4CF03F0F3CFE3
:101A1000DFF0DD03F350E027F450DF23000E032254
:101A2000D951DC03F350E027F450DF23000E026AA3
:101A300003220222D751DD03F350DF27F4500322A3
:101A4000000E0222D751DC03F3500326F450022289
:101A5000000E016A0122D951DB03F350DF27F45055
:101A60000322000E02220122D851DB03F350032689
:101A7000F4500222000E0122D751DB03F35002265C
:101A8000F4500122002A01BE05D0DF3703360236AA
:101A900001360006000EDFAF0AD0032A022201221F
:101AA000015005E1025003E1035001E1002ADEBFCD
:101AB000018EDEAF019E04D0006A016A026A036AE9
:101AC000000CD351B608D36F036AD4C0D7F0D48FBB
:101AD000D890D433D533D6330332023201320032B8
:101AE000D32FF6D7D7AF0BD0001E011E021E031E48
:101AF000002AD8B4012AD8B4022AD8B4032AE5EFC0
:101B00000DF0006A016A026A036ADB6BDC6BDD6B55
:101B1000DE6BDA51D911D811D7112CE0200EDF6F0E
:101B2000D890D337D437D537D637DB37DC37DD37E6
:101B3000DE37DA51DE5D08E1D951DD5D05E1D851CE
:101B4000DC5D02E1D751DB5D0FE3D751DB5FD8519C
:101B5000D8A0D83DDC5FD951D8A0D93DDD5FDA519E
:101B6000D8A0DA3DDE5FD880003601360236033673
:101B7000DF2FD6D7EA6ADB0EE96E000CE950CB6F97
:101B8000CA51CD6F19E0C9C0D9F0C8C0D8F0C7C0DC
:101B9000D7F0C6C0D6F0DD6BDC6B200EDB6F820E9B
:101BA000DA6F16DF03C0C9F002C0C8F001C0C7F089
:101BB00000C0C6F0CD2FE7D7C9C0D6F0C8C0D5F059
:101BC000C7C0D4F0C6C0D3F07CD703C0C9F002C0F0
:101BD000C8F001C0C7F000C0C6F0C9AF0DD0CB0738
:101BE000CB8BC61FC71FC81FC91FC62BD8B4C72B96
:101BF000D8B4C82BD8B4C92B3B0ED26F9A0ED16F74
:101C0000CA0ED06FCF6B0A0ECD6FCA51D8B4CB2B92
:101C1000C9C0D6F0C8C0D5F0C7C0D4F0C6C0D3F094
:101C2000D2C0DAF0D1C0D9F0D0C0D8F0CFC0D7F050
:101C300068DF0150EFCFC6F0ECCFC7F0ECCFC8F0B3
:101C4000ECCFC9F000520FE1CA29CD5D0CE0CB51B9
:101C50000CE00F0BCD5D01E03BE2CBBF39D0CBBD3B
:101C600004D0200E30D0200ECB17CBAB0DD0CB9BA9
:101C7000CA51D8A4CB070050CB6F2D0ED36F0FECF9
:101C800005F0CB51006ECB6BCA51CD5D0BE100501E
:101C9000CB6F2E0ED36F0FEC05F0CB51006E200EE4
:101CA000CB17000E300ECBAB0ED0CB9BCA51D8A4B5
:101CB000CB070050CB6F2D0ED36F0FEC05F0CB513F
:101CC000006ECB6B300E002600C0D3F00FEC05F099
:101CD000D2C0D6F0D1C0D5F0D0C0D4F0CFC0D3F0B0
:101CE000DA6BD96BD86B0A0ED76F0BDF03C0D2F05B
:101CF00002C0D1F001C0D0F000C0CFF0CD2F88D706
:101D0000000C8E0E006ED651005ED7C002F0D8C017
:101D100001F0028E005209E0D890025202E1015215
:101D200004E002320132002EF7D7D7AF05D0011EF2
:101D3000021E012AD8B4022A000CD591C9C0CEF0E7
:101D4000C8C0CDF0C7C0CCF0C6C0CBF0C9C0D9F078
:101D5000C8C0D8F0C7C0D7F0C6C0D6F0DD6BDC6B0A
:101D6000DB6BDA6B8BEC06F004E3D581CC51800A97
:101D7000CC6FCEC0D9F0CDC0D8F0CCC0D7F0CBC09E
:101D8000D6F0DD6BDC6BDB6B8E0EDA6F8BEC06F066
:101D900001E218E1CEC0D9F0CDC0D8F0CCC0D7F068
:101DA000CBC0D6F0AEDF02C0DBF001C0DAF081ECD0
:101DB00005F003C0D2F002C0D1F001C0D0F000C0E5
:101DC000CFF0C5D0CEC0D9F0CDC0D8F0CCC0D7F0C0
:101DD000CBC0D6F0800EDD6F960EDC6F180EDB6F79
:101DE000960EDA6F8BEC06F0D8A0A9D0CEC0D9F051
:101DF000CDC0D8F0CCC0D7F0CBC0D6F0DD6BDC6B5B
:101E0000DB6B8E0EDA6F3BEC0AF003C0D9F002C038
:101E1000D8F001C0D7F000C0D6F073DF02C0D4F014
:101E200001C0D3F0CEC0D9F0CDC0D8F0CCC0D7F02F
:101E3000CBC0D6F0DD6BDC6BDB6B8E0EDA6F3BEC70
:101E40000AF000C0D6F001C0D7F002C0D8F003C03D
:101E5000D9F0D4C0DBF0D3C0DAF081EC05F0D88241
:101E6000D9C0DDF0D8C0DCF0D7C0DBF0D6C0DAF0E6
:101E700003C0E1F002C0E0F001C0DFF000C0DEF01E
:101E8000E8EC0AF0D96BD86BD76B8E0ED66F03C017
:101E9000DDF002C0DCF001C0DBF000C0DAF098DD5C
:101EA00003C0CEF002C0CDF001C0CCF000C0CBF03A
:101EB000D4C0DBF0D3C0DAF081EC05F0D96BD86B7D
:101EC000D76B8E0ED66F03C0DDF002C0DCF001C010
:101ED000DBF000C0DAF07CDD03C0D2F002C0D1F04C
:101EE00001C0D0F000C0CFF0CEC0D9F0CDC0D8F046
:101EF000CCC0D7F0CBC0D6F004DF02C0DBF001C00D
:101F0000DAF081EC05F0D892D2C0DDF0D1C0DCF07F
:101F1000D0C0DBF0CFC0DAF003C0E1F002C0E0F0E7
:101F200001C0DFF000C0DEF0E8EC0AF003C0D2F040
:101F300002C0D1F001C0D0F000C0CFF008D0CEC0B8
:101F4000D2F0CDC0D1F0CCC0D0F0CBC0CFF0CEC05D
:101F5000D9F0CDC0D8F0CCC0D7F0CBC0D6F0D1DE10
:101F600002C0DBF001C0DAF081EC05F0D882CEC00F
:101F7000DDF0CDC0DCF0CCC0DBF0CBC0DAF003C0CC
:101F8000E1F002C0E0F001C0DFF000C0DEF0E8ECFC
:101F90000AF003C0CEF002C0CDF001C0CCF000C00A
:101FA000CBF0D5A103D0D051800AD06FCEC0D9F0EC
:101FB000CDC0D8F0CCC0D7F0CBC0D6F0DD6BDC6B99
:101FC000DB6BDA6B8BEC06F038E0D5A11AD0CA5384
:101FD00018E1D882D2C0DDF0D1C0DCF0D0C0DBF097
:101FE000CFC0DAF0E16BE06BDF6B7F0EDE6FE8EC09
:101FF0000AF003C0D2F002C0D1F001C0D0F000C09E
:10200000CFF0D5B11AD0CA2D18D0D892D2C0DDF0F9
:10201000D1C0DCF0D0C0DBF0CFC0DAF0E16BE06B18
:10202000DF6B7F0EDE6FE8EC0AF003C0D2F002C077
:10203000D1F001C0D0F000C0CFF0C9C0D9F0C8C005
:10204000D8F0C7C0D7F0C6C0D6F0DD6BDC6BDB6B59
:10205000DA6B8BEC06F004E1D26BD16BD06BCF6BFB
:10206000CFC000F0D0C001F0D1C002F0D2C003F068
:1020700044EF10F0C5C0C9F0C4C0C8F0C3C0C7F079
:10208000C2C0C6F0CA6B59D6000CF86AD09E078E43
:10209000EA6AE96A16901692169416961698169A97
:1020A000169C169E17901792179417961798186AF1
:1020B000070E196E020E1A6E0B0E1B6E020E1C6EB0
:1020C000030E1D6E020E1E6E1F6E040E206E216A20
:1020D000226A236A246A256A266A276A286A296A84
:1020E0002A6A2B6A2C6A2D6A010E2E6E2F6A306ABC
:1020F000316A3D6A416A406A436A426A976B966BED
:10210000956B946B9B6B9A6B996B986B9F6B9E6BAB
:102110009D6B9C6BA36BA26BA16BA06BA76BA66B5B
:10212000A56B800EA46F178A179CA96BA86BAB6B6D
:10213000AA6BAD6BAC6BAF6BAE6BB16BB06BB36BD3
:10214000B26B179EB491B66BB56BB76BB86BBC6BCB
:10215000BB6BBA6BB96BC06BBF6BBE6BBD6BC15059
:10216000C00B0F09C16E070EB46E3E0E326E200E0C
:10217000336E5E0E346E356A366A376A386A396A8B
:102180003A6A3B6A3C6A446A456A466A476A486AF0
:10219000496A4A6A4B6A4C6A4D6A4E6A4F6A506A8B
:1021A000516A526A536A546A556A566A576A586A3B
:1021B000596A5A6A5B6A5C6A5D6A5E6A5F6A606BEA
:1021C000616B626B636B646B656B666B676B686B93
:1021D000696B6A6B6B6B6C6B6D6B6E6B6F6B706B43
:1021E000716B726B736B746B756B766B776B786BF3
:1021F000796B7A6B7B6B7C6B7D6B7E6B7F6B806BA3
:10220000816B826B836B846B856B866B876B886B52
:10221000896B8A6B8B6B8C6B8D6B8E6B8F6B906B02
:10222000916B926B936BC26B18EC04F08B9494944B
:102230008B929492CEEF04F04EEF05F09CEF05F0F8
:10224000C6EF06F0C26B18EC04F08B9494948B925A
:102250009492C06BBF6B260EBE6F850EBD6FBC6BBC
:10226000B00EBB6F010EBA6F8C0EB96F1852D8A4A6
:1022700001D2010ED46FD56FDEEC04F09A0EF66E2B
:10228000020EF76E3EEC05F0010ED46F020ED56F14
:10229000DEEC04F0B00EF66E020EF76E3EEC05F0CA
:1022A000010ED46F030ED56FDEEC04F0C60EF66E91
:1022B000020EF76E0A0EC66F8EEC08F035C0C2F043
:1022C0001F0EC36FB1EC08F036C0C2F01F0EC36F13
:1022D000B1EC08F037C0C2F01F0EC36FB1EC08F0CC
:1022E00038C0C2F01F0EC36FB1EC08F0200ED36FE0
:1022F0000FEC05F0200ED36F0FEC05F01BC0D4F0EF
:10230000040ED56FDEEC04F034C0D3F00FEC05F012
:102310001B500B080FE21B500D080CE3010E1B5C59
:10232000C26FD46F040ED56FDEEC04F033C0D3F06F
:102330000FEC05F0179A928A80BA19D0140ED96F53
:102340005AEC04F0928A80BA11D016B60FD00B0E58
:102350001B5C036A350FE96E000E0320EA6EEF2A5C
:1023600016861E0ED96F5AEC04F0178A01D0169605
:10237000968084B019D0140ED96F5AEC04F0968070
:1023800084B011D016BA0FD00B0E1B5C036A350F48
:10239000E96E000E0320EA6EEF06168A1E0ED96F54
:1023A0005AEC04F0178A01D0169A968284B215D09E
:1023B000140ED96F5AEC04F0968284B20DD016B880
:1023C0000BD016881B2A1E0ED96F5AEC04F00C0E87
:1023D000D36F0FEC05F0178A01D01698968484B459
:1023E00015D0960ED96F5AEC04F0968484B40DD0B3
:1023F00016BC0BD0168C1B061E0ED96F5AEC04F0BF
:102400000C0ED36F0FEC05F0178A01D0169C0B0E43
:102410001B5C036A350FE96E000E0320EA6EEFBE07
:1024200001D00AD00B0E1B5C036A350FE96E000E5B
:102430000320EA6E090EEF6E0B0E1B5C036A350F6C
:10244000E96E000E0320EA6EEFBE0CD0EF500908D3
:1024500009E20B0E1B5C036A350FE96E000E0320C8
:10246000EA6EEF6A1B500A0802E30B0E1B6E1B504C
:102470000E08D8B0FFD0355003086DE1365008087B
:102480006AE13750090867E13850020864E1A96A37
:10249000A86AA69CA69EA684F250006EF29E0F012A
:1024A000550EA76EAA0EA76EA682A6B2FED7A69458
:1024B0000050F212140E0001D96F5AEC04F0010E14
:1024C000A96EA86AA69CA69EA684F250006EF29EF3
:1024D0000F01550EA76EAA0EA76EA682A6B2FED752
:1024E000A6940050F212140E0001D96F5AEC04F0B9
:1024F000020EA96EA86AA69CA69EA684F250006E43
:10250000F29E0F01550EA76EAA0EA76EA682A6B266
:10251000FED7A6940050F212140E0001D96F5AECA7
:1025200004F0030EA96EA86AA69CA69EA684F2508B
:10253000006EF29E0F01550EA76EAA0EA76EA68220
:10254000A6B2FED7A6940050F212140E0001D96F65
:102550005AEC04F0FF003950355C4FE13A50365CDC
:102560004CE13B50375C49E13C50385C46E1010EA0
:10257000D46FD56FDEEC04F0DC0EF66E020EF76E53
:102580003EEC05F0010ED46F020ED56FDEEC04F0C8
:10259000F00EF66E020EF76E3EEC05F0010ED46FF3
:1025A000030ED56FDEEC04F0040EF66E030EF76E2C
:1025B0003EEC05F0010ED46F040ED56FDEEC04F096
:1025C000180EF66E030EF76E3EEC05F0040EC26FA9
:1025D000FA0ED96F5AEC04F0C22FFAD7320E186EE9
:1025E0000B0E1B6E0C0ED36F0FEC05F0178A356ABD
:1025F000366A376A386A178A3DD0010ED46FD56FB4
:10260000DEEC04F0010ED46F020ED56FDEEC04F0A8
:102610002C0EF66E030EF76E3EEC05F0010ED46F35
:10262000030ED56FDEEC04F0400EF66E030EF76E6F
:102630003EEC05F0010ED46F040ED56FDEEC04F015
:10264000540EF66E030EF76E3EEC05F0040EC26FEC
:10265000FA0ED96F5AEC04F0C22FFAD70B0E1B6E8C
:102660000C0ED36F0FEC05F0178A356A366A376A9D
:10267000386A178A182C1BD102EC00F0010ED46FB7
:10268000D56FDEEC04F0680EF66E030EF76E3EECCE
:1026900005F0010E3124C26FC36F020EC46F17EC38
:1026A00009F0020E3124C26FC36F030EC46F17EC22
:1026B00009F0030E3124C26FC36F040EC46F17EC10
:1026C00009F0010ED46F1CC0D5F0DEEC04F032C06E
:1026D000D3F00FEC05F01C50020814E1010ED46F8A
:1026E000040ED56FDEEC04F033C0D3F00FEC05F030
:1026F000010ED46F030ED56FDEEC04F033C0D3F0BF
:102700000FEC05F01C50040814E1010ED46F020E0A
:10271000D56FDEEC04F033C0D3F00FEC05F0010E02
:10272000D46F030ED56FDEEC04F033C0D3F00FECA2
:1027300005F01C50030814E1010ED46F040ED56F90
:10274000DEEC04F033C0D3F00FEC05F0010ED46FD3
:10275000020ED56FDEEC04F033C0D3F00FEC05F0C1
:10276000179A928A80BA15D0140ED96F5AEC04F0D9
:10277000928A80BA0DD016B60BD01E061C06010E2A
:102780001C241D6E16860A0ED96F5AEC04F0178AA7
:1027900001D01696968084B015D0140ED96F5AECDD
:1027A00004F0968084B00DD016BA0BD01E2A1C2AD5
:1027B000010E1C5C1D6E168A0A0ED96F5AEC04F0CD
:1027C000178A01D0169A1E50205C08E2312A1EC0DA
:1027D00020F0020E205C1F6E040E1C6E1F501E5C4B
:1027E00008E231061EC01FF0020E1F24206E020EEA
:1027F0001C6E1E50195C09E21AC01EF0020E1C6EFF
:10280000316A1EC01FF01F24206E1A501E5C0BE29E
:1028100019C01EF0040E1C6E195C316E1EC020F033
:10282000020E205C1F6E31BE01D001D0316A96824B
:1028300084B223D0140ED96F5AEC04F0968284B27D
:102840001AD016B818D016881EC018F0030E1C6EC9
:10285000020EC26F960ED96F5AEC04F0C22FFAD74F
:102860000C0ED36F0FEC05F01850060804E1356A22
:10287000366A376A386A178A01D01698968484B403
:1028800016D0140ED96F5AEC04F0968484B40FD08D
:10289000020EC26FFA0ED96F5AEC04F0C22FFAD7AB
:1028A000320E186E0C0ED36F0FEC05F0178A18500D
:1028B0000208D8A42AD102EC00F0010ED46FD56F23
:1028C000DEEC04F07E0EF66E030EF76E3EEC05F0C5
:1028D000010ED46F020ED56FDEEC04F0940EF66E8E
:1028E000030EF76E3EEC05F0060ED46F030ED56FA7
:1028F000DEEC04F029C0C2F0030EC36F7FEC09F0D8
:102900003A0ED36F0FEC05F02AC0C2F0010EC36F70
:102910007FEC09F0B30EF66E030EF76E080EC66F6D
:102920008EEC08F0060E2E24C26FD46F040ED56F05
:10293000DEEC04F034C0D3F00FEC05F0179A928A65
:1029400080BA26D0140ED96F5AEC04F0928A80BA5D
:102950001FD02E2C0DD02950EF080AE3050E292692
:10296000020EC26F960ED96F5AEC04F0C22FFAD73E
:102970002E5004080CE12A503A0809E32A2A020ED4
:10298000C26F960ED96F5AEC04F0C22FFAD7178A8D
:10299000968084B024D0140ED96F5AEC04F096803F
:1029A00084B01DD02E2C0CD029520AE0050E295ED1
:1029B000020EC26F960ED96F5AEC04F0C22FFAD7EE
:1029C0002E5004080BE12A5209E02A06020EC26FBB
:1029D000960ED96F5AEC04F0C22FFAD7178A968256
:1029E00084B21ED0140ED96F5AEC04F0968284B2D1
:1029F00017D02E2C03D0040E2E6E05D02E500408B6
:102A000002E1010E2E6E020EC26FFA0ED96F5AEC61
:102A100004F0C22FFAD70C0ED36F0FEC05F0178A13
:102A2000968484B472D0968484B46FD0C80ED96F63
:102A30005AEC04F00C0ED36F0FEC05F0010ED46FBE
:102A4000020ED56FDEEC04F0BC0EF66E030EF76ED0
:102A50003EEC05F0010ED46F030ED56FDEEC04F0F2
:102A6000CE0EF66E030EF76E3EEC05F0050EA96E67
:102A700029C0A8FFA69CA69EA684F250006EF29ED6
:102A80000F01550EA76EAA0EA76EA682A6B2FED79C
:102A9000A6940050F212140E0001D96F5AEC04F003
:102AA000060EA96E2AC0A8FFA69CA69EA684F25078
:102AB000006EF29E0F01550EA76EAA0EA76EA6829B
:102AC000A6B2FED7A6940050F212140E0001D96FE0
:102AD0005AEC04F029C027F02AC028F0040EC26F77
:102AE000AF0ED96F5AEC04F0C22FFAD71E0ED96F71
:102AF0005AEC04F0010E186E316A020E1C6E1E6E46
:102B00000C0ED36F0FEC05F0178A18500308D8A4E9
:102B1000A5D102EC00F0010ED46FD56FDEEC04F00D
:102B2000E00EF66E030EF76E3EEC05F0010ED46F6C
:102B3000020ED56FDEEC04F0F60EF66E030EF76EA5
:102B40003EEC05F0010ED46F030ED56FDEEC04F001
:102B50000C0EF66E040EF76E0A0EC66F8EEC08F0C1
:102B600035C0C2F01F0EC36FB1EC08F036C0C2F022
:102B70001F0EC36FB1EC08F037C0C2F01F0EC36F59
:102B8000B1EC08F038C0C2F01F0EC36FB1EC08F012
:102B9000200ED36F0FEC05F0200ED36F0FEC05F075
:102BA0001BC0D4F0040ED56FDEEC04F034C0D3F0BB
:102BB0000FEC05F01B500B080FE21B500D080CE347
:102BC000010E1B5CC26FD46F040ED56FDEEC04F0F7
:102BD00033C0D3F00FEC05F0179A928A80BA19D05F
:102BE000140ED96F5AEC04F0928A80BA11D016B63E
:102BF0000FD00B0E1B5C036A350FE96E000E03202D
:102C0000EA6EEF2A16861E0ED96F5AEC04F0178A68
:102C100001D01696968084B019D0140ED96F5AEC54
:102C200004F0968084B011D016BA0FD00B0E1B5C46
:102C3000036A350FE96E000E0320EA6EEF06168A6E
:102C40001E0ED96F5AEC04F0178A01D0169A96829C
:102C500084B215D0140ED96F5AEC04F0968284B267
:102C60000DD016B80BD016881B2A1E0ED96F5AEC41
:102C700004F00C0ED36F0FEC05F0178A01D01698F4
:102C8000968484B415D0960ED96F5AEC04F09684CD
:102C900084B40DD016BC0BD0168C1B061E0ED96F3B
:102CA0005AEC04F00C0ED36F0FEC05F0178A01D02C
:102CB000169C0B0E1B5C036A350FE96E000E032099
:102CC000EA6EEFBE01D00AD00B0E1B5C036A350F13
:102CD000E96E000E0320EA6E090EEF6E0B0E1B5C10
:102CE000036A350FE96E000E0320EA6EEFBE0CD0CA
:102CF000EF50090809E20B0E1B5C036A350FE96E01
:102D0000000E0320EA6EEF6A1B500A0810E30B0E58
:102D10001B6E010E186E316A356A366A376A386A78
:102D2000178A0B0E1B6E0C0ED36F0FEC05F01B50A9
:102D30000E08D8B093D03950355C4EE13A50365C2D
:102D40004BE13B50375C48E13C50385C45E1010EBB
:102D5000D46FD56FDEEC04F0220EF66E040EF76E23
:102D60003EEC05F0010ED46F020ED56FDEEC04F0E0
:102D7000380EF66E040EF76E3EEC05F0010ED46FC1
:102D8000030ED56FDEEC04F04E0EF66E040EF76EF9
:102D90003EEC05F0010ED46F040ED56FDEEC04F0AE
:102DA000640EF66E040EF76E3EEC05F0020EC26F76
:102DB000FA0ED96F5AEC04F0C22FFAD73D0E186EF6
:102DC0000B0E1B6E0C0ED36F0FEC05F0356A366AD6
:102DD000376A386A178A42D0010ED46FD56FDEEC9D
:102DE00004F07A0EF66E040EF76E3EEC05F0010E5E
:102DF000D46F020ED56FDEEC04F0900EF66E040E6A
:102E0000F76E3EEC05F0010ED46F030ED56FDEECCD
:102E100004F0A60EF66E040EF76E3EEC05F0010E01
:102E2000D46F040ED56FDEEC04F0BC0EF66E040E0B
:102E3000F76E3EEC05F0020EC26FFA0ED96F5AEC37
:102E400004F0C22FFAD70B0E1B6E0C0ED36F0FECD3
:102E500005F0178A356A366A376A386A18503D08AD
:102E6000D8A4C4D102EC00F0010ED46FD56FDEEC13
:102E700004F0D20EF66E040EF76E3EEC05F0010E75
:102E8000D46F020ED56FDEEC04F0E80EF66E040E81
:102E9000F76E3EEC05F0010ED46F030ED56FDEEC3D
:102EA00004F0FE0EF66E040EF76E0A0EC66F8EEC80
:102EB00008F035C0C2F01F0EC36FB1EC08F036C089
:102EC000C2F01F0EC36FB1EC08F037C0C2F01F0E86
:102ED000C36FB1EC08F038C0C2F01F0EC36FB1EC85
:102EE00008F0200ED36F0FEC05F0200ED36F0FEC1F
:102EF00005F01BC0D4F0040ED56FDEEC04F034C036
:102F0000D3F00FEC05F01B500B080FE21B500D081F
:102F10000CE3010E1B5CC26FD46F040ED56FDEECA8
:102F200004F033C0D3F00FEC05F0179A928A80BA00
:102F300019D0140ED96F5AEC04F0928A80BA11D0CD
:102F400016B60FD00B0E1B5C036A350FE96E000E30
:102F50000320EA6EEF2A16861E0ED96F5AEC04F093
:102F6000178A01D01696968084B019D0140ED96FA6
:102F70005AEC04F0968084B011D016BA0FD00B0E24
:102F80001B5C036A350FE96E000E0320EA6EEF0644
:102F9000168A1E0ED96F5AEC04F0178A01D0169AC1
:102FA000968284B211D0968284B20DD016B80BD01E
:102FB00016881B2A1E0ED96F5AEC04F00C0ED36F24
:102FC0000FEC05F0178A01D01698968484B415D0BA
:102FD000960ED96F5AEC04F0968484B40DD016BCCA
:102FE0000BD0168C1B061E0ED96F5AEC04F00C0E7B
:102FF000D36F0FEC05F0178A01D0169C0B0E1B5CEB
:10300000036A350FE96E000E0320EA6EEFBE01D0B1
:103010000AD00B0E1B5C036A350FE96E000E03200D
:10302000EA6E090EEF6E0B0E1B5C036A350FE96E3C
:10303000000E0320EA6EEFBE0CD0EF50090809E243
:103040000B0E1B5C036A350FE96E000E0320EA6E5F
:10305000EF6A1B500A080FE30B0E1B6E010E186E71
:10306000356A366A376A386A178A0B0E1B6E0C0E81
:10307000D36F0FEC05F01B500E08D8B0B7D0010E7F
:10308000D46FD56FDEEC04F0140EF66E050EF76EFD
:103090003EEC05F0010ED46F020ED56FDEEC04F0AD
:1030A0002A0EF66E050EF76E3EEC05F0010ED46F9B
:1030B000030ED56FDEEC04F0400EF66E050EF76ED3
:1030C0003EEC05F0010ED46F040ED56FDEEC04F07B
:1030D000560EF66E050EF76E3EEC05F0A96A35C089
:1030E000A8FFA69CA69EA684F250006EF29E0F0139
:1030F000550EA76EAA0EA76EA682A6B2FED7A694FC
:103100000050F212140E0001D96F5AEC04F0010EB7
:10311000A96E36C0A8FFA69CA69EA684F250006E9B
:10312000F29E0F01550EA76EAA0EA76EA682A6B23A
:10313000FED7A6940050F212140E0001D96F5AEC7B
:1031400004F0020EA96E37C0A8FFA69CA69EA68416
:10315000F250006EF29E0F01550EA76EAA0EA76EDA
:10316000A682A6B2FED7A6940050F212140E000159
:10317000D96F5AEC04F0030EA96E38C0A8FFA69CC4
:10318000A69EA684F250006EF29E0F01550EA76E09
:10319000AA0EA76EA682A6B2FED7A6940050F2127F
:1031A000140E0001D96F5AEC04F0020EC26FFA0E31
:1031B000D96F5AEC04F0C22FFAD7010E186E316A9B
:1031C000020E1C6E1E6E35C039F036C03AF037C0A4
:1031D0003BF038C03CF0356A366A376A386A178A7D
:1031E0000B0E1B6E0C0ED36F0FEC05F0185004087D
:1031F000D8A409D102EC00F0010ED46FD56FDEEC3B
:1032000004F06C0EF66E050EF76E3EEC05F0010E46
:10321000D46F020ED56FDEEC04F0820EF66E050E52
:10322000F76E0B0EC66F8EEC08F0080EE96E41C00B
:10323000C3F040C0C2F0B5EF09F0200ED36F0FEC21
:1032400005F0200ED36F0FEC05F0200ED36F0FECBE
:1032500005F0010ED46F040ED56FDEEC04F0960E6F
:10326000F66E050EF76E3EEC05F0179A928A80BA5C
:10327000A8D0968284B2A5D0140ED96F5AEC04F06F
:10328000928A80BA9ED0968284B29BD0C80ED96FA3
:103290005AEC04F00C0ED36F0FEC05F0010ED46F56
:1032A000020ED56FDEEC04F0AC0EF66E050EF76E76
:1032B0003EEC05F0010ED46F030ED56FDEEC04F08A
:1032C000BE0EF66E050EF76E3EEC05F0070EA96E0B
:1032D000A86AA69CA69EA684F250006EF29E0F01DC
:1032E000550EA76EAA0EA76EA682A6B2FED7A6940A
:1032F0000050F212140E0001D96F5AEC04F0080EBF
:10330000A96EA86AA69CA69EA684F250006EF29EA4
:103310000F01550EA76EAA0EA76EA682A6B2FED703
:10332000A6940050F212140E0001D96F5AEC04F06A
:10333000090EA96EA86AA69CA69EA684F250006EED
:10334000F29E0F01550EA76EAA0EA76EA682A6B218
:10335000FED7A6940050F212140E0001D96F5AEC59
:1033600004F00A0EA96EA86AA69CA69EA684F25036
:10337000006EF29E0F01550EA76EAA0EA76EA682D2
:10338000A6B2FED7A6940050F212040E0001C26F3E
:10339000AF0ED96F5AEC04F0C22FFAD7216A226A15
:1033A000416A406A1E0ED96F5AEC04F0010E186E85
:1033B000316A020E1C6E1E6E0C0ED36F0FEC05F000
:1033C000178A968484B41ED0140ED96F5AEC04F078
:1033D000968484B416D016BC14D0168C020EC26F1C
:1033E000FA0ED96F5AEC04F0C22FFAD7010E186EFC
:1033F000316A020E1C6E1E6E0C0ED36F0FEC05F0C0
:10340000178A01D0169C18500508D8A42AD102ECBE
:1034100000F0010ED46FD56FDEEC04F0D00EF66E26
:10342000050EF76E3EEC05F0010ED46F020ED56F5F
:10343000DEEC04F0050EC26F1DEC0CF000C0C2F013
:1034400001C0C3F002C0C4F003C0C5F003C0D9F08E
:1034500002C0D8F001C0D7F000C0D6F0D70EDD6FA3
:10346000A30EDC6FDB6B810EDA6FE8EC0CF000C0B2
:10347000C2F001C0C3F002C0C4F003C0C5F0E60E44
:10348000F66E050EF76E090EC66F8EEC08F0020E92
:10349000E96EC5C0C9F0C4C0C8F0C3C0C7F0C2C09F
:1034A000C6F0CA6FBEEC0DF0F40EF66E050EF76EA8
:1034B000070EC66F8EEC08F0010ED46F030ED56FA9
:1034C000DEEC04F0C76B10EC0AF000C0C2F001C0E3
:1034D000C3F002C0C4F003C0C5F0FC0EF66E050ECA
:1034E000F76E080EC66F8EEC08F0010EE96EC5C0CF
:1034F000C9F0C4C0C8F0C3C0C7F0C2C0C6F0CA6B30
:10350000BEEC0DF0010ED46F040ED56FDEEC04F0AE
:103510000A0EF66E060EF76E070EC66F8EEC08F0FA
:10352000010EE96EA7C0C9F0A6C0C8F0A5C0C7F0DB
:10353000A4C0C6F0CA6BBEEC0DF0179A968284B296
:1035400070D0140ED96F5AEC04F0968284B268D011
:1035500016B866D0010E186E316A020E1C6E1E6E11
:103560000B0E1B6E020EC26FFA0ED96F5AEC04F0EE
:10357000C22FFAD70C0ED36F0FEC05F0C76B10EC0F
:103580000AF003C0A7F002C0A6F001C0A5F000C079
:10359000A4F0A7C0D9F0A6C0D8F0A5C0D7F0A4C0A9
:1035A000D6F081EC0EF002C043F001C042F042C000
:1035B00025F043C026F00B0EA96E25C0A8FFA69CDF
:1035C000A69EA684F250006EF29E0F01550EA76EC5
:1035D000AA0EA76EA682A6B2FED7A6940050F2123B
:1035E000140E0001D96F5AEC04F00C0EA96E26C01F
:1035F000A8FFA69CA69EA684F250006EF29E0F0124
:10360000550EA76EAA0EA76EA682A6B2FED7A694E6
:103610000050F212140E0001D96F5AEC04F0178A10
:1036200001D01698968484B41BD0140ED96F5AEC2E
:1036300004F0968484B413D016BC11D0010E186E19
:10364000316A020E1C6E1E6E0B0E1B6E1E0ED96FA3
:103650005AEC04F00C0ED36F0FEC05F0178A01D072
:10366000169C18500608D8A493D017781688010E17
:10367000186E316A17A830D01788010ED46FD56F35
:10368000DEEC04F0180EF66E060EF76E3EEC05F05A
:10369000010ED46F020ED56FDEEC04F02E0EF66E26
:1036A000060EF76E3EEC05F0010ED46F030ED56FDB
:1036B000DEEC04F0440EF66E060EF76E3EEC05F0FE
:1036C000010ED46F040ED56FDEEC04F05A0EF66EC8
:1036D000060EF76E3EEC05F017B830D01798010EC5
:1036E000D46FD56FDEEC04F0700EF66E060EF76E3A
:1036F0003EEC05F0010ED46F020ED56FDEEC04F047
:10370000860EF66E060EF76E3EEC05F0010ED46FD7
:10371000030ED56FDEEC04F09C0EF66E060EF76E0F
:103720003EEC05F0010ED46F040ED56FDEEC04F014
:10373000B20EF66E060EF76E3EEC05F0000E17B8F0
:10374000010EC26F040EA96EC2C0A8FFA69CA69E61
:10375000A684F250006EF29E0F01550EA76EAA0EBF
:10376000A76EA682A6B2FED7A6940050F212040E4F
:103770000001C26FFA0ED96F5AEC04F0C22FFAD7CB
:10378000020E1C6E1E6E0C0ED36F0FEC05F0178A26
:1037900018500708D8A4CCD0B851060802E2060E8B
:1037A000B86FB85302E1010EB86F010ED46FD56F38
:1037B000DEEC04F0C80EF66E060EF76E3EEC05F079
:1037C000010ED46F020ED56FDEEC04F0DE0EF66E45
:1037D000060EF76E3EEC05F0010ED46F030ED56FAA
:1037E000DEEC04F0F40EF66E060EF76E0A0EC66FEF
:1037F0008EEC08F0B8C0C2F01B0EC36F7FEC09F06E
:10380000000EF66E070EF76E070EC66F8EEC08F010
:10381000010ED46F040ED56FDEEC04F0080EF66EC8
:10382000070EF76E3EEC05F0928A80BA08D0B851C8
:10383000050805E3640ED96F5AEC04F0B82B9680A6
:1038400084B007D0B85305E0640ED96F5AEC04F089
:10385000B807968284B204D0B8C0C2F018EC04F065
:10386000968484B465D0640ED96F5AEC04F0020ECD
:103870001C6E1E6E0C0ED36F0FEC05F00D0EA96EB4
:10388000B8C0A8FFA69CA69EA684F250006EF29E29
:103890000F01550EA76EAA0EA76EA682A6B2FED77E
:1038A000A6940050F212140E0001D96F5AEC04F0E5
:1038B000010ED46FD56FDEEC04F01E0EF66E070E0F
:1038C000F76E3EEC05F0010ED46F020ED56FDEEC04
:1038D00004F0340EF66E070EF76E3EEC05F0010EA6
:1038E000D46F030ED56FDEEC04F04A0EF66E070EB1
:1038F000F76E3EEC05F0010ED46F040ED56FDEECD2
:1039000004F0600EF66E070EF76E3EEC05F0040E46
:10391000C26FFA0ED96F5AEC04F0C22FFAD70C0E10
:10392000D36F0FEC05F0A2EC04F0010E186E316AB3
:1039300018503208D8A42CD317A02BD11790050EFD
:10394000C26F1DEC0CF003C0A3F002C0A2F001C0D6
:10395000A1F000C0A0F0010ED46FD56FDEEC04F032
:10396000A3C0D9F0A2C0D8F0A1C0D7F0A0C0D6F0B3
:10397000D70EDD6FA30EDC6FDB6B810EDA6FE8EC28
:103980000CF000C0C2F001C0C3F002C0C4F003C01C
:10399000C5F0760EF66E070EF76E080EC66F8EEC4B
:1039A00008F0020EE96EC5C0C9F0C4C0C8F0C3C0BB
:1039B000C7F0C2C0C6F0CA6FBEEC0DF0830EF66E43
:1039C000070EF76E070EC66F8EEC08F0D882A3C004
:1039D000DDF0A2C0DCF0A1C0DBF0A0C0DAF0E16B4A
:1039E000910EE06F7E0EDF6F7B0EDE6FE8EC0AF06B
:1039F00000C0C2F001C0C3F002C0C4F003C0C5F0F3
:103A000003C0D9F002C0D8F001C0D7F000C0D6F092
:103A1000E10EDD6F7A0EDC6F140EDB6F7D0EDA6F58
:103A20003BEC0AF000C0C2F001C0C3F002C0C4F019
:103A300003C0C5F003C0D9F002C0D8F001C0D7F070
:103A400000C0D6F0DD6BDC6B200EDB6F830EDA6F0F
:103A5000E8EC0CF003C09FF002C09EF001C09DF0A6
:103A600000C09CF0D96BD86B300ED76F820ED66F2A
:103A70009FC0DDF09EC0DCF09DC0DBF09CC0DAF0A2
:103A80008BEC06F006E39F6B9E6B300E9D6F820EF3
:103A90009C6F2D6A9FC0C5F09EC0C4F09DC0C3F04E
:103AA0009CC0C2F03AEC10F000C0C2F001C0C3F0FC
:103AB00002C0C4F003C0C5F0DB6B2DC0DAF081ECAE
:103AC00005F003C0D9F002C0D8F001C0D7F000C0A3
:103AD000D6F0C5C0DDF0C4C0DCF0C3C0DBF0C2C0AE
:103AE000DAF08BEC06F00EE3080E2D24C26FD46FD3
:103AF000020ED56FDEEC04F0D10ED36F0FEC05F0A3
:103B00002D2AC8D79FC0C5F09EC0C4F09DC0C3F089
:103B10009CC0C2F03AEC10F003C0D9F002C0D8F05B
:103B200001C0D7F000C0D6F081EC0EF001C02DF03E
:103B30002D500A080EE3080E2D24C26FD46F020E1A
:103B4000D56FDEEC04F0200ED36F0FEC05F02D2ABC
:103B5000EFD7090ED46F030ED56FDEEC04F08C0E98
:103B6000F66E070EF76E060EC66F8EEC08F027C0D5
:103B7000C2F0030EC36F7FEC09F03A0ED36F0FEC67
:103B800005F028C0C2F0010EC36F7FEC09F002EC13
:103B900000F016AE4CD017A845D00C0ED36F0FEC2A
:103BA00005F0010ED46F020ED56FDEEC04F09C0E12
:103BB000F66E070EF76E3EEC05F0010ED46F030EA5
:103BC000D56FDEEC04F0B20EF66E070EF76E3EEC2B
:103BD00005F0010ED46F040ED56FDEEC04F0C80EB4
:103BE000F66E070EF76E3EEC05F0010ED46FD56F42
:103BF000DEEC04F0DE0EF66E070EF76E3EEC05F01E
:103C00002D6A2D5004080EE38B809490C80ED96F56
:103C10005AEC04F08B909490C80ED96F5AEC04F0D3
:103C20002D2AEFD7169E0C0ED36F0FEC05F0850EE4
:103C3000D96FEB0ED86F110ED76F7D0ED66FA3C064
:103C4000DDF0A2C0DCF0A1C0DBF0A0C0DAF08BECAC
:103C500006F001E203E1010E3D6E03D03D6A8B9058
:103C60009490010ED46F020ED56FDEEC04F0F40ECA
:103C7000F66E070EF76E3EEC05F016A40DD0010EA1
:103C8000D46F040ED56FDEEC04F0FC0EF66E070E5A
:103C9000F76E3EEC05F00CD0010ED46F040ED56F1C
:103CA000DEEC04F0060EF66E080EF76E3EEC05F044
:103CB00016A00DD00D0ED46F040ED56FDEEC04F0FF
:103CC000100EF66E080EF76E3EEC05F00CD00D0EE1
:103CD000D46F040ED56FDEEC04F0180EF66E080EED
:103CE000F76E3EEC05F016A20DD0010ED46F030E58
:103CF000D56FDEEC04F0200EF66E080EF76E3EEC8B
:103D000005F00CD0010ED46F030ED56FDEEC04F07D
:103D1000280EF66E080EF76E3EEC05F0179A16A404
:103D200015D017BC0ED0060EC26F18EC04F0A2EC32
:103D300004F0C80ED96F5AEC04F0A2EC04F0178C12
:103D4000178AB8C0C2F018EC04F00FD0C26B18ECA0
:103D500004F017AC0AD0A2EC04F0C80ED96F5AECEC
:103D600004F0A2EC04F0179C178A16A019D0169440
:103D7000C26B18EC04F016928A8893988A969396F0
:103D8000169E17B20CD0A2EC04F0C80ED96F5AECF4
:103D900004F0A2EC04F01782010E306E178A11D0E5
:103DA00016908A86939617A20CD0A2EC04F0C80E47
:103DB000D96F5AEC04F0A2EC04F01792010E306EA9
:103DC000178A16A20FD08A98939817B40AD0A2EC3B
:103DD00004F0C80ED96F5AEC04F0A2EC04F017847A
:103DE000178A0ED08A88939817A40AD0A2EC04F000
:103DF000C80ED96F5AEC04F0A2EC04F01794178A9D
:103E0000AF5303E1AE511D080EE216B60BD0167289
:103E10001686020EC26F960ED96F5AEC04F0C22FAE
:103E2000FAD7178A01D01696B15303E1B0511D0895
:103E30000EE216BA0BD01674168A020EC26F960ED8
:103E4000D96F5AEC04F0C22FFAD7178A01D0169A0C
:103E5000B35303E1B2511D080AE216BC07D0960E17
:103E6000D96F5AEC04F01670178A168C01D0169C84
:103E7000AD5303E1AC511D081BE216B818D0C80EB3
:103E8000D96F5AEC04F00C0ED36F0FEC05F0020E54
:103E9000C26F960ED96F5AEC04F0C22FFAD7010EFA
:103EA000186E316A020E1C6E1E6E178A168801D0BB
:103EB0001698302C61D0070EA96E21C0A8FFA69CD1
:103EC000A69EA684F250006EF29E0F01550EA76EBC
:103ED000AA0EA76EA682A6B2FED7A6940050F21232
:103EE000080EA96E22C0A8FFA69CA69EA684F2502A
:103EF000006EF29E550EA76EAA0EA76EA682A6B2FF
:103F0000FED7A6940050F21240C023F041C024F026
:103F1000090EA96E23C0A8FFA69CA69EA684F2CF78
:103F200000F0F29E550EA76EAA0EA76EA682A6B24C
:103F3000FED7A6940050F212140E0001D96F5AEC6D
:103F400004F00A0EA96E24C0A8FFA69CA69EA68413
:103F5000F250006EF29E0F01550EA76EAA0EA76ECC
:103F6000A682A6B2FED7A6940050F212140E00014B
:103F7000D96F5AEC04F0306A21503B0802E2216A02
:103F8000222A22503C0804E1226A402AD8B4412A5D
:103F90002F503B080AE2A2EC04F0C80ED96F5AEC8D
:103FA00004F0A2EC04F02F6A178A36EF11F0030038
:020000040030CA
:0E0000003C0E391E000180000FC00FE00F40C3
:00000001FF
;PIC18F4550
;CRC=AC01  CREATED="09-oct.-20 15:07"
