:06000000A4EF14F0000C57
:0800080053EF00F000000000BE
:100010000000000000000000046ED8CF05F0E0CF23
:1000200006F00001E9CF0CF0EACF07F0E1CF08F0CD
:10003000E2CF09F0D9CF0AF0DACF0BF0F3CF12F00C
:10004000F4CF13F0FACF14F000C00EF001C00FF09F
:1000500002C010F003C011F09DA032EF00F09EB07E
:1000600013EF02F00EC000F00FC001F010C002F05C
:1000700011C003F00CC0E9FF07C0EAFF078E08C0FB
:10008000E1FF09C0E2FF0AC0D9FF0BC0DAFF12C0CE
:10009000F3FF13C0F4FF14C0FAFF045006C0E0FFE2
:1000A00005C0D8FF1000166ED8CF17F0E0CF18F0BB
:1000B0000001E9CF1EF0EACF19F0E1CF1AF0E2CF4C
:1000C0001BF0D9CF1CF0DACF1DF0F3CF24F0F4CF22
:1000D00025F0FACF26F000C020F001C021F002C0C8
:1000E00022F003C023F0F2AA79EF00F0F2B4FAEFA5
:1000F00001F0F2A87FEF00F0F2B224EF01F020C08F
:1001000000F021C001F022C002F023C003F01EC0A5
:10011000E9FF19C0EAFF198E1AC0E1FF1BC0E2FF18
:100120001CC0D9FF1DC0DAFF24C0F3FF25C0F4FFB7
:1001300026C0FAFF165018C0E0FF17C0D8FF100005
:10014000F2CF0DF0F29CF29EF76A600FF66E010E90
:10015000F7220900F5500DBCF28C0DBEF28E120094
:10016000280C010654656D706F72697A61646F7254
:10017000205556202020200043616D62696F204386
:100180006F6E7472617365F1612020005469656D52
:10019000706F2054726162616A6F20555620200092
:1001A00050756E746F204365726F202020202020D0
:1001B00020202000416C61726D61202020202020D1
:1001C000202020204F464600416C61726D61202046
:1001D0002020202020202020204F4E0056656C6FCC
:1001E00063696461642020202020202020202000DA
:1001F000434142494E4120464C554A4F204C414DC7
:10020000494E415200002020202020484F52495A98
:100210004F4E54414C202020202000002020202040
:100220004A502020494E474C4F42414C202020202C
:10023000000020202020205245463A4A50434837AB
:100240003220202020200000C283D151130808E171
:10025000D76AED0ED66E8B9494948B929492C4D000
:10026000D151120808E1D76AEA0ED66E8B949494A5
:100270008B929492B9D0D151110808E1D76AE70E58
:10028000D66E8B9494948B929492AED0D1511008E8
:1002900008E1D76AE40ED66E8B9494948B92949274
:1002A000A3D0D1510F0808E1D76AE10ED66E8B9426
:1002B00094948B92949298D0D1510E0808E1D76A09
:1002C000DE0ED66E8B9494948B9294928DD0D151F5
:1002D0000D0808E1D76ADB0ED66E8B9494948B924E
:1002E000949282D0D1510C0808E1D76AD80ED66E0C
:1002F0008B9494948B92949277D0D1510B0808E10F
:10030000D76AD50ED66E8B9494948B9294926CD0BF
:10031000D1510A0808E1D76AD20ED66E8B94949414
:100320008B92949261D0D151090808E1D76ACF0E1F
:10033000D66E8B9494948B92949256D0D151080897
:1003400008E1D76ACC0ED66E8B9494948B929492DB
:100350004BD0D151070808E1D76AC90ED66E8B94ED
:1003600094948B92949240D0D151060808E1D76AB8
:10037000C60ED66E8B9494948B92949235D0D151B4
:10038000050808E1D76AC30ED66E8B9494948B92BD
:1003900094922AD0D151040808E1D76AC00ED66ED3
:1003A0008B9494948B9294921FD0D151030808E1BE
:1003B000D76ABD0ED66E8B9494948B92949214D07F
:1003C000D151020808E1D76ABA0ED66E8B94949484
:1003D0008B92949209D0D12D07D0D76AB70ED66EE2
:1003E0008B9494948B929492C32BD8B4C42BF29296
:1003F0007FEF00F0D15314E0D151130811E3C2A3F1
:1004000009D08B8494948B829492D76AFD0ED66E19
:10041000C29306D08B9494948B929492D76AD66AA6
:10042000F2947FEF00F0B10ECF6EE00ECE6E582A40
:10043000D8B4592A928A80BA04D0C52BD8B4C62B16
:1004400002D0C66BC56B968084B004D0C72BD8B4DD
:10045000C82B02D0C86BC76B968284B204D0C92B5C
:10046000D8B4CA2B02D0CA6BC96B968484B404D0AA
:10047000CB2BD8B4CC2B02D0CC6BCB6B595203E135
:100480005850C7082EE292968976596A586A422ACD
:100490002A80532C0AD02AB603D08B90949004D093
:1004A0002AA802D08B8094902A7629A403D0CD2B41
:1004B000D8B4CE2B29A015D0342A29BE12D03B5255
:1004C00002E03B060ED03A5204E03A063B0E3B6E89
:1004D00008D0298E29908A8693963CC03AF03DC078
:1004E0003BF09E9032EF00F053656C656363696F7B
:1004F0006E652056656C6F63696461640000496EC7
:10050000696369616C20202056656E74696C616452
:100510006F720000202020202056656C3A20253084
:100520003275202020202020200020202020202084
:1005300020202020202020202020202020200000FB
:1005400020202020202020202020202020202020AB
:10055000202020200000202020202056656C6F6382
:1005600069646164202020202020000020202020B9
:100570002020416C6D6163656E61646120202020E4
:1005800000002020202020202020202020202020AB
:10059000202020202020000020202020202020209B
:1005A000202020202020202020202020000020208B
:1005B000426F7272616E646F20205469656D706F56
:1005C0002020000020202020646520547261626198
:1005D0006A6F2020202020200000202020202020C2
:1005E000202020202020202020202020202000004B
:1005F0002020202020496E6772657365202020200E
:1006000020202020000020202020436F6E74726183
:100610007365F16120202020202000002020202070
:10062000434C4156453D25692569256925692020AA
:1006300000002020202020202020202020202020FA
:100640002020202020002020202020436F6E747264
:10065000617365F1612020202000202020202020CF
:10066000436F727265637461202020202000202077
:10067000202020202020202020202020202020207A
:1006800020002020202020436F6E7472617365F17A
:100690006120202020002020202020496E636F72DE
:1006A00072656374612020202000202020202020FB
:1006B00020202020202020202020202020002D2D40
:1006C0002D4D454E55205052494E434950414C2DD9
:1006D0002D2D00002020202054656D706F72697AE6
:1006E00061646F7220202020200020202020202004
:1006F000204C757A205556202020202020202000D4
:10070000253033753A2530327520284D3A5329204B
:1007100020005469656D706F20416C6D6163656E7A
:1007200061646F002020436F7272656374616D6550
:100730006E74652020002020202020496E6772659D
:100740007365202020202020202000002020202051
:10075000436F6E7472617365F16120202020202048
:10076000000020202020434C4156453D2569256945
:10077000256925692020000020202020202020201D
:1007800020202020202020202020202000002020A9
:10079000202020436F6E7472617365F16120202008
:1007A00020200000202020202020436F72726563EB
:1007B00074612020202020200000202020202020E4
:1007C0002020202020202020202020202020000069
:1007D0002020202020202020202020202020202019
:1007E0002020202000002020202020436F6E7472E3
:1007F000617365F16120202020200000202020204E
:1008000020496E636F72726563746120202020201E
:100810000000202020202020202020202020202018
:100820002020202020200000202020496E677265B3
:100830007365204E75657661202020200000202001
:10084000202020436F6E7472617365F16120202057
:100850002020000020202020434C4156453D2569A2
:1008600025692569256920200000202020202020DE
:1008700020202020202020202020202020200000B8
:100880002020202020436F6E7472617365F1612017
:100890002020202000002020202020416C6D61635A
:1008A000656E61646120202020200000202020202F
:1008B0002020202020202020202020202020202038
:1008C000000020204475726163696F6E204163747B
:1008D00075616C20202000002020205469656D7017
:1008E0006F3D202530354C75202020002052455387
:1008F00045543D204F7072696D61205E2079203E25
:100900002000205265736574206465207469656DEC
:10091000706F20002020202020457869746F736F4D
:1009200020202020200020205A65726F20506F69FF
:100930006E7420436F6E66696720000050726573A5
:10094000696F6E3D2025332E326620696E48324F26
:100950002000202020204144433D25322E306600D7
:10096000202020205A463D25322E306600002020CF
:100970002020202020202020202020202020202077
:1009800020200000202020202020202041637469A6
:10099000766F2020202020200000202020202020F2
:1009A0002020416C61726D612020202020200000F9
:1009B0002020202020202020202020202020202037
:1009C0002020202000002020202020202020202067
:1009D0002020202020202020202000002020202057
:1009E000202044657361637469766F202020202085
:1009F000000020202020202020416C61726D6120A9
:100A00002020202020200000202020202020202026
:100A1000202020202020202020202020000053659E
:100A20006C656363696F6E652056656C6F6369649E
:100A30006164000020202064656C2056656E746936
:100A40006C61646F7220202000002020202020563E
:100A5000656C3A202530327520202020202020008F
:100A60002020202020202020202020202020202086
:100A700020202020000020202020202020202020B6
:100A800020202020202020202020000020202020A6
:100A90002056656C6F6369646164202020202020EB
:100AA0000000202020202020416C6D6163656E6174
:100AB00064612020202000002020202020202020F1
:100AC000202020202020202020202020000021562F
:100AD00065726966697175652046696C74726F210B
:100AE000202000004A5043522048543A2530354CCB
:100AF0007520686F72617320000054656D706F3AE5
:100B0000253033753A253032750046696C74726F42
:100B10003A004D6F746F723A4F4E20004D6F746FF4
:100B2000723A4F4646004C757A3A4F4E20004C754B
:100B30007A3A4F46460055563A4F4E2000005556D9
:100B40003A4F46460000202054656D706F72697AF6
:100B500061646F722020646520200000204C757A4B
:100B6000205556202046696E616C697A61646F2059
:100B700000002020202020202020202020202020B5
:100B800020202020202000002020202020202020A5
:100B90002020202020202020202020200000EA6A81
:100BA000F70EE96EEF500EE0050E016E006A002EA2
:100BB000FED7012EFBD72E0E006E002EFED700D0E2
:100BC000EF2EF2D7000CF839F00B006E0F0E8314E5
:100BD0000010836E090E006E002EFED700D08386B3
:100BE000490E006E002EFED78396000C8392010EF4
:100BF000F76FD5DFF5A18392F5B18382090E006E00
:100C0000002EFED700D08394090E006E002EFED772
:100C100000D08396F639F76F0F0EF717F7C0F8F08C
:100C2000D2DFF6510F0BF76FF86FCDDF000C000E1F
:100C3000956E8392839483960F0EF76FB0DF010E4B
:100C4000E06FE051030808E3030EF86FBCDF050E08
:100C5000F76FA5DFE02BF5D7020EF86FB4DFE06B7E
:100C6000E051030812E3036AE051F2CFE1F0F29C95
:100C7000F29EA0EC00F0E1BDF28CE1BFF28EE16FDC
:100C8000F56BF66FB3DFE02BEBD7000CC80EF76FF8
:100C900086DFCDDFFF0E926E966EC00EF212F288E6
:100CA000F18CC70ED56EF28A850ECD6E9D80C15037
:100CB000C00B0E09C16EC090C082C094C08EC280AD
:100CC000C00EF2127DEF15F08E0E006EF9C001F02D
:100CD000F8C002F0036A015209E102C001F0026AA1
:100CE000080E005E015202E1006A08D0D89001BEF1
:100CF00004D0023601360006F9D7019E000CF2CF6F
:100D0000E0F0F29CF29EA96AA69CA69EA680A8503E
:100D1000E0BDF28CE0BFF28E4F6E140EF76F3FDF36
:100D2000F2CFE0F0F29CF29E010EA96EA69CA69E68
:100D3000A680A850E0BDF28CE0BFF28E506E140E7B
:100D4000F76F2DDFF2CFE0F0F29CF29E020EA96E5B
:100D5000A69CA69EA680A850E0BDF28CE0BFF28EB5
:100D6000516E140EF76F1BDFF2CFE0F0F29CF29E93
:100D7000030EA96EA69CA69EA680A850E0BDF28C8C
:100D8000E0BFF28E526E140EF76F09DFF2CFE0F083
:100D9000F29CF29E040EA96EA69CA69EA680A85068
:100DA000E0BDF28CE0BFF28E016E2A9801B02A8875
:100DB000140EF76FF4DEF2CFE0F0F29CF29E050E17
:100DC000A96EA69CA69EA680A850E0BDF28CE0BFAE
:100DD000F28E3A6E140EF76FE2DEF2CFE0F0F29C84
:100DE000F29E060EA96EA69CA69EA680A850E0BD07
:100DF000F28CE0BFF28E3B6E140EF76FD0DEF2CFB6
:100E0000E0F0F29CF29E070EA96EA69CA69EA6801C
:100E1000A850E0BDF28CE0BFF28E346E140EF76F76
:100E2000BEDEF2CFE0F0F29CF29E080EA96EA69C08
:100E3000A69EA680A850E0BDF28CE0BFF28E356E73
:100E4000140EF76FACDEF2CFE0F0F29CF29E090ECA
:100E5000A96EA69CA69EA680A850E0BDF28CE0BF1D
:100E6000F28E366E140EF76F9ADEF2CFE0F0F29C3F
:100E7000F29E0A0EA96EA69CA69EA680A850E0BD72
:100E8000F28CE0BFF28E376E140EF76F88DEF2CF71
:100E9000E0F0F29CF29E0B0EA96EA69CA69EA68088
:100EA000A850E0BDF28CE0BFF28E386E140EF76FE2
:100EB00076DEF2CFE0F0F29CF29E0C0EA96EA69CBC
:100EC000A69EA680A850E0BDF28CE0BFF28E396EDF
:100ED000140EF76F64DEF2CFE0F0F29CF29E0D0E7E
:100EE000A96EA69CA69EA680A850E0BDF28CE0BF8D
:100EF000F28E576E140EF76F52DEF2CFE0F0F29CD6
:100F0000F29E0F0EA96EA69CA69EA680A850E0BDDC
:100F1000F28CE0BFF28E546E140EF76F40DEF2CF0B
:100F2000E0F0F29CF29E100EA96EA69CA69EA680F2
:100F3000A850E0BDF28CE0BFF28E556E140EF76F34
:100F40002EDEF2CFE0F0F29CF29E110EA96EA69C6E
:100F5000A69EA680A850E0BDF28CE0BFF28E566E31
:100F6000140EF76F1CDE39C05DF038C05CF05DC058
:100F7000F9F05CC0F8F0A8DE03C0C1F002C0C0F018
:100F800001C0BFF000C0BEF0F2CFE0F0F29CF29ED4
:100F9000130EA96EA69CA69EA680A850E0BDF28C5A
:100FA000E0BFF28EE16FF2CFE2F0F29CF29E120E01
:100FB000A96EA69CA69EA680A850E2BDF28CE2BFB8
:100FC000F28EE36FE1C0D0F0E3C0CFF0140EF76F04
:100FD000E6DDF2CFE0F0F29CF29E150EA96EA69C23
:100FE000A69EA680A850E0BDF28CE0BFF28EE16F15
:100FF000F2CFE2F0F29CF29E140EA96EA69CA69E81
:10100000A680A850E2BDF28CE2BFF28EE36FE1C091
:10101000CEF0E3C0CDF0140EF76FC1DDF2CFE0F0FB
:10102000F29CF29E160EA96EA69CA69EA680A850C3
:10103000E0BDF28CE0BFF28E446E140EF76FAFDDB0
:10104000F2CFE0F0F29CF29E170EA96EA69CA69E2F
:10105000A680A850E0BDF28CE0BFF28E456E140E63
:10106000F76F9DDDF2CFE0F0F29CF29E180EA96EB4
:10107000A69CA69EA680A850E0BDF28CE0BFF28E92
:10108000466E140EF76F8BDD37C05BF036C05AF03A
:101090003AC03CF03BC03DF07FEF15F0F5C0FCF0EE
:1010A000F951FC1BFCAF05D0D894D890F5BFD8807F
:1010B0002FD0F5C0FCF0F8C0FDF0F451FD5F06E064
:1010C000FCAF26D0D850010AD86E22D0F9C0FDF06E
:1010D000F551FD5F06E0FCAF1BD0D850010AD86E79
:1010E00017D0FAC0FDF0F651FD5F06E0FCAF10D05E
:1010F000D850010AD86E0CD0FBC0FDF0F751FD5F4F
:1011000006E0FCAF05D0D850010AD86E01D0D890C7
:10111000000C4FBE03D04F50090803E34FBE01D06F
:1011200019D04F6AA96AA86AA69CA69EA684F25006
:10113000006EF29CF29E0F01550EA76EAA0EA76ECE
:10114000A682A6B2FED7A6940050F212140E000199
:10115000F76F25DD50BE03D05050090803E350BEA1
:1011600001D01AD0506A010EA96EA86AA69CA69E4C
:10117000A684F250006EF29CF29E0F01550EA76EEF
:10118000AA0EA76EA682A6B2FED7A6940050F212AF
:10119000140E0001F76F03DD51BE03D05150090852
:1011A00003E351BE01D01AD0516A020EA96EA86A9B
:1011B000A69CA69EA684F250006EF29CF29E0F01A1
:1011C000550EA76EAA0EA76EA682A6B2FED7A6944B
:1011D0000050F212140E0001F76FE1DC52BE03D092
:1011E0005250090803E352BE01D01AD0526A030ECE
:1011F000A96EA86AA69CA69EA684F250006EF29CD8
:10120000F29E0F01550EA76EAA0EA76EA682A6B279
:10121000FED7A6940050F212140E0001F76FBFDC47
:10122000000E2AB8010E01081BE22A88040EA96EDE
:10123000010EA86EA69CA69EA684F250006EF29C9B
:10124000F29E0F01550EA76EAA0EA76EA682A6B239
:10125000FED7A6940050F212140E0001F76F9FDC27
:101260003A50C8081CE2140E3A6E050EA96E140E10
:10127000A86EA69CA69EA684F250006EF29CF29EDA
:101280000F01550EA76EAA0EA76EA682A6B2FED7B4
:10129000A6940050F212140E0001F76F80DC3B5050
:1012A0003B081AE23B6A060EA96EA86AA69CA69E97
:1012B000A684F250006EF29CF29E0F01550EA76EAE
:1012C000AA0EA76EA682A6B2FED7A6940050F2126E
:1012D000140E0001F76F63DC34503C081AE2346AE4
:1012E000070EA96EA86AA69CA69EA684F250006E60
:1012F000F29CF29E0F01550EA76EAA0EA76EA68253
:10130000A6B2FED7A6940050F212140E0001F76F99
:1013100046DC35503C081AE2356A080EA96EA86A08
:10132000A69CA69EA684F250006EF29CF29E0F012F
:10133000550EA76EAA0EA76EA682A6B2FED7A694D9
:101340000050F212140E0001F76F29DC5B502608E2
:101350003BE2FF0A03E15A50100836E25B6A5A6A20
:10136000090EA96E0A0EA86EA69CA69EA684F2502F
:10137000006EF29CF29E0F01550EA76EAA0EA76E8C
:10138000A682A6B2FED7A6940050F212140E000157
:10139000F76F05DC0A0EA96EA86AA69CA69EA68415
:1013A000F250006EF29CF29E0F01550EA76EAA0E2F
:1013B000A76EA682A6B2FED7A6940050F212140E13
:1013C0000001F76FCFEC05F0C1C0F7F0C0C0F6F038
:1013D000BFC0F5F0BEC0F4F0FB6BFA6B340EF96FD2
:1013E000860EF86F5BDE10E2F76BF66B160EF56F8C
:1013F000870EF46FC1C0FBF0C0C0FAF0BFC0F9F0B7
:10140000BEC0F8F04BDE3BE3C16BC06B5C0EBF6F40
:10141000860EBE6F0B0EA96EDC0EA86EA69CA69E55
:10142000A684F250006EF29CF29E0F01550EA76E3C
:10143000AA0EA76EA682A6B2FED7A6940050F212FC
:10144000140E0001F76FCFEC05F00C0EA96EA86A20
:10145000A69CA69EA684F250006EF29CF29E0F01FE
:10146000550EA76EAA0EA76EA682A6B2FED7A694A8
:101470000050F212140E0001F76FCFEC05F0575038
:10148000140802E357521DE10A0E576E0D0EA96EA5
:101490000A0EA86EA69CA69EA684F250006EF29C30
:1014A000F29E0F01550EA76EAA0EA76EA682A6B2D7
:1014B000FED7A6940050F212140E0001F76FCFEC85
:1014C00005F0D051E9083BE2FF0A03E1CF51600883
:1014D00036E2D06BCF6B130EA96EA86AA69CA69EAF
:1014E000A684F250006EF29CF29E0F01550EA76E7C
:1014F000AA0EA76EA682A6B2FED7A6940050F2123C
:10150000140E0001F76FCFEC05F0120EA96EA86A59
:10151000A69CA69EA684F250006EF29CF29E0F013D
:10152000550EA76EAA0EA76EA682A6B2FED7A694E7
:101530000050F212140E0001F76FCFEC05F0CE51FF
:101540000D083BE2FF0A03E1CD51100836E2CE6BF5
:10155000CD6B140EA96EA86AA69CA69EA684F25016
:10156000006EF29CF29E0F01550EA76EAA0EA76E9A
:10157000A682A6B2FED7A6940050F212140E000165
:10158000F76FCFEC05F0150EA96EA86AA69CA69E73
:10159000A684F250006EF29CF29E0F01550EA76ECB
:1015A000AA0EA76EA682A6B2FED7A6940050F2128B
:1015B000140E0001F76FCFEC05F0445001081DE256
:1015C000010E446E160EA96E010EA86EA69CA69E74
:1015D000A684F250006EF29CF29E0F01550EA76E8B
:1015E000AA0EA76EA682A6B2FED7A6940050F2124B
:1015F000140E0001F76FCFEC05F0455001081DE215
:10160000010E456E170EA96E010EA86EA69CA69E31
:10161000A684F250006EF29CF29E0F01550EA76E4A
:10162000AA0EA76EA682A6B2FED7A6940050F2120A
:10163000140E0001F76FCFEC05F046500F081DE2C5
:101640000A0E466E180EA96E0A0EA86EA69CA69EDD
:10165000A684F250006EF29CF29E0F01550EA76E0A
:10166000AA0EA76EA682A6B2FED7A6940050F212CA
:10167000140E0001F76FCFEC05F081EF15F0010EAD
:10168000F35DFC0F0FE2040F5BEF0BF0800EF46FC5
:1016900009D0C00EF46F06D0940EF46F03D0D40EB0
:1016A000F46F00D0010EF25DF427F56BF4C0F6F094
:1016B000F6EC05F0000CF2CF0DF0F29CF29EE8245F
:1016C000F76AF736E10FF66E160EF7220A00F550AC
:1016D000FA6E0800F5500DBCF28C0DBEF28EF96E5C
:1016E0008C16921698169E16F151F10802E1EE0E34
:1016F000F16FF151D10802E1FF0EF16FF1510C0AC7
:1017000005E0060A0FE0020A14E019D0F56B010E9D
:10171000F66FF6EC05F0010E286E020EF76FCFECB7
:1017200005F014D0282A010EF26F28C0F3F0A7DFCD
:101730000DD0F56B100EF66FF6EC05F007D0010E2C
:10174000F56FF1C0F6F0F6EC05F000D0000C0900E2
:10175000F5520CE0F6CFE3F0F7CFE4F0F5CFF1F07F
:10176000C3DFE3C0F6FFE4C0F7FFF1D7000C010EC2
:10177000F26FF36F84DFF00EF66E010EF76EE7DFA7
:10178000010EF26F020EF36F7ADF060EF66E020E96
:10179000F76EDDDF010EF26F030EF36F70DF1C0ECC
:1017A000F66E020EF76ED3DF010EF26F040EF36FCA
:1017B00066DF320EF66E020EF76EC9DF080EE06FBE
:1017C000FA0EF76FCFEC05F0E02FFAD70C0EF16FA1
:1017D0008BDF86EF15F00900F6CFE5F0F7CFE6F0E6
:1017E000F5CFF1F081DFE5C0F6FFE6C0F7FFE42FAB
:1017F000F2D7000CE751016AE65D03E2E6C000F0B3
:101800000CD0006A080EE86FE6370036E751005C3E
:10181000D8B0006E0136E82FF7D7000C0150E0C0B9
:10182000E6F0640EE76FE6DF00C0E0F00150300E36
:1018300007E1E1A30CD0E1B70AD0E1B9200E03D053
:10184000E197E199E181012601C0F1F04DDFE0C0AF
:10185000E6F00A0EE76FCEDF00C0E0F00150300E78
:1018600006E1E1B708D0E1A106D0E1B9200E0126DA
:1018700001C0F1F039DF300EE027E0C0F1F034DFD5
:10188000000CCE510D08D8B084D0FF0A04E1CD5130
:101890000F08D8B07ED0CE6BCD6BCDC0E0F0140E6B
:1018A000A96EE0C0A8FFA69CA69EA684F250006E7A
:1018B000F29CF29E0F01550EA76EAA0EA76EA6828D
:1018C000A6B2FED7A6940050F212140E0001F76FD4
:1018D000CFEC05F0CEC0E0F0150EA96EE0C0A8FF79
:1018E000A69CA69EA684F250006EF29CF29E0F016A
:1018F000550EA76EAA0EA76EA682A6B2FED7A69414
:101900000050F212140E0001F76FCFEC05F0CF2B50
:10191000D8B4D02BCFC0E0F0120EA96EE0C0A8FF63
:10192000A69CA69EA684F250006EF29CF29E0F0129
:10193000550EA76EAA0EA76EA682A6B2FED7A694D3
:101940000050F212140E0001F76FCFEC05F0D0C07A
:10195000E0F0130EA96EE0C0A8FFA69CA69EA68488
:10196000F250006EF29CF29E0F01550EA76EAA0E69
:10197000A76EA682A6B2FED7A6940050F212140E4D
:101980000001F76FCFEC05F0140EF76FCFEC05F008
:101990004CD0CD51840803E1CE5103080CE0CD5169
:1019A000080803E1CE51070806E0CD518C083DE15F
:1019B000CE510A083AE1CDC0E0F0140EA96EE0C0A5
:1019C000A8FFA69CA69EA684F250006EF29CF29EF2
:1019D0000F01550EA76EAA0EA76EA682A6B2FED75D
:1019E000A6940050F212140E0001F76FCFEC05F030
:1019F000CEC0E0F0150EA96EE0C0A8FFA69CA69E82
:101A0000A684F250006EF29CF29E0F01550EA76E56
:101A1000AA0EA76EA682A6B2FED7A6940050F21216
:101A2000140E0001F76FCFEC05F002EF17F0200E57
:101A3000E1A9300EE26FE0C000F0E0AF07D0001E79
:101A4000002A00C0E0F02D0EE26FE18F0150E0C0EF
:101A5000E6F0640EE76FCEDE00C0E0F0300E012449
:101A6000E36FE0C0E6F00A0EE76FC4DE300E00243C
:101A7000E56F300E0124E46FE2C000F0E1A702D070
:101A8000E1AFE195E1B90BD0E1AF22D0E1B520D0D3
:101A900000C0E3F0E1B31CD000C0E4F019D0300E78
:101AA000E35D16E100C0E3F0200EE26FE1A704D091
:101AB000E195E183E1AFE193300EE45D09E100C01F
:101AC000E4F0200EE36FE1A7F7D7E193E1AFE191F6
:101AD000E1A503D0E2C0F1F007DEE1A303D0E3C04B
:101AE000F1F002DEE1A103D0E4C0F1F0FDDDE5C0DC
:101AF000F1F0FADD000CE12D0AD0020EF26FE2C027
:101B0000F3F0BDDD640EF66E010EF76E20DEE151DE
:101B100002080AE1020EF26FE2C0F3F0B0DD780EC7
:101B2000F66E010EF76E13DEE15103080AE1020EB4
:101B3000F26FE2C0F3F0A3DD8C0EF66E010EF76ECD
:101B400006DEE15104080AE1020EF26FE2C0F3F092
:101B500096DDA00EF66E010EF76EF9DDE151050877
:101B600018E12AB80AD0020EF26FE2C0F3F087DD66
:101B7000B40EF66E010EF76EEADD2AA80AD0020E48
:101B8000F26FE2C0F3F07BDDC80EF66E010EF76E69
:101B9000DEDDE15106080AE1020EF26FE2C0F3F069
:101BA0006EDDDC0EF66E010EF76ED1DD000CEACFB5
:101BB000E8F0E9CFE7F0E139F009E36FE327E20F5E
:101BC000E46F320FE66FE1510F0BE427E427E627BD
:101BD000E90FE56FE527E527E0390F0BE527E62755
:101BE000E537E637E61FE637E0510F0BE627E33728
:101BF000070EE26F0A0EE507E627FDE3E407E52797
:101C0000FDE3E307E427FDE3E207E327FDE3EA6AF8
:101C1000E20EE96E070EE715E79DE926E60EE95CA0
:101C2000D8B4E78DEF50006E08E1E7BD06D0E7B904
:101C300013D0E7B702D0200E03D0E787E799300E24
:101C40000026EACFE1F0E9CFE0F000C0F1F04CDD92
:101C5000E1C0EAFFE0C0E9FFEE50E7ADDFD7000CDE
:101C6000F135006E0036FC0E001600C001F0C250C7
:101C7000C30B0010C26E0A0EF76FCFEC05F0C282E4
:101C8000C2B2FED7C4CF03F0C3CFF8F0C4CFF9F08F
:101C900064EC06F003C0F5F002C0F4F001C0F3F00C
:101CA00000C0F2F0F2C000F0F3C001F0F4C002F0A6
:101CB000F5C003F0000CF451D8B4CAD00101006F94
:101CC0000001F851D8B4C4D00101005F07E37F0ED2
:101CD0000027D8A002D00001BBD00AD0810E005F3F
:101CE000D8B002D00001B4D0D8A402D00001B0D046
:101CF00000C100F0016A026A036A0001FF6BF5C0CF
:101D0000FEF0FE8FF6C0FDF0F7C0FCF0190E0101E9
:101D1000006F0001FB51FC5F0DE2010EFD5F0AE266
:101D2000FE5F08E2FF5F06E2FF2BFE2BFD2BFB515F
:101D3000FC2728D0FA51FD5F12E2010EFE5F0FE290
:101D4000FF5F0DE2FF2BFE2BFA51FD27FB51FC2715
:101D500019E3FD2B17E1FE2B15E1FF2B13D0F951F1
:101D60008009FE5F0EE2010EFF5F0BE2FF2BF951CF
:101D70008009FE27FA51FD27E9E3FE2BE7E1FF2B5F
:101D8000E5D703800101002F01D00DD0D8900001CC
:101D9000FC37FD37FE37FF37D89003360236013661
:101DA00001010137B6D701A106D0D8900132023225
:101DB0000332013304D0002E02D0000149D001BF0C
:101DC00023D0D8900001FC37FD37FE37FF37FB5199
:101DD000FC5F07E2010EFD5F04E2FE5F02E2FF5FCF
:101DE0002BE3FA51FD5F05E2010EFE5F02E2FF5FA9
:101DF00023E3F9518009FE5FD8A002D0010104D08D
:101E0000010EFF5F19E30101032AD8B402D00001DB
:101E100013D0022AD8B402D000010ED0012AD8B4BF
:101E200002D0000109D0002AD8A402D0000110D0AD
:101E30000132023203320001F5C000F1F951010113
:101E4000001B00AF02D0018E08D0019E06D0000119
:101E5000006A016A026A036A01010001000C800E37
:101E6000D8B2FD1B0101026B036BF9C001F1000147
:101E7000FD510101011B0001F851D8B4E1D001016D
:101E8000006F006E0001FC51D8B4E4D00101005F86
:101E9000D8B483D03DE3FDC006F1068FFEC005F146
:101EA000FFC004F1036BD8900633053304330333CA
:101EB000002FF8D701AF03D00281E1D00291009149
:101EC0000289EA6AFB0EE96EEDD0029901BF0AD0E1
:101ED00000A113D00633053304330333002AD8B4EA
:101EE000C9D00BD006BF0CD0D890033704370537C4
:101EF00006370006D8B4BED0F5D7028D6DD0029D4E
:101F0000F9C001F101AF02D0068FADD0069FABD072
:101F1000FCC000F1FCC000F00001F8510101005FBD
:101F2000F9C006F1068FFAC005F1FBC004F1036B9E
:101F3000D8900633053304330333002FF8D701AFAD
:101F400003D002839CD002930091028BEA6AFF0EB9
:101F5000E96EA8D0029B01BF0AD000A113D00633BE
:101F6000053304330333002AD8B484D00BD006BF22
:101F70000CD0D89003370437053706370006D8B49D
:101F800079D0F5D7028F28D0029FFDC001F101AFB3
:101F900002D0068F68D0069F66D0FDC006F1068F7E
:101FA000FEC005F1FFC004F101AF04D0069F028519
:101FB00066D00295036B0091EA6AFB0EE96E72D05F
:101FC00001BF1CD0F9C001F100A106D006330533D2
:101FD00004330333002A4EE003AF0BD0042B09E196
:101FE000052B07E1062B05E1063305330433002AF0
:101FF00041E002BD84D702BFC7D71CD0800E061BAC
:1020000006AF04D03CD0FDC001F10AD0F9C001F107
:10201000065306E1055304E1045302E1006A23D0AC
:1020200006BF08D0D8900337043705370637002E8F
:10203000F7D720D001AF02D0068F15D0069F13D05E
:10204000FCC000F0FDC006F1FEC005F1FFC004F1C8
:10205000010109D0F8C000F0F9C006F1FAC005F19D
:10206000FBC004F1010106C101F005C102F004C189
:1020700003F034D0006A016A026A036A2FD0036B4E
:10208000041F051F061F031F032B05E1042B03E19B
:10209000052B01E1062B02B111D702B354D702B5CB
:1020A00088D7B1D7EF50042705E3052B03E1062BB2
:1020B000D8B40081ED52EF50052703E3062BD8B4C6
:1020C0000081ED52EF50EFBE01D0800A0627D8B054
:1020D000008102B9FAD602BB3DD772D70001000CCD
:1020E000E46BE36BE26BE16BE86BE76BE66BE56B74
:1020F000EC6BEB6BEA6BE96BF06BEF6BEE6BED6B24
:10210000F16BAEDD03C0B1F002C0B0F001C0AFF0C2
:1021100000C0AEF0B1C0F7F0B0C0F6F0AFC0F5F05F
:10212000AEC0F4F0C1C0FBF0C0C0FAF0BFC0F9F01F
:10213000BEC0F8F0C0DD00C0F1F001C0F2F002C096
:10214000F3F003C0F4F0D88203C0FBF002C0FAF051
:1021500001C0F9F000C0F8F0FF6BFE6BFD6B7F0E65
:10216000FC6F7DDE03C0B5F002C0B4F001C0B3F077
:1021700000C0B2F0B5C0F7F0B4C0F6F0B3C0F5F0EF
:10218000B2C0F4F0FB6BFA6BF96BF86B4EEC08F035
:1021900004E3B56BB46BB36BB26B010EE05D3E5CF8
:1021A00002E001E33E6A3E50040DF350036A5E0F05
:1021B000E96E000E0320EA6EB2C0EFFFB3C0ECFF81
:1021C000B4C0ECFFB5C0ECFF3E2A3F6A010EE05DF3
:1021D0003F5C01E035E23F50040DF350036A5E0FAF
:1021E000E96E000E0320EA6EEFCF00F0ECCF01F0B5
:1021F000ECCF02F0ECCF03F0EACFF2F0E9CFF1F050
:10220000D892E4C0FBF0E3C0FAF0E2C0F9F0E1C01C
:10221000F8F003C0FFF002C0FEF001C0FDF000C006
:10222000FCF01DDEF2C0EAFFF1C0E9FF03C0E4F0FC
:1022300002C0E3F001C0E2F000C0E1F03F2AC6D7DF
:10224000F96BE0C0F8F064EC06F0E4C0F7F0E3C02E
:10225000F6F0E2C0F5F0E1C0F4F003C0FBF002C01C
:10226000FAF001C0F9F000C0F8F025DD03C0E4F099
:1022700002C0E3F001C0E2F000C0E1F0E1C000F014
:10228000E2C001F0E3C002F0E4C003F0000CF4513E
:10229000D8B471D0006EF851D8B46DD0002604E3E4
:1022A000810E002668E204D07F0E005E64E363E0E6
:1022B000F5C0FCF0F951FC1BF58FF98FF751FB03CA
:1022C000F4CFFEF0F651FA03F4CF03F0F3CFFDF0B4
:1022D000FB03F350FE27F450FD23000E0322F751B9
:1022E000FA03F350FE27F450FD23000E026A032286
:1022F0000222F551FB03F350FD27F4500322000E98
:102300000222F551FA03F3500326F4500222000E84
:10231000016A0122F751F903F350FD27F45003221B
:10232000000E02220122F651F903F3500326F45065
:102330000222000E0122F551F903F3500226F45057
:102340000122002A01BE05D0FD37033602360136D0
:102350000006000EFDAF0AD0032A0222012201501E
:1023600005E1025003E1035001E1002AFCBF018EA8
:10237000FCAF019E04D0006A016A026A036A000C85
:10238000F151B608F16F036AF2C0F5F0F28FD89000
:10239000F233F333F4330332023201320032F12FDD
:1023A000F6D7F5AF0BD0001E011E021E031E002A39
:1023B000D8B4012AD8B4022AD8B4032A44EF12F0C0
:1023C000006A016A026A036AF96BFA6BFB6BFC6BC9
:1023D000F851F711F611F5112CE0200EFD6FD89091
:1023E000F137F237F337F437F937FA37FB37FC3781
:1023F000F851FC5D08E1F751FB5D05E1F651FA5D2E
:1024000002E1F551F95D0FE3F551F95FF651D8A0FE
:10241000F63DFA5FF751D8A0F73DFB5FF851D8A021
:10242000F83DFC5FD8800036013602360336FD2FBA
:10243000D6D7EA6AF90EE96E000CE950E96FE85167
:10244000EB6F19E0E7C0F7F0E6C0F6F0E5C0F5F095
:10245000E4C0F4F0FB6BFA6B200EF96F820EF86F9C
:1024600016DF03C0E7F002C0E6F001C0E5F000C0EF
:10247000E4F0EB2FE7D7E7C0F4F0E6C0F3F0E5C0F7
:10248000F2F0E4C0F1F07CD703C0E7F002C0E6F060
:1024900001C0E5F000C0E4F0E7AF0DD0E907E98B3B
:1024A000E41FE51FE61FE71FE42BD8B4E52BD8B4E3
:1024B000E62BD8B4E72B3B0EF06F9A0EEF6FCA0EE7
:1024C000EE6FED6B0A0EEB6FE851D8B4E92BE7C065
:1024D000F4F0E6C0F3F0E5C0F2F0E4C0F1F0F0C0D3
:1024E000F8F0EFC0F7F0EEC0F6F0EDC0F5F068DF01
:1024F0000150EFCFE4F0ECCFE5F0ECCFE6F0ECCF1D
:10250000E7F000520FE1E829EB5D0CE0E9510CE047
:102510000F0BEB5D01E03BE2E9BF39D0E9BD04D030
:10252000200E30D0200EE917E9AB0DD0E99BE85121
:10253000D8A4E9070050E96F2D0EF16F74EC0BF091
:10254000E951006EE96BE851EB5D0BE10050E96F7A
:102550002E0EF16F74EC0BF0E951006E200EE917AE
:10256000000E300EE9AB0ED0E99BE851D8A4E90784
:102570000050E96F2D0EF16F74EC0BF0E951006E15
:10258000E96B300E002600C0F1F074EC0BF0F0C0E7
:10259000F4F0EFC0F3F0EEC0F2F0EDC0F1F0F86B44
:1025A000F76BF66B0A0EF56F0BDF03C0F0F002C09D
:1025B000EFF001C0EEF000C0EDF0EB2F88D7000C7B
:1025C0008E0E006EF451005EF5C002F0F6C001F010
:1025D000028E005209E0D890025202E1015204E05A
:1025E00002320132002EF7D7F5AF05D0011E021ED0
:1025F000012AD8B4022A000CF391E7C0ECF0E6C03F
:10260000EBF0E5C0EAF0E4C0E9F0E7C0F7F0E6C0BF
:10261000F6F0E5C0F5F0E4C0F4F0FB6BFA6BF96B93
:10262000F86B4EEC08F004E3F381EA51800AEA6F9C
:10263000ECC0F7F0EBC0F6F0EAC0F5F0E9C0F4F05A
:10264000FB6BFA6BF96B8E0EF86F4EEC08F001E243
:1026500018E1ECC0F7F0EBC0F6F0EAC0F5F0E9C025
:10266000F4F0AEDF02C0F9F001C0F8F064EC06F05F
:1026700003C0F0F002C0EFF001C0EEF000C0EDF0DA
:10268000C5D0ECC0F7F0EBC0F6F0EAC0F5F0E9C059
:10269000F4F0800EFB6F960EFA6F180EF96F960E1F
:1026A000F86F4EEC08F0D8A0A9D0ECC0F7F0EBC062
:1026B000F6F0EAC0F5F0E9C0F4F0FB6BFA6BF96BE9
:1026C0008E0EF86F5BEC0EF003C0F7F002C0F6F070
:1026D00001C0F5F000C0F4F073DF02C0F2F001C0F9
:1026E000F1F0ECC0F7F0EBC0F6F0EAC0F5F0E9C0AD
:1026F000F4F0FB6BFA6BF96B8E0EF86F5BEC0EF07F
:1027000000C0F4F001C0F5F002C0F6F003C0F7F02D
:10271000F2C0F9F0F1C0F8F064EC06F0D882F7C02E
:10272000FBF0F6C0FAF0F5C0F9F0F4C0F8F003C021
:10273000FFF002C0FEF001C0FDF000C0FCF02FEC85
:102740000FF0F76BF66BF56B8E0EF46F03C0FBF0BA
:1027500002C0FAF001C0F9F000C0F8F098DD03C043
:10276000ECF002C0EBF001C0EAF000C0E9F0F2C00A
:10277000F9F0F1C0F8F064EC06F0F76BF66BF56B6E
:102780008E0EF46F03C0FBF002C0FAF001C0F9F046
:1027900000C0F8F07CDD03C0F0F002C0EFF001C033
:1027A000EEF000C0EDF0ECC0F7F0EBC0F6F0EAC0E0
:1027B000F5F0E9C0F4F004DF02C0F9F001C0F8F070
:1027C00064EC06F0D892F0C0FBF0EFC0FAF0EEC077
:1027D000F9F0EDC0F8F003C0FFF002C0FEF001C058
:1027E000FDF000C0FCF02FEC0FF003C0F0F002C0D1
:1027F000EFF001C0EEF000C0EDF008D0ECC0F0F05A
:10280000EBC0EFF0EAC0EEF0E9C0EDF0ECC0F7F09D
:10281000EBC0F6F0EAC0F5F0E9C0F4F0D1DE02C09A
:10282000F9F001C0F8F064EC06F0D882ECC0FBF0DF
:10283000EBC0FAF0EAC0F9F0E9C0F8F003C0FFF02D
:1028400002C0FEF001C0FDF000C0FCF02FEC0FF064
:1028500003C0ECF002C0EBF001C0EAF000C0E9F008
:10286000F3A103D0EE51800AEE6FECC0F7F0EBC09D
:10287000F6F0EAC0F5F0E9C0F4F0FB6BFA6BF96B27
:10288000F86B4EEC08F038E0F3A11AD0E85318E1E9
:10289000D882F0C0FBF0EFC0FAF0EEC0F9F0EDC066
:1028A000F8F0FF6BFE6BFD6B7F0EFC6F2FEC0FF0F3
:1028B00003C0F0F002C0EFF001C0EEF000C0EDF098
:1028C000F3B11AD0E82D18D0D892F0C0FBF0EFC0C9
:1028D000FAF0EEC0F9F0EDC0F8F0FF6BFE6BFD6BA7
:1028E0007F0EFC6F2FEC0FF003C0F0F002C0EFF092
:1028F00001C0EEF000C0EDF0E7C0F7F0E6C0F6F082
:10290000E5C0F5F0E4C0F4F0FB6BFA6BF96BF86B23
:102910004EEC08F004E1F06BEF6BEE6BED6BEDC08D
:1029200000F0EEC001F0EFC002F0F0C003F0A3EF42
:1029300014F0E3C0E7F0E2C0E6F0E1C0E5F0E0C08B
:10294000E4F0E86B59D6000CF86AF1849F90D08EC1
:10295000078EEA6AE96A299029922994299629988A
:10296000299A299C299E2A902A922A942A962A9862
:102970002A9A2A9C2B6A070E2C6E020E2D6E0B0EC5
:102980002E6E020E2F6E030E306E020E316E326E00
:10299000040E336E346A356A366A376A386A396AC1
:1029A0003A6A3B6A3C6A3D6A3E6A3F6A406A010E87
:1029B000416E426A436A446A456A0A0E466E476A35
:1029C000536A546A556A566A040E576E5B6A5A6AAD
:1029D0005D6A5C6AB16BB06BAF6BAE6BB56BB46BC1
:1029E000B36BB26BB96BB86BB76BB66BBD6BBC6BD3
:1029F000BB6BBA6BC16BC06BBF6B800EBE6F2A8E98
:102A0000C291C46BC36BC66BC56BC86BC76BCA6B1B
:102A1000C96BCC6BCB6BCE6BCD6BD06BCF6BC293DA
:102A2000D16BDB6BDA6BC150C00B0F09C16E070EA7
:102A3000B46E3E0E486E200E496E5E0E4A6E4B6AB4
:102A40004C6A4D6A4E6A4F6A506A516A526A5E6AAF
:102A50005F6A606B616B626B636B646B656B666B0B
:102A6000676B686B696B6A6B6B6B6C6B6D6B6E6BBA
:102A70006F6B706B716B726B736B746B756B766B6A
:102A8000776B786B796B7A6B7B6B7C6B7D6B7E6B1A
:102A90007F6B806B816B826B836B846B856B866BCA
:102AA000876B886B896B8A6B8B6B8C6B8D6B8E6B7A
:102AB0008F6B906B916B926B936B946B956B966B2A
:102AC000976B986B996B9A6B9B6B9C6B9D6B9E6BDA
:102AD0009F6BA06BA16BA26BA36BA46BA56BA66B8A
:102AE000A76BA86BA96BAA6BAB6BAC6BAD6B8B9434
:102AF00094948B92949246EF06F07FEF06F089EF64
:102B000008F0442C01D003D0B7EF0BF009D0452CCE
:102B100001D02982455201E129922984320E2B6E7F
:102B20008B9494948B929492928A80BABDD0968022
:102B300084B0BAD0968284B2B7D046500F0802E271
:102B40000F0E466E465202E1010E466E010EF26F06
:102B5000F36F3FEC0BF0E80EF66E040EF76EA7EC89
:102B60000BF0010EF26F020EF36F3FEC0BF0FE0E56
:102B7000F66E040EF76EA7EC0BF0010EF26F030E6B
:102B8000F36F3FEC0BF0140EF66E050EF76E0A0EA7
:102B9000E46FEBEC0BF046C0E0F0010EE16F0EECE1
:102BA0000CF0220EF66E050EF76E070EE46FEBECDE
:102BB0000BF0010EF26F040EF36F3FEC0BF02A0ED8
:102BC000F66E050EF76EA7EC0BF0928A80BA05D070
:102BD000C80EF76FCFEC05F0462A968084B007D078
:102BE000575205E0C80EF76FCFEC05F04606968405
:102BF00084B459D0180EA96E46C0A8FFA69CA69E04
:102C0000A684F250006EF29CF29E0F01550EA76E44
:102C1000AA0EA76EA682A6B2FED7A6940050F21204
:102C2000140E0001F76FCFEC05F0010EF26FF36F99
:102C30003FEC0BF0400EF66E050EF76EA7EC0BF0B6
:102C4000010EF26F020EF36F3FEC0BF0560EF66EB4
:102C5000050EF76EA7EC0BF0010EF26F030EF36F8B
:102C60003FEC0BF06C0EF66E050EF76EA7EC0BF05A
:102C7000010EF26F040EF36F3FEC0BF0820EF66E56
:102C8000050EF76EA7EC0BF0040EE06FFA0EF76F6F
:102C9000CFEC05F0E02FFAD70C0EF16F74EC0BF0CF
:102CA00017EC06F0FF0049D7928A80BAA9D0968423
:102CB00084B4A6D0140EA96EA86AA69CA69EA6846B
:102CC000F250006EF29CF29E0F01550EA76EAA0EF6
:102CD000A76EA682A6B2FED7A6940050F212140EDA
:102CE0000001F76FCFEC05F0150EA96EA86AA69C3F
:102CF000A69EA684F250006EF29CF29E0F01550E25
:102D0000A76EAA0EA76EA682A6B2FED7A694005002
:102D1000F212140E0001F76FCFEC05F0120EA96E3F
:102D2000A86AA69CA69EA684F250006EF29CF29E13
:102D30000F01550EA76EAA0EA76EA682A6B2FED7E9
:102D4000A6940050F212140E0001F76FCFEC05F0BC
:102D5000130EA96EA86AA69CA69EA684F250006EC9
:102D6000F29CF29E0F01550EA76EAA0EA76EA682C8
:102D7000A6B2FED7A6940050F212140E0001F76F0F
:102D8000CFEC05F0010EF26FF36F3FEC0BF0980EF5
:102D9000F66E050EF76EA7EC0BF0010EF26F020E49
:102DA000F36F3FEC0BF0AE0EF66E050EF76EA7EC70
:102DB0000BF0010EF26F030EF36F3FEC0BF0C40E3D
:102DC000F66E050EF76EA7EC0BF0010EF26F040E17
:102DD000F36F3FEC0BF0DA0EF66E050EF76EA7EC14
:102DE0000BF0040EE06FFA0EF76FCFEC05F0E02F5A
:102DF000FAD70C0EF16F74EC0BF017EC06F0FF0035
:102E000041EF0CF0D151140806E18B8494948B822D
:102E10009492D76AD66AD15306E18B9494948B929C
:102E20009492D76AD66A2B52D8A405D2010EF26FBB
:102E3000F36F3FEC0BF0F00EF66E050EF76EA7EC9D
:102E40000BF0010EF26F020EF36F3FEC0BF0060E6B
:102E5000F66E060EF76EA7EC0BF0010EF26F030E86
:102E6000F36F3FEC0BF01C0EF66E060EF76E0A0EBB
:102E7000E46FEBEC0BF04BC0E0F01F0EE16F17ECD2
:102E80000DF04CC0E0F01F0EE16F17EC0DF04DC0DF
:102E9000E0F01F0EE16F17EC0DF04EC0E0F01F0EDA
:102EA000E16F17EC0DF0200EF16F74EC0BF0200EBB
:102EB000F16F74EC0BF02EC0F2F0040EF36F3FECE8
:102EC0000BF04AC0F1F074EC0BF02E500B080FE23F
:102ED0002E500D080CE3010E2E5CE06FF26F040E15
:102EE000F36F3FEC0BF049C0F1F074EC0BF02A9E4D
:102EF000928A80BA19D0140EF76FCFEC05F0928A3F
:102F000080BA11D029B60FD00B0E2E5C036A4B0F7E
:102F1000E96E000E0320EA6EEF2A29861E0EF76F77
:102F2000CFEC05F02A8E01D02996968084B019D076
:102F3000140EF76FCFEC05F0968084B011D029BA4B
:102F40000FD00B0E2E5C036A4B0FE96E000E0320B0
:102F5000EA6EEF06298A1E0EF76FCFEC05F02A8E77
:102F600001D0299A968284B215D0140EF76FCFEC57
:102F700005F0968284B20DD029B80BD029882E2A6C
:102F80001E0EF76FCFEC05F00C0EF16F74EC0BF02A
:102F90002A8E01D02998968484B415D0960EF76FA6
:102FA000CFEC05F0968484B40DD029BC0BD0298CCD
:102FB0002E061E0EF76FCFEC05F00C0EF16F74ECC1
:102FC0000BF02A8E01D0299C0B0E2E5C036A4B0F4E
:102FD000E96E000E0320EA6EEFBE01D00AD00B0EA0
:102FE0002E5C036A4B0FE96E000E0320EA6E090E99
:102FF000EF6E0B0E2E5C036A4B0FE96E000E032082
:10300000EA6EEFBE0CD0EF50090809E20B0E2E5C01
:10301000036A4B0FE96E000E0320EA6EEF6A2E5032
:103020000A0802E30B0E2E6E2E500E08D8B003D104
:103030004B50030871E14C5008086EE14D500908EF
:103040006BE14E50020868E1A96AA86AA69CA69E98
:10305000A684F250006EF29CF29E0F01550EA76EF0
:10306000AA0EA76EA682A6B2FED7A6940050F212B0
:10307000140E0001F76FCFEC05F0010EA96EA86ADF
:10308000A69CA69EA684F250006EF29CF29E0F01B2
:10309000550EA76EAA0EA76EA682A6B2FED7A6945C
:1030A0000050F212140E0001F76FCFEC05F0020E83
:1030B000A96EA86AA69CA69EA684F250006EF29CF9
:1030C000F29E0F01550EA76EAA0EA76EA682A6B29B
:1030D000FED7A6940050F212140E0001F76FCFEC49
:1030E00005F0030EA96EA86AA69CA69EA684F250BF
:1030F000006EF29CF29E0F01550EA76EAA0EA76EEF
:10310000A682A6B2FED7A6940050F212140E0001B9
:10311000F76FCFEC05F0FF004F504B5C4FE1505084
:103120004C5C4CE151504D5C49E152504E5C46E1E3
:10313000010EF26FF36F3FEC0BF0320EF66E060EDF
:10314000F76EA7EC0BF0010EF26F020EF36F3FEC7F
:103150000BF0460EF66E060EF76EA7EC0BF0010EA6
:10316000F26F030EF36F3FEC0BF05A0EF66E060E85
:10317000F76EA7EC0BF0010EF26F040EF36F3FEC4D
:103180000BF06E0EF66E060EF76EA7EC0BF0040E4B
:10319000E06FFA0EF76FCFEC05F0E02FFAD7320EA2
:1031A0002B6E0B0E2E6E0C0EF16F74EC0BF02A8E44
:1031B0004B6A4C6A4D6A4E6A2A8E3DD0010EF26F00
:1031C000F36F3FEC0BF0010EF26F020EF36F3FEC6A
:1031D0000BF0820EF66E060EF76EA7EC0BF0010EEA
:1031E000F26F030EF36F3FEC0BF0960EF66E060EC9
:1031F000F76EA7EC0BF0010EF26F040EF36F3FECCD
:103200000BF0AA0EF66E060EF76EA7EC0BF0040E8E
:10321000E06FFA0EF76FCFEC05F0E02FFAD70B0E48
:103220002E6E0C0EF16F74EC0BF02A8E4B6A4C6A0A
:103230004D6A4E6A2A8E2B2C1BD102EC00F0010E37
:10324000F26FF36F3FEC0BF0BE0EF66E060EF76EEC
:10325000A7EC0BF0010E4724E06FE16F020EE26F66
:103260007BEC0DF0020E4724E06FE16F030EE26F7E
:103270007BEC0DF0030E4724E06FE16F040EE26F6C
:103280007BEC0DF0010EF26F2FC0F3F03FEC0BF072
:1032900048C0F1F074EC0BF02F50020814E1010E5D
:1032A000F26F040EF36F3FEC0BF049C0F1F074ECD9
:1032B0000BF0010EF26F030EF36F3FEC0BF049C001
:1032C000F1F074EC0BF02F50040814E1010EF26FD2
:1032D000020EF36F3FEC0BF049C0F1F074EC0BF011
:1032E000010EF26F030EF36F3FEC0BF049C0F1F0EB
:1032F00074EC0BF02F50030814E1010EF26F040E72
:10330000F36F3FEC0BF049C0F1F074EC0BF0010EE1
:10331000F26F020EF36F3FEC0BF049C0F1F074EC6A
:103320000BF02A9E928A80BA15D0140EF76FCFEC5C
:1033300005F0928A80BA0DD029B60BD031062F063F
:10334000010E2F24306E29861E0EF76FCFEC05F08C
:103350002A8E01D02996968084B015D0140EF76F6E
:10336000CFEC05F0968084B00DD029BA0BD0312A6D
:103370002F2A010E2F5C306E298A1E0EF76FCFECBC
:1033800005F02A8E01D0299A3150335C08E2472A91
:1033900031C033F0020E335C326E040E2F6E3250A9
:1033A000315C08E2470631C032F0020E3224336E3F
:1033B000020E2F6E31502C5C09E22DC031F0020E4E
:1033C0002F6E476A31C032F03224336E2D50315C9B
:1033D0000BE22CC031F0040E2F6E2C5C476E31C016
:1033E00033F0020E335C326E47BE01D001D0476A23
:1033F000968284B223D0140EF76FCFEC05F096823C
:1034000084B21AD029B818D0298831C02BF0030E05
:103410002F6E020EE06F960EF76FCFEC05F0E02FE7
:10342000FAD70C0EF16F74EC0BF02B50060804E188
:103430004B6A4C6A4D6A4E6A2A8E01D0299896844E
:1034400084B416D0140EF76FCFEC05F0968484B4D4
:103450000FD0020EE06FFA0EF76FCFEC05F0E02F01
:10346000FAD7320E2B6E0C0EF16F74EC0BF02A8E25
:103470002B500208D8A42CD102EC00F0010EF26F00
:10348000F36F3FEC0BF0D40EF66E060EF76EA7EC62
:103490000BF0010EF26F020EF36F3FEC0BF0EA0E31
:1034A000F66E060EF76EA7EC0BF0060EF26F030E2B
:1034B000F36F3FEC0BF03CC0E0F0030EE16F0EEC5D
:1034C0000CF03A0EF16F74EC0BF03DC0E0F0010E21
:1034D000E16F0EEC0CF0090EF66E070EF76E080E9B
:1034E000E46FEBEC0BF0060E4124E06FF26F040E7C
:1034F000F36F3FEC0BF04AC0F1F074EC0BF02A9E36
:10350000928A80BA26D0140EF76FCFEC05F0928A1B
:1035100080BA1FD0412C0DD03C50EF080AE3050EB5
:103520003C26020EE06F960EF76FCFEC05F0E02F11
:10353000FAD7415004080CE13D503A0809E33D2A0E
:10354000020EE06F960EF76FCFEC05F0E02FFAD782
:103550002A8E968084B024D0140EF76FCFEC05F03D
:10356000968084B01DD0412C0CD03C520AE0050E50
:103570003C5E020EE06F960EF76FCFEC05F0E02F89
:10358000FAD7415004080BE13D5209E03D06020E16
:10359000E06F960EF76FCFEC05F0E02FFAD72A8E8A
:1035A000968284B21ED0140EF76FCFEC05F096828F
:1035B00084B217D0412C03D0040E416E05D0415087
:1035C000040802E1010E416E020EE06FFA0EF76F81
:1035D000CFEC05F0E02FFAD70C0EF16F74EC0BF086
:1035E0002A8E968484B474D0968484B471D0C80E24
:1035F000F76FCFEC05F00C0EF16F74EC0BF0010ED1
:10360000F26F020EF36F3FEC0BF0120EF66E070E28
:10361000F76EA7EC0BF0010EF26F030EF36F3FECA9
:103620000BF0240EF66E070EF76EA7EC0BF0050EEE
:10363000A96E3CC0A8FFA69CA69EA684F250006E70
:10364000F29CF29E0F01550EA76EAA0EA76EA682DF
:10365000A6B2FED7A6940050F212140E0001F76F26
:10366000CFEC05F0060EA96E3DC0A8FFA69CA69E55
:10367000A684F250006EF29CF29E0F01550EA76ECA
:10368000AA0EA76EA682A6B2FED7A6940050F2128A
:10369000140E0001F76FCFEC05F03CC03AF03DC0CE
:1036A0003BF0040EE06FAF0EF76FCFEC05F0E02FAC
:1036B000FAD71E0EF76FCFEC05F0010E2B6E476A9E
:1036C000020E2F6E316E0C0EF16F74EC0BF02A8E21
:1036D0002B500308D8A4A5D102EC00F0010EF26F24
:1036E000F36F3FEC0BF0360EF66E070EF76EA7EC9D
:1036F0000BF0010EF26F020EF36F3FEC0BF04C0E6D
:10370000F66E070EF76EA7EC0BF0010EF26F030ECC
:10371000F36F3FEC0BF0620EF66E070EF76E0A0EBB
:10372000E46FEBEC0BF04BC0E0F01F0EE16F17EC19
:103730000DF04CC0E0F01F0EE16F17EC0DF04DC026
:10374000E0F01F0EE16F17EC0DF04EC0E0F01F0E21
:10375000E16F17EC0DF0200EF16F74EC0BF0200E02
:10376000F16F74EC0BF02EC0F2F0040EF36F3FEC2F
:103770000BF04AC0F1F074EC0BF02E500B080FE286
:103780002E500D080CE3010E2E5CE06FF26F040E5C
:10379000F36F3FEC0BF049C0F1F074EC0BF02A9E94
:1037A000928A80BA19D0140EF76FCFEC05F0928A86
:1037B00080BA11D029B60FD00B0E2E5C036A4B0FC6
:1037C000E96E000E0320EA6EEF2A29861E0EF76FBF
:1037D000CFEC05F02A8E01D02996968084B019D0BE
:1037E000140EF76FCFEC05F0968084B011D029BA93
:1037F0000FD00B0E2E5C036A4B0FE96E000E0320F8
:10380000EA6EEF06298A1E0EF76FCFEC05F02A8EBE
:1038100001D0299A968284B215D0140EF76FCFEC9E
:1038200005F0968284B20DD029B80BD029882E2AB3
:103830001E0EF76FCFEC05F00C0EF16F74EC0BF071
:103840002A8E01D02998968484B415D0960EF76FED
:10385000CFEC05F0968484B40DD029BC0BD0298C14
:103860002E061E0EF76FCFEC05F00C0EF16F74EC08
:103870000BF02A8E01D0299C0B0E2E5C036A4B0F95
:10388000E96E000E0320EA6EEFBE01D00AD00B0EE7
:103890002E5C036A4B0FE96E000E0320EA6E090EE0
:1038A000EF6E0B0E2E5C036A4B0FE96E000E0320C9
:1038B000EA6EEFBE0CD0EF50090809E20B0E2E5C49
:1038C000036A4B0FE96E000E0320EA6EEF6A2E507A
:1038D0000A0810E30B0E2E6E010E2B6E476A4B6A20
:1038E0004C6A4D6A4E6A2A8E0B0E2E6E0C0EF16FCC
:1038F00074EC0BF02E500E08D8B093D04F504B5CA8
:103900004EE150504C5C4BE151504D5C48E15250FF
:103910004E5C45E1010EF26FF36F3FEC0BF0780E59
:10392000F66E070EF76EA7EC0BF0010EF26F020EAB
:10393000F36F3FEC0BF08E0EF66E070EF76EA7ECF2
:103940000BF0010EF26F030EF36F3FEC0BF0A40EC1
:10395000F66E070EF76EA7EC0BF0010EF26F040E79
:10396000F36F3FEC0BF0BA0EF66E070EF76EA7EC96
:103970000BF0020EE06FFA0EF76FCFEC05F0E02FC0
:10398000FAD73D0E2B6E0B0E2E6E0C0EF16F74ECF3
:103990000BF04B6A4C6A4D6A4E6A2A8E42D0010E79
:1039A000F26FF36F3FEC0BF0D00EF66E070EF76E72
:1039B000A7EC0BF0010EF26F020EF36F3FEC0BF071
:1039C000E60EF66E070EF76EA7EC0BF0010EF26F27
:1039D000030EF36F3FEC0BF0FC0EF66E070EF76E66
:1039E000A7EC0BF0010EF26F040EF36F3FEC0BF03F
:1039F000120EF66E080EF76EA7EC0BF0020EE06FDB
:103A0000FA0EF76FCFEC05F0E02FFAD70B0E2E6E03
:103A10000C0EF16F74EC0BF02A8E4B6A4C6A4D6AF7
:103A20004E6A2B503D08D8A4C8D102EC00F0010E1C
:103A3000F26FF36F3FEC0BF0280EF66E080EF76E88
:103A4000A7EC0BF0010EF26F020EF36F3FEC0BF0E0
:103A50003E0EF66E080EF76EA7EC0BF0010EF26F3D
:103A6000030EF36F3FEC0BF0540EF66E080EF76E7C
:103A70000A0EE46FEBEC0BF04BC0E0F01F0EE16FB1
:103A800017EC0DF04CC0E0F01F0EE16F17EC0DF0DD
:103A90004DC0E0F01F0EE16F17EC0DF04EC0E0F0EE
:103AA0001F0EE16F17EC0DF0200EF16F74EC0BF0B0
:103AB000200EF16F74EC0BF02EC0F2F0040EF36FD9
:103AC0003FEC0BF04AC0F1F074EC0BF02E500B08F9
:103AD0000FE22E500D080CE3010E2E5CE06FF26F2A
:103AE000040EF36F3FEC0BF049C0F1F074EC0BF0F7
:103AF0002A9E928A80BA19D0140EF76FCFEC05F087
:103B0000928A80BA11D029B60FD00B0E2E5C036AB0
:103B10004B0FE96E000E0320EA6EEF2A29861E0E77
:103B2000F76FCFEC05F02A8E01D02996968084B0ED
:103B300019D0140EF76FCFEC05F0968084B011D039
:103B400029BA0FD00B0E2E5C036A4B0FE96E000EE4
:103B50000320EA6EEF06298A1E0EF76FCFEC05F000
:103B60002A8E01D0299A968284B211D0968284B28C
:103B70000DD029B80BD029882E2A1E0EF76FCFEC56
:103B800005F00C0EF16F74EC0BF02A8E01D0299821
:103B9000968484B415D0960EF76FCFEC05F096841A
:103BA00084B40DD029BC0BD0298C2E061E0EF76FC5
:103BB000CFEC05F00C0EF16F74EC0BF02A8E01D0F7
:103BC000299C0B0E2E5C036A4B0FE96E000E03203E
:103BD000EA6EEFBE01D00AD00B0E2E5C036A4B0FCB
:103BE000E96E000E0320EA6E090EEF6E0B0E2E5CDE
:103BF000036A4B0FE96E000E0320EA6EEFBE0CD095
:103C0000EF50090809E20B0E2E5C036A4B0FE96EB8
:103C1000000E0320EA6EEF6A2E500A080FE30B0E27
:103C20002E6E010E2B6E4B6A4C6A4D6A4E6A2A8EBE
:103C30000B0E2E6E0C0EF16F74EC0BF02E500E0866
:103C4000D8B0BBD0010EF26FF36F3FEC0BF06A0EF1
:103C5000F66E080EF76EA7EC0BF0010EF26F020E77
:103C6000F36F3FEC0BF0800EF66E080EF76EA7ECCC
:103C70000BF0010EF26F030EF36F3FEC0BF0960E9C
:103C8000F66E080EF76EA7EC0BF0010EF26F040E45
:103C9000F36F3FEC0BF0AC0EF66E080EF76EA7EC70
:103CA0000BF0A96A4BC0A8FFA69CA69EA684F25062
:103CB000006EF29CF29E0F01550EA76EAA0EA76E23
:103CC000A682A6B2FED7A6940050F212140E0001EE
:103CD000F76FCFEC05F0010EA96E4CC0A8FFA69CB3
:103CE000A69EA684F250006EF29CF29E0F01550E25
:103CF000A76EAA0EA76EA682A6B2FED7A694005003
:103D0000F212140E0001F76FCFEC05F0020EA96E4F
:103D10004DC0A8FFA69CA69EA684F250006EF29C01
:103D2000F29E0F01550EA76EAA0EA76EA682A6B22E
:103D3000FED7A6940050F212140E0001F76FCFECDC
:103D400005F0030EA96E4EC0A8FFA69CA69EA684F1
:103D5000F250006EF29CF29E0F01550EA76EAA0E55
:103D6000A76EA682A6B2FED7A6940050F212140E39
:103D70000001F76FCFEC05F0020EE06FFA0EF76F5F
:103D8000CFEC05F0E02FFAD7010E2B6E476A020E3A
:103D90002F6E316E4BC04FF04CC050F04DC051F003
:103DA0004EC052F04B6A4C6A4D6A4E6A2A8E0B0E18
:103DB0002E6E0C0EF16F74EC0BF02B500408D8A48F
:103DC0000DD102EC00F0010EF26FF36F3FEC0BF03F
:103DD000C20EF66E080EF76EA7EC0BF0010EF26F36
:103DE000020EF36F3FEC0BF0D80EF66E080EF76E76
:103DF0000B0EE46FEBEC0BF0080EE96E5BC0E1F02C
:103E00005AC0E0F0D7EC0DF0200EF16F74EC0BF01F
:103E1000200EF16F74EC0BF0200EF16F74EC0BF0D0
:103E2000010EF26F040EF36F3FEC0BF0EC0EF66E2A
:103E3000080EF76EA7EC0BF02A9E928A80BAACD0DF
:103E4000968284B2A9D0140EF76FCFEC05F0928A57
:103E500080BAA2D0968284B29FD0C80EF76FCFEC02
:103E600005F00C0EF16F74EC0BF0010EF26F020E08
:103E7000F36F3FEC0BF0020EF66E090EF76EA7EC37
:103E80000BF0010EF26F030EF36F3FEC0BF0140E0C
:103E9000F66E090EF76EA7EC0BF0070EA96EA86A76
:103EA000A69CA69EA684F250006EF29CF29E0F0184
:103EB000550EA76EAA0EA76EA682A6B2FED7A6942E
:103EC0000050F212140E0001F76FCFEC05F0080E4F
:103ED000A96EA86AA69CA69EA684F250006EF29CCB
:103EE000F29E0F01550EA76EAA0EA76EA682A6B26D
:103EF000FED7A6940050F212140E0001F76FCFEC1B
:103F000005F0090EA96EA86AA69CA69EA684F2508A
:103F1000006EF29CF29E0F01550EA76EAA0EA76EC0
:103F2000A682A6B2FED7A6940050F212140E00018B
:103F3000F76FCFEC05F00A0EA96EA86AA69CA69EA4
:103F4000A684F250006EF29CF29E0F01550EA76EF1
:103F5000AA0EA76EA682A6B2FED7A6940050F212B1
:103F6000040E0001E06FAF0EF76FCFEC05F0E02F0D
:103F7000FAD7346A356A5B6A5A6A1E0EF76FCFEC5D
:103F800005F0010E2B6E476A020E2F6E316E0C0E7D
:103F9000F16F74EC0BF02A8E968484B41ED0140E4C
:103FA000F76FCFEC05F0968484B416D029BC14D0FA
:103FB000298C020EE06FFA0EF76FCFEC05F0E02FC0
:103FC000FAD7010E2B6E476A020E2F6E316E0C0E61
:103FD000F16F74EC0BF02A8E01D0299C2B50050850
:103FE000D8A42CD102EC00F0010EF26FF36F3FEC7D
:103FF0000BF0260EF66E090EF76EA7EC0BF0010E15
:10400000F26F020EF36F3FEC0BF0050EE06F70ECF9
:1040100010F000C0E0F001C0E1F002C0E2F003C027
:10402000E3F003C0F7F002C0F6F001C0F5F000C005
:10403000F4F0D70EFB6FA30EFA6FF96B810EF86FD9
:1040400047EC11F000C0E0F001C0E1F002C0E2F086
:1040500003C0E3F03C0EF66E090EF76E090EE46F36
:10406000EBEC0BF0020EE96EE3C0E7F0E2C0E6F025
:10407000E1C0E5F0E0C0E4F0E86F1DEC12F04A0E9C
:10408000F66E090EF76E070EE46FEBEC0BF0010E07
:10409000F26F030EF36F3FEC0BF0F16B30EC0EF0B0
:1040A00000C0E0F001C0E1F002C0E2F003C0E3F0C4
:1040B000520EF66E090EF76E080EE46FEBEC0BF085
:1040C000010EE96EE3C0E7F0E2C0E6F0E1C0E5F022
:1040D000E0C0E4F0E86B1DEC12F0010EF26F040E8C
:1040E000F36F3FEC0BF0600EF66E090EF76E070EE5
:1040F000E46FEBEC0BF0010EE96EC1C0E7F0C0C05D
:10410000E6F0BFC0E5F0BEC0E4F0E86B1DEC12F0D5
:104110002A9E968284B272D0140EF76FCFEC05F00F
:10412000968284B26AD029B868D0010E2B6E476A95
:10413000020E2F6E316E0B0E2E6E020EE06FFA0E17
:10414000F76FCFEC05F0E02FFAD70C0EF16F74EC9F
:104150000BF0F16B30EC0EF003C0C1F002C0C0F008
:1041600001C0BFF000C0BEF0C1C0F7F0C0C0F6F0A3
:10417000BFC0F5F0BEC0F4F0E0EC12F002C05DF09C
:1041800001C05CF05CC038F05DC039F00B0EA96E68
:1041900038C0A8FFA69CA69EA684F250006EF29C92
:1041A000F29E0F01550EA76EAA0EA76EA682A6B2AA
:1041B000FED7A6940050F212140E0001F76FCFEC58
:1041C00005F00C0EA96E39C0A8FFA69CA69EA68479
:1041D000F250006EF29CF29E0F01550EA76EAA0ED1
:1041E000A76EA682A6B2FED7A6940050F212140EB5
:1041F0000001F76FCFEC05F02A8E01D02998968444
:1042000084B41BD0140EF76FCFEC05F0968484B401
:1042100013D029BC11D0010E2B6E476A020E2F6EEF
:10422000316E0B0E2E6E1E0EF76FCFEC05F00C0EDE
:10423000F16F74EC0BF02A8E01D0299C2B500608EC
:10424000D8A494D02A782988010E2B6E476A2AA810
:1042500030D02A88010EF26FF36F3FEC0BF06E0E38
:10426000F66E090EF76EA7EC0BF0010EF26F020E60
:10427000F36F3FEC0BF0840EF66E090EF76EA7ECB1
:104280000BF0010EF26F030EF36F3FEC0BF09A0E82
:10429000F66E090EF76EA7EC0BF0010EF26F040E2E
:1042A000F36F3FEC0BF0B00EF66E090EF76EA7EC55
:1042B0000BF02AB830D02A98010EF26FF36F3FEC62
:1042C0000BF0C60EF66E090EF76EA7EC0BF0010EA2
:1042D000F26F020EF36F3FEC0BF0DC0EF66E090E80
:1042E000F76EA7EC0BF0010EF26F030EF36F3FECCD
:1042F0000BF0F20EF66E090EF76EA7EC0BF0010E46
:10430000F26F040EF36F3FEC0BF0080EF66E0A0E20
:10431000F76EA7EC0BF0000E2AB8010EE06F040E4A
:10432000A96EE0C0A8FFA69CA69EA684F250006ECF
:10433000F29CF29E0F01550EA76EAA0EA76EA682E2
:10434000A6B2FED7A6940050F212040E0001E06F50
:10435000FA0EF76FCFEC05F0E02FFAD7020E2F6EB2
:10436000316E0C0EF16F74EC0BF02A8E2B50070897
:10437000D8A4CBD05750140802E2140E576E5752EF
:1043800002E1010E576E010EF26FF36F3FEC0BF07E
:104390001E0EF66E0A0EF76EA7EC0BF0010EF26F12
:1043A000020EF36F3FEC0BF0340EF66E0A0EF76E52
:1043B000A7EC0BF0010EF26F030EF36F3FEC0BF066
:1043C0004A0EF66E0A0EF76E0A0EE46FEBEC0BF077
:1043D00057C0E0F0010EE16F0EEC0CF0580EF66ED7
:1043E0000A0EF76E070EE46FEBEC0BF0010EF26FA6
:1043F000040EF36F3FEC0BF0600EF66E0A0EF76ED4
:10440000A7EC0BF0928A80BA08D05750130805E346
:10441000C80EF76FCFEC05F0572A968084B007D00E
:10442000575205E0C80EF76FCFEC05F0570696829D
:1044300084B202D057C0D1F0968484B466D0640EA2
:10444000F76FCFEC05F0020E2F6E316E0C0EF16F90
:1044500074EC0BF00D0EA96E57C0A8FFA69CA69E8B
:10446000A684F250006EF29CF29E0F01550EA76ECC
:10447000AA0EA76EA682A6B2FED7A6940050F2128C
:10448000140E0001F76FCFEC05F0010EF26FF36F21
:104490003FEC0BF0760EF66E0A0EF76EA7EC0BF003
:1044A000010EF26F020EF36F3FEC0BF08C0EF66E06
:1044B0000A0EF76EA7EC0BF0010EF26F030EF36F0E
:1044C0003FEC0BF0A20EF66E0A0EF76EA7EC0BF0A7
:1044D000010EF26F040EF36F3FEC0BF0B80EF66EA8
:1044E0000A0EF76EA7EC0BF0040EE06FFA0EF76FF2
:1044F000CFEC05F0E02FFAD70C0EF16F74EC0BF057
:1045000017EC06F0010E2B6E476A2B503208D8A428
:104510003EEF26F02AA097D12A90080EE06F70ECAB
:1045200010F003C0BDF002C0BCF001C0BBF000C081
:10453000BAF0F76BF66B200EF56F820EF46FB9C010
:10454000FBF0B8C0FAF0B7C0F9F0B6C0F8F04EEC26
:1045500008F001E20EE1010EF26FF36F3FEC0BF099
:10456000CE0EF66E0A0EF76EA7EC0BF0010E536E30
:1045700020D0010EF26FF36F3FEC0BF0E40EF66EFD
:104580000A0EF76E080EE46FEBEC0BF0080EE96E06
:10459000D0C0E1F0CFC0E0F0D7EC0DF0F10EF66E38
:1045A0000A0EF76E070EE46FEBEC0BF08B90949015
:1045B000536AF96B57C0F8F064EC06F000C0E0F005
:1045C00001C0E1F002C0E2F003C0E3F0F96B46C0C5
:1045D000F8F064EC06F0D882E3C0FBF0E2C0FAF039
:1045E000E1C0F9F0E0C0F8F003C0FFF002C0FEF057
:1045F00001C0FDF000C0FCF02FEC0FF000C0E0F0B7
:1046000001C0E1F002C0E2F003C0E3F0F96B46C084
:10461000F8F064EC06F0D882FB6BFA6B200EF96FB1
:10462000830EF86F03C0FFF002C0FEF001C0FDF082
:1046300000C0FCF02FEC0FF0E3C0F7F0E2C0F6F0A2
:10464000E1C0F5F0E0C0F4F003C0FBF002C0FAF006
:1046500001C0F9F000C0F8F05BEC0EF0F76BF66B00
:10466000300EF56F820EF46F03C0FBF002C0FAF05B
:1046700001C0F9F000C0F8F047EC11F003C0B9F048
:1046800002C0B8F001C0B7F000C0B6F0406AB9C0CF
:10469000E3F0B8C0E2F0B7C0E1F0B6C0E0F099ECEA
:1046A00014F000C0E0F001C0E1F002C0E2F003C08D
:1046B000E3F0F96B40C0F8F064EC06F003C0F7F0EB
:1046C00002C0F6F001C0F5F000C0F4F0E3C0FBF06A
:1046D000E2C0FAF0E1C0F9F0E0C0F8F04EEC08F00A
:1046E0000EE3080E4024E06FF26F020EF36F3FEC12
:1046F0000BF0D10EF16F74EC0BF0402AC8D7B9C0A3
:10470000E3F0B8C0E2F0B7C0E1F0B6C0E0F099EC79
:1047100014F003C0F7F002C0F6F001C0F5F000C0DD
:10472000F4F0E0EC12F001C040F040500A080EE353
:10473000080E4024E06FF26F020EF36F3FEC0BF0B7
:10474000200EF16F74EC0BF0402AEFD7090EF26FD8
:10475000030EF36F3FEC0BF0FA0EF66E0A0EF76ED7
:10476000060EE46FEBEC0BF03AC0E0F0030EE16FE5
:104770000EEC0CF03A0EF16F74EC0BF03BC0E0F075
:10478000010EE16F0EEC0CF002EC00F0010EF26F86
:10479000020EF36F3FEC0BF00A0EF66E0B0EF76E87
:1047A000A7EC0BF029A40DD0010EF26F040EF36FED
:1047B0003FEC0BF0120EF66E0B0EF76EA7EC0BF043
:1047C0000CD0010EF26F040EF36F3FEC0BF01C0ED9
:1047D000F66E0B0EF76EA7EC0BF029A20DD0010EB2
:1047E000F26F030EF36F3FEC0BF0260EF66E0B0E1E
:1047F000F76EA7EC0BF00CD0010EF26F030EF36F07
:104800003FEC0BF02E0EF66E0B0EF76EA7EC0BF0D6
:1048100029A00DD00D0EF26F040EF36F3FEC0BF0DC
:10482000360EF66E0B0EF76EA7EC0BF00CD00D0EDD
:10483000F26F040EF36F3FEC0BF03E0EF66E0B0EB4
:10484000F76EA7EC0BF029AE4CD02AA845D00C0E81
:10485000F16F74EC0BF0010EF26F020EF36F3FEC90
:104860000BF0460EF66E0B0EF76EA7EC0BF0010E7A
:10487000F26F030EF36F3FEC0BF05C0EF66E0B0E57
:10488000F76EA7EC0BF0010EF26F040EF36F3FEC26
:104890000BF0720EF66E0B0EF76EA7EC0BF0010E1E
:1048A000F26FF36F3FEC0BF0880EF66E0B0EF76EA7
:1048B000A7EC0BF0406A405004080EE38B80949004
:1048C000C80EF76FCFEC05F08B909490C80EF76F81
:1048D000CFEC05F0402AEFD7299E0C0EF16F74EC57
:1048E0000BF029A20FD08A9893982AB40AD017EC1B
:1048F00006F0C80EF76FCFEC05F017EC06F02A842F
:104900002A8E0ED08A8893982AA40AD017EC06F033
:10491000C80EF76FCFEC05F017EC06F02A942A8E3C
:104920002A9E29A415D0C2B110D0060ED16F17EC63
:1049300006F0C80EF76FCFEC05F017EC06F0C28159
:104940002A8EC80EF76FCFEC05F057C0D1F00DD00E
:10495000D16BC2A10AD017EC06F0C80EF76FCFECEE
:1049600005F017EC06F0C2912A8E29A20FD08A9882
:1049700093982AB40AD017EC06F0C80EF76FCFEC64
:1049800005F017EC06F02A842A8E0ED08A889398B8
:104990002AA40AD017EC06F0C80EF76FCFEC05F08A
:1049A00017EC06F02A942A8E29A055D08A96939661
:1049B000299E2994D16B29928A8893982AB24AD049
:1049C00017EC06F0C80EF76FCFEC05F017EC06F009
:1049D0002A82010E436E2A8E000E29B4010EE06F6A
:1049E000160EA96EE0C0A8FFA69CA69EA684F25053
:1049F000006EF29CF29E0F01550EA76EAA0EA76ED6
:104A0000A682A6B2FED7A6940050F212140E0001A0
:104A1000F76FCFEC05F0000E29B2010EE06F170E14
:104A2000A96EE0C0A8FFA69CA69EA684F250006EC8
:104A3000F29CF29E0F01550EA76EAA0EA76EA682DB
:104A4000A6B2FED7A6940050F212140E0001F76F22
:104A5000CFEC05F011D029908A8693962AA20CD02B
:104A600017EC06F0C80EF76FCFEC05F017EC06F068
:104A70002A92010E436E2A8EC85303E1C7513B08A8
:104A800029E229B626D029722986000E29B2010E04
:104A9000E06F170EA96EE0C0A8FFA69CA69EA68494
:104AA000F250006EF29CF29E0F01550EA76EAA0EF8
:104AB000A76EA682A6B2FED7A6940050F212020EEE
:104AC0000001E06F960EF76FCFEC05F0E02FFAD7FC
:104AD0002A8E01D02996CA5303E1C9513B0829E225
:104AE00029BA26D02974298A000E29B4010EE06F54
:104AF000160EA96EE0C0A8FFA69CA69EA684F25042
:104B0000006EF29CF29E0F01550EA76EAA0EA76EC4
:104B1000A682A6B2FED7A6940050F212020E0001A1
:104B2000E06F960EF76FCFEC05F0E02FFAD72A8EE4
:104B300001D0299ACC5303E1CB513B080AE229BCAE
:104B400007D0960EF76FCFEC05F029702A8E298CCE
:104B500001D0299CC65303E1C5513B081BE229B88B
:104B600018D0C80EF76FCFEC05F00C0EF16F74EC97
:104B70000BF0020EE06F960EF76FCFEC05F0E02F12
:104B8000FAD7010E2B6E476A020E2F6E316E2A8EF7
:104B9000298801D02998432C65D0070EA96E34C00E
:104BA000A8FFA69CA69EA684F250006EF29CF29EE0
:104BB0000F01550EA76EAA0EA76EA682A6B2FED74B
:104BC000A6940050F212080EA96E35C0A8FFA69C4C
:104BD000A69EA684F250006EF29CF29E550EA76E21
:104BE000AA0EA76EA682A6B2FED7A6940050F21215
:104BF0005AC036F05BC037F0090EA96E36C0A8FF68
:104C0000A69CA69EA684F2CF00F0F29CF29E550EC2
:104C1000A76EAA0EA76EA682A6B2FED7A6940050D3
:104C2000F212140E0001F76FCFEC05F00A0EA96E18
:104C300037C0A8FFA69CA69EA684F250006EF29CE8
:104C4000F29E0F01550EA76EAA0EA76EA682A6B2FF
:104C5000FED7A6940050F212140E0001F76FCFECAD
:104C600005F0436A34503B0802E2346A352A355075
:104C70003C0804E1356A5A2AD8B45B2A42503B0802
:104C80000CE20C0EF16F74EC0BF017EC06F0C80E92
:104C9000F76FCFEC05F0426A2A8E00EF17F00300A1
:020000040030CA
:0E0000003C0E391E000180000FC00FE00F40C3
:00000001FF
;PIC18F4550
;CRC=05C1  CREATED="28-oct.-20 13:47"
